:1000000080312E28080055347E14803120007F086E
:10001000F6000B1F14282100911D14282000911DAB
:10002000142891315A2180310B1F1F282100121DE5
:100030001F282000121D1F288031022080310B1F35
:1000400029282100921D29282000921D292882316B
:10005000FE2276082000FF007E1009008031302843
:100060003E30840084308500F030860026308700E2
:100070000130FF0000309031C620803180310320F4
:100080008031FD00AF308400903085002E30860036
:10009000013087000030FF000B309031C6208031E6
:1000A000F701F801F901FA01FB01FC01EF01D5307C
:1000B0008400003085001A30FE000030FF009031CF
:1000C000BA20803120308400013085000E30FE00DF
:1000D0000030FF009031BA207E102000803170285F
:1000E0009031E92080318B170B172100BA01BB0139
:1000F00022000E150E138E138E1100302000A0006A
:100100009830A1009131012180310D302000ED00A7
:100110002D30EC00E230EB00EB0B8C28EC0B8C2844
:10012000ED0B8C28003222000E170D302000ED0060
:100130002D30EC00E230EB00EB0B9C28EC0B9C2804
:10014000ED0B9C28003222008E1715302000ED00A8
:100150004B30EC00D130EB00EB0BAC28EC0BAC28B7
:10016000ED0BAC28000022008E1529302000ED0098
:100170009630EC00A630EB00EB0BBC28EC0BBC2857
:10018000ED0BBC282A302000A0009830A10091314E
:100190000121803115302000ED004B30EC00D130D2
:1001A000EB00EB0BD128EC0BD128ED0BD128000094
:1001B000CB302000ED00ED30EC004C30EB00EB0BD1
:1001C000DF28EC0BDF28ED0BDF28003200302100A8
:1001D000A9000030A8000030A7000030A600530896
:1001E0000C3E933104238031200023082100CC00F1
:1001F000200022082100CB00200021082100CA0095
:10020000200020082100C9005308083E9331042330
:100210008031200023082100AD00200022082100A9
:10022000AC00200021082100AB00200020082100A4
:10023000AA005308103E9331042380312000230884
:100240002100D000200022082100CF00200021083A
:100250002100CE00200020082100CD000A30BC0083
:100260000030BD005008B1004F08B0004E08AF008C
:100270004D08AE000030B5000030B4000030B300CF
:100280000030B2002E30860001308700A03084009C
:100290000030850006302000EB0016001A00EB0B42
:1002A0004D290030A3000030A2000030A10018301A
:1002B000A00021004C082000A70021004B082000CE
:1002C000A60021004A082000A500210049082000BE
:1002D000A40094312C24803120002008013E21000C
:1002E000BE0000302000213D2100BF000030B900D9
:1002F0000030B8000030B7000030B6000130C00058
:100300000030C100C201C30187315E2780310D304A
:100310002000CB009830CC007730CD000730CE00E5
:100320009131FC2180310D302000CB009830CC0081
:100330000030CD00CE009131FC21803122000E1121
:100340003430860001308700C430840000308500DE
:1003500005302000EB0016001A00EB0BAB29C4306F
:10036000EB006B082100D400192A3A3086002730B0
:10037000870001082000EB006B08AE00AF01AF0A58
:100380002100540895318B25803101302000EB008D
:100390006B082100D4073B30860027308700010816
:1003A0002000EB006B08AE00AF01AF0A210054083B
:1003B00095318B25803101302000EB006B08210046
:1003C000D4073C3086002730870001082000EB006E
:1003D0006B08AE00AF01AF0A2100540895318B25A0
:1003E000803101302000EB006B082100D4073D3044
:1003F00086002730870001082000EB006B08AE0064
:10040000AF01AF0A2100540895318B2580310130AE
:100410002000EB006B082100D40702302000EB0025
:100420006B08AE00AF01AF0A2100540895318B254F
:100430008031C4302000EB006B082100D4003E3036
:10044000860027308700023001060319B5293E30A7
:100450008600273087000103031D192A2100D101DE
:10046000D20127302000A0009830A1009131012155
:1004700080314A302000A0009830A1009131012144
:1004800080313A3086002730870001089231C4223B
:1004900080313B3086002730870001089231C4222A
:1004A000803127302000A0009830A1009131012137
:1004B00080313A3086002730870001082000EB00A9
:1004C0006B08AE00AF01AF0A2100540895318B25AF
:1004D000803101302000EB006B082100D4073B3055
:1004E00086002730870001082000EB006B08AE0073
:1004F000AF01AF0A2100540895318B2580310130BE
:100500002000EB006B082100D407C8302000EB006E
:100510006B082100D4002000AE01AE0AAF01AF0A83
:100520002100540895318B2580310B302000EC00E0
:100530006230EB00EB0B9A2AEC0B9A2A0000C630D3
:100540002000EB006B082100D4003C3086002730EF
:10055000870001082000EB006B08CA00CB01CB0A22
:10056000210054089331442380312000EC00ED0138
:100570006C08ED00EC016C082100D10420006D082E
:100580002100D20401302000EB006B082100D407C9
:100590003D3086002730870001082000EB006B0803
:1005A000CA00CB01CB0A2100540893314423803187
:1005B0002000EC00ED016C082100D10420006D0842
:1005C0002100D20455302000A0009830A1009131C4
:1005D00001218031210052082000A2002100510891
:1005E0002000A10085313E25803127302000A00069
:1005F0009830A100913101218031192A20009211F7
:1006000024009D1F332C9D13F8017908023E8600BB
:1006100087010108860087018101810AF90108002C
:100620002100D71808005608F2007208F900560891
:10063000860087010108F2007208EB005608860068
:100640008701413FFA000330F2007208D6075608CE
:10065000EF3A031D2F2BEC30F2007208D600571032
:10066000560855060319D71424001E140230F20050
:100670007208F800080024009E140230F20072088C
:10068000F800080024001E1F4E2B0130F2007208F3
:100690002100D90704309031D22008007C08F300F3
:1006A0007B08F200F336F20C7208240099007B1CE0
:1006B0005E2B0B30F2007208F80008000330F200E5
:1006C0007208F800080024001E1F6F2B0130F20092
:1006D00072082100D90704309031D22008009E14FE
:1006E0007C08F3007B08F2007308F200F301063087
:1006F0007205F40000307305F500F0307404FB005F
:1007000000307504FC007B142100E901E90A023085
:10071000F2007208F8000800210069030319A82BF1
:100720007A08860001308700403FFB00413FFC0013
:100730007A08033E860001308700403FE600413FD3
:10074000E7007A088600013087000130423FEA0066
:100750007B08240099007B1CB22B0530F200720844
:10076000F80008000330F2007208F80008002400C6
:100770001E1FC52B0130F20072082100D90724008A
:100780001E1305309031D220080001302100EA020A
:100790006A0A031DDE2B0530F2007208FA070130E9
:1007A000EB02031DD72B00309031D220080024002B
:1007B0009E140230F2007208F8000800210066085A
:1007C0008600670887000108240099000130210095
:1007D000E6070030E73D080024001E1FFA2B013019
:1007E000F20072082100D90704309031D220240091
:1007F0001E1308009E150830F2007208F800080069
:100800000830F2007208F80024009E15080021004C
:1008100066088600670887002400190881000130F7
:100820002100E6070030E73D0130EA0203191F2CE2
:1008300024009E120630F2007208F800232C2400D7
:100840009E168831002024001E16080000309031CA
:10085000D22008000130F20072082100D9070630CA
:100860009031D2200800780884000C30040203186C
:100870002A2C90310435003E8200080003340434F1
:1008800007340234003400340034413408348034F6
:1008900000340634FF3400340034003400340034B3
:1008A000093400344C344F3452344F344D342034F6
:1008B00049344E3444345534533454345234493426
:1008C00041344C340034FC342E342D344C34523406
:1008D0004834533450344234303432344434303475
:1008E0003334303420342034203420343034303425
:1008F00001340034003400340034CB34003400348C
:10090000673400344C345234463431343634303465
:1009100032343334303430343034313420342034D1
:1009200020342034313436343034313430343834B7
:1009300020342034003404340834043401340034C6
:100940000034003400340034003400340034003407
:1009500000340034003400340034003400340034F7
:1009600000340034003400340034003400340034E7
:1009700000340034003400340034003400340034D7
:1009800000340034003400340034003400340034C7
:1009900000340034003400340034003400340034B7
:1009A00000340034003400340034003400340034A7
:1009B0000034003400340034003400340034003497
:1009C0000034003400340034003400340034003487
:1009D0000034003400340034003400340034003477
:1009E0000034003400340034003400343034303407
:1009F0000034003400340034003400340034003457
:100A00000034003400340034003400340034003446
:100A10000034003400340034003400340034003436
:100A20000034003400340034003400340034003426
:100A30000034003400340034003400340034003416
:100A40000034003400340034003400340034003406
:100A500000340034003400340034003400340034F6
:100A600000340034003400340034003400340034E6
:100A700000340034003400340034003420002208F4
:100A8000A4002108A3000430A436A30C890B442D34
:100A90000430A436A30C890B492D0430A436A30CD2
:100AA000890B4E2D2308A5002508AD002208A400BF
:100AB0002108A3000430A436A30C890B5B2D04305D
:100AC000A436A30C890B602D2D08A5000330A53595
:100AD000FF3E031D672D2535FF3A013E2307A60083
:100AE0002608AC002208A4002108A3000430A43684
:100AF000A30C890B772D2D08A5000330A535FF3EEB
:100B0000031D7E2D2535A6000330A635FF3E031DAF
:100B1000852D2635FF3A013E2307A7002C08A800A3
:100B20000330A835FF3E031D912D2835FF3A013EC5
:100B30002707A9002908AB002B08A3000430A33520
:100B4000890B9F2D2C08A4000330A435FF3E031D04
:100B5000A52D2435A5000430A535890BAC2D2D0815
:100B6000A6000330A635FF3E031DB22D2635A70093
:100B70000330A735FF3E031DB92D2735A8000330EC
:100B8000A835FF3E031DC02D283525072307FF3A52
:100B9000013E2107A9002908AA000A302D02031CE2
:100BA000D42D2D08373ED72D20002D08303E903112
:100BB0008B2085310A3020002C02031CE22D2C08EA
:100BC000373EE52D20002C08303E90318B208531BA
:100BD0000A3020002B02031CF02D2B08373EF32D8A
:100BE00020002B08303E90318B2085310A302000C8
:100BF0002A02031C002E2A08373E90318B20080061
:100C000020002A08303E90318B2008002000C900C7
:100C1000C701C8014808803AB10080303102031D85
:100C2000132E300847020318292E200047084907D1
:100C3000B1003108860087010108B2004708333E41
:100C400086008701320881000130C7070030C83DA7
:100C50000A2E20002F08860087010108B100300805
:100C6000333E86008701310881002F0A8600870104
:100C70000108B1003008013E333E8600870131088B
:100C800081003008023EB1003108C6006030A0008B
:100C90009830A10091310121863120004908860059
:100CA000870101089231C42286312000490A86005A
:100CB000870101089231C42286315A302000A000F9
:100CC0009830A10091310121863120002F08860043
:100CD000870101089231C422863120002F0A860044
:100CE000870101089231C42286310D309031832072
:100CF00086310A3090318320863102302000B100E5
:100D00003108CA00EF014A030319AA2E4608B100B0
:100D10003108A7001030A8000030A9004A30B20006
:100D20003208AA0033309131A621863102302000EA
:100D30004A060319962E4A080319AA2E4A030319D4
:100D4000AA2E64306F060319AA2E0130B1003108B3
:100D5000EF07832E4A03031D08000130AF00003067
:100D6000B00008002000E9070030EA3D6A08803A38
:100D7000E70080306702083003196902031C5C2F0A
:100D80002000E901EA016A08803AE7008030670242
:100D900008300319690203180E2F20006908E800C3
:100DA000E7016708643EDD008030683DDE00013009
:100DB000DF000030E0000F30E1000030E2000130E1
:100DC000E3000030E40092312822863120006908D7
:100DD000E800E7016708643EDD008030683DDE0022
:100DE0000130DF000030E0000730E1000030E200B9
:100DF0000130E3000030E4009231282286310130D6
:100E00002000E9070030EA3D6A08803AE7008030B8
:100E10006702083003196902031CCD2E2000E90186
:100E2000EA016A08803AE700803067020830031957
:100E3000690203183B2F20006908E800E7016708F2
:100E4000763ECB008030683DCC008430CD00003051
:100E5000CE009131FC21863101302000E9070030BD
:100E6000EA3D6A08803AE7008030670208300319DB
:100E70006902031C1B2F2000E901EA016A08803A7D
:100E8000E7008030670208300319690288310318CF
:100E90001F2820006908E800E7016708773ECB00BB
:100EA0008030683DCC008230CD001830CE009131CA
:100EB000FC210130883111288F31FC2F2000E901FD
:100EC000EA010030CB009930CC00C030CD009D301D
:100ED000CE009131FC21873101302000CB009930C8
:100EE000CC000430CD002130CE009131FC2187317F
:100EF00002302000CB009930CC001030CD008F3074
:100F0000CE009131FC21873115302000CB00983084
:100F1000CC000030CD00CE009131FC218731023071
:100F20002000DD006030DE000130DF000030E00036
:100F30000F30E1000030E2000130E3000030E40057
:100F400092312822873100302000DD007030DE0031
:100F50000030DF00E0000130E1000030E20001304D
:100F6000E3000030E4009231282287310030200075
:100F7000DD007030DE000030DF00E0000130E10015
:100F80000030E2000130E3000030E400923128221A
:100F9000873100302000DD007430DE000030DF00DB
:100FA000E0000130E1000030E2000130E3000030F9
:100FB000E400923128228731A3302000DD00803008
:100FC000DE000030DF00E0000630E1000030E2002B
:100FD0000130E3000030E40092312822A330973141
:100FE000782F240094012630950096019701FE3059
:100FF0009300A0309200200091112100911508006B
:101000000530F0007008FA0701302100EB02031DE3
:101010000E280430F0007008F8000800F801F80A03
:1010200008002000E9070030EA3D6A08803AE7003E
:1010300080306702083003196902031CFE2F20006C
:10104000E901EA016A08803AE70080306702083067
:101050000319690203184C2820006908E800E70119
:101060006708783ECB008030683DCC003830CD003A
:101070008C30CE009131FC21883101302000E9070D
:101080000030EA3D6A08803AE700803067020830A5
:1010900003196902031C2C282000E901EA016A08EF
:1010A000803AE700803067020830031969020318AC
:1010B000812820006908E800E7016708023EDD009A
:1010C0008030683DDE000430DF000030E0000C308E
:1010D000E1000030E2000430E3000030E40092312F
:1010E0002822883101302000E9070030EA3D6A08F3
:1010F000803AE70080306702083003196902031C58
:1011000059282000E901EA016A08803AE7008030A6
:1011100067020830031969020318B528200069081E
:10112000E800E7016708003EDD008030683DDE0032
:101130000530DF000D30E0000030E100E2000E304D
:10114000E3000030E4009231282288310130200091
:10115000E9070030EA3D6A08803AE700803067021C
:10116000083003196902031C8E282000E901EA01F6
:101170006A08803AE7008030670208300319690284
:101180000318E92820006908E800E7016708073E1E
:10119000DD008030683DDE007A30DF000D30E00099
:1011A0000030E100E2000E30E3000030E400923154
:1011B0002822883101302000E9070030EA3D6A0822
:1011C000803AE70080306702083003196902031C87
:1011D000C2282000E901EA016A08803AE70080306D
:1011E000670208300319690203181D2920006908E5
:1011F000E800E7016708833EDD008030683DDE00DF
:101200000530DF000E30E0000030E100E2000E307B
:10121000E3000030E40092312822883101302000C0
:10122000E9070030EA3D6A08803AE700803067024B
:10123000083003196902031CF6282000E901EA01BD
:101240006A08803AE70080306702083003196902B3
:101250000318512920006908E800E7016708843E67
:10126000DD008030683DDE007A30DF000F30E000C6
:101270000030E100E2000E30E3000030E400923183
:101280002822883101302000E9070030EA3D6A0851
:10129000803AE70080306702083003196902031CB6
:1012A0002A292000E901EA016A08803AE700803033
:1012B00067020830031969020318852920006908AC
:1012C000E800E7016708853EDD008030683DDE000C
:1012D0000530DF000F30E0000030E100E2000E30AA
:1012E000E3000030E40092312822883101302000F0
:1012F000E9070030EA3D6A08803AE700803067027B
:10130000083003196902031C5E292000E901EA0183
:101310006A08803AE70080306702083003196902E2
:101320000318B92920006908E800E7016708863E2C
:10133000DD008030683DDE000530DF000F30E0006A
:101340000030E100E2000E30E3000030E4009231B2
:101350002822883101302000E9070030EA3D6A0880
:10136000803AE70080306702083003196902031CE5
:1013700092292000E901EA016A08803AE7008030FA
:1013800067020830031969020318ED292000690873
:10139000E800E7016708873EDD008030683DDE0039
:1013A0000A30DF000D30E0000030E100E2000E30D6
:1013B000E3000030E400923128228831013020001F
:1013C000E9070030EA3D6A08803AE70080306702AA
:1013D000083003196902031CC6292000E901EA014B
:1013E0006A08803AE7008030670208300319690212
:1013F0000318212A20006908E800E7016708883EF1
:10140000DD008030683DDE007530DF000D30E0002B
:101410000030E100E2000E30E3000030E4009231E1
:101420002822883101302000E9070030EA3D6A08AF
:10143000803AE70080306702083003196902031C14
:10144000FA292000E901EA016A08803AE7008030C1
:1014500067020830031969020318542A200069083A
:10146000E800E70167084D3EDD008030683DDE00A2
:101470000030DF00E0000030E100E2000B30E3006C
:101480000030E40092312822883101302000E90741
:101490000030EA3D6A08803AE70080306702083091
:1014A00003196902031C2E2A2000E901EA016A08D7
:1014B000803AE70080306702083003196902031898
:1014C000872A20006908E800E70167084E3EDD0032
:1014D0008030683DDE000030DF00E0000030E100D9
:1014E000E2000B30E3000030E40092312822883122
:1014F00001302000E9070030EA3D6A08803AE70041
:1015000080306702083003196902031C612A200039
:10151000E901EA016A08803AE70080306702083092
:10152000031969020318BA2A20006908E800E701D4
:101530006708813EDD008030683DDE000030DF005E
:10154000E0000030E100E2000B30E3000030E40096
:1015500092312822883101302000E9070030EA3D2D
:101560006A08803AE7008030670208300319690290
:10157000031C942A2000E901EA016A08803AE70086
:10158000803067020830031969020318ED2A200031
:101590006908E800E7016708823EDD008030683DA9
:1015A000DE000030DF00E0000030E100E2000B3040
:1015B000E3000030E400923128228831013020001D
:1015C000E9070030EA3D6A08803AE70080306702A8
:1015D000083003196902031CC72A2000E901EA0147
:1015E0006A08803AE7008030670208300319690210
:1015F0000318222B20006908E800E7016708753E00
:10160000DD008030683DDE000630DF000030E000A5
:101610000830E1000030E2000630E3000030E40072
:1016200092312822883101302000E9070030EA3D5C
:101630006A08803AE70080306702083003196902BF
:10164000031CFA2A2000E901EA016A08803AE7004F
:10165000803067020830031969020318572B2000F5
:101660006908E800E7016708793EDD008030683DE1
:10167000DE000630DF000030E0000830E10000301E
:10168000E2000630E3000030E40092312822883185
:1016900001302000E9070030EA3D6A08803AE7009F
:1016A00080306702083003196902031C2F2B2000C9
:1016B000E901EA016A08803AE700803067020830F1
:1016C0000319690203188C2B20006908E800E70160
:1016D0006708793EDD008030683DDE000130DF00C4
:1016E0000030E0000F30E1000030E2000130E300A4
:1016F0000030E40092312822883101302000E907CF
:101700000030EA3D6A08803AE7008030670208301E
:1017100003196902031C642B2000E901EA016A082D
:10172000803AE70080306702083003196902031825
:10173000C12B20006908E800E7016708793EDD0059
:101740008030683DDE000130DF000030E0000F3007
:10175000E1000030E2000130E3000030E4009231AB
:101760002822883101302000E9070030EA3D6A086C
:10177000803AE70080306702083003196902031CD1
:10178000992B2000E901EA016A08803AE7008030DD
:1017900067020830031969020318EE2B200069085C
:1017A000E800E7016708FE3ECB008030683DCC00D2
:1017B000A830CD002930CE009131FC218831013094
:1017C0002000E9070030EA3D6A08803AE7008030EF
:1017D0006702083003196902031CCE2B2000E901BF
:1017E000EA016A08803AE70080306702083003198E
:1017F000690203181B2C20006908E800E70167084C
:10180000FD3ECB008030683DCC004430CD0032300E
:10181000CE009131FC21883101302000E9070030F1
:10182000EA3D6A08803AE700803067020830031911
:101830006902031CFB2B2000E901EA016A08803AD7
:10184000E700803067020830031969020318482C4A
:1018500020006908E800E7016708FC3ECB00803003
:10186000683DCC003630CD005230CE009131FC21A5
:10187000883101302000E9070030EA3D6A08803AEB
:10188000E70080306702083003196902031C282C26
:101890002000E901EA016A08803AE7008030670227
:1018A0000830031969020318752C20006908E80044
:1018B000E7016708F83ECB008030683DCC00783007
:1018C000CD00B730CE009131FC21883101302000AD
:1018D000E9070030EA3D6A08803AE7008030670295
:1018E000083003196902031C552C2000E901EA01A4
:1018F0006A08803AE70080306702083003196902FD
:101900000318A22C20006908E800E7016708F53EEB
:10191000CB008030683DCC00E030CD006130CE009F
:101920009131FC21883101302000E9070030EA3D87
:101930006A08803AE70080306702083003196902BC
:10194000031C822C2000E901EA016A08803AE700C2
:10195000803067020830031969020318CF2C200079
:101960006908E800E7016708F13ECB008030683D78
:10197000CC000030CD007030CE009131FC21883198
:1019800001302000E9070030EA3D6A08803AE700AC
:1019900080306702083003196902031CAF2C200055
:1019A000E901EA016A08803AE700803067020830FE
:1019B000031969020318042D20006908E800E701F3
:1019C0006708F93EDD008030683DDE002D30DF0025
:1019D0000030E0000130E1000030E2000630E300BA
:1019E0000030E40092312822883101302000E907DC
:1019F0000030EA3D6A08803AE7008030670208302C
:101A000003196902031CDC2C2000E901EA016A08C1
:101A1000803AE70080306702083003196902031832
:101A2000382D20006908E800E7016708033EDD0063
:101A30008030683DDE000030DF00E0000930E1006A
:101A40000030E2000130E3000030E400923128224F
:101A5000883101302000E9070030EA3D6A08803A09
:101A6000E70080306702083003196902031C112D5A
:101A70002000E901EA016A08803AE7008030670245
:101A800008300319690203186C2D20006908E8006A
:101A9000E7016708503EDD008030683DDE004030E1
:101AA000DF000030E0000030E100E2000C30E30035
:101AB0000030E40092312822883101302000E9070B
:101AC0000030EA3D6A08803AE7008030670208305B
:101AD00003196902031C452D2000E901EA016A0887
:101AE000803AE70080306702083003196902031862
:101AF000A12D20006908E800E7016708053EDD0028
:101B00008030683DDE000A30DF000030E0000C303D
:101B1000E1000030E2000430E3000030E4009231E4
:101B20002822883101302000E9070030EA3D6A08A8
:101B3000803AE70080306702083003196902031C0D
:101B4000792D2000E901EA016A08803AE700803037
:101B500067020830031969020318D52D20006908AF
:101B6000E800E7016708013EDD008030683DDE00E7
:101B70000030DF00E0000F30E1000030E200013013
:101B8000E3000030E4009231282288310130200047
:101B9000E9070030EA3D6A08803AE70080306702D2
:101BA000083003196902031CAE2D2000E901EA0187
:101BB0006A08803AE700803067020830031969023A
:101BC00003180A2E20006908E800E7016708033EB1
:101BD000DD008030683DDE000230DF000030E000D4
:101BE0000C30E1000030E2000430E3000030E4009B
:101BF00092312822883101302000E9070030EA3D87
:101C00006A08803AE70080306702083003196902E9
:101C1000031CE22D2000E901EA016A08803AE7008E
:101C20008030670208300319690203183F2E200034
:101C30006908E800E7016708063EDD008030683D7E
:101C4000DE000A30DF000030E0000C30E100003040
:101C5000E2000430E3000030E400923128228831B1
:101C600001302000E9070030EA3D6A08803AE700C9
:101C700080306702083003196902031C172E200008
:101C8000E901EA016A08803AE7008030670208301B
:101C9000031969020318742E20006908E800E7019F
:101CA0006708083EDD008030683DDE000A30DF0056
:101CB0000030E0000830E1000030E2000430E300D2
:101CC0000030E40092312822883101302000E907F9
:101CD0000030EA3D6A08803AE70080306702083049
:101CE00003196902031C4C2E2000E901EA016A086D
:101CF000803AE70080306702083003196902031850
:101D0000A92E20006908E800E7016708A03EDD0071
:101D10008030683DDE000130DF000030E000073039
:101D2000E1000030E2000130E3000030E4009231D5
:101D30002822883101302000E9070030EA3D6A0896
:101D4000803AE70080306702083003196902031CFB
:101D5000812E2000E901EA016A08803AE70080301C
:101D600067020830031969020318DD2E2000690894
:101D7000E800E7016708613EDD008030683DDE0075
:101D80000030DF00E0000830E1000030E200013008
:101D9000E3000030E4009231282288310130200035
:101DA000E9070030EA3D6A08803AE70080306702C0
:101DB000083003196902031CB62E2000E901EA016C
:101DC0006A08803AE7008030670208300319690228
:101DD0000318122F20006908E800E7016708823E17
:101DE000DD008030683DDE000D30DF000030E000B7
:101DF0000C30E1000030E2000430E3000030E40089
:101E000092312822883101302000E9070030EA3D74
:101E10006A08803AE70080306702083003196902D7
:101E2000031CEA2E2000E901EA016A08803AE70073
:101E3000803067020830031969020318462F20001A
:101E40006908E800E7016708793EDD008030683DF9
:101E5000DE005030DF000030E0000030E100E20042
:101E60000630E3000030E40092312822883101304E
:101E70002000E9070030EA3D6A08803AE700803038
:101E80006702083003196902031C1F2F2000E901B3
:101E9000EA016A08803AE7008030670208300319D7
:101EA000690203187B2F20006908E800E701670832
:101EB000FE3EDD008030683DDE000430DF00003093
:101EC000E0000430E1000030E2000330E3000030C5
:101ED000E40092312822883101302000E9070030E7
:101EE000EA3D6A08803AE70080306702083003194B
:101EF0006902031C532F2000E901EA016A08803AB5
:101F0000E700803067020830031969020318B02F18
:101F100020006908E800E7016708083EDD0080301E
:101F2000683DDE000530DF000030E0000C30E100ED
:101F30000030E2000430E3000030E4009231282257
:101F4000883101302000E9070030EA3D6A08803A14
:101F5000E70080306702083003196902031C882FEC
:101F60002000E901EA016A08803AE7008030670250
:101F70000830031969020318E52F20006908E800FA
:101F8000E7016708873EDD008030683DDE000330F2
:101F9000DF000030E0000E30E1000030E2000230EF
:101FA000E3000030E4009231282288310130200023
:101FB000E9070030EA3D6A08803AE70080306702AE
:101FC000083003196902031CBD2F0D302000CB001F
:101FD0009830CC007730CD000730CE009131FC2115
:101FE00088310D302000CB009830CC000030CD007F
:101FF000CE009131FC2108009631D62E8731492F31
:102000008331102B83313B2B83318C2B8331B72BC6
:102010008431262C8331EC2B8431002C8431262C06
:102020008431072C84312A2C8331422B8331632B5A
:1020F600103027009A000800AA3022009700080036
:102106002000A000111E8528200823009A00080040
:102116002000A000111E8D28200823009A00080028
:10212600320099019B019D0107309F009E01080026
:10213600F53021009D0020309E009F019B019C01EF
:102146000800083023009F0080309D0024309E0048
:102156008A309B009C01080000349F340D3498346B
:10216600143498344A344B344C344D344E34640071
:10217600800101310130FE020030FF3B7F087E0402
:1021860003190034BB28FE0012001E000130FE02B7
:102196000030FF3B7F087E0403190034C728F10096
:1021A60024001E157908023E8600870101080319DE
:1021B600E7287108F0007908023E860087010108C9
:1021C6008600870170088100F80108009431D42444
:1021D60090319031932090318731F12790319131B0
:1021E6001C21903190317F20903190319B2090318D
:1021F60090317B2090319031A420080020002108E6
:10220600A4002008A30023088400240885001200E7
:1022160003190800111E0D292308840024088500CF
:10222600000823009A0001302000A3070030A43DD7
:102236000629EC302000A00020082100D600EC3052
:102246002000A00020082100D500D7145710D9017E
:1022560024009C0128309D009F017F309A002000B9
:1022660092112100921508002000A6002308A5005F
:102276002208A400A435A50D260886000130870093
:102286002408C03F2508C13F2108A4002608023EB5
:10229600860001308700240881002608033E860058
:1022A600013087002008C03F0030C13F080055308C
:1022B600F3007308F4002000911124001108F300C4
:1022C6007308F40014081408141D7029941A161FB4
:1022D6006E290330792901307929941A742900303E
:1022E60079297408F3007308FD00023094317F24C5
:1022F600240015160800210057189F2920002908D8
:10230600A1002808A0002A08AE002E08A2002C086A
:10231600A4002B08A30024309131D0219131243020
:102326002000AE002E08A0002D08AF002F08A10047
:10233600013093318823080020002D08860087018C
:102346008101810A08002000AD0021005718C92923
:1023560020002D08AB002B08A0002708AC002C0895
:10236600A1002908A3002808A200293091313721AD
:10237600913129302000AB002B08A0002A08AC00C0
:102386002C08A100013093318823080020002A0878
:10239600860087018101810A08002000A700240821
:1023A600A6002308A500A535A60D2708860001303E
:1023B60087002508C03F2608C13F27088600013050
:1023C6008700013081044131003081042208A500D4
:1023D6002708023E8600013087002508810027086D
:1023E600033E8600013087002008C03F2108C13F18
:1023F6000800210063082000D400210062082000A4
:10240600D300210065082000D200210064082000C6
:10241600D1004C08CF004F08D1004B08CF004F0821
:10242600D2004E08CF004F08D3004D08CF004F080A
:10243600D4005330CF004F08AF000230D000500810
:10244600B000513086310626080020005E08D30011
:102456005D08D20092318A22923120005308E600AC
:102466005208E5006608A1006508A0006008A30000
:102476005F08A2006208A5006108A4006408A7001E
:102486006308A60092315822923120002108E60006
:102496002008E5005E08CC005D08CB006608CE008B
:1024A6006508CD009131FC21080001302000A8000C
:1024B6000030A900260A612AA835A90D890B5F2AD2
:1024C6002808FF3EAA00FF30293DAB002B08A900D3
:1024D6002A08A800240A712AA835A90D890B6F2A93
:1024E600A809A9092808A0052908A1052A0822057E
:1024F600A8002B082305A900240A832AA835A90DBC
:10250600890B812A2808A0042908A10408002100B3
:102516005F082000DA0021005E082000D9002100B3
:1025260061082000D800210060082000D700530869
:10253600D4005408D7005208D4005408D8005930A3
:10254600D4005408CA000230D5005508CB005730D5
:102556009531F52520005908D400D5015408D50039
:10256600D4015408DB005508DC005A085B07DB0081
:102576005C0803185C0ADC005C08D3005B08D20028
:1025860008002000AC001030A0000030A1002C088C
:10259600A900AA012908A2002A08A3009331DA2378
:1025A600923120002008AB002B08AE002E08A900AF
:1025B6000330A935FF3E031DDC2A2935FF3A013ECB
:1025C6002C07AA002A08AD000A302E02031CEE2AA8
:1025D6002E08373EF12A20002E08303E90318B20FF
:1025E60092310A3020002D02031CFE2A2D08373EA8
:1025F60090318B20080020002D08303E90318B2032
:1026060008002000A9000030A8000030A700003014
:10261600A6000030A500AA01AB012B08803AA40051
:1026260080302402031D192B04302A0203183A2B8A
:1026360008302000A535A60DA70DA80D890B1C2B6B
:102646002A082907A4002408860087010108A50492
:102656000130AA070030AB3D2B08803AA400803039
:102666002402031D382B04302A02031C1B2B2000D6
:102676002808A3002708A2002608A1002508A00014
:1026860008002000D100AE014B08CC004C08AF007A
:10269600510895318B25933120002F08D0002E0844
:1026A600CF004F035004031908000230CC004C0839
:1026B600D200EF015203031908004A08CC00CD01ED
:1026C6004C08A8004D08A900AA01AA0A5030AB0080
:1026D6000030AC005230CE004E08AD0091317E2164
:1026E60093310230200052060319742B5208031945
:1026F600080052030319080064306F060319080026
:102706000130CC004C08EF075D2B2000A300210010
:102716005718C72B02302000A20021088600870127
:10272600220881002008A2002100550A86008701A0
:102736002000220881002308A200210055088600F7
:1027460087012000220881002108A20021005508E7
:10275600023E860087012000220881000330A20085
:1027660022082100D5075508EF3A031DC02BEC308F
:102776002000A20022082100D500D71056085506D1
:10278600031DCD2B5714CD2B200021088600870171
:102796008101810A20002108860087010230010696
:1027A600031D08007808031DD52B9215080020008C
:1027B600A601A11FE52BA009A109A00A0319A10AD8
:1027C600A601A60AA31FF02BA209A309A20A0319B0
:1027D600A30A0130A4002408A606A701A801200820
:1027E600210403191F2CA501A50AA11B042C0130E5
:1027F600A035A10D890BFB2B0130A4002408A507E9
:10280600F82B0130A735A80D890B052C21082302CA
:10281600031D0F2C20082202031C162C2008A202DE
:102826002108A33B27140130A136A00C890B172CD5
:102836000130A502031D042C26080319272CA7091D
:10284600A809A70A0319A80A2808A1002708A000B2
:10285600080000302000AC000030AB000030AA00B9
:102866000030A90023082204210420040319762C31
:10287600AD01AD0AA31B4B2C0130A035A10DA20D55
:10288600A30D890B402C0130A8002808AD073D2C6C
:102896000130A935AA0DAB0DAC0D890B4C2C2308C4
:1028A6002702031D602C22082602031D602C210826
:1028B6002502031D602C20082402031C6B2C200813
:1028C600A4022108A53B2208A63B2308A73B2914FE
:1028D6000130A336A20CA10CA00C890B6C2C013084
:1028E600AD02031D4B2C2C08A3002B08A2002A08BE
:1028F600A1002908A0000800F200C52C2100E8016B
:10290600E80A4A30F0007008F70008007708F03E41
:10291600F000F1012630F13D70088600710887004D
:102926007D0881000130F0007008F707A32C210014
:102936006808003A0319892C013A0319892C892C55
:10294600E80108004C30F0007008F7007708F03E08
:10295600860087012630873D01082400910001305A
:10296600F0007008F70708007708F03E8600870138
:102976002630873D0108240091000130F0007008E0
:10298600F70708007208003A0319812C013A031967
:10299600A52C033A03199A2C013A0319B72CB72C24
:1029A600080022008D018C018E0124008C018D010E
:1029B6008E01373023008C008D01FF308E00F03001
:1029C60021008D0027308E0027308C0025008E01D7
:1029D60000308B1B01302000A0008B1355303C00CB
:1029E6008F00AA308F000F102108E0390C38A100A3
:1029F6002008E0390E38A0003D001408E0391E38E2
:102A060094001C08E03919389C002408E039143871
:102A1600A4001F08E0391A389F001E08E03918384C
:102A26009E003C001E08E0390D389E001D08E03966
:102A36000F389D003D001D08E0391B389D005530BC
:102A46003C008F00AA308F000F142000201C2D2D73
:102A56008B1708008B1308002000C600C701C801A9
:102A66004808803AB00080303002031D3C2D2E0805
:102A760047020318522D200047084607B0003008C9
:102A8600860087010108B1004708323E86008701AB
:102A9600310881000130C7070030C83D332D2000C2
:102AA6002E08B0003008C5000230B0003008C9005A
:102AB600EF0149030319832D4508B0003008A7002C
:102AC6001030A8000030A9004930B1003108AA0032
:102AD60032309131A6219531023020004906031982
:102AE6006F2D49080319832D49030319832D64307B
:102AF6006F060319832D0130B0003008EF075C2DF7
:102B06004903031D08000130AE000030AF00080085
:102B16002000C800C601C7014708803AB0008030CF
:102B26003002031D982D2F0846020318AE2D2000F3
:102B360046084807B0003008860087010108B10042
:102B46004608323E86008701310881000130C607FB
:102B56000030C73D8F2D20002E080319BD2D2E08ED
:102B6600B0002F08323E86008701300881002F080A
:102B7600013EBE2D2F08B0003008C5000230B0005F
:102B86003008C900EF0149030319ED2D4508B000CF
:102B96003008A7005030A8000030A9004930B10025
:102BA6003108AA0032309131A62195310230200039
:102BB60049060319D92D49080319ED2D49030319AF
:102BC600ED2D64306F060319ED2D0130B00030088D
:102BD600EF07C62D4903031D08000130AE00003083
:102BE600AF0008002000D0004B08CC004C08AE0017
:102BF600500895312F25953120002F08CF002E083B
:102C0600CE004E034F04031908000230CC004C08D6
:102C1600D100EF0151030319372E4A08A8000030EE
:102C2600A9000230CC004C08AA001030AB000030DE
:102C3600AC005130CD004D08AD0091317E2195316B
:102C46000230200051060319232E51080319372E8E
:102C560051030319372E64306F060319372E0130DE
:102C6600CC004C08EF070D2E5C30A0009830A10078
:102C76009131012195312000500886008701010815
:102C86009231C42295312000500A8600870101083E
:102C96009231C422953164302000A0009830A10002
:102CA60091310121953120004A08860087010108EB
:102CB6009231C422953120004A0A86008701010814
:102CC6009231C42295310D309031832095310A30EE
:102CD6009031832008002000DD008330DE000030C4
:102CE600DF00E0000630E1000030E2000130E300E2
:102CF6000030E400923128229631A3302000DD0016
:102D06008730DE000030DF00E0000630E1000030F2
:102D1600E2000130E3000030E400923128229631CF
:102D26002000E901EA016A08803AE700803067027C
:102D36000830031969020318C82E20006908E80044
:102D4600E7016708793EDD008030683DDE0001302E
:102D5600DF000030E0000B30E1000030E20001301F
:102D6600E3000030E4009231282296310130200041
:102D7600E9070030EA3D6A08803AE70080306702DA
:102D8600083003196902031CA02E2000E901EA019C
:102D96006A08803AE7008030670208300319690242
:102DA60086310318C02E20006908E800E70167088D
:102DB600633EDD008030683DDE000130DF0000301C
:102DC600E0000730E1000030E2000130E3000030AF
:102DD600E4009231282201308631B22E2000DD0037
:102DE6007230DE000030DF00E0000130E10000302C
:102DF600E2000130E3000030E400923128229631EF
:102E060000302000DD007630DE000030DF00E0001C
:102E16000130E1000030E2000130E3000030E40060
:102E2600923128229631A3302000DD008230DE0068
:102E36000030DF00E0000630E1000030E200013043
:102E4600E3000030E400923128229631A3302000BE
:102E5600DD008630DE000030DF00E0000630E100F5
:102E66000030E2000130E3000030E4009231282215
:102E7600963132302000DD006030DE000130DF00A8
:102E86000030E0000F30E1000030E2000130E300E6
:102E96000030E40092312822963100302000DD0017
:102EA6007330DE000030DF00E0000130E10000306A
:102EB600E2000130E3000030E4009231282296312E
:102EC60000302000DD007730DE000030DF00E0005B
:102ED6000130E1000030E2000130E3000030E400A0
:102EE60092312822A33096316E2E2000DD008430E8
:102EF600DE000030DF00E0000630E1000030E200D6
:102F06000130E3000030E40092312822973112307C
:102F16002000DD006030DE000130DF000030E00020
:102F26000F30E1000030E2000130E3000030E40041
:102F360092312822973100302000DD007130DE000A
:102F46000030DF00E0000130E1000030E200013037
:102F5600E3000030E400923128229731003020004F
:102F6600DD007530DE000030DF00E0000130E100FA
:102F76000030E2000130E3000030E4009231282204
:102F86009731A3302000DD008130DE000030DF0005
:102F9600E0000630E1000030E2000130E3000030DE
:102FA600E400923128229731A3302000DD008530DD
:102FB600DE000030DF00E0000630E1000030E20015
:102FC6000130E3000030E4009231282297312230AC
:102FD6002000DD006030DE000130DF000030E00060
:102FE6000F30E1000030E2000130E3000030E40081
:102FF6009231282200309631F12E543468346934E7
:1030060073342034693473342034613420346E349C
:1030160065347734203474346534733474342C3422
:1030260020346E346F34773420347234653473341C
:103036006534743420344734453420346634693476
:1030460072347334743420340D340A3400345234F8
:103056006534733465347434203464346F346E34B8
:103066006534213420346E346F34773420346C3434
:103076006F346134643420346634773420347434E5
:103086006F342034473445340D340A3400347A34EE
:103096006834753461346E346634613420343034C7
:1030A6007834003472346534613464343A3420340C
:1030B60000345234643420340034573472342034AB
:0830C60000343D343D340034B8
:020000040001F9
:08000E008CFF33FFFFFFFFFF31
:00000001FF
