:04000000803118280B
:1000060055347E14803120007F08F7000B1F13281B
:100016002100911D13282000911D13289831DF20FF
:1000260077082000FF007E10090080311A28B930B9
:1000360084009D308500F030860026308700013030
:10004600FF000030A731E527803180310320803161
:10005600FD0098308400A7308500D230860000303D
:1000660087000030FF000630A731E5278031F80110
:10007600F901FA01FB01FC01E701E801E901EA01E6
:10008600EB01EC01ED01EE01EF01A0308400003040
:1000960085002330FE000030FF00A731D9277E10EF
:1000A600200090313028C22D0700700C3E00000160
:1000B6000004000000001A18050000000000000FF0
:1000C60040030030033400003C000D00C003D000A4
:1000D600003C000D00000F100300F0003400000F7C
:1000E60040030030033400003C000D00C003D00084
:1000F600003C000D00000F100300F000340000006B
:1001060000000000000000000000000000000001E8
:100116000014400000000000000000000000000085
:1001260000000000000000000000000000000000C9
:10013600000000100000051C0600600051000006CB
:10014600B011000000100134070000000800040090
:100156000804402F000000020004F00F3F000100D9
:100166001800A00080010005001400300E001E00DB
:100176000400A00000000000000000004000000095
:100186000C00B004800C01101618000000000000DE
:1001960000000000000000184200901A22040D0B17
:1001A600AF020100372F100674350C0080015D0088
:1001B6000000600700000000000020000400032F7C
:1001C60004000000000000010C202E00400080000A
:1001D600801860000005000000000000000000001C
:1001E6000020011200000000040C871A4807581C62
:1001F600863C0F0E2E19000252070001012A4018F4
:1002060016304A38FF3FD401C012213E3004001C8C
:100216000201100029210003800B842100350120F2
:1002260042084E080800B8020120401D001C0822A2
:100236005302021027300000500700090335010061
:1002460063101D001207D4012000E00925000420D8
:10025600130101302700000AA83A0400C001C004B7
:1002660080236A070000E12B812284011800000C1C
:10027600DE02E003EA182D30972E063041386B185F
:100286000030B8080000E524A1000001000007289E
:10029600DE01000078292002940B8702000400008A
:1002A6000C1401000000AA050100C03818003F2503
:1002B60093220100040000068013882140396E2035
:1002C60000000100C00015000000900A3100001F68
:1002D600623CFF0F2F0E00004C3CFF1F790500000B
:1002E60000382935FF3FBC32FC3FCF00000006280E
:1002F6008221493001300413A30A0800C000FF3FE1
:10030600EF3B2935FF3F9C020110D029F33FFF3C0C
:10031600BA3CFF0F03000006A0028609C101C00413
:1003260028232A080000033FFF2FDF29F33FFF059C
:100336008600C00161080000100604004121C100CA
:100346002018180400038601020061183000140703
:100356000600800111004800700602000827213FB0
:10036600A3131D001C02D4012011411D000200141C
:10037600070041007500900C5007000A442AC3008C
:100386000010E9060000BC230000C000000016248F
:100396000E3D0000AF0808004000002083258E00B7
:1003A600083809040000A403C13F8F0AE03FFF207C
:1003B6008B0109002A2D00001C004C30A727520192
:1003C60000302B030200133FFF2F8F0AE03FFF038D
:1003D600FC3FFF1EA7330004A002F83FFF01C00444
:1003E6005C224A0B0000033FFF2BDE293300040585
:1003F6008600400161080000100604004121C1008A
:100406002018180400038601020041040012001C93
:1004160086008001272800017006F20F3D388520EE
:1004260020101D000401A8030100800A18261128C7
:1004360092020000750048081C004C302035010867
:1004460000100B065400D4026020C0091800001CDE
:100456000B20A111610800081006020000214100CE
:100466001010040012009C210030400A2900071CCD
:10047600863C0F0F6E29000B500700010127C0387C
:1004860000204A0400009C000238441D001C081489
:100496000720C410EA3000001C007C30203501081B
:1004A60000102A0A0002A82E0100C01B010000103D
:1004B600000030002720001F73020A20C801C00771
:1004C600EC31090C80388521003040180800000402
:1004D6000601401061300008100180040027210049
:1004E600403019323F3BD4014010401D001C081417
:1004F600072004017500080050070009032A43007D
:100506000038380400058C230230602A14000725C1
:10051600CB21020004000004A4120C00000000001D
:100526001430593AFF3FE532A20000010000031CD7
:1005360096021000B600280C300A0A000329A5000E
:100546001C20EA060000B825022CC00920004E0730
:10055600001FB00527303800300A06000339231083
:1005660002000100400585210000C1282000140773
:10057600FC3F7F0CAA1B0000A03A06000027A00241
:100586000030093C0F2007001F3CC4092000012849
:100596008A010030C13FFF2CA23A0800002D6010EE
:1005A60005102D0006029C200138812A2300001820
:1005B6000B20E130C13FFF2DA00A0600402121009B
:1005C600401018020000840101105018300008067F
:1005D6000601C00011004800700602000527213FF1
:1005E600C3131D001203D4012000401D000404148F
:1005F60007008710E630001AF03A000000030000FA
:10060600581418020003B400410540382800082099
:100616000B212200E62D001CE00A04101639822860
:1006260000000100800385210030803A1000001888
:100636008005003001300806A00EA60112276000D2
:1006460004302D0086068C22013CC03B00000010C1
:10065600000040106108000C600B002743212100B8
:1006660030101802000084010110501830000804F0
:100676000120040067080010E00E06002127213F34
:10068600D3131D000401A403013C401D0012083CC5
:100696000A0020000400001350078000002F02000B
:1006A6000C0001004002BC020000C00000000A1855
:1006B60080050030C13FFF05A10E860119276000A5
:1006C60014000000C003A8020200800158000000C8
:1006D60000008000EA18183C1F002C103C27600020
:1006E60008000000C0028521002080015800002873
:1006F6008E25413AC13FFF375400000000276000B5
:1007060014300908000007000B285E0100000005F0
:100716008600800061080000100604000111000830
:100726000130190200039C21FC234F3A2000FF14DC
:10073600072044002F010000400000200135010879
:10074600001C002C80369C200108000000001F05BC
:10075600860040300130021973020610032A601821
:10076600421C002C01329C0002287100F000C528B2
:1007760082218901EE22000C962E0630032F0B00F3
:10078600000001000003AC240134000E28060220FC
:1007960097214110EF20000040000000022F0400C6
:1007A60000300906400307000B1CCC09200001009D
:1007B6000000901061080004F0120000C004FF3F22
:1007C600AF170100000007000B34CB0918000D031A
:1007D600FC3F8F0E2A189810100602000011000820
:1007E6000130190200029C21FC238F3A2500001CCF
:1007F60082022004750048041C006C001F350108A5
:100806000014180200018421000040040012001C9C
:10081600860080006708FF34530700010129430062
:100826003C101D001202BC220004000100000C1442
:100836000720000006200100A0028619062A84006F
:10084600E01F003C802294040200C00918000F0734
:10085600000B200AAA2000000000002041212100F0
:1008660020200106402207001B30843A981AAF0563
:1008760086008000610800001006040001110008CF
:100886000130190200039C21FC138D015800001849
:10089600000600007500100460001400002A631AA8
:1008A60060214A380726A80201204F1D001228148D
:1008B6000720000075007008500700090335012065
:1008C60042101D002C05D4010023411D00341C14C8
:1008D60007000E32013003005307000FC901C003A1
:1008E60098150100000094220100C03B080000108A
:1008F600000070000618010060001800002A63005E
:1009060000100030002FA8046A20C52D0016001A1A
:1009160080070020EA3D0034A1028609C501C00314
:1009260098210A343F3CE42B4000000100000618E1
:10093600003DFC3F0130031A71020600C001BF3EB4
:10094600171601000000A802FD3F1F0C1004001C32
:100956000202001030102001600016004027C03F40
:10096600FF1F003C0115A8235D30D2293300012565
:100976003A037000AE1B0003E03A0420013843102E
:10098600002001160000A8237520052E100600077A
:10099600001FF009AA1B0000E42E0600622FAB0020
:1009A6007C000110C032BD0B011C613A12001F3DD4
:1009B6004A01900004000009F40A0930422F72002F
:1009C600200001000036BC120008000100000C1CCB
:1009D600023EEF0F0000030A560000000004000369
:1009E60020362B0B000310000410C02B0400181037
:1009F6000004D0062A208200000030206005000096
:100A06000030280680109E000304003E18080322CA
:100A16005B038700B60018021D003C300B2A6018E5
:100A26003E200A06A605E12BC1217400F0002B2604
:100A36002E0110002A189811600B0009042A96004E
:100A46000030090A000007000F00A33A2200001038
:100A56008A01E000EF080024410000000329743FEA
:100A6600FF033E061C22A4230104C03B0000001025
:100A7600000C0006AA250000A0028629C501C003B5
:100A86009030090A00009C200100802D00060E0708
:100A9600001FA00AAA1B0000942E06303F2F12004A
:100AA60000000100000BD802603D40392D00241CD7
:100AB6000203F0036929003FA03A0600C001C00600
:100AC600AC300908001E18200500802A2300000704
:100AD600001F4000EA18182060001600002A8E0049
:100AE600001C003C0100A8235D30CE092000082828
:100AF600BA010000B600200E1C006C2006278000FC
:100B06003825BB0680048C22023C903B1A005D3CD3
:100B160016000000AA1B0000400000000336021861
:100B26003130090A00009C0002047000B001131C59
:100B360002030400E5150018F00A02000004000094
:100B46000C30090A8000A8220200802A1B00001C23
:100B56000202F00D273000021C006C104205000056
:100B660000000000401B94170200C03B020000106A
:100B7600000010032730003F501E0B000929A50076
:100B8600FC20EA0600009C00022077007001FE3A75
:100B96005202000106180100A03A0800C001C00672
:100BA6005C233A06060818200500802A2300000761
:100BB600001B300DEA18172C73020610012780005F
:100BC60020202D004603BD34010000010000061858
:100BD6000B00E20027180007700208100036021802
:100BE60034202D0008048C220234401A29000728DC
:100BF600BA0100006E29000B70020820D301C0055F
:100C06009433090C0E008C220134802D00060C143E
:100C16005E018001AF080000400000300027A00000
:100C260008202A0A0000A82E0100C0092000DF07BC
:100C36000017A00D27300002A03A0600002780000A
:100C46000430090A0000033FFF33CC093010000CC2
:100C56008A01E000E718FF36F30E041003040000D3
:100C6600EC2001160000B42041054028280004208D
:100C76008F212200E52D0010E00E0600143985189C
:100C860000000100800CE037C201C0283000131CB0
:100C96009A012001EE180002801F870100216300DF
:100CA60000203B080017D4026000C20921001A3850
:100CB60012022000F825200010120800003602104B
:100CC6004A102D000809A403023C8F3B1800042497
:100CD6009203F00029210007E00E060012360220DA
:100CE60030202D000E05D402600082015800001C41
:100CF6000B008901B7009016601700030B2A8E00BF
:100D0600001C002C4122A8235D30CE2828000C1898
:100D16005E022012792120004000001042050000EA
:100D26000010790B0020A425023C872A1B000038FE
:100D360096027000272000011C005C002827C03F97
:100D4600003228080005073FFB03812A1B00001418
:100D56005E02003001300523A23A060000000002C0
:100D660010170100000018200500802A2300000744
:100D7600001B1007EA1817087202083007276000E0
:100D860000202D000807D8028034C1092000081869
:100D96000B20210100000238620B0022832382000F
:100DA60048304B0300001000001CC0091800103426
:100DB60082011500B50018047002061002360218EA
:100DC600383009060004E2038222C80B0D00001029
:100DD600000030100500000078020810002A6E009E
:100DE600001C001CC11D9C000210573ADA3FFF3C54
:100DF6002E01100004000003700206100027600098
:100E060000103A06C03FBC23000000010000050C9C
:100E16008A01C001AF0C0009400000004205000035
:100E260000202D008607BC030138C3000000052200
:100E36000F020A0000000005300A0A0087388320E6
:100E46000A202D0028078C220230812A1B00001C54
:100E56000203F0072720000A1D005C101829A500D0
:100E6600FC21EA0600009C000224740070016A1C42
:100E7600820200002A208B0C1E005C30172A6E00AE
:100E860000000020002115000000E0282000121CB0
:100E960082010021F820A008F212030000040000DD
:100EA6000C14010000009E000204802A1B000007AB
:100EB6000017A00427200034952EF63F3F2F4B0045
:100EC6000400010000018C2201340100000006220A
:100ED6000F022A00EF10003E400000000136021803
:100EE6007C083E082800D8028036C12828001D2824
:100EF600BA0100002720000C91160A30DF01C00558
:100F0600F430090CC01F8C220108C13B10000610EA
:100F16000000000127200038A102FA3F3F2A6E0098
:100F2600001C001C81109C000224840A20228907D0
:100F360000177003AA1B0000300A0620042763006E
:100F460004302B03000310000824852D0006120030
:100F56000000B00306180100501E0B00092A6E009F
:100F660000105A0AC00F9C00033C73007001251E36
:100F76000201000006180100A03A0800C001C005E1
:100F8600F8233A0606088C22013C413E0024001054
:100F96000000F000272000001C001C102C2362001B
:100FA60078302806C00707000738AA3A120000283A
:100FB600CA01003001300102A22E0800002780007D
:100FC6001C1C002C8015A82B0100E039D23F801C88
:100FD600020200002A1898161C001C103B3502203D
:100FE6008014BA062000BC2B000000010000131C70
:100FF60082016010AF2C000B41000020432FB2008D
:10100600C801010000039D200104D02B2C0087108D
:101016000000901027180002F40A0B30320400007A
:1010260018340906C000BD1201380F010000031D67
:101036008201501027180004700206100138631848
:1010460009202D00C604E037C101803D0024401C64
:101056008201A000B600180E60001600002A8E005D
:10106600001C001C0133A823612004008000121814
:101076008005003001300430A33A060000236200E8
:1010860008213A064000D8026008740070016528FD
:10109600BA010000AA1B00001C005C308B2A4B0022
:1010A600001079078006E40B620000010000051EAF
:1010B6004A010001AF2C002040000010420500004C
:1010C6000020EA0600009C000200C509280200076D
:1010D6000013700D27300F3F03002010400500005D
:1010E600003028060004BC030000000100002E1595
:1010F60000000000E52500021C004C30352A6E0079
:1011060000200A0A3800A800C303802A1B00000733
:101116000013900C2720003B300A0600042F030022
:1011260000000100400315000000C02818000F3C15
:101136008E000000040000187002062006238200BC
:10114600302079078007E5246100000100000428AB
:10115600BA01003001300535730208300123620000
:101166003C303B02000010000034C00918001A0C85
:101176000A02C000E61D0020941386010004000048
:101186001830090A8008A82E0100C0092000DF07D0
:101196000013D00A27300022030000100227800027
:1011A6007420EA080000D802603870303F3F8F286C
:1011B6008A0100000000000454000000002780009F
:1011C60040202D008803B420410500004000CC14C7
:1011D6000B200100030001036300160080274E0068
:1011E600003A090CC000BA120120F0292400131E8F
:1011F6004A01A03201300137A1320700002A7200ED
:10120600001C001C001DAB0B0300C00920000D28AC
:10121600BA0100300130040CAE2E0000002A6E0028
:10122600001C001C4100AA0B0200800A1F00002BB4
:101236002E010030013001299D3A0D3043296B0003
:101246003C14EE0516001000000CC0092000011C1D
:10125600020200002921003FF312020000040000F0
:101266005030BB00C0031000000CE129F53FFF36EB
:1012760002031500A318000E700EF60FBC214200E3
:1012860000103A06C03FE216410AC03B100021108A
:1012960000049029AE14001061001800002E6300AF
:1012A60008204A280529E023810040381800000458
:1012B6000120011005000000781AFD3F3F2F36007F
:1012C600000CF13FFF34150000003030FF3FEC15F5
:1012D60000000000E51D0026900B890100040001B6
:1012E60024220116000094170208700030016A28B3
:1012F600BA010000AA1B0000700208000227A00025
:10130600001E000C01179C000300CF2818000F3C9C
:101316000E0000000300013A510B000B0000000113
:10132600B4300908800494170220422E24080010C5
:101336000004700706180100501E09000F25C200A0
:1013460060008E090800E504C200000100000815CF
:1013560000000000E51D0026900B89010003000037
:101366001420011600000000042C56010000001F86
:1013760002000000A1180024500B000B0029830076
:101386003C203B060011BC24003CC00000001414A5
:101396000B204102271900149022FB3F3F386318A7
:1013A60000002E0E0800E0226100C03D000A000C7D
:1013B6008A014001F601D030601F80010D23E20052
:1013C60048144E0A0E001000000C500E2E0C001889
:1013D6000B0022010400000454000000003702281C
:1013E60060302D00860584020200C20B0100001049
:1013F600000030012F0E00004000001042050000E2
:101406000030280A000594220118411A29000724F1
:101416008E0170107911180040000020420500006E
:1014260000104A08C003A82E010070303F3F8E18F6
:101436000B004201A1180020E00E06001100000179
:10144600EC102D0006089522022002293800300CE7
:101456000A022011A700002A700A0A100C2ACD00E1
:101466000034090E00009C200104503E2808000CA0
:1014760000003011EA250000542208004039AC3043
:1014860000000100C0021500000010191900003DFF
:101496002E02000004000004942F840300040000C0
:1014A600141401000000A82B0300903A380000280D
:1014B60032030000E718000174220020C000FF3F3D
:1014C600BB33590A40009C220220D2290000301C5E
:1014D60082010000F908780030000030042F240053
:1014E6000C1859020000952C0120131E1C1600250D
:1014F6002F02030004000008540000004024680086
:101506000034BB08000010000020503E2A0E0010D8
:10151600000070002F090003700E06100027A500BA
:10152600080CF03FFF3B9D080004C00B09000310A8
:101536000000A0110500000054000000002F230049
:1015460000000100800515000000402920002E2023
:10155600132226002E29001F82170812013884281C
:101566000810C90A800EE524A100000100000D152F
:1015760000000000A4200031F4120800000400005E
:1015860020140100000090020208D30B190000107D
:101596000000501005000000000000300027600029
:1015A600083009064000E0226100C0282000140C23
:1015B6008E01400329210007600B8001052760008A
:1015C60064202D0008030000001C802D00060E1468
:1015D600DE01A002B92418004000001078050000C2
:1015E60000102D002C00A822010070303F3F462835
:1015F6003A0200000000001C63001600002A620088
:10160600001CF00F3F1EA80E0200C02818000F3C59
:101616008E000000040000156300160080274001BC
:1016260000200A06E60307000330282E141C0822B1
:101636002F013900AF0C0000400000003327800066
:101646000420EA060000A83202007000F000A41C84
:101656000203040027180001700B00290536021842
:1016660054302D00240694170218033E1808081C4F
:101676000202F001B500B000600B8011040000000A
:10168600F4222D008803A822010070303F3F5A281B
:101696003A02003001300034A10286390327600186
:1016A60000003E061C02E12B610CC03B0A00001044
:1016B6000000300B06180100A03A0600C001C00366
:1016C6001C3209084002A52B0102C03B0A0000108B
:1016D6000000C00A06180100501E07000D399218B6
:1016E60000000100002A18200500E028100011144F
:1016F6008A016021A714FF3F8F23810180295200B0
:10170600FC132D002C00DC02001BC12B0C0000106A
:101716000000D009B6009011A03A0600C001C0032F
:10172600C83109080020A82E0100C00920000107C1
:10173600000FE026EA320000500A06200525820046
:1017460060104E0606001000001050010000000058
:1017560000007000B7001818300A06100527633F0E
:10176600FF332D002406B823013C852D00061510F5
:101776000A0250012F0100004000001002297400E7
:10178600FC216B0B0004B8250224553E200A000CF0
:101796000000A01005000000000000100227A300B2
:1017A6000420BB0A8004B8250224553E100A000C0A
:1017B600000040006929FF3F730EFA3F3F29A53F0D
:1017C600FF23EA0600009C00023C7500F000501C56
:1017D6000203F00727281000A03A06000027800021
:1017E600281C003CC012A805030040392500361C01
:1017F60082011000F8182008600B80110427600091
:1018060000000000001ADC02601841391D000624A1
:10181600CB2201000400002455000000002A6200CB
:10182600001CF03F7E09A80E0200C00920001C140F
:101836000B000B00B600200EA00A0600C001FF3BFD
:101846005F22EA0800000000002885015800001405
:10185600DE014000B92C18004000001055050000BC
:101866000000000080149C20012C41391D000E242C
:10187600CB2201000400000F7102083006000000B0
:1018860034212D008803A82201007030FF3E8628EF
:101896003A020000000000077102063006257700B4
:1018A60020102E09060010000010C4092000311C6B
:1018B60082010000B600200E700B80210627600012
:1018C600041079098002E0238120802D000611147E
:1018D600DE01C000B9241800400000200E06600199
:1018E600001029068006E31A6100C0282000113B7B
:1018F6006A0100012721FF3F530B000BC02E5A003F
:1019060040124A08C03FDC02402BC10B0900001000
:101916000000D002B6002011501E0F2002267700CC
:1019260050003E060E02E53A6200000100000B0C74
:101936008A01C000EF00000040000020852740001B
:101946000430280A4003E405620000010000121C6E
:101956008E3DFF0F0000000F600B80010326B700CD
:1019660058005E0A0E02E53AA100000100000B1EB7
:1019760002011000EF1000054000000042050000C3
:101986000030280A4003E40561000001000004203D
:101996008F010900B600180CA8120400002382006B
:1019A600301C003C8004A82E0100C02B040000104F
:1019B600000080002720001AA00A06000036022038
:1019C600381CF02FBE32A80E0200000000000518D9
:1019D6008005000027180030600B80210306600197
:1019E600001C002C8016A8230120830A1826100745
:1019F600000B900B2720001A0C3CCF2F5827CE0047
:101A0600041C000C0137A82E01003030FF3FF718E8
:101A160080050010EA1AFF3F67001000402A0816EA
:101A260010123E00080010000000C109280004142E
:101A36000E030010F81A3005E02E0C00532E6B0032
:101A460010006E0C0C009C25FE3F0F2E3110003C42
:101A560096000000A5310000841B8615C104FF3FD7
:101A6600E317BA36FF3F033FFF07CF3918000204DA
:101A760001200410050000000000001801200F00DE
:101A86002800B80180070014000601380C00360053
:101A9600F0009803000A802D001E02204800000F67
:101AA60050070010053F0100403011004005FC01C1
:101AB6000014C11F0000153C070050017F000015EF
:101AC600F0070010053F0100480017000005D0018F
:101AD6000008811900001420060040015900001476
:101AE600E00600300404010054301F004005FC01EC
:101AF6000014C11F0000153C070050017F000015AF
:101B0600F0070010053F010054301F004005FC019E
:101B16000014C11F0000153C070050017F0000158E
:101B2600F0070010053F010054301F004005FC017E
:101B36000010411E000015106002F13F3F0000003A
:101B46002E3CF9292000810B7C3E290880200B1FA2
:101B56007E0A0830E0029F1F0A028009C53FFF1B6C
:101B66006D21C90008002000603EF03F3F00F019DB
:101B7600023CFF1F3F389901FC3F1F024126023FEE
:101B8600FF0F0911E600FF3F2B198629C73FFF0506
:101B9600E2206932FF3F9539611EF23F3F000000A7
:101BA6000000203F003C0220033C0D2038000000CE
:101BB600E403E007001300380F00080000003B3084
:101BC60003000000001E003F00100230C2279F08DD
:101BD60026025006003800000020F43FFF3FFF00B9
:101BE600243DFF3FFF3F000A3D3C7F3007004B3F4F
:101BF600FF3FFF0F00131F3F3B3C0910132000005F
:101C06000200E0040E003800003C040F003C000017
:101C16000000000000140F3F030004300E3C0000DB
:101C26000000D00420008000002000003C0080005E
:101C3600040004001000000A4000000000006500D7
:101C460080030000C0029F1F0A2209000000000056
:101C5600203DFF0F00200009FD3F0F2000004C1F14
:101C6600FC075101C012FF3F03000820D203FF0802
:101C7600F402B030E727820000000000000081086F
:101C86000020000000038000000000000320000088
:101C96000200100802000000000000000022830E6F
:101CA6001520280836008835193F0F260020000821
:101CB600F20B65031E000000200205051022A3009A
:101CC6008014E80400008836050988385D14660823
:101CD600E231B10BA11D0004161A0700A1217600FE
:101CE600101E680700218437610858381D068206D1
:101CF600DE212138E11D18021222C7084E21780C78
:101D0600E2188807230E873831224328130000077C
:101D16003A010020A11300008009030800181200F0
:101D26000220380600208824010288088216BB0893
:101D36000E243203A2004006800902080022062172
:101D460002205820AB2000000000803837006608CB
:101D560006020300E221CD3A211AD82C1E22850D57
:101D6600E9214818A31E883C4F19860862137A0891
:101D7600FA03E80A623FB604213EDF0F301E080C64
:101D8600000CA7313F00711AFC032027C63F003024
:101D9600693C0F005E023A10222687089B204E38C7
:101DA6000004E8040E00830EE1000028130E00086C
:101DB600360108009E011214213E6E0B2822FB37C5
:101DC600D92097014001781604028C18FE225A0881
:101DD600E21F8B07C001002020060F0B0022F02710
:101DE600D122581F183888378B1A9429C024101905
:101DF60002340F1E66002104200620100022000D6A
:101E060015207810931E0000000080383700660801
:101E160006020300E221CD3A211AD82C1E22850D96
:101E2600E9214818A31E780648108538FE1D360895
:101E3600FA178A0A623F3604213EDF0F301E080C6D
:101E4600000CA7313F00711AFC030027C63F003281
:101E5600693C0F005E023A10222687085B204E3846
:101E6600000CE8040E00820EE1000028130E0008A4
:101E760036010800E23BB6202222D8241E1E190095
:101E860014206711203088392F2A8D08FE2D7800FE
:101E96001C00A002623CB00020027F062D22F52124
:101EA6008123782FA81199024C029109403FE0192D
:101EB60006044200620002012002D0140122070D2E
:101EC600E90100000000000BF203C00F00008B3C8C
:0C1ED600030000000000000000000000FD
:101EE600240094012630950096019701FE30930058
:101EF600A030920020009111210091150800F400F5
:101F0600F12F2100B401B40A080080307D02031CC1
:101F1600A32F6F308600273087000108F000F101FB
:101F26000730F035F10D890B942F7D087007F2000C
:101F360071080318710AF3007208B0007308A92F1C
:101F46007D08F000F1017008B0007108B100D22FD1
:101F5600F030F0002630F10030087007F20031084A
:101F6600713DF30072088600730887007D088100C2
:101F76000130B0070030B13D0130310200300319A5
:101F86003002031CD22FB001B101D22F2100340838
:101F9600003A0319AB2F013A0319882FAB2FB4016E
:101FA6000800F030F0002630F100210030087007FC
:101FB60086003108713D8700010824009100013038
:101FC6002100B0070030B13D013031020030031965
:101FD6003002031C0800B001B10108007408003A81
:101FE6000319842F013A0319D42F033A0319C92F71
:101FF600013A0319FF2FFF2F080020005E08D300C7
:102006005D08D2009A31BD22903120005308E600C7
:102016005208E5006608A1006508A0006008A30054
:102026005F08A2006208A5006108A4006408A70072
:102036006308A6009A312122903120002108E6008B
:102046002008E5005E08CB005D08CA006608CD00E2
:102056006508CC0099319A210800FF302200A400BF
:10206600FF30A50098314D2090318B170B172200B9
:10207600A601A7010E138E138E110D302100C40088
:102086002D30C300D730890B4628C30B4628C40B16
:102096004628003222000E170D302100C4002D30D4
:1020A600C300D730890B5528C30B5528C40B5528B8
:1020B600003222008E1715302100C4004B30C300B9
:1020C600BE30890B6428C30B6428C40B6428000047
:1020D60022008E1515302100C4004B30C300BE30DF
:1020E600890B7328C30B7328C40B73280000563062
:1020F6002200A8008030A9000030A3000030A20012
:102106000030A1000030A00006302000A8000030FA
:10211600A9005630AA000030AB009E31B926903196
:10212600200029082200DE00200028082200DD0009
:1021360007302000A8000030A9005630AA00003061
:10214600AB009E31B9269031200029082200E80014
:10215600200028082200E7000030C0000030BF0041
:102166000030BE000030BD005D082100C300220023
:102176005E082100C400C501C60143082200BD0453
:10218600210044082200BE04210045082200BF04A5
:10219600210046082200C0041030BD35BE0DBF0D1B
:1021A600C00D890BD02867082100C30022006808EB
:1021B6002100C400C501C60143082200BD04210058
:1021C60044082200BE04210045082200BF04210065
:1021D60046082200C00404302000A8000030A900F0
:1021E6005630AA000030AB009E31B926903120004F
:1021F60029082200DE00200028082200DD00053024
:102206002000A8000030A9005630AA000030AB001C
:102216009E31B9269031200029082200E8002000CE
:1022260028082200E7000030E2000030E10000301C
:10223600E0000030DF005D082100C30022005E08D8
:102246002100C400C501C60143082200DF042100A5
:1022560044082200E004210045082200E104210090
:1022660046082200E2041030DF35E00DE10DE20DF4
:10227600890B372967082100C3002200680821005E
:10228600C400C501C60143082200DF04210044083A
:102296002200E004210045082200E104210046084E
:1022A6002200E20408302000A8000030A9005630C1
:1022B600AA000030AB009E31B926903120002908D3
:1022C6002200DE00200028082200DD000930200060
:1022D600A8000030A9005630AA000030AB009E319D
:1022E600B9269031200029082200E800200028089D
:1022F6002200E70067085D04C10068085E04C200AA
:10230600C301C4015D082100C30022005E0821004C
:10231600C400C501C60143082200C10421004408C7
:102326002200C204210045082200C30421004608F9
:102336002200C4041030C135C20DC30DC40D890B73
:102346009E2967082100C300220068082100C400F6
:10235600C501C60143082200C10421004408220029
:10236600C204210045082200C304210046082200B9
:10237600C4040A30BB000030BC004408D600430841
:10238600D5004208D4004108D3000030CC0000300C
:10239600CB000030CA000030C9000030B600003063
:1023A600B5000030B4000030B3000030BA00003091
:1023B600B9000030B8000030B700D23086000030D7
:1023C6008700573084000130850006302100C300A5
:1023D60016001A00C30BEB2900302000A3000030C2
:1023E600A2000030A1001830A00022004008200002
:1023F600A70022003F082000A60022003E08200079
:10240600A50022003D082000A4009C3196249031AE
:1024160020002008013E2200AD0000302000213DB2
:102426002200AE000030D0000030CF000030CE00D9
:102436000030CD000130AF000030B000AA01AB0182
:102446008030E9000030EA006A08803A2100C300C3
:1024560080304302031D322ABF302200690203186E
:10246600682AF0302100C3002630C4002200690823
:1024760021004307860022006A082100443D8700A8
:102486000108C500C601C701C80145082200B307F7
:10249600210046082200B43D210047082200B53D30
:1024A600210048082200B63D0130E9070030EA3D28
:1024B6006A08803A2100C30080304302031D662A61
:1024C600BF3022006902031C342AC0302200E90012
:1024D6000030EA006A08803A2100C30080304302D7
:1024E600031D782ADF30220069020318AE2AF03075
:1024F6002100C3002630C4002200690821004307DA
:10250600860022006A082100443D87000108C500B4
:10251600C601C701C80145082200B70721004608C1
:102526002200B83D210047082200B93D2100480895
:102536002200BA3D0130E9070030EA3D6A08803AD8
:102546002100C30080304302031DAC2ADF30220085
:102556006902031C7A2AAF308600273087002200E2
:1025660033088100CF308600273087003708810086
:102576002000A901A90A0D30AA009830AB009930B5
:10258600AC000930AD001030983132209031200077
:10259600A901A90A0D30AA009830AB000030AC00A2
:1025A600AD00103098313220903129302100C4001E
:1025B6009630C3007F30890BDE2AC30BDE2AC40B9C
:1025C600DE2AA0302000A000A030A10098316820AB
:1025D60090312200D101D2015208803A2100C30075
:1025E60022002E08803A21004302031DFD2A220004
:1025F6002D0851020318822C00302200CC00003036
:10260600CB008030CA000C30C9002000A901A90AFD
:10261600220057080C3E2000AA0000302200583D38
:102626002000AB00220053082100C30022005408FA
:102636002100C400220055082100C50022005608CA
:102646002100C6001030C636C50CC40CC30C890B5D
:10265600262B44082000AD00210043082000AC00D2
:1026660010309831322090312000A901A90A2200A9
:1026760057080D3E2000AA0000302200583D2000D9
:10268600AB00220054082000AD00220053082000B1
:10269600AC001030983132209031FF3022005305C3
:1026A6002100C300FF30220054052100C400003081
:1026B600220055052100C5000030220056052100E4
:1026C600C600220053082100C7002200540821003A
:1026D600C800220055082100C90022005608210022
:1026E600CA001030CA36C90CC80CC70C890B752B2A
:1026F6004708C3074808C43D4908C53D4A08C63DC2
:1027060043082200C907210044082200CA3D2100CF
:1027160045082200CB3D210046082200CC3DE901B8
:10272600EA016A08803A2100C30080304302031D93
:102736009F2B0C30220069020318FA2B22003C085A
:102746002000A90022003B082000A8005630AA005D
:102756000030AB009E31B9269031200029082200B6
:10276600E800200028082200E7006808C60067087D
:10277600C5002000A901A90A220069085707200000
:10278600AA0022006A08583D2000AB002200460835
:102796002000AD00220045082000AC001030983122
:1027A6003220903122004508C9074608CA3D00304C
:1027B600CB3DCC3D0130BB070030BC3D0230D307DA
:1027C6000030D43D0030D53D0030D63D0130E9071C
:1027D6000030EA3D6A08803A2100C3008030430297
:1027E600031DF82B0C3022006902031CA12B2000CC
:1027F600A901A90A220057080E3E2000AA000030AF
:102806002200583D2000AB00220049092100C300E8
:1028160022004A092100C400C30A0319C40A430856
:102826002000AC00210044082000AD001030983193
:10283600322090312000AB01AB0A220057080E3E31
:102846002000AC0000302200583D2000AD001030C2
:102856009831832090312000A901A90A2200570847
:102866000F3E2000AA0000302200583D2000AB0099
:102876000C30AC008030AD001030983132209031F1
:1028860000302200D0000030CF000030CE000030F3
:10289600CD002000AB01AB0A220057080F3E2000F6
:1028A600AC0000302200583D2000AD0010309831B9
:1028B6008320903120002C082200E40020002B0801
:1028C6002200E3000C306306803003196406031D02
:1028D600752C0130CD070030CE3D0030CF3D0030A5
:1028E600D03D4C2C6308640403197D2C0130AA07E3
:1028F6000030AB3D0130D1070030D23DEF2A200039
:10290600A901A90A220057080C3E2000AA0000309F
:102916002200583D2000AB0022005F082100C300C2
:10292600220060082100C400220061082100C500C1
:10293600220062082100C6001030C636C50CC40C41
:10294600C30C890BA02C44082000AD0021004308CD
:102956002000AC0010309831322090312000A901BF
:10296600A90A220057080D3E2000AA0000302200C6
:10297600583D2000AB00220060082000AD00220078
:102986005F082000AC001030983132209031FF30C3
:1029960022005F052100C300FF30220060052100F0
:1029A600C4000030220061052100C500003022006D
:1029B60062052100C60022005F082100C700220030
:1029C60060082100C800220061082100C900220019
:1029D60062082100CA001030CA36C90CC80CC70CE0
:1029E600890BEF2C4708C3074808C43D4908C53D75
:1029F6004A08C63D003043072200C9004030210086
:102A0600443D2200CA0000302100453D2200CB0093
:102A160000302100463D2200CC002000A901A90A71
:102A2600220057080E3E2000AA0000302200583D22
:102A36002000AB00220049092100C30022004A09F8
:102A46002100C400C30A0319C40A43082000AC00CD
:102A5600210044082000AD0010309831322090311A
:102A66002000A901A90A220057080F3E2000AA004B
:102A760000302200583D2000AB000030AC00403052
:102A8600AD00103098313220903122002F083004EA
:102A960003197C2D0030D0000030CF000030CE006E
:102AA6000030CD002000AB01AB0A220057080F3ED4
:102AB6002000AC0000302200583D2000AD00103050
:102AC60098318320903120002C082200E400200059
:102AD6002B082200E300403064066304031D7C2DAE
:102AE6000130CD070030CE3D0030CF3D0030D03D27
:102AF600552DE901EA016A08803A2100C3008430B5
:102B06004302031D892D0030220069020318BF2DE0
:102B16002200D101D2015208803A2100C30084303C
:102B26004302031D992D0030220051020318AD2DDA
:102B360001302200D1070030D23D5208803A2100F0
:102B4600C30084304302031DAB2D00302200510226
:102B5600031C9B2D01302200E9070030EA3D6A087C
:102B6600803A2100C30084304302031DBD2D00308E
:102B760022006902031C8B2D2000AB01AB0A143026
:102B8600AC009830AD001030983183209031200091
:102B96002C082200E40020002B082200E30020007D
:102BA600A901A90A1830AA009830AB000030AC0081
:102BB6005030AD0010309831322090312000AB01FA
:102BC600AB0A1830AC009830AD0010309831832035
:102BD600903120002C082200E40020002B0822005F
:102BE600E3000D302100C4002D30C300D730890B1F
:102BF600FA2DC30BFA2DC40BFA2D00322000AB01BF
:102C0600AB0A1830AC009830AD00103098318320F4
:102C1600903120002C082200E40020002B0822001E
:102C2600E3002000A901A90A1830AA009830AB00D9
:102C36002030AC005030AD00103098313220903149
:102C46002000AB01AB0A1830AC009830AD00103054
:102C560098318320903120002C082200E4002000C7
:102C66002B082200E3000D302100C4002D30C300E4
:102C7600D730890B3C2EC30B3C2EC40B3C2E0032A6
:102C86002000AB01AB0A1830AC009830AD00103014
:102C960098318320903120002C082200E400200087
:102CA6002B082200E300C0302000A000A030A100C5
:102CB6009831682090315E2E22006A082100C400F7
:102CC600220069082100C300C335C40DC335C40DF5
:102CD6004308013EC5000030443DC60000304507AC
:102CE6008400A030463D85000008C7004708200044
:102CF600CA0022006A082100C900220069082100D2
:102D0600C800C835C90DC835C90D4808023ECA00F5
:102D16000030493DCB0000304A078400A0304B3DCF
:102D260085000008CC004C082000CB0022006A0871
:102D36002100CE00220069082100CD00CD35CE0D40
:102D4600CD35CE0D4D08033ECF0000304E3DD000B0
:102D560000304F078400A030503D85000008D100A8
:102D660051082000CC0022006A088500690884000A
:102D76008435850D8435850D00308407A030853D6A
:102D860000089931F321903101302200E907003023
:102D9600EA3D6A08803A2100C30022003208803AE0
:102DA60021004302031DDA2E220031086902031CAA
:102DB6005F2E29302100C4009630C3007F30890B76
:102DC600E22EC30BE22EC40BE22E2000A901A90AB3
:102DD6000D30AA009830AB007730AC000730AD005C
:102DE60010309831322090312000A901A90A0D3007
:102DF600AA009830AB000030AC00AD00103098311E
:102E06003220903129302100C4009630C3007F3033
:102E1600890B0B2FC30B0B2FC40B0B2F98310420E0
:102E260090313D302100C30043082200AC00E5018B
:102E3600E601A731C52790312200D101D201E9016F
:102E4600EA01DE302000A000A030A1009831682001
:102E56009031ED2F3B308600273087000108210096
:102E6600C30043082000D2003A308600273087008E
:102E760001089A31F7229031200053082200C80039
:102E8600200052082200C70048082100C3003C3039
:102E9600860027308700430881003D3086002730B2
:102EA6008700220047088100E82F3B308600273044
:102EB600870001082100C30043082000CA003C30F7
:102EC60086002730870001082100C400440820003E
:102ED600CB003D3086002730870001082100C50061
:102EE60045082000CC003A308600273087000108CC
:102EF6009931F3219031E82F2200E501E601E82F10
:102F0600220066082000A100220065082000A0001B
:102F16003A3086002730870001082100C3004308A5
:102F26002000A20099310121903101302200E507ED
:102F36000030E63D66082000A1002200650820005A
:102F4600A0003B3086002730870001082100C3001F
:102F560043082000A200993101219031013022005E
:102F6600E5070030E63D66082000A100220065085E
:102F76002000A0003C308600273087000108210091
:102F8600C30043082000A20099310121903101308D
:102F96002200E5070030E63D66082000A100220079
:102FA60065082000A0003D30860027308700010814
:102FB6002100C30043082000A2009931012190316D
:102FC60001302200E5070030E63D3E30860027301E
:102FD600870081013E308600273087000108013ACC
:102FE60003192D2F033A0319582F013A0319832F7A
:102FF600073A03197F2FED2FED2F20302100970080
:10300600080061302000DD008430DE000130DF0082
:103016000030E0000E30E1000030E2000130E30055
:103026000030E4009031002008002000A100A20139
:103036000530220203180800211E2528A731A527DE
:1030460098312828A731AD27983120002135A000D6
:103056002008A1000130A0002008A2071B2820009C
:10306600AF002908AE002E08A3002B08A5002A08E9
:10307600A4002F089B313323983120002908AE0085
:103086002E08A3002D08A5002C08A4002F089A31AD
:10309600532208009B31FB239831A731B52798317D
:1030A6009831002098318F3173279831A1310F2143
:1030B6009831A731C5279831A13113219831A7310D
:1030C600CE279831A731BD27080020002108A4008B
:1030D6002008A30023088400240885001200031991
:1030E6000800111E7428230884002408850000089F
:1030F60023009A0001302000A3070030A43D6D286C
:103106002000AF002B08AE002E08A3002D08A50056
:103116002C08A4002F089B313323983120002B085C
:10312600AE002E08A3002F089C3147242000240857
:10313600AC002308AB0008002000A6002308A50069
:103146002208A400A435A50D2608860087012408B8
:10315600C03F2508C13F2108A4002608023E86007C
:103166008701240881002608033E8600870120087F
:10317600C03F0030C13F080000308B1B01302000EB
:10318600A2008B1320083100910020002108310095
:10319600920015131514000000002000220C031CD9
:1031A6008B1303188B17310014082000A10031007F
:1031B60013082000A00008005530F5007508F60039
:1031C6002000911124001108F5007508F600141D61
:1031D600F328941A161FF1280330FC280130FC2826
:1031E600941AF7280030FC287608F5007508FD00CB
:1031F60002308F31822724001516080000308B1B01
:1032060001302000A3002108310092002000200890
:103216003100910020002208310093001517151582
:103226008B1355309600AA309600951495181929D7
:1032360015112000230C031C8B1303188B17080091
:103246002000691843292908A1002808A0002A0897
:10325600AE002E08A2002C08A4002B08A300B5304F
:10326600993172219931B5302000AE002E08A000A8
:103276002D08AF002F08A10001309B31B6230800AE
:1032860020002D08860087018101810A08002000A0
:10329600AD0069186B292D08AB002B08A000270884
:1032A600AC002C08A1002908A3002808A200BA3007
:1032B60098319F209931BA302000AB002B08A0002E
:1032C6002A08AC002C08A10001309B31B623080067
:1032D60020002A08860087018101810A0800200053
:1032E600A7002408A6002308A500A535A60D2708D3
:1032F600860087012508C03F2608C13F27088600AB
:103306008701013081044131003081042208A50083
:103316002708023E86008701250881002708033E0C
:10332600860087012008C03F2108C13F0800210010
:103336002F082000D30021002E082000D2002100F3
:103346002D082000D10021002C082000D0004B08B9
:10335600CE004E08D0004A08CE004E08D1004D08D7
:10336600CE004E08D2004C08CE004E08D300523094
:10337600CE004E08AE000230CF004F08AF005030EE
:103386009D31452508002000200821040319EE2957
:10339600A501A50AA11BD9290130A035A10D890BCC
:1033A600D0290130A4002408A507CD29210823022D
:1033B600031DDF2920082202031CE5292008A2029A
:1033C6002108A33B0130A136A00C890BE629013068
:1033D600A502031DD9292308A1002208A000080080
:1033E6002000CF00210027082000D3002100260856
:1033F6002000D200210025082000D1002100240849
:103406002000D0004F08CD004D08D0004A08CD005E
:103416004D08D1004B08CD004D08D2004C08CD0018
:103426004D08D3005230CD004D08AE000230CE001C
:103436004E08AF0050309D31452508000130200070
:10344600A8000030A900260A2A2AA835A90D890B4A
:10345600282A2808FF3EAA00FF30293DAB002B088A
:10346600A9002A08A800240A3A2AA835A90D890B1A
:10347600382AA809A9092808A0052908A1052A08A3
:103486002205A8002B082305A900240A4C2AA835E2
:10349600A90D890B4A2A2808A0042908A1040800B6
:1034A6002000A600A13105219A31A73180279A3143
:1034B600A73192279A3120002608983118209A3190
:1034C60020002308983118209A31A73186279A318F
:1034D6002000A701A8010030280210300319270296
:1034E60003180800A51F7B2AA731A5279A317E2A33
:1034F600A731AD279A3120002435A400250DA5005B
:103506000130A7070030A83D6E2A2000A501A601BC
:10351600200821040319B82AA701A70AA11B9D2A7E
:103526000130A035A10D890B942A0130A40024088E
:10353600A707912A0130A535A60D890B9E2A2108D9
:103546002302031DA82A20082202031CAF2A2008F2
:10355600A2022108A33B25140130A136A00C890B39
:10356600B02A0130A702031D9D2A2608A1002508BE
:10357600A000080021002B082000DC0021002A08FA
:103586002000DB00210029082000D800210028089F
:103596002000D7005308D4005408D7005208D4009E
:1035A6005408D8005B30D4005408CA000230D50055
:1035B6005508CB0057309B31742320005B08D4009C
:1035C600D5015408D500D4015408D9005508DA00AD
:1035D6005C085907D9005A0803185A0ADA005A082B
:1035E600D3005908D20008002000D7002100230884
:1035F6002000DD00210022082000DC002100210837
:103606002000D900210020082000D8005708D40047
:103616005408D8005208D4005408D9005C30D400AD
:103626005408CA000230D5005508CB0058309B31EB
:10363600742320005C08D400D5015408D500D401B9
:103646005408DA005508DB005D085A07DA005B0803
:1036560003185B0ADB005B08D3005A08D200080097
:103666002000A600A13105219B31A731F1279B310E
:10367600A73180279B31A7318C279B312000260854
:10368600983118209B3120002308983118209B314F
:10369600A73186279B312000A701A8010030280208
:1036A6001030031927020318712BA51F5E2BA731B3
:1036B600A5279B31612BA731AD279B3120002435EF
:1036C600A400250DA5000130A7070030A83D003055
:1036D6002802103003192702031C582BA731F127A3
:1036E60008002000D0004B08CC004C08AE00500863
:1036F6009C31E9249B3120002F08CF002E08CE00F4
:103706004E034F04031908000230CC004C08D100C8
:10371600EC015103031908004A08A8000030A9006B
:103726000230CC004C08AA001030AB000030AC00D0
:103736005130CD004D08AD00993123219B31023027
:10374600200051060319A22B510803190800510342
:103756000319080064306C06031908000130CC0018
:103766004C08EC078C2B2000A3006918EA2B0230CA
:10377600A200210886008701220881002008A200F5
:10378600670A86008701220881002308A2006708CD
:1037960086008701220881006708023E86008701AD
:1037A6002108C03F0030C13F0430A2002208E707CD
:1037B6006708C33A031DE32BBF30A2002208E700C7
:1037C600E91068086706031DEF2B6914EF2B210823
:1037D600860087018101810A21088600870102305F
:1037E6000106031D08006F08031DF62B921508003D
:1037F60022008C018D018E01273021008C00F030D3
:103806008D0027308E00FF3023008E008D0133306F
:103816008C0024008D0104308C008E0125008C0163
:103826008D018E0100308B1B01302000A0008B1310
:1038360055303C008F00AA308F000F102108E03968
:103846000C38A1002008E0390E38A0003D0014080D
:10385600E0391E3894001C08E03919389C00240809
:10386600E0391438A4001E08E03918389E00553097
:103876003C008F00AA308F000F142000201C452C1E
:103886008B1708008B1308002000A600A131052124
:103896009C31A73180279C31A7317A279C312000A3
:1038A6002608983118209C312000230898311820CA
:1038B6009C31A1310A219C31A73174279C3120000B
:1038C600A701A801003028021030031927020318A7
:1038D6008B2C2935A9002A0DAA0022008D13000081
:1038E60022008D1720008D1E7E2C01302904A90090
:1038F60000302A04AA00000001302000A70700308B
:10390600A83D00302802103003192702031C6C2C36
:10391600A13105219C31A731F12720002A08A400F6
:103926002908A300080000302000AC000030AB00DE
:103936000030AA000030A900230822042104200434
:103946000319E02CAD01AD0AA31BB52C0130A0353F
:10395600A10DA20DA30D890BAA2C0130A8002808E1
:10396600AD07A72C0130A935AA0DAB0DAC0D890BFF
:10397600B62C23082702031DCA2C22082602031D83
:10398600CA2C21082502031DCA2C20082402031C68
:10399600D52C2008A4022108A53B2208A63B230813
:1039A600A73B29140130A336A20CA10CA00C890B4D
:1039B600D62C0130AD02031DB52C2C08A3002B0814
:1039C600A2002A08A1002908A00008002000C600BD
:1039D600C701C8014808803AB00080303002031D94
:1039E600F62C2E08470203180C2D20004708460720
:1039F600B0003008860087010108B1004708323E52
:103A060086008701310881000130C7070030C83DB4
:103A1600ED2C20002E08B0003008C5000230B000A2
:103A26003008C900EC01490303193D2D4508B000D3
:103A36003008A7001030A8000030A9004930B100B6
:103A46003108AA00323099314A219C3102302000D7
:103A560049060319292D490803193D2D4903031960
:103A66003D2D64306C0603193D2D0130B000300841
:103A7600EC07162D4903031D08000130AE00003087
:103A8600AF0008002000C600C701C8014808803AF8
:103A9600B00080303002031D522D2F084702031854
:103AA600682D200047084607B000300886008701C9
:103AB6000108B1004708323E8600870131088100BF
:103AC6000130C7070030C83D492D20002E0886006A
:103AD60087010108B0002F08323E860087013008B2
:103AE60081002E0A860087010108B0002F08013EDA
:103AF600323E86008701300881002F08023EB00062
:103B06003008C5000230B0003008C900EC01490396
:103B16000319B12D4508B0003008A7001030A800E1
:103B26000030A9004930B1003108AA00323099317D
:103B36004A219D3102302000490603199D2D49086E
:103B46000319B12D49030319B12D64306C0603190D
:103B5600B12D0130B0003008EC078A2D4903031D52
:103B660008000130AE000030AF0008001134053403
:103B76000634003400340034003400340034003499
:103B8600003400340034003400340034003400348F
:103B9600003400340034003400340034003400347F
:103BA600003400340034003400340034003400346F
:103BB600003400340034003400340034003400345F
:103BC600003400340034003400340034003400344F
:103BD600003400340034003400340034003400343F
:103BE600003400340034003400340034003400342F
:103BF600003400340034003400340034003400341F
:103C0600003400340034003400340034003400340E
:103C160000340034003400340034003400340034FE
:103C260000340034003400340034003400340034EE
:103C360000340034003400340034003400340034DE
:103C46000034003400340034383400340034003496
:103C560000340034003400340034003400340034BE
:103C6600003400340034003400340034113400349D
:103C7600233480340034703400340034003400348B
:103C8600003400340034003400340034003400348E
:103C96000134083446344934543420340034003472
:103CA600003400340034003400340034003400346E
:103CB600003400341F34003409343A34313430349B
:103CC60030343234393437343134313430343134B9
:103CD600203420342034203420342034313420342D
:103CE600423468340734D034003463340234003448
:103CF60000340034353432343834363432343034E7
:103D060037343534303420342034203420342034D1
:103D16002034203431343534313430343134333492
:103D26002034203400340034003429340034003484
:103D360000340034003400340034003400340034DD
:103D460000340034003400340034003400340034CD
:103D560000340034003400340034003400340034BD
:103D66000034003400340034003400340E302000B7
:103D7600A0000030A1002908AD002808AC00AC0E58
:103D8600AD0EF030AD052C080F39AD04F030AC05A2
:103D96002C08A2002D08A3009A3188229E3120000B
:103DA6002108B4002008B3003408B8003308B7006F
:103DB6002908BA002808B9000730A0000030A10081
:103DC6003A08A3003908A2009A3188229E312000C1
:103DD60039082007B7003A08213DB8000730A0008F
:103DE6000030A1003A08A3003908A2009931C62183
:103DF6009E3120002108B6002008B5003708563E3F
:103E0600A0000030383DA1009831BF209E3120002F
:103E16002108BE002008BD003708573EA00000302C
:103E2600383DA1009831BF209E3120002108C000F6
:103E36002008BF00D02F03303F05AC0000304005FE
:103E4600AD000E30AC35AD0D890B252FFF303D058D
:103E5600AE003F303E05AF002C082E04BB002D08F7
:103E66002F04CE2F0F303F05AC0000304005AD00CB
:103E76002C0EF039AD00AC013E08AF003D08AE0097
:103E8600AF36AE0CAF36AE0CFF302E05B0000F309D
:103E9600C72F3F303F05AC0000304005AD000A306B
:103EA600AC35AD0D890B532F3E08AF003D08AE0073
:103EB6000430AF36AE0C890B5C2FFF302E05B000F8
:103EC6000330C72FFF303F05AC0000304005AD0082
:103ED6002C08AD00AC013E08B0003D08AF0006302E
:103EE600B036AF0C890B732FFF302F05B1000030B1
:103EF6003005B2002C083104BB002D083204CE2F49
:103F0600FF303F05AC0003304005AD000630AC3550
:103F1600AD0D890B8A2F3E08AF003D08AE002F0875
:103F2600AE00AF013F30C42FFF303F05AC000F306D
:103F36004005AD00AC0EAD0EF030AD052C080F39C6
:103F4600AD04F030AC053E08AF003D08AE000A30C7
:103F5600AF36AE0C890BAB2F0F30C42FFF303F05A9
:103F6600AC003F304005AD00AC35AD0DAC35AD0D08
:103F76003E08AF003D08AE002F0E0F39AE00AF0170
:103F860003302E05B00000302F05B1002C08300498
:103F9600BB002D083104BC00DF2F3608003A031998
:103FA600D52FDF2F35088400073004020318DF2FD2
:103FB600A0310435F13E82003C08AD003B08AC0060
:103FC6002D08AC00AD01FF302C05AE0000302D05EC
:103FD600AF00FF303B05B00000303C05B1003008B3
:103FE600B100B0012E083004BB002F083104BC001C
:103FF6003C08A9003B08A80008008034A734143404
:1040060000348134A734143400348234A734143491
:1040160000348334A734143400348434A73412347F
:1040260000348534A734123400348634A73412346D
:1040360000348734A734123400348034A8343C3436
:1040460000348134A8343C3400348234A8343C34FF
:1040560000348334A8343C3400348434A8343F34E8
:1040660000348534A8343F3400348634A8343F34D1
:1040760000348734A8343F3400348434A6343C34C6
:1040860000348534A6343C3400348634A6343C34BB
:1040960000348734A6343C3400348034A0340034F1
:1040A60080348134A034003480348234A034003427
:1040B60080348334A034003400348434A034003493
:1040C60000348534A034003480348634A03400347F
:1040D60080348734A0340034803484344E34083439
:1040E600003485344E340834003486344E34083473
:1040F600003487344E3408340034803461343C3420
:10410600203481346134343420348234613434349C
:104116002034833461343C342034843461347C3438
:104126002034853461343434203486346134343474
:10413600203487346134343420344D3444344934A3
:104146004F3420346C346F34613464342034663434
:10415600693472346D3477346134723465342034A2
:104166005334543441345234543420342E342E349F
:104176002E342E342E342E3400344D344434493407
:104186004F3420346C346F346134643420346634F4
:10419600693472346D347734613472346534203462
:1041A60045346E34643420342E342E342E342E347A
:1041B6002E342E3400344D344334553420345334A5
:1041C600543441345234543420344F344B342E3426
:1041D6002E342E342E342E342E3400349F311E2F9E
:1041E6009F31352F9F314C2F9F31652F9F31832F64
:0841F6009F31972F9F31B12F7B
:104200003412214334223432080021000D08DF39F2
:104210008D00080021000D0820388D000800BA30FC
:0E422000220097000800103027009A000800C6
:104EE800A7319E27A731A7319E270800A731A527FC
:104EF800A731A731A5270800A731AD27A731A731CA
:104F0800AD270800A731A527A731A731AD2708008D
:104F1800A731AD27A731A731AD270800A731AD27A5
:104F2800A731A731A527080000349F340D349834E1
:104F38001434983422008D13000022008D170000CD
:104F4800080022008D138D16000022008D17000026
:104F5800080022008D138D12000022008D1700001A
:104F68000800320099019B019D0107309F009E01B6
:104F7800080021000D087F398D000D08DF398D00EC
:104F88000800F53021009D00E0309E009F019B0144
:104F98009C010800083023009F0080309D002430C9
:104FA8009E008A309B009C0108006400800101314A
:104FB8000130FE020030FF3B7F087E0403190034F5
:104FC800DA2FFE0012001E000130FE020030FF3B07
:104FD8007F087E0403190034E62F2000A101203049
:104FE800210203180800A731A527A73101302000A6
:104FF800A0002008A107F32F4234723465346134CD
:105008006B3464346F3477346E3421340D340A349D
:02501800003462
:020000040001F9
:08000E008CFFF1FFFFFFFFFF73
:00000001FF
