:1000000080312E28080055347E14803120007F086E
:10001000F7000B1F14282100911D14282000911DAA
:10002000142899312D2180310B1F1F282100121D0A
:100030001F282000121D1F288031022080310B1F35
:1000400029282100921D29282000921D29289E314F
:10005000B32677082000FF007E1009008031302889
:100060001430840090308500F03086002630870000
:100070000130FF000030983156208031803103205C
:100080008031FD002830840098308500693086007A
:10009000013087000030FF00063098315620803153
:1000A000F801F901FA01FB01FC01E701E801E901AE
:1000B000EA01EB01EC01ED01EE01EF01A03084005B
:1000C000003085002330FE000030FF0098314A20C8
:1000D0007E10200091311429C22D0700700C3E00C3
:1000E00000010004000000001A18050000000000D4
:1000F000000F40030030033400003C000D00C0033B
:10010000D000003C000D00000F100300F000340090
:10011000000F40030030033400003C000D00C0031A
:10012000D000003C000D00000F100300F000340070
:1001300000000000000000000000000000000000BF
:10014000000100144000000000000000000000005A
:10015000000000000000000000000000000000009F
:100160000000000000100000051C060060005100A7
:100170000006B01100000010013407000000080064
:1001800004000804402F000000020004F00F3F00AC
:1001900001001800A00080010005001400300E00CE
:1001A0001E000400A000000000000000000040004D
:1001B00000000C00B004800C0110161800000000B4
:1001C000000000000000000000184200901A220405
:1001D0000D0BAF020100372F100674350C008001A3
:1001E0005D00000060070000000000002000040027
:1001F000032F04000000000000010C202E0040002E
:100200008000801860000005000000000000000071
:1002100000000020011200000000040C871A4807AB
:10022000581C863C0F0E2E19000252070001012AAD
:10023000401816304A38FF3FD401C012213E300426
:10024000001C0201100029210003800B84210035CD
:10025000012042084E080800B8020120401D001C81
:10026000082253020210273000005007000903350E
:10027000010063101D001207D4012000E0092500D1
:100280000420130101302700000AA83A0400C0012D
:10029000C00480236A070000E12B8122840118003A
:1002A000000CDE02E003EA182D30972E06304138AC
:1002B0006B180030B8080000E524A1000001000020
:1002C0000728DE01000078292002940B8702000431
:1002D00000000C1401000000AA050100C03818003D
:1002E0003F25932201000400000680138821403935
:1002F0006E2000000100C00015000000900A3100CF
:10030000001F623CFF0F2F0E00004C3CFF1F7905C1
:10031000000000382935FF3FBC32FC3FCF00000011
:1003200006288221493001300413A30A0800C000C6
:10033000FF3FEF3B2935FF3F9C020110D029F33FDF
:10034000FF3CBA3CFF0F03000006A0028609C10172
:10035000C00428232A080000033FFF2FDF29F33FB2
:10036000FF058600C001610800001006040041215D
:10037000C100201818040003860102006118300033
:1003800014070600800111004800700602000827CB
:10039000213FA3131D001C02D4012011411D0002A6
:1003A0000014070041007500900C5007000A442A11
:1003B000C3000010E9060000BC230000C0000000DC
:1003C00016240E3D0000AF080800400000208325E1
:1003D0008E00083809040000A403C13F8F0AE03FE3
:1003E000FF208B0109002A2D00001C004C30A7279C
:1003F000520100302B030200133FFF2F8F0AE03F12
:10040000FF03FC3FFF1EA7330004A002F83FFF01DB
:10041000C0045C224A0B0000033FFF2BDE2933009F
:100420000405860040016108000010060400412117
:10043000C1002018180400038601020041040012C4
:10044000001C86008001272800017006F20F3D384D
:10045000852020101D000401A8030100800A182631
:10046000112892020000750048081C004C3020350D
:10047000010800100B065400D4026020C0091800C7
:10048000001C0B20A11161080008100602000021C9
:1004900041001010040012009C210030400A290085
:1004A000071C863C0F0F6E29000B50070001012727
:1004B000C03800204A0400009C000238441D001C83
:1004C00008140720C410EA3000001C007C302035DE
:1004D000010800102A0A0002A82E0100C01B01001A
:1004E0000010000030002720001F73020A20C801FE
:1004F000C007EC31090C8038852100304018080015
:10050000000406014010613000081001800400273B
:100510002100403019323F3BD4014010401D001CE7
:100520000814072004017500080050070009032A79
:1005300043000038380400058C230230602A140080
:100540000725CB21020004000004A4120C000000C7
:1005500000001430593AFF3FE532A20000010000CC
:10056000031C96021000B600280C300A0A0003296A
:10057000A5001C20EA060000B825022CC0092000B6
:100580004E07001FB00527303800300A0600033937
:10059000231002000100400585210000C128200031
:1005A0001407FC3F7F0CAA1B0000A03A060000279E
:1005B000A0020030093C0F2007001F3CC4092000A6
:1005C00001288A010030C13FFF2CA23A0800002D0B
:1005D000601005102D0006029C200138812A23009E
:1005E00000180B20E130C13FFF2DA00A060040217A
:1005F0002100401018020000840101105018300042
:1006000008060601C0001100480070060200052718
:10061000213FC3131D001203D4012000401D00041C
:10062000041407008710E630001AF03A00000003B7
:100630000000581418020003B40041054038280097
:1006400008200B212200E62D001CE00A04101639B8
:10065000822800000100800385210030803A1000CC
:1006600000188005003001300806A00EA6011227F0
:10067000600004302D0086068C22013CC03B000047
:100680000010000040106108000C600B002743219F
:1006900021003010180200008401011050183000B1
:1006A00008040120040067080010E00E060021275E
:1006B000213FD3131D000401A403013C401D00127F
:1006C000083C0A0020000400001350078000002F9F
:1006D00002000C0001004002BC020000C00000004B
:1006E0000A1880050030C13FFF05A10E86011927B9
:1006F000600014000000C003A8020200800158003E
:10070000000000008000EA18183C1F002C103C2755
:10071000600008000000C002852100208001580010
:1007200000288E25413AC13FFF37540000000027C2
:10073000600014300908000007000B285E0100006B
:100740000005860080006108000010060400011109
:1007500000080130190200039C21FC234F3A2000BD
:10076000FF14072044002F01000040000020013545
:100770000108001C002C80369C20010800000000AD
:100780001F05860040300130021973020610032A4B
:100790006018421C002C01329C0002287100F000FD
:1007A000C52882218901EE22000C962E0630032FE7
:1007B0000B00000001000003AC240134000E2806E9
:1007C000022097214110EF20000040000000022F7E
:1007D000040000300906400307000B1CCC09200070
:1007E00001000000901061080004F0120000C00435
:1007F000FF3FAF170100000007000B34CB091800C2
:100800000D03FC3F8F0E2A189810100602000011ED
:1008100000080130190200029C21FC238F3A2500B8
:10082000001C82022004750048041C006C001F3567
:100830000108001418020001842100004004001285
:10084000001C860080006708FF345307000101295F
:1008500043003C101D001202BC22000400010000F5
:100860000C140720000006200100A0028619062AA9
:100870008400E01F003C802294040200C00918009C
:100880000F07000B200AAA200000000000204121D1
:10089000210020200106402207001B30843A981ACC
:1008A000AF058600800061080000100604000111F9
:1008B00000080130190200039C21FC138D0158002F
:1008C0000018000600007500100460001400002AE3
:1008D000631A60214A380726A80201204F1D001222
:1008E0002814072000007500700850070009033520
:1008F000012042101D002C05D4010023411D0034AD
:100900001C1407000E32013003005307000FC90109
:10091000C00398150100000094220100C03B0800AC
:100920000010000070000618010060001800002A86
:10093000630000100030002FA8046A20C52D0016A7
:10094000001A80070020EA3D0034A1028609C50193
:10095000C00398210A343F3CE42B40000001000012
:100960000618003DFC3F0130031A71020600C00169
:10097000BF3E171601000000A802FD3F1F0C100427
:10098000001C0202001030102001600016004027F9
:10099000C03FFF1F003C0115A8235D30D229330062
:1009A00001253A037000AE1B0003E03A0420013831
:1009B0004310002001160000A8237520052E100604
:1009C0000007001FF009AA1B0000E42E0600622F9A
:1009D000AB007C000110C032BD0B011C613A12005B
:1009E0001F3D4A01900004000009F40A0930422F1B
:1009F0007200200001000036BC1200080001000057
:100A00000C1C023EEF0F0000030A56000000000419
:100A1000000320362B0B000310000410C02B040031
:100A200018100004D0062A20820000003020600543
:100A300000000030280680109E000304003E1808C5
:100A400003225B038700B60018021D003C300B2A0E
:100A500060183E200A06A605E12BC1217400F000B3
:100A60002B262E0110002A189811600B0009042A69
:100A700096000030090A000007000F00A33A220088
:100A800000108A01E000EF08002441000000032963
:100A9000743FFF033E061C22A4230104C03B000058
:100AA0000010000C0006AA250000A0028629C5013E
:100AB000C0039030090A00009C200100802D000630
:100AC0000E07001FA00AAA1B0000942E06303F2F1D
:100AD000120000000100000BD802603D40392D00DB
:100AE000241C0203F0036929003FA03A0600C0015C
:100AF000C006AC300908001E18200500802A23001B
:100B00000007001F4000EA18182060001600002AA5
:100B10008E00001C003C0100A8235D30CE0920009F
:100B20000828BA010000B600200E1C006C20062721
:100B300080003825BB0680048C22023C903B1A00C2
:100B40005D3C16000000AA1B0000400000000336B8
:100B500002183130090A00009C0002047000B00144
:100B6000131C02030400E5150018F00A020000043B
:100B700000000C30090A8000A8220200802A1B0015
:100B8000001C0202F00D273000021C006C10420510
:100B9000000000000000401B94170200C03B020050
:100BA0000010000010032730003F501E0B000929E1
:100BB000A500FC20EA0600009C00022077007001DE
:100BC000FE3A5202000106180100A03A0800C001D6
:100BD000C0065C233A06060818200500802A230078
:100BE0000007001B300DEA18172C730206100127AE
:100BF000800020202D004603BD34010000010000CC
:100C000006180B00E20027180007700208100036D3
:100C1000021834202D0008048C220234401A2900C6
:100C20000728BA0100006E29000B70020820D301CA
:100C3000C0059433090C0E008C220134802D00066F
:100C40000C145E018001AF08000040000030002756
:100C5000A00008202A0A0000A82E0100C0092000D8
:100C6000DF070017A00D27300002A03A060000277A
:100C700080000430090A0000033FFF33CC09301024
:100C8000000C8A01E000E718FF36F30E041003049D
:100C90000000EC2001160000B42041054028280087
:100CA00004208F212200E52D0010E00E06001439EB
:100CB000851800000100800CE037C201C028300018
:100CC000131C9A012001EE180002801F87010021E9
:100CD000630000203B080017D4026000C209210015
:100CE0001A3812022000F8252000101208000036E1
:100CF00002104A102D000809A403023C8F3B180083
:100D000004249203F00029210007E00E06001236A9
:100D1000022030202D000E05D40260008201580010
:100D2000001C0B008901B7009016601700030B2A06
:100D30008E00001C002C4122A8235D30CE28280004
:100D40000C185E022012792120004000001042059C
:100D500000000010790B0020A425023C872A1B000C
:100D6000003896027000272000011C005C00282734
:100D7000C03F003228080005073FFB03812A1B0003
:100D800000145E02003001300523A23A0600000084
:100D9000000210170100000018200500802A23001F
:100DA0000007001B1007EA1817087202083007270F
:100DB000600000202D000807D8028034C1092000FF
:100DC00008180B20210100000238620B0022832347
:100DD000820048304B0300001000001CC0091800BE
:100DE000103482011500B500180470020610023696
:100DF0000218383009060004E2038222C80B0D00F5
:100E00000010000030100500000078020810002AD1
:100E10006E00001C001CC11D9C000210573ADA3FF6
:100E2000FF3C2E0110000400000370020610002792
:100E3000600000103A06C03FBC2300000001000023
:100E4000050C8A01C001AF0C0009400000004205FA
:100E5000000000202D008607BC030138C3000000FD
:100E600005220F020A0000000005300A0A00873838
:100E700083200A202D0028078C220230812A1B00A3
:100E8000001C0203F0072720000A1D005C1018292F
:100E9000A500FC21EA0600009C00022474007001F9
:100EA0006A1C820200002A208B0C1E005C30172A6C
:100EB0006E0000000020002115000000E028200046
:100EC000121C82010021F820A008F2120300000485
:100ED00000000C14010000009E000204802A1B0088
:100EE00000070017A00427200034952EF63F3F2F5F
:100EF0004B000400010000018C22013401000000BD
:100F000006220F022A00EF10003E400000000136CA
:100F100002187C083E082800D8028036C128280024
:100F20001D28BA0100002720000C91160A30DF01AD
:100F3000C005F430090CC01F8C220108C13B100011
:100F400006100000000127200038A102FA3F3F2AC6
:100F50006E00001C001C81109C000224840A2022C8
:100F6000890700177003AA1B0000300A0620042717
:100F7000630004302B03000310000824852D0006B5
:100F800012000000B00306180100501E0B00092AD1
:100F90006E0000105A0AC00F9C00033C73007001E1
:100FA000251E0201000006180100A03A0800C00139
:100FB000C005F8233A0606088C22013C413E002475
:100FC00000100000F000272000001C001C102C2343
:100FD000620078302806C00707000738AA3A1200D6
:100FE0000028CA01003001300102A22E08000027AB
:100FF00080001C1C002C8015A82B0100E039D23F7A
:10100000801C020200002A1898161C001C103B3598
:1010100002208014BA062000BC2B00000001000052
:10102000131C82016010AF2C000B41000020432FE5
:10103000B200C801010000039D200104D02B2C0048
:1010400087100000901027180002F40A0B303204B9
:10105000000018340906C000BD1201380F0100005D
:10106000031D820150102718000470020610013879
:10107000631809202D00C604E037C101803D00241B
:10108000401C8201A000B600180E60001600002A65
:101090008E00001C001C0133A82361200400800086
:1010A00012188005003001300430A33A06000023F6
:1010B000620008213A064000D802600874007001FE
:1010C0006528BA010000AA1B00001C005C308B2AB6
:1010D0004B00001079078006E40B6200000100005D
:1010E000051E4A010001AF2C0020400000104205FF
:1010F00000000020EA0600009C000200C50928024A
:1011000000070013700D27300F3F0300201040052B
:101110000000003028060004BC03000000010000AD
:101120002E1500000000E52500021C004C30352A79
:101130006E0000200A0A3800A800C303802A1B00A2
:1011400000070013900C2720003B300A0600042FF4
:10115000030000000100400315000000C028180033
:101160000F3C8E00000004000018700206200623C9
:101170008200302079078007E5246100000100002B
:101180000428BA010030013005357302083001230C
:1011900062003C303B02000010000034C00918001F
:1011A0001A0C0A02C000E61D0020941386010004F8
:1011B00000001830090A8008A82E0100C00920008C
:1011C000DF070013D00A2730002203000010022797
:1011D00080007420EA080000D802603870303F3F79
:1011E0008F288A010000000000045400000000273E
:1011F000800040202D008803B420410500004000FD
:10120000CC140B20010003000103630016008027AB
:101210004E00003A090CC000BA120120F029240047
:10122000131E4A01A03201300137A1320700002A03
:101230007200001C001C001DAB0B0300C009200045
:101240000D28BA0100300130040CAE2E0000002A37
:101250006E00001C001C4100AA0B0200800A1F0047
:10126000002B2E010030013001299D3A0D30432919
:101270006B003C14EE0516001000000CC0092000A5
:10128000011C020200002921003FF31202000004A9
:1012900000005030BB00C0031000000CE129F53FF6
:1012A000FF3602031500A318000E700EF60FBC21C6
:1012B000420000103A06C03FE216410AC03B10004F
:1012C000211000049029AE14001061001800002EB7
:1012D000630008204A280529E023810040381800CF
:1012E00000040120011005000000781AFD3F3F2F87
:1012F0003600000CF13FFF34150000003030FF3F96
:10130000EC1500000000E51D0026900B890100048B
:101310000001242201160000941702087000300119
:101320006A28BA010000AA1B000070020800022708
:10133000A000001E000C01179C000300CF2818001D
:101340000F3C0E0000000300013A510B000B00009F
:101350000001B4300908800494170220422E2408AA
:1013600000100004700706180100501E09000F2528
:10137000C20060008E090800E504C2000001000000
:10138000081500000000E51D0026900B89010003F0
:1013900000001420011600000000042C560100007B
:1013A000001F02000000A1180024500B000B0029B0
:1013B00083003C203B060011BC24003CC000000020
:1013C00014140B204102271900149022FB3F3F38D0
:1013D000631800002E0E0800E0226100C03D000AE4
:1013E000000C8A014001F601D030601F80010D23FE
:1013F000E20048144E0A0E001000000C500E2E0C95
:1014000000180B0022010400000454000000003703
:10141000022860302D00860584020200C20B010004
:101420000010000030012F0E0000400000104205A7
:1014300000000030280A000594220118411A2900F2
:1014400007248E0170107911180040000020420519
:10145000000000104A08C003A82E010070303F3F72
:101460008E180B004201A1180020E00E06001100AA
:101470000001EC102D0006089522022002293800F8
:10148000300C0A022011A700002A700A0A100C2A48
:10149000CD000034090E00009C200104503E2808B5
:1014A000000C00003011EA250000542208004039E9
:1014B000AC3000000100C002150000001019190036
:1014C000003D2E02000004000004942F8403000459
:1014D0000000141401000000A82B0300903A38000B
:1014E000002832030000E718000174220020C00029
:1014F000FF3FBB33590A40009C220220D229000042
:10150000301C82010000F908780030000030042F00
:1015100024000C1859020000952C0120131E1C16E3
:1015200000252F020300040000085400000040249E
:1015300068000034BB08000010000020503E2A0E56
:101540000010000070002F090003700E0610002725
:10155000A500080CF03FFF3B9D080004C00B0900EC
:1015600003100000A0110500000054000000002F2F
:101570002300000001008005150000004029200024
:101580002E20132226002E29001F82170812013850
:1015900084280810C90A800EE524A100000100007B
:1015A0000D1500000000A4200031F4120800000412
:1015B000000020140100000090020208D30B190063
:1015C000001000005010050000000000003000274F
:1015D0006000083009064000E0226100C0282000B9
:1015E000140C8E01400329210007600B80010527A0
:1015F000600064202D0008030000001C802D000600
:101600000E14DE01A002B924180040000010780575
:10161000000000102D002C00A822010070303F3F78
:1016200046283A0200000000001C63001600002A51
:101630006200001CF00F3F1EA80E0200C028180018
:101640000F3C8E0000000400001563001600802788
:10165000400100200A06E60307000330282E141C70
:1016600008222F013900AF0C000040000000332792
:1016700080000420EA060000A83202007000F0009A
:10168000A41C0203040027180001700B0029053672
:10169000021854302D00240694170218033E18082F
:1016A000081C0202F001B500B000600B80110400BC
:1016B0000000F4222D008803A822010070303F3F73
:1016C0005A283A02003001300034A102863903273B
:1016D000600100003E061C02E12B610CC03B0A00C9
:1016E00000100000300B06180100A03A0600C001EF
:1016F000C0031C3209084002A52B0102C03B0A00AE
:1017000000100000C00A06180100501E07000D3925
:10171000921800000100002A18200500E02810009F
:1017200011148A016021A714FF3F8F2381018029B2
:101730005200FC132D002C00DC02001BC12B0C00FE
:1017400000100000D009B6009011A03A0600C001B8
:10175000C003C83109080020A82E0100C0092000DC
:101760000107000FE026EA320000500A0620052596
:10177000820060104E0606001000001050010000AC
:10178000000000007000B7001818300A0610052786
:10179000633FFF332D002406B823013C852D00064E
:1017A00015100A0250012F0100004000001002290C
:1017B0007400FC216B0B0004B8250224553E200A5E
:1017C000000C0000A010050000000000001002271F
:1017D000A3000420BB0A8004B8250224553E100A49
:1017E000000C000040006929FF3F730EFA3F3F29BB
:1017F000A53FFF23EA0600009C00023C7500F000B4
:10180000501C0203F00727281000A03A060000270A
:101810008000281C003CC012A805030040392500A8
:10182000361C82011000F8182008600B8011042774
:10183000600000000000001ADC02601841391D0041
:101840000624CB2201000400002455000000002AD9
:101850006200001CF03F7E09A80E0200C0092000B3
:101860001C140B000B00B600200EA00A0600C001DD
:10187000FF3B5F22EA0800000000002885015800B5
:101880000014DE014000B92C18004000001055057E
:1018900000000000000080149C20012C41391D0034
:1018A0000E24CB2201000400000F71020830060054
:1018B000000034212D008803A82201007030FF3E73
:1018C00086283A0200000000000771020630062553
:1018D000770020102E09060010000010C409200017
:1018E000311C82010000B600200E700B80210627FB
:1018F0006000041079098002E0238120802D000619
:101900001114DE01C000B9241800400000200E06AA
:101910006001001029068006E31A6100C02820003B
:10192000113B6A0100012721FF3F530B000BC02E22
:101930005A0040124A08C03FDC02402BC10B09008C
:1019400000100000D002B6002011501E0F20022609
:10195000770050003E060E02E53A620000010000EA
:101960000B0C8A01C000EF0000004000002085271A
:1019700040000430280A4003E40562000001000032
:10198000121C8E3DFF0F0000000F600B800103262C
:10199000B70058005E0A0E02E53AA10000010000FF
:1019A0000B1E02011000EF10000540000000420570
:1019B00000000030280A4003E40561000001000037
:1019C00004208F010900B600180CA812040000239F
:1019D0008200301C003C8004A82E0100C02B0400B3
:1019E0000010000080002720001AA00A0600003620
:1019F0000220381CF02FBE32A80E020000000000AA
:101A000005188005000027180030600B80210306B0
:101A10006001001C002C8016A8230120830A1826D0
:101A20001007000B900B2720001A0C3CCF2F5827D3
:101A3000CE00041C000C0137A82E01003030FF3FFF
:101A4000F71880050010EA1AFF3F67001000402ACF
:101A5000081610123E00080010000000C1092800FE
:101A600004140E030010F81A3005E02E0C00532E5B
:101A70006B0010006E0C0C009C25FE3F0F2E3110E9
:101A8000003C96000000A5310000841B8615C104AF
:101A9000FF3FE317BA36FF3F033FFF07CF39180078
:101AA00002040120041005000000000000180120BD
:101AB0000F002800B80180070014000601380C0050
:101AC0003600F0009803000A802D001E0220480016
:101AD000000F50070010053F010040301100400585
:101AE000FC010014C11F0000153C070050017F00DD
:101AF0000015F0070010053F010048001700000521
:101B0000D00100088119000014200600400159008E
:101B10000014E00600300404010054301F004005AA
:101B2000FC010014C11F0000153C070050017F009C
:101B30000015F0070010053F010054301F0040055C
:101B4000FC010014C11F0000153C070050017F007C
:101B50000015F0070010053F010054301F0040053C
:101B6000FC010010411E000015106002F13F3F0013
:101B700000002E3CF9292000810B7C3E29088020A2
:101B80000B1F7E0A0830E0029F1F0A028009C53F32
:101B9000FF1B6D21C90008002000603EF03F3F00A0
:101BA000F019023CFF1F3F389901FC3F1F024126FC
:101BB000023FFF0F0911E600FF3F2B198629C73F9F
:101BC000FF05E2206932FF3F9539611EF23F3F0079
:101BD00000000000203F003C0220033C0D203800A4
:101BE0000000E403E007001300380F0008000000C5
:101BF0003B3003000000001E003F00100230C227EF
:101C00009F0826025006003800000020F43FFF3FE6
:101C1000FF00243DFF3FFF3F000A3D3C7F300700AF
:101C20004B3FFF3FFF0F00131F3F3B3C09101320AA
:101C300000000200E0040E003800003C040F003CED
:101C400000000000000000140F3F030004300E3CB1
:101C500000000000D00420008000002000003C00B4
:101C60008000040004001000000A40000000000092
:101C7000650080030000C0029F1F0A2209000000C7
:101C80000000203DFF0F00200009FD3F0F20000055
:101C90004C1FFC075101C012FF3F03000820D20374
:101CA000FF08F402B030E7278200000000000000C7
:101CB00081080020000000038000000000000320D5
:101CC00000000200100802000000000000000022D6
:101CD000830E1520280836008835193F0F2600206E
:101CE0000008F20B65031E0000002002050510220B
:101CF000A3008014E80400008836050988385D14C4
:101D00006608E231B10BA11D0004161A0700A121DB
:101D10007600101E680700218437610858381D06B8
:101D20008206DE212138E11D18021222C7084E2149
:101D3000780CE2188807230E8738312243281300D5
:101D400000073A010020A1130000800903080018D1
:101D5000120002203806002088240102880882161A
:101D6000BB080E243203A2004006800902080022AC
:101D7000062102205820AB200000000080383700E8
:101D8000660806020300E221CD3A211AD82C1E2251
:101D9000850DE9214818A31E883C4F198608621357
:101DA0007A08FA03E80A623FB604213EDF0F301ECC
:101DB000080C000CA7313F00711AFC032027C63F16
:101DC0000030693C0F005E023A10222687089B20F3
:101DD0004E380004E8040E00830EE1000028130EC4
:101DE0000008360108009E011214213E6E0B2822C5
:101DF000FB37D92097014001781604028C18FE2287
:101E00005A08E21F8B07C001002020060F0B00229A
:101E1000F027D122581F183888378B1A9429C024EC
:101E2000101902340F1E6600210420062010002223
:101E3000000D15207810931E000000008038370038
:101E4000660806020300E221CD3A211AD82C1E2290
:101E5000850DE9214818A31E780648108538FE1D17
:101E60003608FA178A0A623F3604213EDF0F301E19
:101E7000080C000CA7313F00711AFC030027C63F75
:101E80000032693C0F005E023A10222687085B2070
:101E90004E38000CE8040E00820EE1000028130EFC
:101EA000000836010800E23BB6202222D8241E1E7C
:101EB000190014206711203088392F2A8D08FE2D33
:101EC00078001C00A002623CB00020027F062D2298
:101ED000F5218123782FA81199024C029109403FE6
:101EE000E01906044200620002012002D01401221F
:101EF000070DE90100000000000BF203C00F000015
:0E1F00008B3C03000000000000000000000009
:101F100020302100970008002000C600C701C8013A
:101F20004808803AB00080303002031D992F2F08F6
:101F300047020318AF2F200047084607B0003008BB
:101F4000860087010108B1004708323E86008701FC
:101F5000310881000130C7070030C83D902F2000B4
:101F60002E08860087010108B0002F08323E860047
:101F70008701300881002E0A860087010108B00021
:101F80002F08013E323E86008701300881002F086D
:101F9000023EB0003008C5000230B0003008C90071
:101FA000EC0149030319F82F4508B0003008A700D9
:101FB0001030A8000030A9004930B1003108AA0053
:101FC0003230993176218F310230200049060319D1
:101FD000E42F49080319F82F49030319F82F643037
:101FE0006C060319F82F0130B0003008EC07D12F30
:101FF0004903031D08000130AE000030AF000800A7
:1020000061302000DD008430DE000130DF00003070
:10201000E0000E30E1000030E2000130E30000306B
:10202000E4009A314D22080011340534063400349E
:102030000034003400340034003400340034003400
:1020400000340034003400340034003400340034F0
:1020500000340034003400340034003400340034E0
:1020600000340034003400340034003400340034D0
:1020700000340034003400340034003400340034C0
:1020800000340034003400340034003400340034B0
:1020900000340034003400340034003400340034A0
:1020A0000034003400340034003400340034003490
:1020B0000034003400340034003400340034003480
:1020C0000034003400340034003400340034003470
:1020D0000034003400340034003400340034003460
:1020E0000034003400340034003400340034003450
:1020F0000034003400340034003400340034003440
:1021000000340034383400340034003400340034F7
:10211000003400340034003400340034003400341F
:10212000003400340034003411340034233480345B
:10213000003470340034003400340034003400348F
:1021400000340034003400340034003401340834E6
:1021500046344934543420340034003400340034DC
:1021600000340034003400340034003400340034CF
:102170001F34003409343A3431343034303432349A
:10218000393437343134313430343134203420343C
:102190002034203420342034313420344234683424
:1021A0000734D03400346334023400340034003453
:1021B00035343234383436343234303437343534DC
:1021C000303420342034203420342034203420345F
:1021D00031343534313430343134333420342034F4
:1021E0000034003400342934003400340034003426
:1021F000003400340034003400340034003400343F
:10220000003400340034003400340034003400342E
:10221000003400340034003400340034003400341E
:102220000034003400340034FF302200A400FF30BA
:10223000A50098319B2091318B170B172200A60126
:10224000A7010E138E138E110D302100C4002D3006
:10225000C300D730890B2A29C30B2A29C40B2A298A
:10226000003222000E170D302100C4002D30C300B3
:10227000D730890B3929C30B3929C40B39290032CE
:1022800022008E1715302100C4004B30C300BE3031
:10229000890B4829C30B4829C40B48290000220098
:1022A0008E1515302100C4004B30C300BE30890BA1
:1022B0005729C30B5729C40B572900006C30220043
:1022C000A8008030A9000030A3000030A200003038
:1022D000A1000030A00006302000A8000030A900B6
:1022E0006C30AA000030AB009D316C25913120008C
:1022F00029082200DE00200028082200DD00073027
:102300002000A8000030A9006C30AA000030AB000B
:102310009D316C259131200029082200E400200025
:1023200028082200E3000030C0000030BF00003069
:10233000BE000030BD005D082100C30022005E0821
:102340002100C400C501C60143082200BD042100CC
:1023500044082200BE04210045082200BF042100D9
:1023600046082200C0041030BD35BE0DBF0DC00DA3
:10237000890BB42963082100C300220064082100EE
:10238000C400C501C60143082200BD042100440861
:102390002200BE04210045082200BF042100460897
:1023A0002200C00404302000A8000030A9006C30D6
:1023B000AA000030AB009D316C2591312000290826
:1023C0002200DE00200028082200DD000530200069
:1023D000A8000030A9006C30AA000030AB009D318D
:1023E0006C259131200029082200E40020002808F3
:1023F0002200E3000030E2000030E1000030E000A5
:102400000030DF005D082100C30022005E082100CB
:10241000C400C501C60143082200DF0421004408AE
:102420002200E004210045082200E10421004608C2
:102430002200E2041030DF35E00DE10DE20D890BE2
:102440001B2A63082100C300220064082100C40085
:10245000C501C60143082200DF0421004408220010
:10246000E004210045082200E10421004608220082
:10247000E20408302000A8000030A9006C30AA0057
:102480000030AB009D316C259131200029082200DD
:10249000DE00200028082200DD0009302000A8000E
:1024A0000030A9006C30AA000030AB009D316C25D3
:1024B0009131200029082200E40020002808220091
:1024C000E30063085D04C10064085E04C200C30148
:1024D000C4015D082100C30022005E082100C40081
:1024E000C501C60143082200C1042100440822009E
:1024F000C204210045082200C3042100460822002E
:10250000C4041030C135C20DC30DC40D890B822A1D
:1025100063082100C300220064082100C400C50133
:10252000C60143082200C104210044082200C2045D
:10253000210045082200C304210046082200C404EB
:102540000A30BB000030BC004408D6004308D50068
:102550004208D4004108D3000030CC000030CB004A
:102560000030CA000030C9000030B6000030B500AD
:102570000030B4000030B3000030BA000030B900C1
:102580000030B8000030B7006930860001308700A5
:10259000573084000130850006302100C30016004A
:1025A0001A00C30BCF2A00302000A3000030A20085
:1025B0000030A1001830A000220040082000A70031
:1025C00022003F082000A60022003E082000A500AF
:1025D00022003D082000A4009B31E123913120001E
:1025E0002008013E2200AD0000302000213D2200E5
:1025F000AE000030D0000030CF000030CE00003000
:10260000CD000130AF000030B000AA01AB01803036
:10261000E7000030E8006808803A2100C3008030FD
:102620004302031D162BBF302200670203184C2BF8
:10263000F0302100C3002630C400220067082100CA
:1026400043078600220068082100443D87000108F6
:10265000C500C601C701C80145082200B307210013
:1026600046082200B43D210047082200B53D210064
:1026700048082200B63D0130E7070030E83D680811
:10268000803A2100C30080304302031D4A2BBF3033
:1026900022006702031C182BC0302200E700003024
:1026A000E8006808803A2100C30080304302031D1F
:1026B0005C2BDF30220067020318922BF0302100E0
:1026C000C3002630C40022006708210043078600AB
:1026D000220068082100443D87000108C500C601AA
:1026E000C701C80145082200B7072100460822009B
:1026F000B83D210047082200B93D210048082200CA
:10270000BA3D0130E7070030E83D6808803A210013
:10271000C30080304302031D902BDF30220067028C
:10272000031C5E2BAF308600273087002200330861
:102730008100CF30860027308700370881000D30B8
:102740002000CA009830CB009930CC000930CD0071
:102750009931C62191310D302000CA009830CB004C
:102760000030CC00CD009931C621913129302100B3
:10277000C4009630C3007F30890BBC2BC30BBC2B2D
:10278000C40BBC2B2200D101D2015208803A210097
:10279000C30022002E08803A21004302031DD32BE0
:1027A00022002D0851020318392D00302200CC00E0
:1027B0000030CB008030CA000C30C90057080C3EF6
:1027C0002000CA0000302200583D2000CB0022002B
:1027D00053082100C300220054082100C400220035
:1027E00055082100C500220056082100C6001030FF
:1027F000C636C50CC40CC30C890BF82B440820004A
:10280000CD00210043082000CC009931C621913130
:10281000220057080D3E2000CA0000302200583D1B
:102820002000CB00220054082000CD0022005308D5
:102830002000CC009931C6219131FF302200530590
:102840002100C300FF30220054052100C4000030E5
:10285000220055052100C500003022005605210048
:10286000C600220053082100C7002200540821009E
:10287000C800220055082100C90022005608210086
:10288000CA001030CA36C90CC80CC70C890B422CC0
:102890004708C3074808C43D4908C53D4A08C63D26
:1028A00043082200C907210044082200CA3D210034
:1028B00045082200CB3D210046082200CC3DE7011F
:1028C000E8016808803A2100C30080304302031DFC
:1028D0006C2C0C30220067020318C22C22003C082A
:1028E0002000A90022003B082000A8006C30AA00AC
:1028F0000030AB009D316C25913120002908220069
:10290000E400200028082200E3006408C6006308F1
:10291000C500670857072000CA0022006808583D14
:102920002000CB00220046082000CD0022004508F0
:102930002000CC009931C621913122004508C907F9
:102940004608CA3D0030CB3DCC3D0130BB070030CE
:10295000BC3D0230D3070030D43D0030D53D0030BF
:10296000D63D0130E7070030E83D6808803A210095
:10297000C30080304302031DC02C0C3022006702CC
:10298000031C6E2C220057080E3E2000CA000030A7
:102990002200583D2000CB00220049092100C3003D
:1029A00022004A092100C400C30A0319C40A4308CB
:1029B0002000CC00210044082000CD009931C62120
:1029C0009131220057080E3E2000D2000030220034
:1029D000583D2000D3009A31E4229131220057085B
:1029E0000F3E2000CA0000302200583D2000CB00DE
:1029F0000C30CC008030CD009931C62191310030AF
:102A00002200D0000030CF000030CE000030CD00DA
:102A100057080F3E2000D20000302200583D200011
:102A2000D3009A31E4229131200053082200E600BD
:102A3000200052082200E5000C30650680300319A2
:102A40006606031D2C2D0130CD070030CE3D003031
:102A5000CF3D0030D03D082D650866040319342DA4
:102A60000130AA070030AB3D0130D1070030D23D24
:102A7000C52B220057080C3E2000CA00003022005F
:102A8000583D2000CB0022005F082100C300220037
:102A900060082100C400220061082100C500220056
:102AA00062082100C6001030C636C50CC40CC30C29
:102AB000890B542D44082000CD002100430820003C
:102AC000CC009931C6219131220057080D3E2000DB
:102AD000CA0000302200583D2000CB0022006008D0
:102AE0002000CD0022005F082000CC009931C621D3
:102AF0009131FF3022005F052100C300FF3022002A
:102B000060052100C4000030220061052100C500DD
:102B10000030220062052100C60022005F0821006B
:102B2000C700220060082100C800220061082100BF
:102B3000C900220062082100CA001030CA36C90C40
:102B4000C80CC70C890B9E2D4708C3074808C43D15
:102B50004908C53D4A08C63D003043072200C90068
:102B600040302100443D2200CA0000302100453D94
:102B70002200CB0000302100463D2200CC00570847
:102B80000E3E2000CA0000302200583D2000CB003D
:102B9000220049092100C30022004A092100C40083
:102BA000C30A0319C40A43082000CC0021004408CA
:102BB0002000CD009931C6219131220057080F3EE7
:102BC0002000CA0000302200583D2000CB00003019
:102BD000CC004030CD009931C621913122002F0820
:102BE000300403191D2E0030D0000030CF0000301B
:102BF000CE000030CD0057080F3E2000D20000303C
:102C00002200583D2000D3009A31E4229131200067
:102C100053082200E600200052082200E500403060
:102C200066066504031D1D2E0130CD070030CE3D24
:102C30000030CF3D0030D03DFB2DE701E8016808B2
:102C4000803A2100C30084304302031D2A2E003045
:102C5000220067020318602E2200D101D20152081F
:102C6000803A2100C30084304302031D3A2E003015
:102C70002200510203184E2E01302200D1070030ED
:102C8000D23D5208803A2100C30084304302031D24
:102C90004C2E003022005102031C3C2E0130220039
:102CA000E7070030E83D6808803A2100C30084301F
:102CB0004302031D5E2E003022006702031C2C2EEF
:102CC00014302000D2009830D3009A31E4229131A0
:102CD000200053082200E600200052082200E500F0
:102CE00018302000CA009830CB000030CC005030A3
:102CF000CD009931C621913118302000D200983092
:102D0000D3009A31E4229131200053082200E600DA
:102D1000200052082200E50005306606650403190C
:102D20009F2E0D302100C4002D30C300D730890BF9
:102D3000972EC30B972EC40B972E00327C2E183083
:102D40002000CA009830CB002030CC005030CD009D
:102D50009931C621913118302000D2009830D3002B
:102D60009A31E4229131200053082200E60020002D
:102D700052082200E5000530660665040319CE2ED0
:102D80000D302100C4002D30C300D730890BC62E72
:102D9000C30BC62EC40BC62E0032AB2E2830B1009A
:102DA0000030B200E701E8016808803A2100C30062
:102DB00022003208803A21004302031DE22E220045
:102DC000310867020318522F220068082100C4004E
:102DD000220067082100C300C335C40DC335C40DEC
:102DE0004308013EC5000030443DC60000304507A1
:102DF0008400A030463D85000008C7004708200039
:102E0000CA00220068082100C900220067082100CA
:102E1000C800C835C90DC835C90D4808023ECA00EA
:102E20000030493DCB0000304A078400A0304B3DC4
:102E300085000008CC004C082000CB002200680868
:102E40002100CE00220067082100CD00CD35CE0D37
:102E5000CD35CE0D4D08033ECF0000304E3DD000A5
:102E600000304F078400A030503D85000008D1009D
:102E700051082000CC002200680885006708840003
:102E80008435850D8435850D00308407A030853D5F
:102E900000089A311F22913101302200E7070030EB
:102EA000E83DD42E29302100C4009630C3007F3085
:102EB000890B582FC30B582FC40B582F0D302000EF
:102EC000CA009830CB007730CC000730CD00993164
:102ED000C62191310D302000CA009830CB0000305F
:102EE000CC00CD009931C621913129302100C40098
:102EF0009630C3007F30890B7B2FC30B7B2FC40B15
:102F00007B2F9031002091313D302100C3004308D8
:102F10002200AC009831362091312200D101D2013B
:102F2000E701E801A0302000A000A030A100983106
:102F3000B6209131C62F3B3086002730870001082C
:102F40002100C30043082000CA003C30860027301F
:102F5000870001082100C40044082000CB003D3058
:102F600086002730870001082100C50045082000A1
:102F7000CC003A3086002730870001089A311F22A2
:102F800091313E3086002730870081013E30860037
:102F9000273087000230010603199B2F3E30860040
:102FA000273087000103031DC62F3B3086002730E2
:102FB000870001082100C30043082000D2003A30F6
:102FC00086002730870001089B311E2391312000A5
:102FD00053082200C800200052082200C7004808F9
:102FE0002100C3003C308600273087004308810061
:102FF0003D30860027308700220047088100C12F1E
:103000009E31CB2E9E31F62E9F314A2F9F31742F49
:103010009F31E72F9F31AA2F9F31BF2F9F31E72F7D
:103020009F31C62F9F31EB2F9E31FE2E9F31212FD6
:103030009D31D12D9D31E82D9D31FF2D9E31182ED2
:0C3040009E31362E9E314A2E9E31642EA9
:1030500000349F340D34983414349834320099017C
:103060009B019D0107309F009E010800F530210063
:103070009D00E0309E009F019B019C0108000830EC
:1030800023009F0080309D0024309E008A309B00EA
:103090009C0108006400800101310130FE02003013
:1030A000FF3B7F087E04031900344B28FE0012000A
:1030B0001E000130FE020030FF3B7F087E04031932
:1030C000003457282400940126309500960197017A
:1030D000FE309300A0309200200091112100911544
:1030E00008000530F0007008F9070130FA02031DEE
:1030F0007F280430F00070082000EF000800200056
:10310000EF01EF0A0800BF302000A0002008E8000F
:10311000BF30A0002008E700E9146910EB0124008B
:103120009C0128309D009F011F309A0020009211C1
:103130002100921508009C319024983198312E205E
:1031400098318F31882798319831622098319831A1
:1031500083209831A731FC27983198313620983157
:10316000A731F827983198313F2008002000210826
:10317000A4002008A300230884002408850012006E
:1031800003190800111EC2282308840024088500A2
:10319000000823009A0001302000A3070030A43D5E
:1031A000BB28F20024001E157808023E8600870125
:1031B000160001040319EA287808023E86008701F8
:1031C000403FF000413FF100700886007108870021
:1031D000720881002000EF0108002000A6002308EB
:1031E000A5002208A400A435A50D260886008701A5
:1031F0002408C03F2508C13F2108A4002608023E3C
:1032000086008701240881002608033E8600870186
:103210002008C03F0030C13F080000308B1B013048
:103220002000A2008B13200831009100200021080B
:103230003100920015131514000000002000220C2C
:10324000031C8B1303188B17310014082000A100F6
:10325000310013082000A00008005530F500750863
:10326000F6002000911124001108F5007508F60001
:10327000141D4129941A161F3F2903304A29013091
:103280004A29941A452900304A297608F50075081C
:10329000FD0002309C31EE242400151608002000A9
:1032A00069186F292908A1002808A0002A08AE0083
:1032B0002E08A2002C08A4002B08A300B5309931D9
:1032C0009E219931B5302000AE002E08A0002D08B7
:1032D000AF002F08A10001309B319C230800200083
:1032E0002D08860087018101810A08002000AD00B9
:1032F000691897292D08AB002B08A0002708AC00FF
:103300002C08A1002908A3002808A200BA3098318F
:10331000ED209931BA302000AB002B08A0002A081C
:10332000AC002C08A10001309B319C230800200038
:103330002A08860087018101810A08002000A70071
:103340002408A6002308A500A535A60D2708860099
:1033500087012508C03F2608C13F2708860087014E
:10336000013081044131003081042208A500270882
:10337000023E86008701250881002708033E86005B
:1033800087012008C03F2108C13F080021002F0805
:103390002000D30021002E082000D20021002D089B
:1033A0002000D10021002C082000D0004B08CE00C6
:1033B0004E08D0004A08CE004E08D1004D08CE007D
:1033C0004E08D2004C08CE004E08D3005230CE003A
:1033D0004E08AE000230CF004F08AF0050308F31A2
:1033E0008C27080020002008210403191A2AA501AF
:1033F000A50AA11B052A0130A035A10D890BFC29C6
:103400000130A4002408A507F92921082302031D7F
:103410000B2A20082202031C112A2008A2022108DC
:10342000A33B0130A136A00C890B122A0130A50262
:10343000031D052A2308A1002208A000080020007F
:10344000CF00210027082000D300210026082000FB
:10345000D200210025082000D100210024082000EE
:10346000D0004F08CD004D08D0004A08CD004D08CF
:10347000D1004B08CD004D08D2004C08CD004D08BE
:10348000D3005230CD004D08AE000230CE004E08C1
:10349000AF0050308F318C27080020005E08D30029
:1034A0005D08D2009A31E4229A3120005308E600E8
:1034B0005208E5006608A1006508A0006008A300A6
:1034C0005F08A2006208A5006108A4006408A700C4
:1034D0006308A6009A317D229A3120002108E60077
:1034E0002008E5005E08CB005D08CA006608CD0034
:1034F0006508CC009931C621080001302000A800E1
:103500000030A900260A862AA835A90D890B842A2D
:103510002808FF3EAA00FF30293DAB002B08A90078
:103520002A08A800240A962AA835A90D890B942AEE
:10353000A809A9092808A0052908A1052A08220523
:10354000A8002B082305A900240AA82AA835A90D3C
:10355000890BA62A2808A0042908A1040800200035
:10356000A501A601200821040319DF2AA701A70A43
:10357000A11BC42A0130A035A10D890BBB2A013043
:10358000A4002408A707B82A0130A535A60D890B89
:10359000C52A21082302031DCF2A20082202031C6A
:1035A000D62A2008A2022108A33B25140130A13607
:1035B000A00C890BD72A0130A702031DC42A2608B4
:1035C000A1002508A000080021002B082000DC0035
:1035D00021002A082000DB00210029082000D80053
:1035E000210028082000D7005308D4005408D70031
:1035F0005208D4005408D8005B30D4005408CA00E4
:103600000230D5005508CB0057309B315A2320009B
:103610005B08D400D5015408D500D4015408D90062
:103620005508DA005C085907D9005A0803185A0AE5
:10363000DA005A08D3005908D20008002000D70049
:10364000210023082000DD00210022082000DC00EA
:10365000210021082000D900210020082000D800E6
:103660005708D4005408D8005208D4005408D90090
:103670005C30D4005408CA000230D5005508CB0095
:1036800058309B315A2320005C08D400D5015408DF
:10369000D500D4015408DA005508DB005D085A074C
:1036A000DA005B0803185B0ADB005B08D3005A08EA
:1036B000D20008002000D0004B08CC004C08AE001F
:1036C00050089C3134249B3120002F08CF002E0855
:1036D000CE004E034F04031908000230CC004C0802
:1036E000D100EC015103031908004A08A80000307A
:1036F000A9000230CC004C08AA001030AB0000300A
:10370000AC005130CD004D08AD0099314F219B31B7
:103710000230200051060319882B510803190800B4
:1037200051030319080064306C06031908000130C6
:10373000CC004C08EC07722B2000A3006918D02B9A
:103740000230A2002108860087012208810020089B
:10375000A200670A86008701220881002308A200D0
:10376000670886008701220881006708023E8600FC
:1037700087012108C03F0030C13F0430A200220869
:10378000E7076708C33A031DC92BBF30A200220810
:10379000E700E91068086706031DD52B6914D52BCF
:1037A0002108860087018101810A2108860087019E
:1037B00002300106031D08006F08031DDC2B921563
:1037C000080000302000AC000030AB000030AA0040
:1037D0000030A900230822042104200403192B2C03
:1037E000AD01AD0AA31B002C0130A035A10DA20D27
:1037F000A30D890BF52B0130A8002808AD07F22B8B
:103800000130A935AA0DAB0DAC0D890B012C230895
:103810002702031D152C22082602031D152C210842
:103820002502031D152C20082402031C202C20082F
:10383000A4022108A53B2208A63B2308A73B291484
:103840000130A336A20CA10CA00C890B212C013055
:10385000AD02031D002C2C08A3002B08A2002A088F
:10386000A1002908A00008002000C600C701C80167
:103870004808803AB00080303002031D412C2E08E9
:1038800047020318572C200047084607B0003008AD
:10389000860087010108B1004708323E8600870193
:1038A000310881000130C7070030C83D382C2000A6
:1038B0002E08B0003008C5000230B0003008C90042
:1038C000EC0149030319882C4508B0003008A70013
:1038D0001030A8000030A9004930B1003108AA001A
:1038E0003230993176219C3102302000490603198B
:1038F000742C49080319882C49030319882C643057
:103900006C060319882C0130B0003008EC07612CDC
:103910004903031D08000130AE000030AF0008006D
:1039200022008C018D018E01273021008C00F030A7
:103930008D0027308E00FF3023008E008D01333044
:103940008C0024008D0104308C008E0125008C0138
:103950008D018E0100308B1B01302000A0008B13E5
:1039600055303C008F00AA308F000F102108E0393D
:103970000C38A1002008E0390E38A0003D001408E2
:10398000E0391E3894001C08E03919389C002408DE
:10399000E0391438A4001F08E0391A389F001E08C7
:1039A000E03918389E003C001E08E0390D389E00B2
:1039B0001D08E0390F389D003D001D08E0391B3817
:1039C0009D0055303C008F00AA308F000F1420005E
:1039D000201CEC2C8B1708008B130800F4005D2DC5
:1039E0002100B401B40A080080307D02031C0F2DB1
:1039F0006F308600273087000108F000F1010730A2
:103A0000F035F10D890B002D7D087007F20071086B
:103A10000318710AF3007208B0007308152D7D08B1
:103A2000F000F1017008B0007108B1003E2DF030D7
:103A3000F0002630F10030087007F2003108713DC7
:103A4000F30072088600730887007D08810001304A
:103A5000B0070030B13D01303102003003193002AF
:103A6000031C3E2DB001B1013E2D21003408003A67
:103A70000319172D013A0319F42C172DB40108006E
:103A8000F030F0002630F100210030087007860089
:103A90003108713D870001082400910001302100A8
:103AA000B0070030B13D013031020030031930025F
:103AB000031C0800B001B10108007408003A0319A2
:103AC000F02C013A0319402D033A0319352D013A20
:103AD00003196B2D6B2D08000E302000A000003064
:103AE000A1002908AD002808AC00AC0EAD0EF030E6
:103AF000AD052C080F39AD04F030AC052C08A20040
:103B00002D08A3009A31AF229D3120002108B40076
:103B10002008B3003408B8003308B7002908BA00F9
:103B20002808B9000730A0000030A1003A08A3001F
:103B30003908A2009A31AF229D31200039082007B0
:103B4000B7003A08213DB8000730A0000030A100BE
:103B50003A08A3003908A2009931F2219D312000D2
:103B60002108B6002008B50037086C3EA0000030E0
:103B7000383DA10099310D219D3120002108BE0062
:103B80002008BD0037086D3EA0000030383DA10080
:103B900099310D219D3120002108C0002008BF006F
:103BA000832E03303F05AC0000304005AD000E30E1
:103BB000AC35AD0D890BD82DFF303D05AE003F3043
:103BC0003E05AF002C082E04BB002D082F04812ECB
:103BD0000F303F05AC0000304005AD002C0EF03931
:103BE000AD00AC013E08AF003D08AE00AF36AE0CF4
:103BF000AF36AE0CFF302E05B0000F307A2E3F30BE
:103C00003F05AC0000304005AD000A30AC35AD0DCD
:103C1000890B062E3E08AF003D08AE000430AF36DB
:103C2000AE0C890B0F2EFF302E05B00003307A2E1C
:103C3000FF303F05AC0000304005AD002C08AD0062
:103C4000AC013E08B0003D08AF000630B036AF0C06
:103C5000890B262EFF302F05B10000303005B20051
:103C60002C083104BB002D083204812EFF303F05A3
:103C7000AC0003304005AD000630AC35AD0D890B0E
:103C80003D2E3E08AF003D08AE002F08AE00AF014C
:103C90003F30772EFF303F05AC000F304005AD00C0
:103CA000AC0EAD0EF030AD052C080F39AD04F03080
:103CB000AC053E08AF003D08AE000A30AF36AE0C92
:103CC000890B5E2E0F30772EFF303F05AC003F3062
:103CD0004005AD00AC35AD0DAC35AD0D3E08AF00C7
:103CE0003D08AE002F0E0F39AE00AF0103302E0598
:103CF000B00000302F05B1002C083004BB002D08A7
:103D00003104BC00922E3608003A0319882E922EF8
:103D100035088400073004020318922E98310435C8
:103D2000183E82003C08AD003B08AC002D08AC00FA
:103D3000AD01FF302C05AE0000302D05AF00FF3087
:103D40003B05B00000303C05B1003008B100B001C7
:103D50002E083004BB002F083104BC003C08A90029
:103D60003B08A80008002000921124009D1FF42F9A
:103D70009D132000EF017808023E86008701403F36
:103D8000F300413FF4007308860074088700013097
:103D90008100F8010800E91808006808F3007308BA
:103DA000F8006808860087010108F3007308FA002C
:103DB000680886008701413FF9000430F30073086A
:103DC000E8076808C33A031DE92EBF30F300730803
:103DD000E8006910680867060319E91424001E1436
:103DE0000230F30073082000EF00080024009E1446
:103DF0000230F30073082000EF00080024001E1FAB
:103E00000A2F0130F30073082000EB0704309831CB
:103E1000D12008007C08F4007B08F300F436F30C92
:103E20007308240099007B1C1B2F0B30F3007308D0
:103E30002000EF0008000330F30073082000EF00BB
:103E4000080024001E1F2D2F0130F30073082000EE
:103E5000EB0704309831D12008009E147C08F40050
:103E60007B08F3007408F300F40106307305F500D5
:103E700000307405F600F0307504FB000030760465
:103E8000FC007B142000ED01ED0A0230F300730802
:103E9000EF0008006D030319632F7908860087017E
:103EA000403FFB00413FFC007908033E860087014C
:103EB000403F2100B200413FB300790886008701EE
:103EC000423F2000EE007B08240099007B1C6E2FEF
:103ED0000530F30073082000EF0008000330F30002
:103EE00073082000EF00080024001E1F822F0130FD
:103EF000F30073082000EB0724001E1305309831EF
:103F0000D120080001302000EE026E0A031D9C2F14
:103F10000530F3007308F9070130FA02031D942FEE
:103F200000309831D120080024009E140230F300A4
:103F300073082000EF0008002100320886003308D3
:103F4000870001082400990001302100B2070030E9
:103F5000B33D080024001E1FB82F0130F300730882
:103F60002000EB0704309831D12024001E130800F4
:103F70009E150830F30073082000EF000800083099
:103F8000F3007308EF0024009E150800210032089A
:103F900086003308870024001908810001302100C1
:103FA000B2070030B33D01302000EE020319E02FCC
:103FB00024009E120630F30073082000EF00E42F67
:103FC00024009E169831712024001E16080000302F
:103FD0009831D12008000130F30073082000EB076E
:103FE00006309831D120080020006F0884000C3082
:103FF00004020318EB2F98310435003E82000800BC
:104000008034A734143400348134A7341434003499
:104010008234A734143400348334A7341434003485
:104020008434A734123400348534A7341234003475
:104030008634A734123400348734A7341234003461
:104040008034A8343C3400348134A8343C34003407
:104050008234A8343C3400348334A8343C340034F3
:104060008434A8343F3400348534A8343F340034D9
:104070008634A8343F3400348734A8343F340034C5
:104080008434A6343C3400348534A6343C340034C3
:104090008634A6343C3400348734A6343C340034AF
:1040A0008034A034003480348134A034003480342F
:1040B0008234A034003480348334A034003400349B
:1040C0008434A034003400348534A0340034803487
:1040D0008634A034003480348734A03400348034F3
:1040E00084344E342034003485344E34203400344B
:1040F00086344E342034003487344E342034003437
:10410000803461343C34203481346134343420349C
:104110008234613434342034833461343C34203488
:10412000843461347C342034853461343434203434
:104130008634613434342034873461343434203468
:104140004D34433455342034533454344134523490
:10415000543420344F344B342E342E342E342E34F9
:104160002E342E34003442347234653461346B346E
:1041700064346F3477346E3421340D340A340034AF
:0A41800034122143342234320800C7
:104FF000103027009A000800BA30220097000800FD
:020000040001F9
:08000E008CFFF1FFFFFFFFFF73
:00000001FF
