:1000000080312E28080055347E14803120007F086E
:10001000F7000B1F14282100911D14282000911DAA
:100020001428AA31AB2280310B1F1F282100121D7A
:100030001F282000121D1F288031022080310B1F35
:1000400029282100921D29282000921D2928A1314C
:10005000102177082000FF007E1009008031302831
:1000600000308400AF308500F030860026308700F5
:100070000130FF000030AA310A2280318031032094
:100080008031FD00DC308400A930850065308600B9
:10009000013087000030FF000630AA310A2280318B
:1000A000F801F901FA01FB01FC01E701E801E901AE
:1000B000EA01EB01EC01ED01EE01EF01A03084005B
:1000C000003085002330FE000030FF00A931FE2102
:1000D0007E102000A2315D2AC234ED340134003498
:1000E0007C342A345E342F340134003415344C34DB
:1000F00000340034153464340134003400340034E6
:10010000003400340034003400340034003400344F
:10011000003400340034033400340034003402343A
:10012000003400340034033400340034003401342B
:100130000134013401340134013401340134013417
:1001400018346034013400341834803401340034FD
:10015000A834633426347834D734E1341734FC348B
:1001600084346334003400349C344034003400342C
:10017000A834843418346834D734E1340F34F83474
:10018000D434043410340034BC34A3340134B434D3
:100190009C342134FF34F8341034003400340534F6
:1001A000A934623400340034BC3423340134B5340F
:1001B0000C340034003406349D346034003401348F
:1001C0009C3421340034083484342134FF34F8342E
:1001D000443400344834003484344134FF34FC3433
:1001E000183460340134003418348034023400345C
:1001F000A83463341834D034D43423342534A434AC
:10020000B434803450340134D43423342534A0340D
:100210009C3421340034083484342134FF34F834DD
:10022000443400344834003484344134FF34FC34E2
:100230001834A03401340034D734E1344F34FC3462
:10024000A834A53426347834D734E1340F34F43468
:100250008434853400340034D734E1341734F8342E
:100260009C348434003401349C342134FF34F4341D
:10027000BC3444340134B4341034003400340C340D
:10028000D43405342034003418344034013400347C
:10029000B834A43400340334A83442341834D0348D
:1002A000E034A5341034003418344034E034FF34E2
:1002B0009C34A53400340434A8344234FF34FF3471
:1002C0008434C53400340034E034C634103403348C
:1002D000D434053430340034BC34033400340034B6
:1002E0000C34003400340934A83460349F340734AB
:1002F0000734C0340A34E334153400340034003495
:100300009C34213400340C3485342134FF34FC34E3
:1003100084342134FF34F434443400344834003419
:1003200084344134FF34F8340734C0340A34DC34C4
:10033000A8348434803400349C34213400340C34A8
:1003400085342134FF34FC3484342134FF34F434D4
:10035000443400344834003484344134FF34F834B5
:10036000D734E1341734F034D734E1347734F4340B
:10037000D734E1349734F834D734E1344F34FC3493
:10038000D734E1340F34EC349C342134FF34EC3472
:10039000A934C33400340034A83444340034003465
:1003A0000734FF34FF34B434AA3445340034003405
:1003B000BC342B340034003410340034003419348D
:1003C0001834A0340034FF34A434823400341F3491
:1003D0001834603401340034A834A534FF34FF34B9
:1003E000B834843400341834A83463342634783470
:1003F000E234523428340334843463340034003417
:10040000E2344434903404341834803401340034F9
:10041000B834633400340334B934CE3400341D347A
:10042000A83484341834D034E134D23470340434F1
:10043000E034633420340034D4340334703404346E
:10044000B434803450340134AC3442340034013498
:10045000D434033420340034E034603410340234B3
:10046000E034433410340434AC346234FF34FF34A9
:100470000734FF34FF34B834B834633400345F34A5
:100480009C3421340034143485342134FF34FC345A
:1004900084342134FF34EC3484344134FF34F03478
:1004A0008534C134FF34F4344434003448340034E7
:1004B00086344134FF34F8341834C0340134003405
:1004C000D734E1344F34FC34A834C63426349C3459
:1004D000D734E1341734F434E034A3343034003406
:1004E000D734E1347734F8349C34C03400340034E9
:1004F000D734E1340F34F0349C3480340034013488
:100500009C342134FF34F034A834433400340034B4
:100510000734C0340734CC34D83405343034003494
:100520009C34803400340D340734C03405344734EF
:10053000A834623400340034A83462340034003407
:100540000734C03406345534A534CB3400347F34FA
:10055000A8346234003400349C34803400343B349A
:100560000734C03405344034E134CB3470340034C3
:1005700018346034FF34FF34BC344E3400341A3441
:10058000A83463340F34FF340C34003400340E3498
:10059000E1346B3418340334A8346B34E034003461
:1005A0000734C03405345734153400340034003473
:1005B000A8346234003400340734C0340734A4341F
:1005C0009C348034003401349C34213400341034A1
:1005D00085342134FF34FC3484342134FF34F03446
:1005E00084344134FF34F434443400344834003427
:1005F0008534C134FF34F8340334FF34FF34F53428
:10060000A8346B34F0340034D734E1341734F83480
:10061000D734E1344F34FC34D734E1340F34F4347C
:10062000BD34A334003407349C342134FF34F43413
:100630000C34003400341134A83443340034003412
:100640009C34A03438340034A8346234003400348C
:100650000734C03405342D349C3480340034603485
:100660000734C03405343F349C34603400340034E3
:10067000A8346234003400349C348034003475343F
:100680000734C03405341C349C3442340034043400
:100690000734C03405343934A8346B348034003422
:1006A000BD34A234003407341334FF34FF34F4343F
:1006B0009C34A034383400349C34213400340C345D
:1006C00085342134FF34FC3484342134FF34F43451
:1006D000443400344834003484344134FF34F83432
:1006E000D734E1341734F834D734E1344F34FC34A0
:1006F000D734E1340F34F434BD34A3340034073438
:100700009C342134FF34F4340C340034003411347C
:10071000A834433400340034A83462340034003444
:100720000734C034053408349C34803400347534C4
:1007300018348034FF34FF34A83484347F34FF34D9
:100740000734C03405342334E0346B3420340334AC
:10075000A8346234003400349C3480340034603473
:100760009C34A0343B34FF340734C03405340A349D
:100770009C34423400340434BD34A2340034073491
:100780001334FF34FF34F434A834623400340034BA
:100790009C34213400340C3485342134FF34FC344F
:1007A00084342134FF34F434443400344834003485
:1007B00084344134FF34F834D734E1344F34FC34DA
:1007C000D734E1341734D834D734E1340F34D43447
:1007D000D734E1347734DC34D734E1349734E0343F
:1007E000D734E134A734E434D734E134B734E834CF
:1007F000D734E134C734EC34D734E134D734F0346F
:10080000D734E134E734F434D734E134F734F8340E
:100810009C342134FF34D0340734C03409346F346D
:10082000A8344034FF34F034A83460349F340634A4
:100830000734C0340A343B349C34803403342534C8
:100840000734C0340A341D34A83460349834143466
:10085000E4342B34103400340C34003404341634B3
:100860009C34603400340034A83460349834143438
:100870000734C0340A3433349C3480345B345B3402
:10088000A83460349F3408340734C0340A34303418
:100890009C3480344B3423349C3460340034003432
:1008A0001834A03401340034B834833400340334B1
:1008B000A834A5341834D0349C3463340034013463
:1008C0009C34403400340034E03484342834003420
:1008D000BC3423340134B5341334FF34FF34F934D9
:1008E000D4340434103404341834C03401340034A3
:1008F0001834E03401340034A834C6342634783453
:10090000A834E7341834683418346034CF34FF34F2
:10091000D434063410340034D43407341034003462
:10092000A8346334FF34FF34C13440341834003405
:10093000C134403410340134A834623400340034FB
:100940009C348034003402349C34A0340034FF34AE
:100950000734C0340634E3349C3442340034013468
:10096000BC342234003408341334FF34FF34FB34F5
:10097000A8346234003400341B3480340134003431
:100980001B34C03401340034AB349C34273420345D
:10099000AB34DE342634AC34B434A03450340134B7
:1009A0009C34823400340134A834603498341534D3
:1009B000A434443400340734A4348434003403347D
:1009C000D4341C34283400340734C0340934EC34B3
:1009D000D434013420340034E034803458340234C8
:1009E0001934003401340034E134643458340434AC
:1009F000A83460349F340634AD346B34FF34FF3494
:100A0000A934083427341C34B9346B3400345F34CF
:100A10000734C0340934E334D4340834583400344F
:100A2000B8346B3400344D34BC34233400340434D3
:100A30000C34003401349E34BC342334003402348A
:100A40000C34003402342B34BC34233400340334EB
:100A50000C3400340234343415340034003400349F
:100A6000B4346034503401341934803401340034E7
:100A7000A9348C341834CC3484348C3400340034AD
:100A8000E034633420340234183480343034003499
:100A9000E434A334203400341034003400341134EE
:100AA0001834A03401340034A834A5341834683420
:100AB0008534C53400340034BC342E340034003462
:100AC0001034003400340C34A8346E340034003454
:100AD0009C348034003401340734FF34FF34113443
:100AE000A834AE34003400341834C0340134003437
:100AF0001834E03401340034A834C6342634783451
:100B00009D34003400340134A834E7341834683498
:100B1000D434063470340034D434073440340034D0
:100B20000734C0340934C134A834603498341434E0
:100B3000BC342B345A345A340C34003401347834F5
:100B4000BC342B345B345B340C3400340234233437
:100B500018346034013400349C348034003402345E
:100B6000A83463342634E834D434033420340034D5
:100B70009C346234FF34FC34BC34433400340334DA
:100B800010340034003405341834A03401340034F7
:100B90009C34C03400340234A834A5342634E834FC
:100BA000D434053430340034A83462340034003492
:100BB0000734C03404349D349C3480340034003411
:100BC000A6348B3400340234BC3414340034003482
:100BD000103400340134123484346134003400346D
:100BE0008434E134003400341934003401340034E6
:100BF000BA34C73400340234A934083427340C34EE
:100C0000E0347634403400348434833400340034A7
:100C1000BC340434003400340C3400340034033465
:100C20009D34803400340134D434033460340034CF
:100C30000734C0340634CB34A83462340034003472
:100C40001834A03401340034B8346B3400348834A0
:100C5000A834A53427340C349C34C0340034003418
:100C6000E034963428340034BD34A33400341F34C7
:100C7000D434043430340034103400340034743448
:100C8000A934CB3400340034A434633400341F342A
:100C9000BC34033400340C34103400340134D13407
:100CA000BC340334003418341034003401346C3450
:100CB000BC340334003402340F34FF34FF349C342A
:100CC0001834E03401340034BB34023400340234CC
:100CD000A834E7342634EC349D340034FF34FE3439
:100CE000E034D83438340034A8346234003400346A
:100CF0008434A634003400349C34803400345034BE
:100D0000E034A534403403340734C03404344B3465
:100D1000D4340634283400349D348034F034003424
:100D2000E0346B34603403340734C03409348F3416
:100D3000A834633400344034A834623400340034BE
:100D40000734C034043444349C34803400343B349D
:100D500018348034FF34FF34A83484340F34FF3423
:100D60000734C03404345F34E0346B34203403344B
:100D7000B434803450340134A8346034983412349C
:100D80000734C03409349134B834843400345034D6
:100D9000A8346234003400340734C03404343934A5
:100DA0009C34803400347F34A834623400340034FE
:100DB000A434AB3400341F340734FF34FE34B5346C
:100DC0009C34803400340734A83462340034003456
:100DD0000734C0340634A1349C34803400340034E9
:100DE0001834A03401340034A834A5342634E8344F
:100DF0008434653400340034BC34033400340234A9
:100E00001034003400341634A83462340034003412
:100E10000734C0340434CB349C348034003404347C
:100E20001834C0340134003419340034013400342F
:100E3000A834C6342634E0349C34E034003404341E
:100E4000E034623430340034A93408342634D834E1
:100E50001934803401340034D83403343834003445
:100E6000A9348C342634D034E03462344034003435
:100E70001834803401340034D83403343834003426
:100E8000A834843400341834E034623460340034DC
:100E90009C34A03400340134D83403343834003462
:100EA000E034623420340034D8340334283400343D
:100EB0009C348034003400340734C0340634973412
:100EC000A834623400340034A8346234003400346E
:100ED0009C348034003402340734C0340634323455
:100EE0009C34A03400340C341834C0340134003441
:100EF000A834C63427340C34E234D63430340034C9
:100F00008434763400340034BC3423340034003468
:100F10000C34003400341D341834E034013400340F
:100F2000A834E7342634B034E0347834383400342C
:100F30008434633400340034BC344334003401342A
:100F40000C34003402343234193480340134003427
:100F5000A9348C342634EC34E3341834603400344F
:100F60008434783400340034A434833400340234BC
:100F7000BC342434003400341034003400341034D1
:100F80009C34C034003401341834E034013400346B
:100F9000E034A63410340834A834E73427341C3441
:100FA0008434DE3400340034A83463340034023432
:100FB000E034A534303404348434C734003400348D
:100FC000D434183418340034BC34063400340034BB
:100FD0001034003402348234D4341E3428340034C3
:100FE000BC3425340034FF340C3400340234E03493
:100FF0009C34A034383400340734C03404347D3495
:10100000A8346234003400340334FF34FF34323403
:101010001534003400340034BD3443340034183403
:101020000F34FF34FF342F3418346034013400346B
:10103000A834633426349C34E134C2341834003488
:101040008C346E3400340034BC3423340034013426
:101050000C34003401349C341834C034013400346E
:101060009C346334FF34FE34BC34433400340134E4
:101070001334FF34FF342534183480340134003401
:10108000BB34023400340234A834843426347C3433
:1010900084347C3400340034E234D83420340034D6
:1010A0001834A03400346634843496340034003468
:1010B000E034633420340234E434433428340034DC
:1010C00010340034023429341834C034013400346C
:1010D0001834E03401340034A834C6342634E03403
:1010E000A834E7342634D834E2348234303400343F
:1010F000E2344234383400348C34923400340034D6
:101100008C34743400340034E4342434183400341F
:101110001334FF34FF341134183460340134003494
:10112000A834633426347C34E3341834183400345F
:1011300084347C34003400348434983400340034F3
:10114000E0346334203402341834803400343034D2
:10115000E434A334203400341334FF34FF3408342F
:101160009F34003400340434A83462340034003432
:101170000734C0340434CF349F341834FF34FF3480
:10118000A8346234003400340734C0340434CC341E
:10119000AA34CB3400340034E234CB34B0340234DB
:1011A0009E34D63400340134BC34B63400340234B6
:1011B000103400340234CF34BC34383400340034BA
:1011C0001334FF34FF34F534A8346234003400346F
:1011D0009C34803400340E349C34A0340034013408
:1011E0000734FF34FE343034D434013458340034FE
:1011F0000734FF34FE345934A834623400340034E8
:101200009F34003400340434A83462340034003491
:101210000734C0340434CA349F341834FF34FF34E4
:10122000A8346234003400340734C0340434C73482
:10123000AA34CB3400340034E234CB34B03402343A
:101240009E34D63400340134BC34B6340034023415
:10125000103400340234B934BC343834003400342F
:101260001334FF34FF34F534A834623400340034CE
:101270009C34803400340E349C34A0340034023466
:101280000734FF34FE341C34AB344B3400340034A8
:101290000734FF34FE344534A8346234003400345B
:1012A0008434A13400340034A8346234003400346F
:1012B000B834C53400340334B834BA3400340A3492
:1012C0009C34803400340E34A834C63400340434E2
:1012D0000734FF34FE341234E034A63428340434A6
:1012E0008434C13400340034BD34863400340034D6
:1012F0001034003402346734BD349A34003400347E
:101300000C34003402346F34193480340134003426
:101310001834A03401340034A9348C34003414342B
:10132000A834A5340034103484348C3400340034B0
:1013300084346534003400348434C13400340034DF
:10134000E0347A341B340634E034863423340634F3
:10135000E034643418340034BD34A3340034003431
:101360000C34003402348234193400340134003433
:101370001934803401340034A934083400340C3476
:10138000A9348C3400340834843468340034003494
:1013900084348C34003400348434A1340034003478
:1013A000E0349A3423340634E03465341B34063494
:1013B000E034633420340034BD346334003400340A
:1013C0001034003402345334AF345A34FF34FF3411
:1013D000E0346034D0340234E3344334D034043461
:1013E000BD347A34003400341034003402344E34C6
:1013F00015340034003400348C347234003400343A
:10140000BC342334003407340C34003402344A34FE
:101410001834C03401340034A834C6342634D034EF
:10142000E0348234303400348C348434003400347A
:10143000E434A434183400340C340034023444341A
:1014400015340034003400349C34633400340134E7
:101450000334FF34FE34A934D8341434183400343F
:101460001834803401340034BA34C33400340234C4
:10147000A834843427340C34E034763420340034F7
:101480008434833400340034BC34043400340034F5
:101490001334FF34FE34F4341834A03401340034EF
:1014A000D4340334A0340034A834A53427341C3495
:1014B0008434853400340034BC34043400340034C3
:1014C00010340034003403349F34003400340434C6
:1014D0009F34003400340134BB34583400340234B7
:1014E00085347C34003400349C34A034003400341F
:1014F00084348134003400341934803401340034AD
:10150000E0346534B0340034A9348C341834AC344D
:101510001834C03401340034E034E334603400342F
:101520001934803401340034A834C6342634B0343D
:10153000A9348C342634EC34E134033430340034B0
:10154000E034C3346034003419348034013400345E
:10155000E0348434C0340034A9348C3418348C34EE
:10156000BD34A43400340734E034633460340034D0
:101570009D34803400340034D4340334583400347F
:10158000D434083460340034D43407346034003444
:10159000D4340634603400341334FF34FF34EC3474
:1015A000E034A534D034003486344134003400347F
:1015B000A8348C34003400340034003400341D343A
:1015C000A934D634003400340734FF34FE342334D5
:1015D00015340034003400349C3480340034113429
:1015E000E03464349034083484349E34003400345D
:1015F000AC346334FF34FF34E034633420340334D8
:10160000D4341E34183400341834C0340134003457
:101610001834E03401340034A834C63418347C342F
:10162000A834E73418346C34E0348E343034003469
:1016300084347C3400340034E134CE343834003423
:10164000E2345234C03400349D3400340034003469
:10165000D4340E3418340034D434043440340034D8
:10166000BD345234003403341334FF34FE34B934FF
:10167000E2349434D03400341934803401340034EA
:10168000E134D434B0340034A9348C3427340C34ED
:10169000E0346E34603400348434833400340034F5
:1016A000BC340434003400340F34FF34FF34E434E9
:1016B000A8347234003400340734FF34FD34EA3483
:1016C00015340034003400349C34A0340034113418
:1016D00084349E3400340034E0346534903408346B
:1016E000E0346334203404340334FF34FF34E4340E
:1016F000D4341E34183400341934803401340034A6
:101700009C34603400340034A9348C342634E834FA
:101710000334FF34FE348C34D4340C3418340034A5
:10172000A534CB341F34FF34BC344E340134B434CC
:10173000103400340034F03419348034013400346F
:10174000B8346E3400340334A9348C341834D034B3
:10175000E034633460340034863443340034043479
:101760008634833400340034BA34D23400345034F4
:10177000B834943400345034A6345234FF34FF3437
:10178000A6349434FF34FF340734C0340834503462
:10179000A83460349F340034A83460349F3401345A
:1017A0000734C03408344D34A83494340034003441
:1017B000A83460349F3402340734C03408344A34C7
:1017C000A834963400340034A83460349F34033491
:1017D0000734C03408344734A83492340034003419
:1017E000A83460349F3406340734C0340834443499
:1017F000A8348E34003400340334FF34FE344D34C6
:101800001534003400340034B4348034503401349E
:10181000A8346034983413340734C03408343E3468
:10182000B834843400345034A83462340034003482
:101830000734C0340234E6349C34803400347334CA
:10184000A8346234003400349C34803400340834CA
:101850000734FF34FD346234A434AB340734FF342E
:101860000734FF34FD341C341534003400340034A4
:10187000BC342B340034003410340034003432349F
:10188000AA348B3400340034A83462340034003479
:101890009C34803400342A340734C0340234D934C0
:1018A000A534CE3400347F34A8346234003400349C
:1018B0009C34803400342B340734C0340234D534A3
:1018C000AB340B3400340034A834623400340034B8
:1018D0009C34803400342C340734C0340234D13486
:1018E000AA34CB3400340034A834623400340034D9
:1018F0009C34803400347F340734C0340234CD3417
:10190000AA344B3400340034A43498347F34FF3488
:10191000B8347234003481341834C03401340034A3
:10192000A634523400347F34A834C6342634783494
:10193000B834843400340734BA34523400340E34AA
:10194000A43463343F348034B9346B3400344C34C1
:101950008434A634003400341834E03410340034B5
:10196000E034843470340434E23443349034043446
:10197000A634D63400347F341934003401340034B2
:10198000B9346B3400341534B834623400341D3447
:10199000B834A53400340334E034843438340434A7
:1019A000A93408341834D034E2345234B034043416
:1019B000E034A53440340034E03484341834043442
:1019C000E234523458340434A834743400340034CB
:1019D000D4340534203404340734FF34FD340B345C
:1019E000D434053490340034B43460345034013489
:1019F0001934803401340034A9348C341834CC3494
:101A0000D4340C3418340034A83462340034003434
:101A10009C348034003402349C34A0340034FF34CD
:101A20000734C0340434C934BB34023400340234C3
:101A300018346034013400341834C03401340034B4
:101A4000A83463342634EC34A834C6340034183453
:101A5000E034B83418340034E034823430340034A4
:101A600084346534003400348C34843400340034DD
:101A7000A834633400340134BC34243400340034DA
:101A80001034003400347934D4340534183400343C
:101A90001834E03401340034A834E73426349C345C
:101AA000E034A23438340034D834053420340034DF
:101AB00019340034013400341934803401340034D2
:101AC000A93408342634EC34A9348C3426347C34DC
:101AD000E034D83440340034A83483340034013442
:101AE000E3341834603400348434BC3400340034BB
:101AF000A834623400340034D43406342034003442
:101B00000734C03403341C34D4341834283400343B
:101B10000334FF34FD34D134153400340034003440
:101B20000734C03403346434A834623400340034DD
:101B30001934803401340034A5346B340034FF345C
:101B4000A9348C342634A434BC342B3400340F3400
:101B5000E0346234603400340C34003400347034C7
:101B6000D834033458340034A83462340034003498
:101B70009C348034003402340734C03404349E343E
:101B80009C34A034003418340334FF34FE348E34D3
:101B900015340034003400341834803401340034F7
:101BA0001834A034013400349C34603400340034E0
:101BB000A8348434263478349C34C034003401345E
:101BC000A834A53418346834D434043418340034B8
:101BD0000734C0340734BA34D434053430340034D4
:101BE0000334FF34FD34D034153400340034003471
:101BF000B9346B3400344A34A5346B3400340734C0
:101C0000BC342B34003401340C3400340134063439
:101C1000BC342B34003402340C340034013412341C
:101C2000BC342B34003403340C3400340034D2344C
:101C30001834E03401340034A83460349F3406345E
:101C40000734C0340734B9349C3480340034003451
:101C50000334FF34FD34C23415340034003400340E
:101C60001834803401340034A83460349F3408348C
:101C70009C34A03400340134A83484342634E8344D
:101C80000734C03407349534D43404342834003451
:101C9000B834AB3400344C34B8348B34003448346A
:101CA000B8346B34003444341834C0340134003454
:101CB0001834E03401340034193400340134003471
:101CC0001934803401340034A434A53400340F3482
:101CD000A434843400340F34A434633400340F3417
:101CE000A5346B3400340F34A834C63400341434B3
:101CF000A834E73400341034A934083400340C34E8
:101D0000A9348C3400340834D434063428340034F4
:101D1000D434073420340034D43408341834003434
:101D20000334FF34FD34CA34D4340C345834003412
:101D3000BB34023400340234A834C63426347C3434
:101D400084349C3400340034E034B834303400340B
:101D50001834E034003446348434A534003400347C
:101D6000E034843428340234E434A4343834003485
:101D70001334FF34FD348534193400340134003415
:101D80001934803401340034A93408342634D8346A
:101D9000A9348C342634E034E23442344034003404
:101DA000E0348234603400348C34A43400340034A1
:101DB0008C34923400340034E4340534203400345C
:101DC0001034003401340134E43445342034003418
:101DD000103400340034033415340034003400343B
:101DE0009C3460340034FF34E034833420340034D5
:101DF000A834623400340034A434A4340034FF34F2
:101E0000A8348534003400340734C0340234CC3470
:101E1000D834123428340034183460340134003497
:101E2000A834633426347C34E33418341834003452
:101E300084347C34003400340334FF34FD346C3497
:101E4000D4341834183400341934003401340034D4
:101E5000A93408342634E834843488340034003417
:101E6000BC342434003400340C34003400342534C1
:101E7000BC342434003401340C3400340034A7342E
:101E80001834C034013400349C34E034003400345D
:101E9000A834C63426349C34E034823430340034E0
:101EA0000334FF34FF348234D834043438340034FB
:101EB0009E34403400340034AA34D2340034003428
:101EC000AA349234003400340334FF34FF3418341D
:101ED000A83492340034003418348034013400348F
:101EE000A83484342634E834843464340034003430
:101EF000BC340334003402341334FF34FF348E34E2
:101F00001834C0340134003419340034013400343E
:101F1000A834C6342634E0349C34E034003407342A
:101F2000E034A23430340034A93408342634D834B0
:101F30001934803401340034D83405343834003452
:101F4000A9348C342634D034E034A2344034003404
:101F5000A834623400340034D834053438340034C2
:101F60009C34803400340734E034A23460340034CC
:101F70000734C03402349F34D83405343834003444
:101F80000334FF34FF347E34A83462340034003428
:101F90000734C03403341A34A834623400340034B3
:101FA000BD348B3400340034103400340034B73482
:101FB00019348034013400349C34603400340434E7
:101FC000A9348C342634E034BD344B34003403342B
:101FD000E2348234603400340C3400340034A534EC
:101FE000D8341434183400349C34A034003402340F
:101FF000A8346234003400340734C03403341E344F
:10200000D834143428340034BD346B3400340034F4
:102010000C3400340034A53415340034003400345A
:102020008C34743400340034BC3443340034013410
:102030000C34003400340B341834C0340134003410
:102040001834A03401340034A834A5342634A43420
:10205000E0348234283400348C3484340034003446
:10206000BC34443400340E341034003400340434AE
:102070001834C034013400349C346334FF34FF34EA
:10208000D834143418340034193400340134003492
:10209000A834C63426349C349C34E03400340134F3
:1020A000E034623430340034A93408342634EC345B
:1020B000D834033438340034E034783440340034D5
:1020C0000334FF34FF343E3484346334003400344A
:1020D0001934003401340034A93408342634EC3483
:1020E000E334183440340034843478340034003419
:1020F000A434833400340234BC3404340034003457
:102100001334FF34FD34DF349D3480340034013423
:102110001834E03401340034E0348C3410340834A2
:102120008434BE34003400349C34C034FF34FD3475
:10213000AC348434FF34FF34A834E73427341C34FF
:10214000E034633430340334E034843428340334EA
:102150008434C73400340034D43418341834003490
:10216000BC34063400340034103400340034943469
:10217000D4341E34203400349D34C0340034003450
:10218000A8346E34003400340734C0340134BB3416
:102190009C3480340034753419340034FF34FF34F7
:1021A000A93408347F34FF340734C0340134D634C2
:1021B000E0346B3440340334A8346E3400340034DB
:1021C0009C348034003460349C34A0343B34FF347D
:1021D0000734C0340134BD349D34CE34003401346E
:1021E000BC342E34003408341334FF34FF34F43458
:1021F000A8346E34003400340334FF34FD34C0346A
:1022000015340034003400341934003401340034FF
:102210001934803401340034A93408342634E034CD
:10222000A9348C342634D834E23482344034003437
:10223000E2344234603400348C34B434003400343A
:10224000A834623400340034A834853400340034B7
:102250000734C03402344334D834123428340034C0
:1022600018346034013400348C348E34003400343B
:10227000A834633427342034BC3424340034033489
:1022800084346334003400341334FF34FD34CE34EA
:10229000D4341634183400340734FF34FC34443456
:1022A000A8346234003400340334FF34FD34CB34BA
:1022B0008C34923400340034A834E7342634B034FB
:1022C0008434C7340034043484346734003408342C
:1022D000B834C63400340434B834633400340834B9
:1022E0008434873400340C348434A734003400340C
:1022F000E034663418340434B834843400340C3494
:10230000E034A33428340434A83460349F340034D7
:10231000E0348534203404340734C0340634DE34E9
:10232000A4348434FF34FF341934003401340034CD
:10233000A93408342634B0348434C8340034143416
:102340008434683400341834B834C6340034043467
:10235000B8346334003408348434883400341C3492
:102360008434A83400341034E0346634183404342F
:10237000B834843400340C34E034A33428340434C6
:10238000A83460349F340134E0348534203404347C
:102390000734C0340634CF34A4348434FF34FF34DB
:1023A0000334FF34FF341434A83460349F340634CB
:1023B00019348034013400349C34A03400340234A5
:1023C000A9348C3426349C34E034823460340034B4
:1023D0000334FF34FE34DC34D8340434283400347D
:1023E0009C346034003411348534013400340034BA
:1023F000E034633440340834E034A5341834033412
:10240000E4342334283400341334FF34FD347E3470
:1024100015340034003400340734FF34FC343E34C7
:10242000A8346834003400340334FF34FD347A3483
:102430001534003400340034A83460349F34003440
:102440000734C0340634B9349C348034003400344A
:10245000A83460349F3401340734C0340634B634B1
:102460009C34803400340034A83460349F34023407
:102470000734C0340634B3349C3480340034003420
:10248000A83460349F3403340734C0340634B03485
:102490009C348034003400340334FF34FE34F5348B
:1024A000A83460349F340634A83460349F34003438
:1024B0000734C0340634AB349C34803400340034E8
:1024C000A83460349F3401340734C0340634A8344F
:1024D0009C34803400340034A83460349F34023497
:1024E0000734C0340634A5349C34803400340034BE
:1024F0000334FF34FE34EA34A83460349F340634A5
:102500009C34803400340334A83462340034003402
:102510000734C03402347B34D834143420340034CB
:10252000BD346B34003400341334FF34FF345F3473
:1025300015340034003400348C34743400340034E6
:102540009C34633400340134A43463340034FF34E5
:102550000334FF34FF345B34D8341434183400347B
:10256000BC342B34FF34FF340C34003400344F348B
:10257000BC342B34FF34FE340C3400340034583473
:10258000BC342B34FF34FD340C34003400345D345F
:1025900019348034013400349C34803400340734DE
:1025A000A9348C342634E0349C346034003407344D
:1025B000E2348234603400340334FF34FF34513465
:1025C000D8341434203400340734FF34FB34DE3480
:1025D000A834623400340034B434803450340134CC
:1025E000A83460349F3405340734C034063484344E
:1025F000B8348434003450340334FF34FC3474343D
:1026000015340034003400340734FF34FC341B34F8
:1026100084346134003400340334FF34FD343C34FA
:102620001534003400340034BD347A3400340034BE
:102630000C34003400344F34A83462340034003495
:102640009C34803400340E340734FF34FB34A3341C
:102650009C34A034003403340734FF34FB34CC34CE
:10266000A8346234003400340334FF34FC3466345C
:1026700015340034003400348C34723400340034A7
:10268000BC342334003401340F34FF34FF34FA34C3
:102690001834E03401340034A834E7342634D0341C
:1026A000E0348234383400348C34843400340034E0
:1026B000E434643418340034103400340034033407
:1026C0009D34003400340334D8340E3440340034A4
:1026D0009C346334FF34FF340334FF34FC34583407
:1026E000D834143418340034A934C43400340034D9
:1026F000A8346E34003400340734C0340134183444
:102700009C348034003460340734C03401342A34BB
:102710009C34603400340034A8346E340034003407
:102720009C348034003475340734C03401340734A9
:102730009D34CE34003401340734C03401342434A1
:10274000A8346B3480340034BC342E340034083464
:102750001334FF34FF34F4349C34A0343834003460
:102760000334FF34FD3413341534003400340034A2
:102770008C34723400340034BC34233400340134DB
:102780000F34FF34FF34DB341834E03401340034C8
:10279000A834E7342634D034E0348234383400347A
:1027A0008C34843400340034E43464341834003419
:1027B0001334FF34FF34E5349C346334FF34FF3486
:1027C0000734FF34FB349F34A834623400340034BF
:1027D0000334FF34FC34393415340034003400340D
:1027E0001834C034013400349C34E03400340434F0
:1027F000A834C6342634E0349C34603400340434C5
:10280000E2348234303400340334FF34FF3407348C
:10281000D8341434383400340334FF34FD345134A4
:10282000AB344B34003400340334FF34FD343B34D8
:10283000D4340134583400341934003401340034B1
:102840009D34803400340534A93408342634E0340F
:102850009C34603400340534E23482344034003433
:102860000334FF34FE34FC34D83414346034003480
:1028700018346034013400349C348034003406341D
:10288000A83463342634E034E2348234183400341B
:102890009C346034003406340334FF34FE34F534A1
:1028A000D8341434203400348C347234003400347E
:1028B000BC342334003407340F34FF34FF34B434D1
:1028C0001834E03401340034A834E7342634D034EA
:1028D000E0348234383400348C34843400340034AE
:1028E000E434A434183400341334FF34FD346C342D
:1028F0009D340034003403340334FF34FD346A342F
:10290000D8340E34403400340734C0340634133421
:102910001834403401340034A83462343F34FC3479
:102920009C34803400340034A83442343F34F834CA
:10293000DC34033420340034DC34023420340034FA
:10294000A8344034013400344434003410340034AA
:1029500015340034003400340334FF34FB34E334E2
:10296000A834603498341434D734E1340F34FC3450
:102970009C342134FF34FC349C342134003404343E
:10298000443400344834003484342134FF34FC347B
:10299000D734E1340F34FC349C342134FF34FC341C
:1029A0009C3421340034043444340034483400343A
:1029B00084342134FF34FC34D734E1340F34FC3414
:1029C0009C342134FF34FC349C34213400340434EE
:1029D000443400344834003484342134FF34FC342B
:1029E000D734E1340F34FC349C342134FF34FC34CC
:1029F0009C342134003404344434003448340034EA
:102A000084342134FF34FC34D734E1340F34FC34C3
:102A10009C342134FF34FC349C342134003404349D
:102A2000443400344834003484342134FF34FC34DA
:102A3000D734E1340F34FC349C342134FF34FC347B
:102A40009C34213400340434443400344834003499
:102A500084342134FF34FC34D734E1340F34FC3473
:102A60009C342134FF34FC349C342134003404344D
:102A7000443400344834003484342134FF34FC348A
:102A8000D734E1340F34FC349C342134FF34FC342B
:102A90009C34213400340434443400344834003449
:102AA00084342134FF34FC34D734E1340F34FC3423
:102AB0009C342134FF34FC349C34213400340434FD
:102AC000443400344834003484342134FF34FC343A
:102AD000D734E1340F34FC349C342134FF34FC34DB
:102AE0009C342134003404344434003448340034F9
:102AF00084342134FF34FC34D734E1340F34FC34D3
:102B00009C342134FF34FC349C34213400340434AC
:102B1000443400344834003484342134FF34FC34E9
:102B2000D734E1340F34FC349C342134FF34FC348A
:102B30009C342134003404344434003448340034A8
:102B400084342134FF34FC34D734E1340F34FC3482
:102B50009C342134FF34FC349C342134003404345C
:102B6000443400344834003484342134FF34FC3499
:102B7000D734E1340F34FC349C342134FF34FC343A
:102B80009C34213400340434443400344834003458
:102B900084342134FF34FC341834203401340034BC
:102BA000A8342134183468341834403401340034E3
:102BB000A834423403345C344434003410340034D8
:102BC00015340034003400340034003400349934B7
:102BD00000349D34C03499340134213404349934A0
:102BE00002348F3410349834153400340034603497
:102BF00002348034003470340034003400347034D3
:102C00000034003400347434003400340034803430
:102C1000A334003420348434A334003420346034AA
:102C2000123480340034713400340034003475348C
:102C30000034003400348134A3340034203485342B
:102C4000A3340034203460342234803400347234AD
:102C500000340034003476340034003400348234DC
:102C6000A334003420348634A33400342034603458
:102C70003234803400347334003400340034773418
:102C80000034003400348334A334003420348734D7
:102C9000A33400342034803479348834603481346F
:102CA00079348834603482347934883460348334BD
:102CB00079348834603484347934883460348534A9
:102CC0007934883460348634793488346034873495
:102CD000793488346034803463340034803481340F
:102CE0006334003480348234633400348034833479
:102CF0006334003480348434633400348034853465
:102D00006334003480348634633400348034873450
:102D1000633400348034803464348034003480344C
:102D200064348034803481346434803400348134B9
:102D300064348034803482346434803400348234A7
:102D40006434803480348334643480340034833495
:102D50006434803480348434643480340034843483
:102D60006434803480348534643480340034853471
:102D7000643480348034863464348034003486345F
:102D8000643480348034873464348034003487344D
:102D90006434803480348034763400348434813434
:102DA000763400348434823476340034843483348A
:102DB0007634003484348434763400348434853476
:102DC0007634003484348634763400348434873462
:102DD0007634003484348034773418348234813447
:102DE000773418348234823477341834823483341C
:102DF0007734183482348434773418348234853408
:102E000077341834823486347734183482348734F3
:102E1000773418348234803478348C343C348134C0
:102E200078348C343C34823478348C343C3483347D
:102E300078348C343C34843478348C34383485346D
:102E400078348C343834863478348C34383487345D
:102E500078348C343834803402344034063481344D
:102E6000023440340634823402344034063483342D
:102E70000234403406348434023440340634853419
:102E80000234403406348634023440340634873405
:102E9000023440340634803400344D3405348134F7
:102EA00000344D340534823400344D3405348334D9
:102EB00000344D340534843400344D3405348534C5
:102EC00000344D340534863400344D3405348734B1
:102ED00000344D340534803407344D347A34813431
:102EE00007344D347A34823407344D347A348334A1
:102EF00007344D347A34843407344D347A3485348D
:102F000007344D347A34863407344D347A34873478
:102F100007344D347A34803483344E34053481346C
:102F200083344E340534823483344E340534833450
:102F300083344E340534843483344E34053485343C
:102F400083344E340534863483344E340534873428
:102F500083344E340534803484348F347A3481346D
:102F600084348F347A34823484348F347A348334A2
:102F700084348F347A34843484348F347A3485348E
:102F800084348F347A34863484348F347A3487347A
:102F900084348F347A34803485344F34053481342A
:102FA00085344F340534823485344F3405348334CA
:102FB00085344F340534843485344F3405348534B6
:102FC00085344F340534863485344F3405348734A2
:102FD00085344F34053480348634CF34053481341D
:102FE0008634CF34053482348634CF340534833488
:102FF0008634CF34053484348634CF340534853474
:103000008634CF34053486348634CF34053487345F
:103010008634CF340534803487344D340A348134D7
:1030200087344D340A34823487344D340A3483343F
:1030300087344D340A34843487344D340A3485342B
:1030400087344D340A34863487344D340A34873417
:1030500087344D340A34803488344D3475348134A7
:1030600088344D347534823488344D347534833427
:1030700088344D347534843488344D347534853413
:1030800088344D347534863488344D3475348734FF
:1030900088344D34753480344D34003400348134F8
:1030A0004D340034003482344D34003400348334E1
:1030B0004D340034003484344D34003400348534CD
:1030C0004D340034003486344D34003400348734B9
:1030D0004D340034003480344E34003400348134B4
:1030E0004E340034003482344E340034003483349F
:1030F0004E340034003484344E340034003485348B
:103100004E340034003486344E3400340034873476
:103110004E3400340034803481341034003481342F
:1031200081341034003482348134103400348334D8
:1031300081341034003484348134103400348534C4
:1031400081341034003486348134103400348734B0
:1031500081341034003480348234B8340034813403
:103160008234B834003482348234B8340034833446
:103170008234B834003484348234B8340034853432
:103180008234B834003486348234B834003487341E
:103190008234B834003480347534C634FF3481341A
:1031A0007534C634FF3482347534C634FF34833406
:1031B0007534C634FF3484347534C634FF348534F2
:1031C0007534C634FF3486347534C634FF348734DE
:1031D0007534C634FF3480347934863460348134B5
:1031E000793486346034823479348634603483347C
:1031F0007934863460348434793486346034853468
:103200007934863460348634793486346034873453
:10321000793486346034803479348634603481344F
:10322000793486346034823479348634603483343B
:103230007934863460348434793486346034853427
:103240007934863460348634793486346034873413
:10325000793486346034803479348634603481340F
:1032600079348634603482347934863460348334FB
:1032700079348634603484347934863460348534E7
:1032800079348634603486347934863460348734D3
:103290007934863460348034FE342934A83481345F
:1032A000FE342934A8348234FE342934A8348334DB
:1032B000FE342934A8348434FE342934A8348534C7
:1032C000FE342934A8348634FE342934A8348734B3
:1032D000FE342934A8348034FD343234443481340B
:1032E000FD34323444348234FD3432344434833453
:1032F000FD34323444348434FD343234443485343F
:10330000FD34323444348634FD343234443487342A
:10331000FD34323444348034FC3452343634813415
:10332000FC34523436348234FC34523436348334F0
:10333000FC34523436348434FC34523436348534DC
:10334000FC34523436348634FC34523436348734C8
:10335000FC34523436348034F834B7347834813421
:10336000F834B73478348234F834B734783483346A
:10337000F834B73478348434F834B7347834853456
:10338000F834B73478348634F834B7347834873442
:10339000F834B73478348034F5346134E03481342F
:1033A000F5346134E0348234F5346134E03483340C
:1033B000F5346134E0348434F5346134E0348534F8
:1033C000F5346134E0348634F5346134E0348734E4
:1033D000F5346134E0348034F134703400348134B5
:1033E000F134703400348234F13470340034833476
:1033F000F134703400348434F13470340034853462
:10340000F134703400348634F1347034003487344D
:10341000F134703400348034F934A334DA34813434
:10342000F934A334DA348234F934A334DA3483340B
:10343000F934A334DA348434F934A334DA348534F7
:10344000F934A334DA348634F934A334DA348734E3
:10345000F934A334DA3480340334D9343334813446
:103460000334D934333482340334D9343334833499
:103470000334D934333484340334D9343334853485
:103480000334D934333486340334D9343334873471
:103490000334D9343334803450345034403481349C
:1034A00050345034403482345034503440348334B7
:1034B00050345034403484345034503440348534A3
:1034C000503450344034863450345034403487348F
:1034D00050345034403480340534AE348234813436
:1034E0000534AE34823482340534AE3482348334CD
:1034F0000534AE34823484340534AE3482348534B9
:103500000534AE34823486340534AE3482348734A4
:103510000534AE3482348034013442340134813491
:10352000013442340134823401344234013483346E
:10353000013442340134843401344234013485345A
:103540000134423401348634013442340134873446
:103550000134423401348034033429343334813427
:1035600003342934333482340334293433348334F8
:1035700003342934333484340334293433348534E4
:1035800003342934333486340334293433348734D0
:1035900003342934333480340634A1340034813484
:1035A0000634A134003482340634A1340034833428
:1035B0000634A134003484340634A1340034853414
:1035C0000634A134003486340634A1340034873400
:1035D0000634A1340034803408348A34BB34813456
:1035E00008348A34BB34823408348A34BB3483349C
:1035F00008348A34BB34843408348A34BB34853488
:1036000008348A34BB34863408348A34BB34873473
:1036100008348A34BB348034A0344034803481345C
:10362000A034403480348234A03440348034833435
:10363000A034403480348434A03440348034853421
:10364000A034403480348634A0344034803487340D
:10365000A0344034803480346134043420348134E4
:1036600061340434203482346134043420348334AB
:103670006134043420348434613404342034853497
:103680006134043420348634613404342034873483
:1036900061340434203480348234D83400348134AA
:1036A0008234D834003482348234D83400348334C1
:1036B0008234D834003484348234D83400348534AD
:1036C0008234D834003486348234D8340034873499
:1036D0008234D834003480347934863450348134A0
:1036E0007934863450348234793486345034833497
:1036F0007934863450348434793486345034853483
:10370000793486345034863479348634503487346E
:103710007934863450348034FE342934C8348134CA
:10372000FE342934C8348234FE342934C834833416
:10373000FE342934C8348434FE342934C834853402
:10374000FE342934C8348634FE342934C8348734EE
:10375000FE342934C834803408345A34BB348134BC
:1037600008345A34BB34823408345A34BB3483347A
:1037700008345A34BB34843408345A34BB34853466
:1037800008345A34BB34863408345A34BB34873452
:1037900008345A34BB3480348734CD340A3481340D
:1037A0008734CD340A3482348734CD340A348334B8
:1037B0008734CD340A3484348734CD340A348534A4
:1037C0008734CD340A3486348734CD340A34873490
:1037D0008734CD340A3498340D3407347734983430
:1037E0000D340034003499340034FD34E03499341D
:1037F0000134213404349934023493341034803445
:10380000FE34A534A8348034FD3436344434803456
:10381000F734A23446348034F5346134E0348134F2
:10382000FE34A534A8348134FD3436344434813434
:10383000F734A23446348134F5346134E0348234D0
:10384000FE34A534A8348234FD3436344434823412
:10385000F734A23446348234F5346134E0348334AE
:10386000FE34A534A8348334FD34363444348334F0
:10387000F734A23446348334F5346134E03484348C
:10388000FE34A534A8348434FD34363444348434CE
:10389000F734A23446348434F5346134E03485346A
:1038A000FE34A534A8348534FD34363444348534AC
:1038B000F734A23446348534F5346134E034863448
:1038C000FE34A534A8348634FD343634443486348A
:1038D000F734A23446348634F5346134E034873426
:1038E000FE34A534A8348734FD3436344434873468
:1038F000F734A23446348734F5346134E03400348C
:10390000073400342A34803400344D340534803494
:1039100007344D347A34813400344D3405348134E5
:1039200007344D347A34823400344D3405348234D3
:1039300007344D347A34833400344D3405348334C1
:1039400007344D347A34843400344D3405348434AF
:1039500007344D347A34853400344D34053485349D
:1039600007344D347A34863400344D34053486348B
:1039700007344D347A34873400344D340534873479
:1039800007344D347A348034F834B73478348134A1
:10399000F834B73478348234F834B7347834833434
:1039A000F834B73478348434F834B7347834853420
:1039B000F834B73478348634F834B734783487340C
:1039C000F834B73478348034A73414340034813474
:1039D000A734143400348234A734143400348334CC
:1039E000A734143400348434A734123400348534BA
:1039F000A734123400348634A734123400348734A8
:103A0000A734123400348034A8343C340034813478
:103A1000A8343C3400348234A8343C340034833439
:103A2000A8343C3400348434A8343F340034853422
:103A3000A8343F3400348634A8343F34003487340B
:103A4000A8343F3400348434A6343C340034853404
:103A5000A6343C3400348634A6343C3400348734F5
:103A6000A6343C3400347034063412345434713487
:103A700006341234543472340634123454347334E9
:103A800006341234543474340634123454347534D5
:103A900006341234543476340634123454347734C1
:103AA000063412345434703409343A349034713456
:103AB00009343A349034723409343A3490347334DB
:103AC00009343A349034743409343A3490347534C7
:103AD00009343A349034763409343A3490347734B3
:103AE00009343A3490347034193400340434713465
:103AF0001934003404347234193400340434733407
:103B000019340034043474341934003404347534F2
:103B100019340034043476341934003404347734DE
:103B20001934003404347034083407348034713468
:103B300008340734803472340834073480347334E2
:103B400008340734803474340834073480347534CE
:103B500008340734803476340834073480347734BA
:103B60000834073480348034813430340034813474
:103B7000813430340034823481343034003483343E
:103B8000813430340034843481343034003485342A
:103B90008134303400348634813430340034873416
:103BA0008134303400348034793488346C34813456
:103BB000793488346C348234793488346C34833486
:103BC000793488346C348434793488346C34853472
:103BD000793488346C348634793488346C3487345E
:103BE000793488346C34803484348D347A3480343D
:103BF00085344D347A3480348634CD347A3480340C
:103C00008734CD347A34803488344D347A348134F6
:103C100084348D347A34813485344D347A3481342B
:103C20008634CD347A3481348734CD347A34813457
:103C300088344D347A34823484348D347A34823406
:103C400085344D347A3482348634CD347A348234B7
:103C50008734CD347A34823488344D347A348334A2
:103C600084348D347A34833485344D347A348334D7
:103C70008634CD347A3483348734CD347A34833403
:103C800088344D347A34843484348D347A348434B2
:103C900085344D347A3484348634CD347A34843463
:103CA0008734CD347A34843488344D347A3485344E
:103CB00084348D347A34853485344D347A34853483
:103CC0008634CD347A3485348734CD347A348534AF
:103CD00088344D347A34863484348D347A3486345E
:103CE00085344D347A3486348634CD347A3486340F
:103CF0008734CD347A34863488344D347A348734FA
:103D000084348D347A34873485344D347A3487342E
:103D10008634CD347A3487348734CD347A3487345A
:103D200088344D347A3470341934003405347134A5
:103D300019340034053472341934003405347334C2
:103D400019340034053474341934003405347534AE
:103D5000193400340534763419340034053477349A
:103D6000193400340534703416348134C03471345D
:103D700016348134C034723416348134C034733410
:103D800016348134C034743416348134C0347534FC
:103D900016348134C034763416348134C0347734E8
:103DA00016348134C03480344D348034003481344E
:103DB0004D348034003482344D34803400348334C4
:103DC0004D348034003484344D34803400348534B0
:103DD0004D348034003486344D348034003487349C
:103DE0004D348034003480344E34383400348134DF
:103DF0004E343834003482344E3438340034833412
:103E00004E343834003484344E3410340034853425
:103E10004E341034003486344E3410340034873439
:103E20004E3410340034803461343C3420348134D6
:103E30006134343420348234613434342034833473
:103E400061343C342034843461343C34203485344F
:103E5000613434342034863461343434203487344B
:103E60006134343420348034A034003480348134DC
:103E7000A034003480348234A0340034803483345D
:103E8000A034003400348434A03400340034853449
:103E9000A034003480348634A03400348034873435
:103EA000A03400348034703408340C34003471345D
:103EB00008340C340034723408340C340034733455
:103EC00008340C340034743408340C340034753441
:103ED00008340C340034763408340C34003477342D
:103EE00008340C34003480340134513401348134CA
:103EF0000134513401348234013451340134833477
:103F00000134513401348434013442340134853471
:103F1000013442340134863401344234013487346C
:103F20000134423401348034FB3477343634813404
:103F3000FB34773436348234FB347734363483348C
:103F4000FB34773436348434FB3477343634853478
:103F5000FB34773436348634FB3477343634873464
:103F6000FB34773436348034F0346734B4348134FD
:103F7000F0346734B4348234F0346734B434833486
:103F8000F0346734B4348434F0346734B434853472
:103F9000F0346734B4348634F0346734B43487345E
:103FA000F0346734B4348034EF34B634A034813420
:103FB000EF34B634A0348234EF34B634A0348334D2
:103FC000EF34B634A0348434EF34B634A0348534BE
:103FD000EF34B634A0348634EF34B634A0348734AA
:103FE000EF34B634A03470341A34FF3400347134F2
:103FF0001A34FF34003472341A34FF34003473340A
:104000001A34FF3400348034F9348B34DA34813498
:10401000F9348B34DA348234F9348B34DA3483343F
:10402000F9348B34DA348434F9348B34DA3485342B
:10403000F9348B34DA348634F9348B34DA34873417
:10404000F9348B34DA348034DF340034663481342C
:10405000DF34003466348234DF3400346634833431
:10406000DF34003466348434DF340034663485341D
:10407000DF34003466348634DF3400346634873409
:10408000DF34003466348034F134B03400348134A9
:10409000F134B03400348234F134B0340034833439
:1040A000F134B03400348434F134B0340034853425
:1040B000F134B03400348634F134B0340034873411
:1040C000F134B03400348034FF34FD34C0348134F2
:1040D000FF34FD34C0348234FF34FD34C0348334C3
:1040E000FF34FD34C0348434FF34FD34C0348534AF
:1040F000FF34FD34C0348634FF34FD34C03487349B
:10410000FF34FD34C034240094012630950096011C
:104110009701FE309300A030920020009111210001
:1041200091150800F40001292100B401B40A080027
:1041300080307D02031CB3286F3086002730870053
:104140000108F000F1010730F035F10D890BA428CA
:104150007D087007F20071080318710AF3007208F5
:10416000B0007308B9287D08F000F1017008B000B4
:104170007108B100E228F030F0002630F10030087C
:104180007007F2003108713DF30072088600730871
:1041900087007D0881000130B0070030B13D01305B
:1041A0003102003003193002031CE228B001B101D2
:1041B000E22821003408003A0319BB28013A031908
:1041C0009828BB28B4010800F030F0002630F10038
:1041D00021003008700786003108713D8700010812
:1041E0002400910001302100B0070030B13D0130C2
:1041F0003102003003193002031C0800B001B10184
:1042000008007408003A03199428013A0319E428B5
:10421000033A0319D928013A03190F290F29080075
:104220002000921124009D1F512A9D132000EF01B0
:104230007808023E86008701403FF300413FF400CA
:10424000730886007408870001308100F8010800B7
:10425000E91808006808F3007308F8006808860089
:1042600087010108F3007308FA00680886008701D7
:10427000413FF9000430F3007308E8076808C33AC7
:10428000031D4629BF30F3007308E8006910680871
:1042900067060319E91424001E140230F3007308A2
:1042A0002000EF00080024009E140230F300730881
:1042B0002000EF00080024001E1F67290130F300D2
:1042C00073082000EB070430AA316F2208007C0835
:1042D000F4007B08F300F436F30C73082400990013
:1042E0007B1C78290B30F30073082000EF000800D6
:1042F0000330F30073082000EF00080024001E1FA5
:104300008A290130F30073082000EB070430AA313A
:104310006F2208009E147C08F4007B08F3007408E8
:10432000F300F40106307305F50000307405F60063
:10433000F0307504FB0000307604FC007B14200094
:10434000ED01ED0A0230F3007308EF0008006D0381
:104350000319C029790886008701403FFB00413FCF
:10436000FC007908033E86008701403F2100B2002F
:10437000413FB300790886008701423F2000EE00EC
:104380007B08240099007B1CCB290530F3007308BF
:104390002000EF0008000330F30073082000EF0056
:1043A000080024001E1FDF290130F30073082000DD
:1043B000EB0724001E130530AA316F2208000130DC
:1043C0002000EE026E0A031DF9290530F300730880
:1043D000F9070130FA02031DF1290030AA316F22DA
:1043E000080024009E140230F30073082000EF0040
:1043F00008002100320886003308870001082400E5
:10440000990001302100B2070030B33D08002400BC
:104410001E1F152A0130F30073082000EB0704303B
:10442000AA316F2224001E1308009E150830F300E5
:1044300073082000EF0008000830F3007308EF0055
:1044400024009E15080021003208860033088700EA
:1044500024001908810001302100B2070030B33D6B
:1044600001302000EE0203193D2A24009E1206307E
:10447000F30073082000EF00412A24009E16AA31A1
:10448000162224001E1608000030AA316F220800F0
:104490000130F30073082000EB070630AA316F22C9
:1044A000080020006F0884000C3004020318482A1A
:1044B000A8310435003E82000800FF302200A4002D
:1044C000FF30A500AA315422A2318B170B1722000E
:1044D000A601A7010E138E138E110D302100C4000A
:1044E0002D30C300D730890B732AC30B732AC40B3A
:1044F000732A003222000E170D302100C4002D3027
:10450000C300D730890B822AC30B822AC40B822AAC
:10451000003222008E1715302100C4004B30C3003A
:10452000BE30890B912AC30B912AC40B912A00003B
:1045300022008E1515302100C4004B30C300BE3060
:10454000890BA02AC30BA02AC40BA02A00006C3040
:104550002200D5008030D6000030A3000030A20039
:104560000030A1000030A00055080C3E2000A00043
:1045700000302200563D2000A100AD313525A2318A
:10458000200023082200AE00200022082200AD00F7
:10459000200021082200AC00200020082200AB00EF
:1045A0005508083E2000A00000302200563D2000A3
:1045B000A100AD313525A231200023082200D4000E
:1045C000200022082200D300200021082200D2006F
:1045D000200020082200D1005508103E2000A00035
:1045E00000302200563D2000A100AD313525A2311A
:1045F000200023082200B200200022082200B1007F
:10460000200021082200B000200020082200AF0076
:104610000A30C1000030C2003208DC003108DB0083
:104620003008DA002F08D9000030CA000030C90075
:104630000030C8000030C7000030BC000030BB00B4
:104640000030BA000030B9000030C0000030BF00B8
:104650000030BE000030BD006530860001308700AC
:104660005D3084000130850006302100C300160053
:104670001A00C30B372B00302000A3000030A2002B
:104680000030A1001830A00022002E082000A70052
:1046900022002D082000A60022002C082000A500E2
:1046A00022002B082000A400AD317F25A23120007C
:1046B0002008013E2200B30000302000213D2200EE
:1046C000B4000030CE000030CD000030CC0000300F
:1046D000CB000130B5000030B600A801A901803040
:1046E000E3000030E4006408803A2100C300803019
:1046F0004302031D7E2BBF30220063020318B42B3C
:10470000F0302100C3002630C400220063082100DD
:1047100043078600220064082100443D8700010809
:10472000C500C601C701C80145082200B90721001C
:1047300046082200BA3D210047082200BB3D210067
:1047400048082200BC3D0130E3070030E43D640826
:10475000803A2100C30080304302031DB22BBF30DA
:1047600022006302031C802BC0302200E3000030D3
:10477000E4006408803A2100C30080304302031D36
:10478000C42BDF30220063020318FA2BF030210023
:10479000C3002630C40022006308210043078600BE
:1047A000220064082100443D87000108C500C601BD
:1047B000C701C80145082200BD07210046082200A4
:1047C000BE3D210047082200BF3D210048082200CD
:1047D000C03D0130E3070030E43D6408803A210029
:1047E000C30080304302031DF82BDF302200630238
:1047F000031CC62BAF308600273087002200390803
:104800008100CF308600273087003D0881000D30C1
:104810002000CA009830CB009930CC000930CD0080
:10482000AB314423A2310D302000CA009830CB00B8
:104830000030CC00CD00AB314423A231293021001F
:10484000C4009630C3007F30890B242CC30B242C6A
:10485000C40B242CA7302200B7000230B800E301BB
:10486000E4016408803A2100C30022003808803A3D
:1048700021004302031D3F2C220037086302031866
:10488000AF2C220064082100C4002200630821002C
:10489000C300C335C40DC335C40D4308013EC50074
:1048A0000030443DC600E730450784009530463D62
:1048B00085000008C70047082000CA0022006408DD
:1048C0002100C900220063082100C800C835C90DB5
:1048D000C835C90D4808023ECA000030493DCB002A
:1048E000E7304A07840095304B3D85000008CC0036
:1048F0004C082000CB00220064082100CE002200DA
:1049000063082100CD00CD35CE0DCD35CE0D4D083F
:10491000033ECF0000304E3DD000E7304F0784000B
:104920009530503D85000008D10051082000CC0092
:10493000220064088500630884008435850D843571
:10494000850DE73084079530853D0008AB31702335
:10495000A23101302200E3070030E43D312C293040
:104960002100C4009630C3007F30890BB52CC30BE7
:10497000B52CC40BB52C0D302000CA009830CB00EC
:104980007730CC000730CD00AB314423A2310D305D
:104990002000CA009830CB000030CC00CD00AB31F5
:1049A0004423A23129302100C4009630C3007F3057
:1049B000890BD82CC30BD82CC40BD82CAA31282295
:1049C000A2312200D701D8015808803A2100C30043
:1049D00022003408803A21004302031DF22C2200F9
:1049E0003308570203185D2E00302200CA00003041
:1049F000C9008030C8000C30C7005D080C3E2000A4
:104A0000CA00003022005E3D2000CB002200590881
:104A10002100C30022005A082100C40022005B08C4
:104A20002100C50022005C082100C6001030C636F7
:104A3000C50CC40CC30C890B172D44082000CD00F5
:104A4000210043082000CC00AB314423A2312200D6
:104A50005D080D3E2000CA00003022005E3D2000AF
:104A6000CB0022005A082000CD0022005908200067
:104A7000CC00AB314423A231FF3022005905210084
:104A8000C300FF3022005A052100C400003022007C
:104A90005B052100C500003022005C052100C60036
:104AA000220059082100C70022005A082100C8002E
:104AB00022005B082100C90022005C082100CA0016
:104AC0001030CA36C90CC80CC70C890B612D4708B9
:104AD000C3074808C43D4908C53D4A08C63D4308C8
:104AE0002200C707210044082200C83D21004508D4
:104AF0002200C93D210046082200CA3DE301E4012D
:104B00006408803A2100C30080304302031D8B2DCE
:104B10000C30220063020318E62D22004208210017
:104B2000C400220041082100C300C335C40D43085E
:104B3000220055072000A000210044082200563D15
:104B40002000A100AC310024A23120002108220065
:104B5000C400200020082200C30063085D07200075
:104B6000CA00220064085E3D2000CB0022004408F9
:104B70002000CD00220043082000CC00AB314423AC
:104B8000A23122004308C7074408C83D0030C93D90
:104B9000CA3D0130C1070030C23D0230D9070030A4
:104BA000DA3D0030DB3D0030DC3D0130E307003012
:104BB000E43D6408803A2100C30080304302031DB5
:104BC000E42D0C3022006302031C8D2D22005D08B1
:104BD0000E3E2000CA00003022005E3D2000CB00C7
:104BE000220047092100C300220048092100C40017
:104BF000C30A0319C40A43082000CC00210044085A
:104C00002000CD00AB314423A23122005D080E3ECE
:104C10002000D200003022005E3D2000D300AC31E5
:104C20003824A23122005D080F3E2000CA00003067
:104C300022005E3D2000CB000C30CC008030CD0047
:104C4000AB314423A23100302200CE000030CD0031
:104C50000030CC000030CB005D080F3E2000D200B9
:104C6000003022005E3D2000D300AC313824A23158
:104C7000200053082200D000200052082200CF005C
:104C80000C304F06803003195006031D502E0130A2
:104C9000CB070030CC3D0030CD3D0030CE3D2C2E3A
:104CA0004F0850040319582E0130A8070030A93DC1
:104CB0000130D7070030D83DE42C22005D080C3EBF
:104CC0002000CA00003022005E3D2000CB00220000
:104CD00051082100C300220052082100C400220014
:104CE00053082100C500220054082100C6001030DE
:104CF000C636C50CC40CC30C890B782E44082000A2
:104D0000CD00210043082000CC00AB314423A23168
:104D100022005D080D3E2000CA00003022005E3DEA
:104D20002000CB00220052082000CD0022005108B4
:104D30002000CC00AB314423A231FF3022005105CA
:104D40002100C300FF30220052052100C4000030C2
:104D5000220053052100C500003022005405210027
:104D6000C600220051082100C7002200520821007D
:104D7000C800220053082100C90022005408210065
:104D8000CA001030CA36C90CC80CC70C890BC22E19
:104D90004708C3074808C43D4908C53D4A08C63D01
:104DA000003043072200C70040302100443D22006C
:104DB000C80000302100453D2200C900003021001C
:104DC000463D2200CA005D080E3E2000CA000030A9
:104DD00022005E3D2000CB00220047092100C300D5
:104DE000220048092100C400C30A0319C40A430869
:104DF0002000CC00210044082000CD00AB3144232A
:104E0000A23122005D080F3E2000CA0000302200BF
:104E10005E3D2000CB000030CC004030CD00AB31F7
:104E20004423A2312200350836040319412F0030F3
:104E3000CE000030CD000030CC000030CB005D084B
:104E40000F3E2000D200003022005E3D2000D30043
:104E5000AC313824A231200053082200D0002000B9
:104E600052082200CF00403050064F04031D412F4E
:104E70000130CB070030CC3D0030CD3D0030CE3D81
:104E80001F2FE301E4016408803A2100C30084304D
:104E90004302031D4E2F0030220063020318842FAB
:104EA0002200D701D8015808803A2100C30084307D
:104EB0004302031D5E2F0030220057020318722F99
:104EC00001302200D7070030D83D5808803A210031
:104ED000C30084304302031D702F003022005702AC
:104EE000031C602F01302200E3070030E43D64081A
:104EF000803A2100C30084304302031D822F00301A
:104F000022006302031C502F14302000D20098307E
:104F1000D300AC313824A2313D302100C300430816
:104F20002200AA00A931EA21A2312200D701D8012A
:104F3000E301E401C62F3B308600273087000108DB
:104F40002100C30043082000CA003C3086002730FF
:104F5000870001082100C40044082000CB003D3038
:104F600086002730870001082100C5004508200081
:104F7000CC003A308600273087000108AB3170231F
:104F8000A2313E3086002730870081013E30860006
:104F9000273087000230010603199B2F3E30860020
:104FA000273087000103031DC62F3B3086002730C2
:104FB000870001082100C30043082000D2003A30D6
:104FC0008600273087000108AC317224A23120000E
:104FD00053082200C600200052082200C5004608DF
:104FE0002100C3003C308600273087004308810041
:104FF0003D30860027308700220045088100C12F00
:10500000A1312829A1315329A131A729A131D129C1
:10501000A231442AA231072AA2311C2AA231442AF1
:10502000A231232AA231482AA1315B29A1317E294C
:0A5030003412214334223432080008
:1053A000103027009A000800BA3022009700080049
:1053B000203021009700080000349F340D349834C9
:1053C00014349834320099019B019D0107309F00ED
:1053D0009E010800F53021009D00E0309E009F01F5
:1053E0009B019C010800083023009F0080309D0035
:1053F00024309E008A309B009C01080064008001DC
:1054000001310130FE020030FF3B7F087E040319AA
:105410000034FF29FE0012001E000130FE020030A1
:10542000FF3B7F087E04031900340B2A0530F0008F
:105430007008F9070130FA02031D242A0430F00035
:1054400070082000EF0008002000EF01EF0A0800BC
:1054500061302000DD008430DE000130DF000030EC
:10546000E0000E30E1000030E2000130E3000030E7
:10547000E400AB319E230800BF302000A0002008CC
:10548000E800BF30A0002008E700E9146910EB0134
:1054900024009C0128309D009F011F309A002000AD
:1054A0009211210092150800AE312E26AA31A931A1
:1054B000E221AA31A931D821AA31A0318320AA3111
:1054C000AA313C22AA31A931D421AA31A931EA2139
:1054D000AA31A931D021AA31A931F3210800F20063
:1054E00024001E157808023E86008701160001047C
:1054F0000319882A7808023E86008701403FF000A1
:10550000413FF10070088600710887007208810031
:105510002000EF0108002000A6002308A5002208B3
:10552000A400A435A50D2608860087012408C03FE5
:105530002508C13F2108A4002608023E86008701F5
:10554000240881002608033E860087012008C03F0A
:105550000030C13F08005530F5007508F600200006
:10556000911124001108F5007508F600141DBF2ADA
:10557000941A161FBD2A0330C82A0130C82A941A6B
:10558000C32A0030C82A7608F5007508FD000230ED
:10559000A031922024001516080020006918ED2A79
:1055A0002908A1002808A0002A08AE002E08A200A1
:1055B0002C08A4002B08A300B530AB311C23AA3162
:1055C000B5302000AE002E08A0002D08AF002F0837
:1055D000A1000130AC31F024080020002D08860025
:1055E00087018101810A08002000AD006918152B90
:1055F0002D08AB002B08A0002708AC002C08A10048
:105600002908A3002808A200BA30AA318B22AA31A7
:10561000BA302000AB002B08A0002A08AC002C08F0
:10562000A1000130AC31F024080020002A088600D7
:1056300087018101810A08002000A7002408A60034
:105640002308A500A535A60D270886008701250893
:10565000C03F2608C13F270886008701013081042A
:105660004131003081042208A5002708023E86004F
:105670008701250881002708033E8600870120084E
:10568000C03F2108C13F080021002F082000D3009F
:1056900021002E082000D20021002D082000D1007A
:1056A00021002C082000D0004B08CE004E08D0006E
:1056B0004A08CE004E08D1004D08CE004E08D20058
:1056C0004C08CE004E08D3005230CE004E08AE003B
:1056D0000230CF004F08AF005030AE318C260800AA
:1056E0002000CF00210027082000D3002100260839
:1056F0002000D200210025082000D100210024082C
:105700002000D0004F08CD004D08D0004A08CD0041
:105710004D08D1004B08CD004D08D2004C08CD00FB
:105720004D08D3005230CD004D08AE000230CE00FF
:105730004E08AF005030AE318C26080020005E08C5
:10574000D3005D08D200AC313824AB3120005308BF
:10575000E6005208E5006608A1006508A0006008A0
:10576000A3005F08A2006208A5006108A400640805
:10577000A7006308A600AB31CE23AB31200021087F
:10578000E6002008E5005E08CB005D08CA00660858
:10579000CD006508CC00AB31442308000130200067
:1057A000A8000030A900260AD72BA835A90D890B1F
:1057B000D52B2808FF3EAA00FF30293DAB002B085F
:1057C000A9002A08A800240AE72BA835A90D890BEF
:1057D000E52BA809A9092808A0052908A1052A0878
:1057E0002205A8002B082305A900240AF92BA835B7
:1057F000A90D890BF72B2808A0042908A10408008B
:105800002000A401A501A601A7012708803AA20053
:1058100080302202031D0E2C023026020318322C87
:1058200008302000A435A50D890B122C200826076E
:1058300084002108273D85000008A200A30122085A
:10584000A4042308A5040130A6070030A73D2708BB
:10585000803AA20080302202031D302C0230260242
:10586000031C102C20002508A1002408A00008001B
:1058700021002B082000DC0021002A082000DB008A
:10588000210029082000D800210028082000D70086
:105890005308D4005408D7005208D4005408D80044
:1058A0005B30D4005408CA000230D5005508CB0044
:1058B0005730AC31AE2420005B08D400D501540829
:1058C000D500D4015408D9005508DA005C085907FE
:1058D000D9005A0803185A0ADA005A08D30059089E
:1058E000D20008002000D700210023082000DD009E
:1058F000210022082000DC00210021082000D9001E
:10590000210020082000D8005708D4005408D800EF
:105910005208D4005408D9005C30D4005408CA009E
:105920000230D5005508CB005830AC31AE242000F1
:105930005C08D400D5015408D500D4015408DA001D
:105940005508DB005D085A07DA005B0803185B0A9C
:10595000DB005B08D3005A08D20008002000D0000A
:105960004B08CC004C08AE005008AD31D225AC310C
:1059700020002F08CF002E08CE004E034F0403193D
:1059800008000230CC004C08D100EC01510303198F
:1059900008004A08A8000030A9000230CC004C08DA
:1059A000AA001030AB000030AC005130CD004D08E3
:1059B000AD00AA31CD22AC310230200051060319CE
:1059C000DC2C510803190800510303190800643046
:1059D0006C06031908000130CC004C08EC07C62CFB
:1059E0002000A3006918242D0230A200210886009F
:1059F0008701220881002008A200670A860087012B
:105A0000220881002308A200670886008701220877
:105A100081006708023E860087012108C03F0030F0
:105A2000C13F0430A2002208E7076708C33A031DFC
:105A30001D2DBF30A2002208E700E91068086706A4
:105A4000031D292D6914292D210886008701810154
:105A5000810A21088600870102300106031D080023
:105A60006F08031D302D9215080000302000AB0098
:105A70000030AA000030A9000030A800AC01AD0140
:105A80002D08803AA40080302402031D492D0430E3
:105A90002C020318752D08302000A835A90DAA0D79
:105AA000AB0D890B4C2D20082C07840021082D3DBF
:105AB00085000008A400A501A601A7012408A804E8
:105AC0002508A9042608AA042708AB040130AC075E
:105AD0000030AD3D2D08803AA40080302402031D23
:105AE000732D04302C02031C4B2D20002B08A30027
:105AF0002A08A2002908A1002808A00008000030F8
:105B00002000AC000030AB000030AA000030A9003B
:105B100023082204210420040319C92DAD01AD0A74
:105B2000A31B9E2D0130A035A10DA20DA30D890B45
:105B3000932D0130A8002808AD07902D0130A9351C
:105B4000AA0DAB0DAC0D890B9F2D23082702031D59
:105B5000B32D22082602031DB32D21082502031DA3
:105B6000B32D20082402031CBE2D2008A402210806
:105B7000A53B2208A63B2308A73B29140130A336E6
:105B8000A20CA10CA00C890BBF2D0130AD02031D8E
:105B90009E2D2C08A3002B08A2002A08A10029088A
:105BA000A00008002000C600C701C8014808803ACC
:105BB000B00080303002031DDF2D2E08470203188D
:105BC000F52D200047084607B00030088600870101
:105BD0000108B1004708323E860087013108810084
:105BE0000130C7070030C83DD62D20002E08B00078
:105BF0003008C5000230B0003008C900EC0149038C
:105C00000319262E4508B0003008A7001030A80060
:105C10000030A9004930B1003108AA003230AA3161
:105C2000F422AD310230200049060319122E490832
:105C30000319262E49030319262E64306C06031916
:105C4000262E0130B0003008EC07FF2D4903031D5C
:105C500008000130AE000030AF00080022008C01C7
:105C60008D018E01273021008C00F0308D0027300F
:105C70008E00FF3023008E008D0133308C00240015
:105C80008D0104308C008E0125008C018D018E0168
:105C900000308B1B01302000A0008B1355303C00DE
:105CA0008F00AA308F000F102108E0390C38A100B6
:105CB0002008E0390E38A0003D001408E0391E38F5
:105CC00094001C08E03919389C002408E039143885
:105CD000A4001F08E0391A389F001E08E039183860
:105CE0009E003C001E08E0390D389E001D08E0397A
:105CF0000F389D003D001D08E0391B389D005530D0
:105D00003C008F00AA308F000F142000201C8A2E28
:105D10008B1708008B1308002000C600C701C801BC
:105D20004808803AB00080303002031D992E2F08B9
:105D300047020318AF2E200047084607B00030087E
:105D4000860087010108B1004708323E86008701BE
:105D5000310881000130C7070030C83D902E200077
:105D60002E08860087010108B0002F08323E860009
:105D70008701300881002E0A860087010108B000E3
:105D80002F08013E323E86008701300881002F082F
:105D9000023EB0003008C5000230B0003008C90033
:105DA000EC0149030319F82E4508B0003008A7009C
:105DB0001030A8000030A9004930B1003108AA0015
:105DC0003230AA31F422AE310230200049060319E4
:105DD000E42E49080319F82E49030319F82E6430FC
:105DE0006C060319F82E0130B0003008EC07D12EF4
:105DF0004903031D08000130AE000030AF00080069
:105E000011340534063400340034003400340034D6
:105E100000340034003400340034003400340034E2
:105E200000340034003400340034003400340034D2
:105E300000340034003400340034003400340034C2
