:1000000080312E28080055347E14803120007F086E
:10001000F7000B1F14282100911D14282000911DAA
:1000200014289B31822380310B1F1F282100121DB1
:100030001F282000121D1F288031022080310B1F35
:1000400029282100921D29282000921D2928963157
:10005000B12677082000FF007E100900803130288B
:10006000DC3084008B308500F0308600263087003D
:100070000130FF00003090319E208031803103201C
:100080008031FC00F801F901FA01FB01E701E80108
:10009000E901EA01EB01EC01ED01EE01EF01D230E3
:1000A0008400003085001930FE000030FF009A31D6
:1000B000A222803120308400013085000A30FE0009
:1000C0000030FF009A31A2227E1020008C31DC2CFF
:1000D000993400349D34C0349934013421340434CB
:1000E000993402348F341034983415340034003489
:1000F000603402348034003470340034003400340E
:10010000703400340034003474340034003400346B
:100110008034A334003420348434A33400342034B5
:1001200060341234803400347134003400340034CC
:1001300075340034003400348134A3340034203466
:100140008534A334003420346034223480340034C5
:100150007234003400340034763400340034003417
:100160008234A334003420348634A3340034203461
:10017000603432348034003473340034003400345A
:1001800077340034003400348334A3340034203412
:100190008734A33400342034803479348834603494
:1001A00081347934883460348234793488346034EA
:1001B00083347934883460348434793488346034D6
:1001C00085347934883460348634793488346034C2
:1001D0008734793488346034803463340034803434
:1001E00081346334003480348234633400348034A6
:1001F0008334633400348034843463340034803492
:10020000853463340034803486346334003480347D
:100210008734633400348034803464348034003470
:1002200080346434803480348134643480340034E5
:1002300081346434803480348234643480340034D3
:1002400082346434803480348334643480340034C1
:1002500083346434803480348434643480340034AF
:10026000843464348034803485346434803400349D
:10027000853464348034803486346434803400348B
:100280008634643480348034873464348034003479
:100290008734643480348034803476340034843459
:1002A00081347634003484348234763400348434B7
:1002B00083347634003484348434763400348434A3
:1002C000853476340034843486347634003484348F
:1002D000873476340034843480347734183482346C
:1002E0008134773418348234823477341834823449
:1002F0008334773418348234843477341834823435
:100300008534773418348234863477341834823420
:100310008734773418348234803478348C343C34E5
:10032000813478348C343C34823478348C343C34AA
:10033000833478348C343C34843478348C3438349A
:10034000853478348C343834863478348C3438348A
:10035000873478348C343834803402344034063472
:10036000813402344034063482340234403406345A
:100370008334023440340634843402344034063446
:100380008534023440340634863402344034063432
:100390008734023440340634803400344D3405341C
:1003A000813400344D340534823400344D34053406
:1003B000833400344D340534843400344D340534F2
:1003C000853400344D340534863400344D340534DE
:1003D000873400344D340534803407344D347A3456
:1003E000813407344D347A34823407344D347A34CE
:1003F000833407344D347A34843407344D347A34BA
:10040000853407344D347A34863407344D347A34A5
:10041000873407344D347A34803483344E34053491
:10042000813483344E340534823483344E3405347D
:10043000833483344E340534843483344E34053469
:10044000853483344E340534863483344E34053455
:10045000873483344E340534803484348F347A3492
:10046000813484348F347A34823484348F347A34CF
:10047000833484348F347A34843484348F347A34BB
:10048000853484348F347A34863484348F347A34A7
:10049000873484348F347A34803485344F3405344F
:1004A000813485344F340534823485344F340534F7
:1004B000833485344F340534843485344F340534E3
:1004C000853485344F340534863485344F340534CF
:1004D000873485344F34053480348634CF34053442
:1004E00081348634CF34053482348634CF340534B5
:1004F00083348634CF34053484348634CF340534A1
:1005000085348634CF34053486348634CF3405348C
:1005100087348634CF340534803487344D340A34FC
:10052000813487344D340A34823487344D340A346C
:10053000833487344D340A34843487344D340A3458
:10054000853487344D340A34863487344D340A3444
:10055000873487344D340A34803488344D347534CC
:10056000813488344D347534823488344D34753454
:10057000833488344D347534843488344D34753440
:10058000853488344D347534863488344D3475342C
:10059000873488344D34753480344D34003400341D
:1005A00081344D340034003482344D34003400340E
:1005B00083344D340034003484344D3400340034FA
:1005C00085344D340034003486344D3400340034E6
:1005D00087344D340034003480344E3400340034D9
:1005E00081344E340034003482344E3400340034CC
:1005F00083344E340034003484344E3400340034B8
:1006000085344E340034003486344E3400340034A3
:1006100087344E3400340034803481341034003454
:100620008134813410340034823481341034003405
:1006300083348134103400348434813410340034F1
:1006400085348134103400348634813410340034DD
:10065000873481341034003480348234B834003428
:1006600081348234B834003482348234B834003473
:1006700083348234B834003484348234B83400345F
:1006800085348234B834003486348234B83400344B
:1006900087348234B834003480347534C634FF343F
:1006A00081347534C634FF3482347534C634FF3433
:1006B00083347534C634FF3484347534C634FF341F
:1006C00085347534C634FF3486347534C634FF340B
:1006D00087347534C634FF348034793486346034DA
:1006E00081347934863460348234793486346034A9
:1006F0008334793486346034843479348634603495
:100700008534793486346034863479348634603480
:100710008734793486346034803479348634603474
:100720008134793486346034823479348634603468
:100730008334793486346034843479348634603454
:100740008534793486346034863479348634603440
:100750008734793486346034803479348634603434
:100760008134793486346034823479348634603428
:100770008334793486346034843479348634603414
:100780008534793486346034863479348634603400
:1007900087347934863460348034FE342934A83484
:1007A0008134FE342934A8348234FE342934A83408
:1007B0008334FE342934A8348434FE342934A834F4
:1007C0008534FE342934A8348634FE342934A834E0
:1007D0008734FE342934A8348034FD343234443430
:1007E0008134FD34323444348234FD343234443480
:1007F0008334FD34323444348434FD34323444346C
:100800008534FD34323444348634FD343234443457
:100810008734FD34323444348034FC34523436343A
:100820008134FC34523436348234FC34523436341D
:100830008334FC34523436348434FC345234363409
:100840008534FC34523436348634FC3452343634F5
:100850008734FC34523436348034F834B734783446
:100860008134F834B73478348234F834B734783497
:100870008334F834B73478348434F834B734783483
:100880008534F834B73478348634F834B73478346F
:100890008734F834B73478348034F5346134E03454
:1008A0008134F5346134E0348234F5346134E03439
:1008B0008334F5346134E0348434F5346134E03425
:1008C0008534F5346134E0348634F5346134E03411
:1008D0008734F5346134E0348034F13470340034DA
:1008E0008134F134703400348234F13470340034A3
:1008F0008334F134703400348434F134703400348F
:100900008534F134703400348634F134703400347A
:100910008734F134703400348034F934A334DA3459
:100920008134F934A334DA348234F934A334DA3438
:100930008334F934A334DA348434F934A334DA3424
:100940008534F934A334DA348634F934A334DA3410
:100950008734F934A334DA3480340334D93433346B
:1009600081340334D934333482340334D9343334C6
:1009700083340334D934333484340334D9343334B2
:1009800085340334D934333486340334D93433349E
:1009900087340334D93433348034503450344034C1
:1009A00081345034503440348234503450344034E4
:1009B00083345034503440348434503450344034D0
:1009C00085345034503440348634503450344034BC
:1009D000873450345034403480340534AE3482345B
:1009E00081340534AE34823482340534AE348234FA
:1009F00083340534AE34823484340534AE348234E6
:100A000085340534AE34823486340534AE348234D1
:100A100087340534AE3482348034013442340134B6
:100A2000813401344234013482340134423401349B
:100A30008334013442340134843401344234013487
:100A40008534013442340134863401344234013473
:100A5000873401344234013480340334293433344C
:100A60008134033429343334823403342934333425
:100A70008334033429343334843403342934333411
:100A800085340334293433348634033429343334FD
:100A9000873403342934333480340634A1340034A9
:100AA00081340634A134003482340634A134003455
:100AB00083340634A134003484340634A134003441
:100AC00085340634A134003486340634A13400342D
:100AD00087340634A1340034803408348A34BB347B
:100AE000813408348A34BB34823408348A34BB34C9
:100AF000833408348A34BB34843408348A34BB34B5
:100B0000853408348A34BB34863408348A34BB34A0
:100B1000873408348A34BB348034A0344034803481
:100B20008134A034403480348234A0344034803462
:100B30008334A034403480348434A034403480344E
:100B40008534A034403480348634A034403480343A
:100B50008734A03440348034803461340434203409
:100B600081346134043420348234613404342034D8
:100B700083346134043420348434613404342034C4
:100B800085346134043420348634613404342034B0
:100B9000873461340434203480348234D8340034CF
:100BA00081348234D834003482348234D8340034EE
:100BB00083348234D834003484348234D8340034DA
:100BC00085348234D834003486348234D8340034C6
:100BD00087348234D83400348034793486345034C5
:100BE00081347934863450348234793486345034C4
:100BF00083347934863450348434793486345034B0
:100C0000853479348634503486347934863450349B
:100C100087347934863450348034FE342934C834EF
:100C20008134FE342934C8348234FE342934C83443
:100C30008334FE342934C8348434FE342934C8342F
:100C40008534FE342934C8348634FE342934C8341B
:100C50008734FE342934C834803408345A34BB34E1
:100C6000813408345A34BB34823408345A34BB34A7
:100C7000833408345A34BB34843408345A34BB3493
:100C8000853408345A34BB34863408345A34BB347F
:100C9000873408345A34BB3480348734CD340A3432
:100CA00081348734CD340A3482348734CD340A34E5
:100CB00083348734CD340A3484348734CD340A34D1
:100CC00085348734CD340A3486348734CD340A34BD
:100CD00087348734CD340A3498340D34073477346C
:100CE00098340D340034003499340034FD34E03449
:100CF0009934013421340434993402349334103457
:100D00008034FE34A534A8348034FD343634443481
:100D10008034F734A23446348034F5346134E0341E
:100D20008134FE34A534A8348134FD34363444345F
:100D30008134F734A23446348134F5346134E034FC
:100D40008234FE34A534A8348234FD34363444343D
:100D50008234F734A23446348234F5346134E034DA
:100D60008334FE34A534A8348334FD34363444341B
:100D70008334F734A23446348334F5346134E034B8
:100D80008434FE34A534A8348434FD3436344434F9
:100D90008434F734A23446348434F5346134E03496
:100DA0008534FE34A534A8348534FD3436344434D7
:100DB0008534F734A23446348534F5346134E03474
:100DC0008634FE34A534A8348634FD3436344434B5
:100DD0008634F734A23446348634F5346134E03452
:100DE0008734FE34A534A8348734FD343634443493
:100DF0008734F734A23446348734F5346134E03430
:100E00000034073400342A34803400344D3405343F
:100E1000803407344D347A34813400344D34053411
:100E2000813407344D347A34823400344D340534FF
:100E3000823407344D347A34833400344D340534ED
:100E4000833407344D347A34843400344D340534DB
:100E5000843407344D347A34853400344D340534C9
:100E6000853407344D347A34863400344D340534B7
:100E7000863407344D347A34873400344D340534A5
:100E8000873407344D347A348034F834B7347834C6
:100E90008134F834B73478348234F834B734783461
:100EA0008334F834B73478348434F834B73478344D
:100EB0008534F834B73478348634F834B734783439
:100EC0008734F834B73478348034A7341434003499
:100ED0008134A734143400348234A73414340034F9
:100EE0008334A734143400348434A73412340034E7
:100EF0008534A734123400348634A73412340034D5
:100F00008734A734123400348034A8343C3400349D
:100F10008134A8343C3400348234A8343C34003466
:100F20008334A8343C3400348434A8343F3400344F
:100F30008534A8343F3400348634A8343F34003438
:100F40008734A8343F3400348434A6343C3400342D
:100F50008534A6343C3400348634A6343C34003422
:100F60008734A6343C34003470340634123454349C
:100F70007134063412345434723406341234543416
:100F80007334063412345434743406341234543402
:100F900075340634123454347634063412345434EE
:100FA0007734063412345434703409343A3490347B
:100FB000713409343A349034723409343A34903408
:100FC000733409343A349034743409343A349034F4
:100FD000753409343A349034763409343A349034E0
:100FE000773409343A34903470341934003404348A
:100FF0007134193400340434723419340034043434
:10100000733419340034043474341934003404341F
:10101000753419340034043476341934003404340B
:10102000773419340034043470340834073480348D
:10103000713408340734803472340834073480340F
:1010400073340834073480347434083407348034FB
:1010500075340834073480347634083407348034E7
:1010600077340834073480348034813430340034A9
:10107000813481343034003482348134303400346B
:101080008334813430340034843481343034003457
:101090008534813430340034863481343034003443
:1010A00087348134303400348034793488346C347B
:1010B0008134793488346C348234793488346C34B3
:1010C0008334793488346C348434793488346C349F
:1010D0008534793488346C348634793488346C348B
:1010E0008734793488346C34803484348D347A3461
:1010F000803485344D347A3480348634CD347A3437
:1011000080348734CD347A34803488344D347A3422
:10111000813484348D347A34813485344D347A3456
:1011200081348634CD347A3481348734CD347A3482
:10113000813488344D347A34823484348D347A3432
:10114000823485344D347A3482348634CD347A34E2
:1011500082348734CD347A34823488344D347A34CE
:10116000833484348D347A34833485344D347A3402
:1011700083348634CD347A3483348734CD347A342E
:10118000833488344D347A34843484348D347A34DE
:10119000843485344D347A3484348634CD347A348E
:1011A00084348734CD347A34843488344D347A347A
:1011B000853484348D347A34853485344D347A34AE
:1011C00085348634CD347A3485348734CD347A34DA
:1011D000853488344D347A34863484348D347A348A
:1011E000863485344D347A3486348634CD347A343A
:1011F00086348734CD347A34863488344D347A3426
:10120000873484348D347A34873485344D347A3459
:1012100087348634CD347A3487348734CD347A3485
:10122000873488344D347A347034193400340534BA
:1012300071341934003405347234193400340534EF
:1012400073341934003405347434193400340534DB
:1012500075341934003405347634193400340534C7
:101260007734193400340534703416348134C03482
:10127000713416348134C034723416348134C0343D
:10128000733416348134C034743416348134C03429
:10129000753416348134C034763416348134C03415
:1012A000773416348134C03480344D348034003483
:1012B00081344D348034003482344D3480340034F1
:1012C00083344D348034003484344D3480340034DD
:1012D00085344D348034003486344D3480340034C9
:1012E00087344D348034003480344E343834003404
:1012F00081344E343834003482344E34383400343F
:1013000083344E343834003484344E342034003442
:1013100085344E342034003486344E342034003446
:1013200087344E3420340034803461343C342034EB
:1013300081346134343420348234613434342034A0
:10134000833461343C342034843461343C3420347C
:101350008534613434342034863461343434203478
:1013600087346134343420348034A0340034803401
:101370008134A034003480348234A034003480348A
:101380008334A034003400348434A0340034003476
:101390008534A034003480348634A0340034803462
:1013A0008734A03400348034703408340C34003472
:1013B000713408340C340034723408340C34003482
:1013C000733408340C340034743408340C3400346E
:1013D000753408340C340034763408340C3400345A
:1013E000773408340C34003480340134423401340E
:1013F00081340134423401348234013442340134C2
:1014000083340134423401348434013442340134AD
:101410008534013442340134863401344234013499
:1014200087340134423401348034FB347734363429
:101430008134FB34773436348234FB3477343634B9
:101440008334FB34773436348434FB3477343634A5
:101450008534FB34773436348634FB347734363491
:101460008734FB34773436348034F0346734B43422
:101470008134F0346734B4348234F0346734B434B3
:101480008334F0346734B4348434F0346734B4349F
:101490008534F0346734B4348634F0346734B4348B
:1014A0008734F0346734B4348034EF34B634A03445
:1014B0008134EF34B634A0348234EF34B634A034FF
:1014C0008334EF34B634A0348434EF34B634A034EB
:1014D0008534EF34B634A0348634EF34B634A034D7
:1014E0008734EF34B634A03470341A34FF34003407
:1014F00071341A34FF34003472341A34FF34003437
:1015000073341A34FF3400348034F9348B34DA34D1
:101510008134F9348B34DA348234F9348B34DA346C
:101520008334F9348B34DA348434F9348B34DA3458
:101530008534F9348B34DA348634F9348B34DA3444
:101540008734F9348B34DA348034DF340034663451
:101550008134DF34003466348234DF34003466345E
:101560008334DF34003466348434DF34003466344A
:101570008534DF34003466348634DF340034663436
:101580008734DF34003466348034F134B0340034CE
:101590008134F134B03400348234F134B034003466
:1015A0008334F134B03400348434F134B034003452
:1015B0008534F134B03400348634F134B03400343E
:1015C0008734F134B03400348034FF34FD34C03417
:1015D0008134FF34FD34C0348234FF34FD34C034F0
:1015E0008334FF34FD34C0348434FF34FD34C034DC
:1015F0008534FF34FD34C0348634FF34FD34C034C8
:101600008734FF34FD34C03454346834693473345F
:101610002034693473342034613420346E346534BA
:101620007734203474346534733474342C34203477
:101630006E346F34773420347234653473346534E7
:101640007434203447344534203466346934723479
:101650007334743420340D340A34003446344C343A
:101660004134533448345F34523465346134643423
:1016700057346F34723464343D342D342D342D346A
:101680002D342D342D342D342D342D342D342D3452
:101690002D342D344534723472346F347234213425
:1016A000003446344C344134533448345F3452347B
:1016B00065346134643457346F34723464343D3487
:1016C0002D342D342D342D342D342D342D342D3412
:1016D0002D342D342D342D342D342D344F344B34C2
:1016E0002134003452346534733465347434203416
:1016F00064346F346E346534213420346E346F3486
:10170000773420346C346F3461346434203466347C
:101710007734203474346F342034473445340D34F6
:101720000A34003452346434203400345734723470
:0A173000203400343D343D34003411
:1017400061302000DD008030DE000130DF0000303D
:10175000E0000E30E1000030E2000130E300003034
:10176000E4009C319C248B3161302000DD0081300D
:10177000DE000130DF000030E0000E30E10000301C
:10178000E2000130E3000030E4009C319C248B3106
:1017900061302000DD008330DE000130DF000030EA
:1017A000E0000E30E1000030E2000130E3000030E4
:1017B000E4009C319C2408001134053406340034C4
:1017C0000034003400340034003400340034003479
:1017D0000034003400340034003400340034003469
:1017E0000034003400340034003400340034003459
:1017F0000034003400340034003400340034003449
:101800000034003400340034003400340034003438
:101810000034003400340034003400340034003428
:101820000034003400340034003400340034003418
:101830000034003400340034003400340034003408
:1018400000340034003400340034003400340034F8
:1018500000340034003400340034003400340034E8
:1018600000340034003400340034003400340034D8
:1018700000340034003400340034003400340034C8
:1018800000340034003400340034003400340034B8
:101890000034003438340034003400340034003470
:1018A0000034003400340034003400340034003498
:1018B00000340034003400341134003423348034D4
:1018C0000034703400340034003400340034003408
:1018D0000034003400340034003400340134A034C7
:1018E0004634493454342034003400340034003455
:1018F0000034003400340034003400340034003448
:101900001F34003409343A34313430343034323412
:1019100039343734313431343034313420342034B4
:101920002034203420342034313420340034003446
:1019300000340034003463340B3400340034003499
:101940003534323438343634323430343734353454
:1019500030342034203420342034203420342034D7
:10196000313435343134303431343334203420346C
:10197000003400340034293400340034003400349E
:1019800000340034003400340034003400340034B7
:1019900000340034003400340034003400340034A7
:1019A0000034003400340034003400340034003497
:1019B0000034003400340034FF302100AF00FF3029
:1019C000B0009B3147238C318B170B172100B101DD
:1019D000B20122000E138E138E1104302000A000DD
:1019E0008B30A1009B312C238C310D302100A200C3
:1019F0002D30A100E230A000A00BFC2CA10BFC2C90
:101A0000A20BFC2C003222000E170D302100A20088
:101A10002D30A100E230A000A00B0C2DA10B0C2D4D
:101A2000A20B0C2D003222008E1715302100A200CF
:101A30004B30A100D130A000A00B1C2DA10B1C2D00
:101A4000A20B1C2D000022008E1572302000A00079
:101A50008B30A1009B312C238C3115302100A2004A
:101A60004B30A100D130A000A00B342DA10B342DA0
:101A7000A20B342D0000A7302100C1000230C200AB
:101A80009A302000A0002630A1009B3162238C31C7
:101A9000200021082100C800200020082100C700E4
:101AA000C23047062D3003194806031D682D5130FA
:101AB0002000A0008B30A1009B312C238C310D30F5
:101AC0009A3164228C310A309A3164228C31FE2F93
:101AD0002E302000A0008B30A1009B312C238C31B4
:101AE000210048082000A200210047082000A10092
:101AF0009431F3248C310D309A3164228C310A30C8
:101B00009A3164228C31FE2F21005108A100500827
:101B1000A000A035A10DA035A10D2008013EA20016
:101B20000030213DA3006830220784008030233D2F
:101B300085000008A40024082000CB0021005108E3
:101B4000A6005008A500A535A60DA535A60D2508AB
:101B5000023EA7000030263DA80068302707840019
:101B60008030283D85000008A90029082000CC000D
:101B700021005108AB005008AA00AA35AB0DAA35C8
:101B8000AB0D2A08033EAC0000302B3DAD006830A1
:101B90002C07840080302D3D85000008AE002E0803
:101BA0002000CD00210051088500500884008435B4
:101BB000850D8435850D683084078030853D0008AB
:101BC0009C316E248C3101302100D0070030D13D92
:101BD0005108803AA0004208803A2002031DF22DED
:101BE00041085002031C842D29302100A2009630A8
:101BF000A100A630A000A00BFB2DA10BFB2DA20B7A
:101C0000FB2D0D302000CB009830CC007730CD007C
:101C10000730CE009C3142248C310D302000CB00A7
:101C20009830CC000030CD00CE009C3142248C3165
:101C300029302100A2009630A100A630A000A00B00
:101C40001F2EA10B1F2EA20B1F2E8B31A0238C3118
:101C50003D302100A0002008CD009A3185228C3132
:101C60002100B301B401D001D1013E3086002730FC
:101C7000870002300106031D642E3B3086002730AA
:101C8000870001082100A00020082000CB003C3084
:101C900086002730870001082100A10021082000CC
:101CA000CC003D3086002730870001082100A200CB
:101CB00022082000CD003A30860027308700010836
:101CC0009C316E248C31932E3E3086002730870065
:101CD0000103031D982E3B30860027308700010842
:101CE0002100A00020082000D2003A3086002730D2
:101CF000870001089D3138258C31200053082100D0
:101D0000CC00200052082100CB004C08A0003C3041
:101D1000860027308700200881003D30860027306C
:101D200087004B0881003E30860027308700810104
:101D3000B5302200970068302100A100E430A000F7
:101D4000A00BA02EA10BA02E000021004D089A315F
:101D5000E5228C319A315D228C31003A0319AA2E8A
:101D60009A317C228C31200021082100C4002000FF
:101D700020082100C300A530220097006830210010
:101D8000A100E430A000A00BC32EA10BC32E0000C5
:101D900021004D089A31E5228C319A315D228C3137
:101DA000003A0319CD2E9A317C228C312000210873
:101DB0002100C600200020082100C5004309A00022
:101DC0004409A100A00A0319A10A45082007C90077
:101DD0004608213DCA004A082000A9002100490800
:101DE0002000A8009A31D0228C3120002808210040
:101DF000B500200029082100B60020002A08210093
:101E0000B700B4302000CB002830CC003F30CD00EC
:101E1000210035082000AB00210036082000AC006E
:101E2000210037082000AD00C030A8007F30A90095
:101E30004430AA00923128228C3120002808BB00AF
:101E40002908BC002A08BD003330B800D330B900DF
:101E50003F30BA0093317D238C3120003808C80010
:101E60003908C9003A08CA009A318E228C31200004
:101E70004808CE004908CF004A08D0009531BB255C
:101E80008C3120004B082100BE0020004C082100AE
:101E9000BF0020004D082100C00000302000CB0012
:101EA0002030CC00C230CD000430A800AD30A900F5
:101EB0003A30AA0021003E082000AB0021003F0874
:101EC0002000AC00210040082000AD009231282203
:101ED0008C3120002808CE002908CF002A08D00025
:101EE0009531BB258C3120004B082100B800200023
:101EF0004C082100B90020004D082100BA00003034
:101F00002000B8008030B9004330BA002100380802
:101F10002000BB00210039082000BC0021003A0845
:101F20002000BD0093317D238C3120003808210032
:101F3000BB00200039082100BC0020003A08210025
:101F4000BD003B082000A00021003C082000A100AB
:101F500021003D082000A2009131A1218C312000F8
:101F600021082100CF00200020082100CE004F08CA
:101F7000A000063086002730870020088100073047
:101F80008600273087004E08810049082000AE00F7
:101F900021004A082000AF00B001B1019431312482
:101FA0008C310D309A3164228C310A309A3164229E
:101FB0008C316D309A3164228C310D309A3164222B
:101FC0008C310A309A3164228C3121004E08200075
:101FD000AE0021004F082000AF00890D893B890920
:101FE000B000B100943131248C310D309A3164222B
:101FF0008C310A309A3164228C31352E80312E2872
:042134009A260800DF
:10213C00FE0012001E000130FE020030FF3B7F0843
:10214C007E04031900349F282000D0004B08CC00DB
:10215C004C08AE0050089E31E126903120002F082B
:10216C00CF002E08CE004E034F0403190800023096
:10217C00CC004C08D100EF0151030319EC284A089C
:10218C00A8000030A9000230CC004C08AA00103086
:10219C00AB000030AC005130CD004D08AD009B3190
:1021AC00C72390310230200051060319D82851085A
:1021BC000319EC2851030319EC2864306F0603193A
:1021CC00EC280130CC004C08EF07C2289230A0005C
:1021DC008B30A1009B312C239031200050088600BD
:1021EC00870101089D31742590312000500A86002A
:1021FC00870101089D31742590319A302000A00090
:10220C008B30A1009B312C23903120004A08860092
:10221C00870101089D317425903120004A0A8600FF
:10222C00870101089D31742590310D309A3164225B
:10223C0090310A309A3164220800F400922921006E
:10224C00E601E60A080080307C02031C44296F304A
:10225C008600273087000108F000F1010730F035C7
:10226C00F10D890B35297C087007F20071080318F1
:10227C00710AF3007208E20073084A297C08F00026
:10228C00F1017008E2007108E3007329F030F000EE
:10229C002630F10062087007F2006308713DF3000C
:1022AC0072088600730887007C0881000130E20701
:1022BC000030E33D01306302003003196202031C5D
:1022CC007329E201E301732921006608003A03191E
:1022DC004C29013A031929294C29E6010800F03050
:1022EC00F0002630F10021006208700786006308B8
:1022FC00713D870001082400910001302100E207A4
:10230C000030E33D01306302003003196202031C0C
:10231C000800E201E30108007408003A03192529BA
:10232C00013A03197529033A03196A29013A031969
:10233C00A029A029080020002008A4002108A5003D
:10234C002208A6000310250D260DA7002708AD00B6
:10235C002D08031DBA290030A3000030A200003064
:10236C00A1000030A00008002008A4002108A5004E
:10237C002208A6001730A636A50CA40C890BC1297F
:10238C002408A7002708A800A117FF30A005FF30DC
:10239C00A1050030A2052008A9002108AA002208E6
:1023AC00AB00AC018E30AD02AD1FF8292D08803A80
:1023BC008F3E0318EA290030A3000030A200003041
:1023CC00A1000030A00008000130AC36AB0CAA0C08
:1023DC00A90C890BEB290130A4002408AD070319C3
:1023EC00112AEA2918302D02031C0E2A0030A300F2
:1023FC000030A2000030A1000030A0000800013025
:10240C00A935AA0DAB0DAC0D890B062A0130AD0216
:10241C002D08031D052A280803191F2AA909AA0932
:10242C00AB09AC09A90A0319AA0A0319AB0A0319C7
:10243C00AC0A2C08A3002B08A2002A08A10029082A
:10244C00A000080020002B08AE002C08AF002D08BF
:10245C00B00003102F0D300DB1003108B600360856
:10246C00031D3F2A0030A8000030A9000030AA004C
:10247C0008002808AE002908AF002A08B000031095
:10248C002F0D300DB1003108B7003708031D552A48
:10249C000030A8000030A9000030AA00080000306D
:1024AC00B3000030B4000030B50089303707AE00FF
:1024BC002E08B6022B08AE002C08AF002D08B00079
:1024CC001030B036AF0CAE0C890B672A2E08B10059
:1024DC003108B7002808AE002908AF002A08B00060
:1024EC001030B036AF0CAE0C890B772A2E08B10029
:1024FC003108B7068030AE002E08B705AC17FF3098
:10250C00AB05FF30AC050030AD05A917FF30A805B1
:10251C00FF30A9050030AA051830AE002E08B20015
:10252C000130B335B40DB50D890B972A2A082D024D
:10253C00031DA62A29082C02031DA62A28082B02F3
:10254C00031CAF2A2808AB022908AC3B2A08AD3B78
:10255C0033140130AB35AC0DAD0D890BB02A013005
:10256C00B202031D962A3308A0003408A1003508D6
:10257C00A2003608AE002E08A3003708AF002F08C3
:10258C00A4009F319B2720002008A8002108A90047
:10259C002208AA0008002000C900C701C801480889
:1025AC00803AB10080303102031DDE2A3008470228
:1025BC000318F42A200047084907B10031088600A7
:1025CC0087010108B2004708333E860087013208B4
:1025DC0081000130C7070030C83DD52A20002F08E4
:1025EC00860087010108B1003008333E8600870160
:1025FC00310881002F0A860087010108B1003008DC
:10260C00013E333E86008701310881003008023ECE
:10261C00B1003108C6009630A0008B30A1009B3170
:10262C002C239231200049088600870101089D3136
:10263C00742592312000490A8600870101089D31DA
:10264C007425923194302000A0008B30A1009B3176
:10265C002C23923120002F088600870101089D3120
:10266C007425923120002F0A8600870101089D31C4
:10267C00742592310D309A31642292310A309A319C
:10268C006422923102302000B1003108CA00EF01FF
:10269C004A030319752B4608B1003108A700103006
:1026AC00A8000030A9004A30B2003208AA0033302A
:1026BC009B31EE239231023020004A060319612B24
:1026CC004A080319752B4A030319752B64306F06DE
:1026DC000319752B0130B1003108EF074E2B4A035B
:1026EC00031D08000130AF000030B00008002000CE
:1026FC003808BE003908BF003A08C00003103F0D6F
:10270C00400DC1004108C2004208031D942B00304B
:10271C00B8000030B9000030BA0008003B08BE0019
:10272C003C08BF003D08C00003103F0D400DC10028
:10273C004108C7004708031DAA2B0030B800003021
:10274C00B9000030BA00080047087B3EBE003E08C6
:10275C00C2073808BE003908BF003A08C000103064
:10276C00C036BF0CBE0C890BB62B3E08C10041080D
:10277C00C7003B08BE003C08BF003D08C00010303D
:10278C00C036BF0CBE0C890BC62B3E08C1004108DD
:10279C00C7068030BE003E08C705B917BC17FF300E
:1027AC00BB05FF30BC050030BD050030C300003058
:1027BC00C4000030C5000730BE003E08C600381CFF
:1027CC00ED2B3B08C3073C08C43D3D08C53D01301B
:1027DC00BA36B90CB80C890BEE2B0130BB35BC0DDD
:1027EC00BD0D890BF42B0130C602031DE52B0930FE
:1027FC00BE003E08C600381C092C3B08C3073C0829
:10280C00C43D3D08C53D0130BA36B90CB80C890B36
:10281C000A2C0130C536C40CC30C890B102C0130AA
:10282C00C602031D012C4308A0004408A100450862
:10283C00A2004208BE003E08A3004708BF003F08A4
:10284C00A4009F319B2720002008B8002108B90064
:10285C002208BA00080000302000A3000030A200BB
:10286C000330A100E830A0003108A7003008A60012
:10287C002F08A5002E08A4009E318E26943120002E
:10288C0023082204210420040319652C0030A30022
:10289C000030A2000330A100E830A0003108A700EE
:1028AC003008A6002F08A5002E08A4009E318E2605
:1028BC00943120002008303E9A316422943100304B
:1028CC002000A3000030A2000330A100E830A000DB
:1028DC003108A7003008A6002F08A5002E08A40078
:1028EC009D31B425943120002308B1002208B0009A
:1028FC002108AF002008AE000030A3000030A20079
:10290C000030A1006430A0003108A7003008A600F8
:10291C002F08A5002E08A4009E318E26943120008D
:10292C002008303E9A316422943100302000A300FC
:10293C000030A2000030A1006430A0003108A700D4
:10294C003008A6002F08A5002E08A4009D31B42540
:10295C00943120002308B1002208B0002108AF00F8
:10296C002008AE000030A3000030A2000030A1000F
:10297C000A30A0003108A7003008A6002F08A500D7
:10298C002E08A4009E318E26943120002008303E63
:10299C009A316422943100302000A3000030A20050
:1029AC000030A1000A30A0003108A7003008A600B2
:1029BC002F08A5002E08A4009D31B42594312000C9
:1029CC002308B1002208B0002108AF002008AE0097
:1029DC002E08303E9A316422080020002208A40000
:1029EC002108A3000430A436A30C890BF92C043065
:1029FC00A436A30C890BFE2C0430A436A30C890B33
:102A0C00032D2308A5002508AD002208A4002108E9
:102A1C00A3000430A436A30C890B102D0430A4366B
:102A2C00A30C890B152D2D08A5000330A535FF3EF1
:102A3C00031D1C2D2535FF3A013E2307A600260851
:102A4C00AC002208A4002108A3000430A436A30C77
:102A5C00890B2C2D2D08A5000330A535FF3E031D39
:102A6C00332D2535A6000330A635FF3E031D3A2D28
:102A7C002635FF3A013E2307A7002C08A800033097
:102A8C00A835FF3E031D462D2835FF3A013E27078A
:102A9C00A9002908AB002B08A3000430A335890B2F
:102AAC00542D2C08A4000330A435FF3E031D5A2DD1
:102ABC002435A5000430A535890B612D2D08A60001
:102ACC000330A635FF3E031D672D2635A7000330C6
:102ADC00A735FF3E031D6E2D2735A8000330A83502
:102AEC00FF3E031D752D283525072307FF3A013EB0
:102AFC002107A9002908AA000A302D02031C892DE0
:102B0C002D08373E8C2D20002D08303E9A316C223A
:102B1C0094310A3020002C02031C972D2C08373ED0
:102B2C009A2D20002C08303E9A316C2294310A30B8
:102B3C0020002B02031CA52D2B08373EA82D2000AE
:102B4C002B08303E9A316C2294310A3020002A0234
:102B5C00031CB52D2A08373E9A316C220800200040
:102B6C002A08303E9A316C22080020004B08D10014
:102B7C004C08D2004D08D3000310520D530DD40055
:102B8C005408D7004E08D1004F08D2005008D3008B
:102B9C000310520D530DD4005408D60057080319D6
:102BAC00E32D560857020318EA2D5703FF3A560730
:102BBC00D10019305102031CEA2D4E08CB004F08EE
:102BCC00CC005008CD00080056080319080057081F
:102BDC0056020318F92D5603FF3A5707D100193046
:102BEC005102031808000630D1005108D500CD1B46
:102BFC00D517D01B5517CC17FF30CB05FF30CC05A4
:102C0C000030CD05CF17FF30CE05FF30CF0500309B
:102C1C00D005560857020318352E0130CE35CF0D8E
:102C2C00D00D890B142E0130D60256085706031905
:102C3C00302E0130D502550807390319302E132ECA
:102C4C000130CD36CC0CCB0C890B272E0130D100AA
:102C5C005108D7075708560603195A2E262E57081F
:102C6C00560203185A2E0130CB35CC0DCD0D890BE5
:102C7C003A2E0130D702560857060319562E01304A
:102C8C00D502550807390319562E392E0130D03686
:102C9C00CF0CCE0C890B4D2E0130D1005108D6072C
:102CAC0057085606031D4C2ED51F6C2EFF30CB0635
:102CBC00FF30CC06FF30CD060130CB0700300318B7
:102CCC000130CC07003003180130CD07551F7E2E84
:102CDC00FF30CE06FF30CF06FF30D0060130CE07D6
:102CEC00003003180130CF07003003180130D00733
:102CFC00D5014B08CE074C08CF3D4D08D03DD01F19
:102D0C00992EFF30CE06FF30CF06FF30D0060130B3
:102D1C00CE07003003180130CF0700300318013004
:102D2C00D007D501D50A4E08A0004F08A1005008C5
:102D3C00A2005708D1005108A3005508D200520830
:102D4C00A4009F319B2720002008CB002108CC0039
:102D5C002208CD0008002000921124009D1FF42FA2
:102D6C009D132000EE017908023E860087010108C0
:102D7C00860087018101810AF9010800E918080021
:102D8C006808F2007208F9006808860087010108DB
:102D9C00F2007208F800680886008701413F2100A4
:102DAC00E7000330F20072082000E8076808EB3AED
:102DBC00031DE42EE830F2007208E8006910680880
:102DCC0067060319E91424001E140230F20072087D
:102DDC002000EE00080024009E140230F20072085D
:102DEC002000EE00080024001E1F052F0130F20009
:102DFC0072082000EB0704309A31FC2208007B0893
:102E0C00F3007A08F200F336F20C720824009900F1
:102E1C007A1C162F0B30F20072082000EE0008000E
:102E2C000330F20072082000EE00080024001E1F80
:102E3C00282F0130F20072082000EB0704309A3181
:102E4C00FC2208009E147B08F3007A08F200730839
:102E5C00F200F30106307205F40000307305F50042
:102E6C00F0307404FA0000307504FB007A14200072
:102E7C00EC01EC0A0230F2007208EE0008006C0360
:102E8C000319622F21006708860001308700403F3C
:102E9C00FA00413FFB006708033E860001308700C3
:102EAC00403FE400413FE5006708860001308700A1
:102EBC000130423F2000ED007A08240099007A1C72
:102ECC006D2F0530F20072082000EE000800033070
:102EDC00F20072082000EE00080024001E1F812F53
:102EEC000130F20072082000EB0724001E1305309D
:102EFC009A31FC22080001302000ED026D0A031DFE
:102F0C009C2F0530F20072082100E7070130F8020F
:102F1C00031D942F00309A31FC22080024009E14CB
:102F2C000230F20072082000EE0008002100640854
:102F3C0086006508870001082400990001302100F3
:102F4C00E4070030E53D080024001E1FB82F0130B7
:102F5C00F20072082000EB0704309A31FC222400A6
:102F6C001E1308009E150830F20072082000EE00B7
:102F7C0008000830F2007208EE0024009E150800CC
:102F8C002100640886006508870024001908810068
:102F9C0001302100E4070030E53D01302000ED0256
:102FAC000319E02F24009E120630F2007208200054
:102FBC00EE00E42F24009E169A31BD2224001E162A
:102FCC00080000309A31FC2208000130F20072082F
:102FDC002000EB0706309A31FC22080020006E0816
:102FEC0084000C3004020318EB2F98310435003E9A
:102FFC00820008009631C42E9631F12E9731452F60
:10300C009731732F9731E72F9731AA2F9731BF2F15
:10301C009731E72F9731C62F9731EB2F9631F92E39
:04302C0097311C2F8D
:1034A200103027009A000800BA3022009700080066
:1034B2002030210097000800031021009D1C0314F6
:1034C2000030093D08002000A000111E662A2008D5
:1034D20023009A0008002000A000111E6E2A200876
:1034E20023009A000800320099019B019D010730D8
:1034F2009F009E01080021001C082000A10021005D
:103502001B082000A0000800F53021009D00E030DB
:103512009E009F019B019C01080020004A0849046B
:103522004804031908008030CA0608000830230046
:103532009F0080309D0024309E008A309B009C01B9
:1035420008006400800101310130FE020030FF3BBF
:103552007F087E0403190034A32A24009401263034
:10356200950096019701FE309300A0309200200052
:1035720091112100911508000530F000700821001A
:10358200E7070130F802031DCC2A0430F00070086E
:103592002000EE0008002000EE01EE0A08002000E4
:1035A2002808A0002908A100A2018E30AB002B0838
:1035B200A300A4019F319B2720002008A800210816
:1035C200A9002208AA0008002000A1002108A000EA
:1035D200A00DA00D21001D082000200603392006A1
:1035E20021009D001D140D302000A000A00BF72A21
:1035F20021009D140800F10024001E157908023EE6
:103602008600870101080319112B7108F00079085F
:10361200023E86008701010886008701700881004A
:103622002000EE010800E8302000A0002008E80099
:10363200E830A0002008E700E9146910EB0124003B
:103642009C0128309D009F011F309A00200092119A
:1036520021009215080020002108A4002008A300E0
:103662002308840024088500120003190800111E93
:10367200382B2308840024088500000823009A00C0
:1036820001302000A3070030A43D312B9F313D279C
:103692009B319A3174229B319A3159229B319A3152
:1036A200AE229B319B3114239B319A3155229B319F
:1036B2009A3185229B319A3151229B319A3197223C
:1036C200080000308B1B01302000A2008B13200861
:1036D20031009100200021083100920015131514C9
:1036E200000000002000220C031C8B1303188B1710
:1036F200310014082000A100310013082000A000AE
:1037020008005530F5007508F600200091112400DC
:103712001108F5007508F600141D962B941A161F51
:10372200942B03309F2B01309F2B941A9A2B00303D
:103732009F2B7608F5007508FC0002309131232199
:103742002400151608002000A6002308A500220860
:10375200A400A435A50D26088600013087002408A0
:10376200C03F2508C13F2108A4002608023E86006A
:1037720001308700240881002608033E86000130BC
:1037820087002008C03F0030C13F080020006918B0
:10379200E72B2908A1002808A0002A08AE002E085D
:1037A200A2002C08A4002B08A30020309C31162470
:1037B2009B3120302000AE002E08A0002D08AF0063
:1037C2002F08A10001309D31F725080020002D08A7
:1037D200860087018101810A08002000AD00691876
:1037E2000F2C2D08AB002B08A0002708AC002C08DA
:1037F200A1002908A3002808A20025309B31A42398
:103802009B3125302000AB002B08A0002A08AC0019
:103812002C08A10001309D31F725080020002A085C
:10382200860087018101810A08002000A700240880
:10383200A6002308A500A535A60D2708860001309D
:1038420087002508C03F2608C13F270886000130AF
:103852008700013081044131003081042208A50033
:103862002708023E860001308700250881002708CC
:10387200033E8600013087002008C03F2108C13F77
:10388200080021005F082000D40021005E0820000B
:10389200D300210061082000D2002100600820002E
:1038A200D1004C08CF004F08D1004B08CF004F0881
:1038B200D2004E08CF004F08D3004D08CF004F086A
:1038C200D4005330CF004F08AF000230D000500870
:1038D200B00051309231D12208002000D0002100E6
:1038E20057082000D400210056082000D3002100F0
:1038F20059082000D200210058082000D1005008A9
:10390200CE004E08D1004B08CE004E08D2004C0823
:10391200CE004E08D3004D08CE004E08D4005330DE
:10392200CE004E08AF000230CF004F08B000513039
:103932009231D122080020005E08D3005D08D20037
:103942009C31FE249C3120005308E6005208E50019
:103952006608A1006508A0006008A3005F08A20035
:103962006208A5006108A4006408A7006308A60015
:103972009C31CC249C3120002108E6002008E5007F
:103982005E08CC005D08CB006608CE006508CD005D
:103992009C314224080001302000A8000030A90018
:1039A200260AD52CA835A90D890BD32C2808FF3E51
:1039B200AA00FF30293DAB002B08A9002A08A80065
:1039C200240AE52CA835A90D890BE32CA809A9091D
:1039D2002808A0052908A1052A082205A8002B0805
:1039E2002305A900240AF72CA835A90D890BF52C6B
:1039F2002808A0042908A104080021005B0820006F
:103A0200DA0021005A082000D90021005D082000B8
:103A1200D80021005C082000D7005308D4005408C5
:103A2200D7005208D4005408D8005930D4005408A2
:103A3200CA000230D5005508CB0057309031AA2079
:103A420020005908D400D5015408D500D4015408E7
:103A5200DB005508DC005A085B07DB005C08031832
:103A62005C0ADC005C08D3005B08D200080020007E
:103A7200D700210053082000DB002100520820005B
:103A8200DA00210055082000D90021005408200046
:103A9200D8005708D4005408D8005208D40054085B
:103AA200D9005A30D4005408CA000230D500550853
:103AB200CB0058309031AA2020005A08D400D501FA
:103AC2005408D500D4015408DC005508DD005B0819
:103AD2005C07DC005D0803185D0ADD005D08D300A9
:103AE2005C08D20008002000AC001030A0000030BA
:103AF200A1002C08A900AA012908A2002A08A300F3
:103B02009E313C269D3120002008AB002B08AE00E0
:103B12002E08A9000330A935FF3E031D8C2D29353F
:103B2200FF3A013E2C07AA002A08AD000A302E02F5
:103B3200031C9E2D2E08373EA12D20002E08303E5C
:103B42009A316C229D310A3020002D02031CAE2DC9
:103B52002D08373E9A316C22080020002D08303E95
:103B62009A316C2208002000230822042104200438
:103B72000319EE2DA901A90AA31BCB2D0130A035F3
:103B8200A10DA20DA30D890BC02D0130A80028089C
:103B9200A907BD2D23082702031DD92D22082602BD
:103BA200031DD92D21082502031DD92D2008240229
:103BB200031CE32D2008A4022108A53B2208A63BF2
:103BC2002308A73B0130A336A20CA10CA00C890B41
:103BD200E42D0130A902031DCB2D2708A3002608DE
:103BE200A2002508A1002408A00008002000A300CC
:103BF20069182B2E0230A2002108860087012208B4
:103C020081002008A200670A86008701220881003D
:103C12002308A20067088600870122088100210884
:103C2200A2006708023E8600870122088100033055
:103C3200A2002208E7076708EB3A031D242EE830AA
:103C4200A2002208E700E91068086706031D302E6B
:103C52006914302E2108860087018101810A21081A
:103C62008600870102300106031D08006E08031D4D
:103C7200372E921508002000A601A11F472EA00989
:103C8200A109A00A0319A10AA601A60AA31F522E7E
:103C9200A209A309A20A0319A30A0130A400240855
:103CA200A606A701A801200821040319812EA50157
:103CB200A50AA11B662E0130A035A10D890B5D2E30
:103CC2000130A4002408A5075A2E0130A735A80DFB
:103CD200890B672E21082302031D712E2008220260
:103CE200031C782E2008A2022108A33B27140130CE
:103CF200A136A00C890B792E0130A502031D662E78
:103D020026080319892EA709A809A70A0319A80AD0
:103D12002808A1002708A000080000302000AC00FD
:103D22000030AB000030AA000030A90023082204B2
:103D3200210420040319D82EAD01AD0AA31BAD2E18
:103D42000130A035A10DA20DA30D890BA22E0130C9
:103D5200A8002808AD079F2E0130A935AA0DAB0D8A
:103D6200AC0D890BAE2E23082702031DC22E22089A
:103D72002602031DC22E21082502031DC22E200881
:103D82002402031CCD2E2008A4022108A53B2208F0
:103D9200A63B2308A73B29140130A336A20CA10C91
:103DA200A00C890BCE2E0130AD02031DAD2E2C08C6
:103DB200A3002B08A2002A08A1002908A0000800DD
:103DC2002000C500C701C8014808803AB000803011
:103DD2003002031DEE2E2E0847020318042F200086
:103DE20047084507B0003008860087010108B10086
:103DF2004708323E86008701310881000130C7073B
:103E02000030C83DE52E20002E08B0003008C60064
:103E12000230B0003008C900EF0149030319352F01
:103E22004608B0003008A7001030A8000030A900F2
:103E32004930B1003108AA0032309B31EE239E3165
:103E42000230200049060319212F49080319352F92
:103E520049030319352F64306F060319352F0130DA
:103E6200B0003008EF070E2F4903031D0800013090
:103E7200AE000030AF00080022008C018D018E01DF
:103E8200273021008C00F0308D0027308E00FF306B
:103E920023008E008D0133308C0024008D0104300C
:103EA2008C008E0125008C018D018E0100308B1B50
:103EB20001302000A0008B1355303C008F00AA3047
:103EC2008F000F102108E0390C38A1002008E039DA
:103ED2000E38A0003D001408E0391E3894001C087A
:103EE200E03919389C002408E0391438A4001F086E
:103EF200E0391A389F001E08E03918389E003C004D
:103F02001E08E0390D389E001D08E0390F389D006B
:103F12003D001D08E0391B389D0055303C008F00E4
:103F2200AA308F000F142000201C992F8B17080035
:103F32008B130800200023080319A42F2208210450
:103F42002004031DB52F0030A0000030A100003076
:103F5200A20008000130A5002508A3070130A236FF
:103F6200A10CA00C890BB02FFE3022050319CE2F15
:103F7200AB2F0130A5002508A3070130A0070030B0
:103F820003180130A107003003180130A2070130E5
:103F9200A236A10CA00C890BC92FFF3022050319F0
:103FA200DB2FBA2F0130A3020130A035A10DA20DE3
:103FB200890BD62FA11BE12F023023020318D32F26
:103FC2002318E92FFF30A0057F30A105FF30A2059D
:103FD2000310A30C2308A500A601A7011030A535E4
:103FE200A60DA70D890BF02F2508A0042608A10411
:0E3FF2002708A204240803190800A2170800DB
:020000040001F9
:08000E008CFF33FFFFFFFFFF31
:00000001FF
