:1000000080312E28080055347E14803120007F086E
:10001000F7000B1F14282100911D14282000911DAA
:100020001428A4312A2480310B1F1F282100121DFF
:100030001F282000121D1F288031022080310B1F35
:1000400029282100921D29282000921D29288B3162
:10005000FD2377082000FF007E1009008031302842
:10006000B93084009D308500F0308600263087004E
:100070000130FF000030A3312E2380318031032076
:100080008031FD00DF308400A23085005F308600C3
:10009000013087000030FF000630A3312E2380316D
:1000A000F801F901FA01FB01FC012100EF01203008
:1000B0008400013085002B30FE000030FF00A331AA
:1000C00022237E1020009031AB28993400349D34D7
:1000D000C0349934013421340434993402348F34D7
:1000E00010349834153400340034603402348034D1
:1000F0000034703400340034003470340034003480
:10010000003474340034003400348034A3340034B8
:1001100020348434A33400342034603412348034E6
:100120000034713400340034003475340034003449
:1001300000348134A334003420348534A3340034B3
:10014000203460342234803400347234003400347B
:10015000003476340034003400348234A334003464
:1001600020348634A3340034203460343234803474
:1001700000347334003400340034773400340034F5
:1001800000348334A334003420348734A33400345F
:10019000203480347934883460348134793488343C
:1001A00060348234793488346034833479348834E8
:1001B00060348434793488346034853479348834D4
:1001C00060348634793488346034873479348834C0
:1001D00060348034633400348034813463340034D8
:1001E00080348234633400348034833463340034A4
:1001F0008034843463340034803485346334003490
:10020000803486346334003480348734633400347B
:1002100080348034643480340034803464348034F6
:1002200080348134643480340034813464348034E4
:1002300080348234643480340034823464348034D2
:1002400080348334643480340034833464348034C0
:1002500080348434643480340034843464348034AE
:10026000803485346434803400348534643480349C
:10027000803486346434803400348634643480348A
:100280008034873464348034003487346434803478
:1002900080348034763400348434813476340034CD
:1002A00084348234763400348434833476340034B5
:1002B00084348434763400348434853476340034A1
:1002C000843486347634003484348734763400348D
:1002D0008434803477341834823481347734183459
:1002E0008234823477341834823483347734183447
:1002F0008234843477341834823485347734183433
:10030000823486347734183482348734773418341E
:100310008234803478348C343C34813478348C3476
:100320003C34823478348C343C34833478348C34A8
:100330003C34843478348C343834853478348C3498
:100340003834863478348C343834873478348C3488
:10035000383480340234403406348134023440343A
:100360000634823402344034063483340234403458
:100370000634843402344034063485340234403444
:100380000634863402344034063487340234403430
:100390000634803400344D340534813400344D3417
:1003A0000534823400344D340534833400344D3404
:1003B0000534843400344D340534853400344D34F0
:1003C0000534863400344D340534873400344D34DC
:1003D0000534803407344D347A34813407344D3455
:1003E0007A34823407344D347A34833407344D34CC
:1003F0007A34843407344D347A34853407344D34B8
:100400007A34863407344D347A34873407344D34A3
:100410007A34803483344E340534813483344E341A
:100420000534823483344E340534833483344E347B
:100430000534843483344E340534853483344E3467
:100440000534863483344E340534873483344E3453
:100450000534803484348F347A34813484348F3456
:100460007A34823484348F347A34833484348F34CD
:100470007A34843484348F347A34853484348F34B9
:100480007A34863484348F347A34873484348F34A5
:100490007A34803485344F340534813485344F3494
:1004A0000534823485344F340534833485344F34F5
:1004B0000534843485344F340534853485344F34E1
:1004C0000534863485344F340534873485344F34CD
:1004D000053480348634CF34053481348634CF34C7
:1004E000053482348634CF34053483348634CF34B3
:1004F000053484348634CF34053485348634CF349F
:10050000053486348634CF34053487348634CF348A
:100510000534803487344D340A34813487344D3483
:100520000A34823487344D340A34833487344D346A
:100530000A34843487344D340A34853487344D3456
:100540000A34863487344D340A34873487344D3442
:100550000A34803488344D347534813488344D34D1
:100560007534823488344D347534833488344D3452
:100570007534843488344D347534853488344D343E
:100580007534863488344D347534873488344D342A
:10059000753480344D340034003481344D340034AB
:1005A000003482344D340034003483344D3400340C
:1005B000003484344D340034003485344D340034F8
:1005C000003486344D340034003487344D340034E4
:1005D000003480344E340034003481344E340034DE
:1005E000003482344E340034003483344E340034CA
:1005F000003484344E340034003485344E340034B6
:10060000003486344E340034003487344E340034A1
:100610000034803481341034003481348134103417
:100620000034823481341034003483348134103403
:1006300000348434813410340034853481341034EF
:1006400000348634813410340034873481341034DB
:10065000003480348234B834003481348234B83485
:10066000003482348234B834003483348234B83471
:10067000003484348234B834003485348234B8345D
:10068000003486348234B834003487348234B83449
:10069000003480347534C634FF3481347534C63444
:1006A000FF3482347534C634FF3483347534C63431
:1006B000FF3484347534C634FF3485347534C6341D
:1006C000FF3486347534C634FF3487347534C63409
:1006D000FF3480347934863460348134793486341C
:1006E00060348234793486346034833479348634A7
:1006F0006034843479348634603485347934863493
:10070000603486347934863460348734793486347E
:10071000603480347934863460348134793486347A
:100720006034823479348634603483347934863466
:100730006034843479348634603485347934863452
:10074000603486347934863460348734793486343E
:10075000603480347934863460348134793486343A
:100760006034823479348634603483347934863426
:100770006034843479348634603485347934863412
:1007800060348634793486346034873479348634FE
:1007900060348034FE342934A8348134FE34293462
:1007A000A8348234FE342934A8348334FE34293406
:1007B000A8348434FE342934A8348534FE342934F2
:1007C000A8348634FE342934A8348734FE342934DE
:1007D000A8348034FD34323444348134FD3432342E
:1007E00044348234FD34323444348334FD3432347E
:1007F00044348434FD34323444348534FD3432346A
:1008000044348634FD34323444348734FD34323455
:1008100044348034FC34523436348134FC34523421
:1008200036348234FC34523436348334FC3452341B
:1008300036348434FC34523436348534FC34523407
:1008400036348634FC34523436348734FC345234F3
:1008500036348034F834B73478348134F834B734EB
:1008600078348234F834B73478348334F834B73495
:1008700078348434F834B73478348534F834B73481
:1008800078348634F834B73478348734F834B7346D
:1008900078348034F5346134E0348134F5346134B3
:1008A000E0348234F5346134E0348334F534613437
:1008B000E0348434F5346134E0348534F534613423
:1008C000E0348634F5346134E0348734F53461340F
:1008D000E0348034F134703400348134F1347034D5
:1008E00000348234F134703400348334F1347034A1
:1008F00000348434F134703400348534F13470348D
:1009000000348634F134703400348734F134703478
:1009100000348034F934A334DA348134F934A33424
:10092000DA348234F934A334DA348334F934A33436
:10093000DA348434F934A334DA348534F934A33422
:10094000DA348634F934A334DA348734F934A3340E
:10095000DA3480340334D934333481340334D93431
:10096000333482340334D934333483340334D934C4
:10097000333484340334D934333485340334D934B0
:10098000333486340334D934333487340334D9349C
:100990003334803450345034403481345034503403
:1009A00040348234503450344034833450345034E2
:1009B00040348434503450344034853450345034CE
:1009C00040348634503450344034873450345034BA
:1009D000403480340534AE34823481340534AE344E
:1009E000823482340534AE34823483340534AE34F8
:1009F000823484340534AE34823485340534AE34E4
:100A0000823486340534AE34823487340534AE34CF
:100A1000823480340134423401348134013442342C
:100A20000134823401344234013483340134423499
:100A30000134843401344234013485340134423485
:100A40000134863401344234013487340134423471
:100A50000134803403342934333481340334293469
:100A60003334823403342934333483340334293423
:100A7000333484340334293433348534033429340F
:100A800033348634033429343334873403342934FB
:100A9000333480340634A134003481340634A13434
:100AA000003482340634A134003483340634A13453
:100AB000003484340634A134003485340634A1343F
:100AC000003486340634A134003487340634A1342B
:100AD0000034803408348A34BB34813408348A3496
:100AE000BB34823408348A34BB34833408348A34C7
:100AF000BB34843408348A34BB34853408348A34B3
:100B0000BB34863408348A34BB34873408348A349E
:100B1000BB348034A034403480348134A034403439
:100B200080348234A034403480348334A034403460
:100B300080348434A034403480348534A03440344C
:100B400080348634A034403480348734A034403438
:100B5000803480346134043420348134613404348A
:100B600020348234613404342034833461340434D6
:100B700020348434613404342034853461340434C2
:100B800020348634613404342034873461340434AE
:100B9000203480348234D834003481348234D834E0
:100BA000003482348234D834003483348234D834EC
:100BB000003484348234D834003485348234D834D8
:100BC000003486348234D834003487348234D834C4
:100BD0000034803479348634503481347934863426
:100BE00050348234793486345034833479348634C2
:100BF00050348434793486345034853479348634AE
:100C00005034863479348634503487347934863499
:100C100050348034FE342934C8348134FE342934CD
:100C2000C8348234FE342934C8348334FE34293441
:100C3000C8348434FE342934C8348534FE3429342D
:100C4000C8348634FE342934C8348734FE34293419
:100C5000C834803408345A34BB34813408345A34AC
:100C6000BB34823408345A34BB34833408345A34A5
:100C7000BB34843408345A34BB34853408345A3491
:100C8000BB34863408345A34BB34873408345A347D
:100C9000BB3480348734CD340A3481348734CD3446
:100CA0000A3482348734CD340A3483348734CD34E3
:100CB0000A3484348734CD340A3485348734CD34CF
:100CC0000A3486348734CD340A3487348734CD34BB
:100CD0000A3498340D340734773498340D340034A2
:100CE000003499340034FD34E03499340134213433
:100CF000043499340234933410348034FE34A534EF
:100D0000A8348034FD34363444348034F734A2348B
:100D100046348034F5346134E0348134FE34A53413
:100D2000A8348134FD34363444348134F734A23469
:100D300046348134F5346134E0348234FE34A534F1
:100D4000A8348234FD34363444348234F734A23447
:100D500046348234F5346134E0348334FE34A534CF
:100D6000A8348334FD34363444348334F734A23425
:100D700046348334F5346134E0348434FE34A534AD
:100D8000A8348434FD34363444348434F734A23403
:100D900046348434F5346134E0348534FE34A5348B
:100DA000A8348534FD34363444348534F734A234E1
:100DB00046348534F5346134E0348634FE34A53469
:100DC000A8348634FD34363444348634F734A234BF
:100DD00046348634F5346134E0348734FE34A53447
:100DE000A8348734FD34363444348734F734A2349D
:100DF00046348734F5346134E03400340734003449
:100E00002A34803400344D340534803407344D3472
:100E10007A34813400344D340534813407344D3410
:100E20007A34823400344D340534823407344D34FE
:100E30007A34833400344D340534833407344D34EC
:100E40007A34843400344D340534843407344D34DA
:100E50007A34853400344D340534853407344D34C8
:100E60007A34863400344D340534863407344D34B6
:100E70007A34873400344D340534873407344D34A4
:100E80007A348034F834B73478348134F834B73471
:100E900078348234F834B73478348334F834B7345F
:100EA00078348434F834B73478348534F834B7344B
:100EB00078348634F834B73478348734F834B73437
:100EC00078348034A734143400348134A734143493
:100ED00000348234A734143400348334A7341434F7
:100EE00000348434A734123400348534A7341234E7
:100EF00000348634A734123400348734A7341234D3
:100F000000348034A8343C3400348134A8343C3478
:100F100000348234A8343C3400348334A8343C3464
:100F200000348434A8343F3400348534A8343F344A
:100F300000348634A8343F3400348734A8343F3436
:100F400000348434A6343C3400348534A6343C3434
:100F500000348634A6343C3400348734A6343C3420
:100F6000003470340634123454347134063412347C
:100F70005434723406341234543473340634123414
:100F80005434743406341234543475340634123400
:100F900054347634063412345434773406341234EC
:100FA0005434703409343A349034713409343A3456
:100FB0009034723409343A349034733409343A3406
:100FC0009034743409343A349034753409343A34F2
:100FD0009034763409343A349034773409343A34DE
:100FE00090347034193400340434713419340034BA
:100FF0000434723419340034043473341934003432
:10100000043474341934003404347534193400341D
:101010000434763419340034043477341934003409
:10102000043470340834073480347134083407349D
:10103000803472340834073480347334083407340D
:1010400080347434083407348034753408340734F9
:1010500080347634083407348034773408340734E5
:1010600080348034813430340034813481343034FD
:101070000034823481343034003483348134303469
:101080000034843481343034003485348134303455
:101090000034863481343034003487348134303441
:1010A00000348034793488346C3481347934883431
:1010B0006C348234793488346C34833479348834B1
:1010C0006C348434793488346C348534793488349D
:1010D0006C348634793488346C3487347934883489
:1010E0006C34803484348D347A34803485344D3497
:1010F0007A3480348634CD347A3480348734CD34B5
:101100007A34803488344D347A34813484348D3464
:101110007A34813485344D347A3481348634CD3414
:101120007A3481348734CD347A34813488344D3400
:101130007A34823484348D347A34823485344D3434
:101140007A3482348634CD347A3482348734CD3460
:101150007A34823488344D347A34833484348D3410
:101160007A34833485344D347A3483348634CD34C0
:101170007A3483348734CD347A34833488344D34AC
:101180007A34843484348D347A34843485344D34E0
:101190007A3484348634CD347A3484348734CD340C
:1011A0007A34843488344D347A34853484348D34BC
:1011B0007A34853485344D347A3485348634CD346C
:1011C0007A3485348734CD347A34853488344D3458
:1011D0007A34863484348D347A34863485344D348C
:1011E0007A3486348634CD347A3486348734CD34B8
:1011F0007A34863488344D347A34873484348D3468
:101200007A34873485344D347A3487348634CD3417
:101210007A3487348734CD347A34873488344D3403
:101220007A3470341934003405347134193400348C
:1012300005347234193400340534733419340034ED
:1012400005347434193400340534753419340034D9
:1012500005347634193400340534773419340034C5
:101260000534703416348134C0347134163481340A
:10127000C034723416348134C0347334163481343B
:10128000C034743416348134C03475341634813427
:10129000C034763416348134C03477341634813413
:1012A000C03480344D348034003481344D34803443
:1012B000003482344D348034003483344D348034EF
:1012C000003484344D348034003485344D348034DB
:1012D000003486344D348034003487344D348034C7
:1012E000003480344E343834003481344E34383451
:1012F000003482344E343834003483344E3438343D
:10130000003484344E340834003485344E34083488
:10131000003486344E340834003487344E34083474
:101320000034803461343C342034813461343434CA
:1013300020348234613434342034833461343C3496
:101340002034843461343C34203485346134343482
:101350002034863461343434203487346134343476
:1013600020348034A034003480348134A0340034FC
:1013700080348234A034003480348334A034003488
:1013800000348434A034003400348534A034003474
:1013900080348634A034003480348734A034003460
:1013A0008034703408340C340034713408340C3414
:1013B0000034723408340C340034733408340C3480
:1013C0000034743408340C340034753408340C346C
:1013D0000034763408340C340034773408340C3458
:1013E00000348034013451340134813401345134B7
:1013F00001348234013451340134833401345134A2
:1014000001348434013442340134853401344234AB
:101410000134863401344234013487340134423497
:1014200001348034FB34773436348134FB34773400
:1014300036348234FB34773436348334FB347734B7
:1014400036348434FB34773436348534FB347734A3
:1014500036348634FB34773436348734FB3477348F
:1014600036348034F0346734B4348134F034673443
:10147000B4348234F0346734B4348334F0346734B1
:10148000B4348434F0346734B4348534F03467349D
:10149000B4348634F0346734B4348734F034673489
:1014A000B4348034EF34B634A0348134EF34B634FD
:1014B000A0348234EF34B634A0348334EF34B634FD
:1014C000A0348434EF34B634A0348534EF34B634E9
:1014D000A0348634EF34B634A0348734EF34B634D5
:1014E000A03470341A34FF34003471341A34FF34A9
:1014F000003472341A34FF34003473341A34FF3435
:1015000000348034F9348B34DA348134F9348B3458
:10151000DA348234F9348B34DA348334F9348B346A
:10152000DA348434F9348B34DA348534F9348B3456
:10153000DA348634F9348B34DA348734F9348B3442
:10154000DA348034DF34003466348134DF340034FC
:1015500066348234DF34003466348334DF3400345C
:1015600066348434DF34003466348534DF34003448
:1015700066348634DF34003466348734DF34003434
:1015800066348034F134B03400348134F134B03412
:1015900000348234F134B03400348334F134B03464
:1015A00000348434F134B03400348534F134B03450
:1015B00000348634F134B03400348734F134B0343C
:1015C00000348034FF34FD34C0348134FF34FD34C2
:1015D000C0348234FF34FD34C0348334FF34FD34EE
:1015E000C0348434FF34FD34C0348534FF34FD34DA
:1015F000C0348634FF34FD34C0348734FF34FD34C6
:10160000C0344934663420347434683465347234F8
:101610006534203469347334203463346834653479
:1016200063346B34733475346D3420346534723400
:1016300072346F3472342C34203474346F34743414
:1016400061346C3420346534723472346F347234E3
:10165000203420343D3420340034320099019B0181
:101660009D0107309F009E01080020002208A40071
:101670002108A3000430A436A30C890B3B2B0430B3
:10168000A436A30C890B402B0430A436A30C890B81
:10169000452B2308A5002508AD002208A400210839
:1016A000A3000430A436A30C890B522B0430A436BB
:1016B000A30C890B572B2D08A5000330A535FF3E41
:1016C000031D5E2B2535FF3A013E2307A6002608A1
:1016D000AC002208A4002108A3000430A436A30C07
:1016E000890B6E2B2D08A5000330A535FF3E031D89
:1016F000752B2535A6000330A635FF3E031D7C2B38
:101700002635FF3A013E2307A7002C08A800033026
:10171000A835FF3E031D882B2835FF3A013E2707D9
:10172000A9002908AB002B08A3000430A335890BBE
:10173000962B2C08A4000330A435FF3E031D9C2BE0
:101740002435A5000430A535890BA32B2D08A60050
:101750000330A635FF3E031DA92B2635A700033015
:10176000A735FF3E031DB02B2735A8000330A83551
:10177000FF3E031DB72B283525072307FF3A013EFF
:101780002107A9002908AA000A302D02031CCB2B2F
:101790002D08373ECE2B20002D08303EA231F422FA
:1017A0008B310A3020002C02031CD92B2C08373E29
:1017B000DC2B20002C08303EA231F4228B310A3081
:1017C00020002B02031CE72B2B08373EEA2B2000BE
:1017D0002B08303EA231F4228B310A3020002A023D
:1017E000031CF72B2A08373EA231F4220800200000
:1017F0002A08303EA231F422080020009211240071
:101800009D1F462D9D132100EF017908023E8600A1
:1018100001308700403FF300413FF4007308860029
:101820007408870001308100F90108002200A21825
:1018300008002108F3007308F90021088600013030
:1018400087000108F3007308BC00210886000130FE
:1018500087000130413FFA000430F3007308A1070C
:1018600021084B3A031D382C4730F3007308A100C0
:101870002210210820060319A21424001E1402308D
:10188000F30073082100EF00080024009E140230CA
:10189000F30073082100EF00080024001E1F592CDC
:1018A0000130F30073082200A4070430A331EC23B5
:1018B00008007C08F4007B08F300F436F30C73088E
:1018C000240099007B1C6A2C0B30F3007308210064
:1018D000EF0008000330F30073082100EF00080058
:1018E00024001E1F7C2C0130F30073082200A40783
:1018F0000430A331EC2308009E147C08F4007B081C
:10190000F3007408F300F40106307305F5000030AD
:101910007405F600F0307504FB0000307604FC001E
:101920007B142200BA01BA0A0230F30073082100C6
:10193000EF00080022003A030319B62C7A0886004B
:1019400001308700403FFB00413FFC007A08033E26
:10195000860001308700403FB700413FB8007A0859
:101960008600013087000130423FBB007B08240025
:1019700099007B1CC12C0530F30073082100EF0097
:1019800008000330F30073082100EF000800240072
:101990001E1FD52C0130F30073082200A407240079
:1019A0001E130530A331EC23080001302200BB02D6
:1019B0003B0A031DEF2C0530F3007308FA070130D2
:1019C000BC02031DE72C0030A331EC2308002400E7
:1019D0009E140230F30073082100EF00080022007B
:1019E0003708860038088700010824009900013074
:1019F0002200B7070030B83D080024001E1F0B2D41
:101A00000130F30073082200A4070430A331EC2353
:101A100024001E1308009E150830F30073082100EF
:101A2000EF0008000830F3007308EF0024009E1553
:101A300008002200370886003808870024001908AB
:101A4000810001302200B7070030B83D0130BB02F1
:101A50000319322D24009E120630F3007308210072
:101A6000EF00362D24009E16A331492324001E16B4
:101A700008000030A331EC2308000130F3007308A4
:101A80002200A4070630A331EC23080021006F08D0
:101A900084000C30040203183D2DA0310435003EB3
:101AA000820008002200DD01DE015E08803A21008C
:101AB000A00084302002031D602D003022005D0252
:101AC0000318922D2100E501E6016608803AA00086
:101AD00084302002031D6E2D003065020318802D16
:101AE00001302100E5070030E63D6608803AA0009D
:101AF00084302002031D7E2D00306502031C702DF2
:101B000001302200DD070030DE3D5E08803A210012
:101B1000A00084302002031D902D003022005D02C1
:101B2000031C622D6B302000A000A830A100A3315F
:101B30009B238D3114302000D2009830D300A63181
:101B40000B268D3101302000A0008B30A100A33185
:101B50009B238D3121005508A63181268D312730F8
:101B60002000A000A830A100A3319B238D31293093
:101B70002100A1009630A0007F30890BBD2DA00B65
:101B8000BD2DA10BBD2D0D302000CB009830CC0019
:101B90007730CD000730CE00A431ED248D310D30EB
:101BA0002000CB009830CC000030CD00CE00A43116
:101BB000ED248D3129302100A1009630A0007F3026
:101BC000890BE02DA00BE02DA10BE02DF42D15309D
:101BD0002100A1004B30A000BE30890BED2DA00BE1
:101BE000ED2DA10BED2D00002E302000D200843011
:101BF000D300A6310B268D31200053082200DC00D3
:101C0000200052082200DB00DB1DE72DA33021005D
:101C1000A1005730A0000230890B0C2EA00B0C2E17
:101C2000A10B0C2E00000D302000CB009830CC0012
:101C30007730CD000730CE00A431ED248D310D304A
:101C40002000CB009830CC000030CD00CE00A43175
:101C5000ED248D313D302100A00020082000EF0050
:101C6000A33105238D312100E501E6012200DD01CC
:101C7000DE013E3086002730870002300106031D5A
:101C8000682E3B3086002730870001082100A00025
:101C900020082000CB003C30860027308700010858
:101CA0002100A10021082000CC003D308600273013
:101CB000870001082100A20022082000CD003A3050
:101CC0008600273087000108A53146258D31972EE3
:101CD0003E308600273087000103031D9C2E3B30D9
:101CE00086002730870001082100A000200820007E
:101CF000D2003A308600273087000108A6314526F9
:101D00008D31200053082100D4002000520821000A
:101D1000D3005408A0003C308600273087002008FC
:101D200081003D30860027308700530881003E3017
:101D30008600273087008101B53022009700683087
:101D40002100A000E430890BA32EA00BA32E0000DD
:101D500020006F08A33185238D31A231E5228D311A
:101D6000003A0319AD2EA231FC228D31200021084A
:101D70002100C400200020082100C300A53022005B
:101D8000970068302100A000E430890BC52EA00B1D
:101D9000C52E000020006F08A33185238D31A231AC
:101DA000E5228D31003A0319CF2EA231FC228D316C
:101DB000200021082100C600200020082100C500C5
:101DC0004309A0004409A100A00A0319A10A45087B
:101DD0002007D1004608213DD20052082000A9006A
:101DE000210051082000A800A33170238D3120006C
:101DF00028082100B100200029082100B20020009D
:101E00002A082100B300B4302000CB002830CC00D9
:101E10003F30CD00210031082000AB002100320806
:101E20002000AC00210033082000AD00C030A80025
:101E30007F30A9004430AA00903102208D3120006B
:101E40002808BB002908BC002A08BD003330B800B0
:101E5000D330B9003F30BA009B314D238D31200083
:101E60003808C8003908C9003A08CA00A3310E234F
:101E70008D3120004808CE004908CF004A08D00024
:101E80009C31C3248D3120004B082100BA00200072
:101E90004C082100BB0020004D082100BC00003090
:101EA0002000CB002030CC00C230CD000430A80090
:101EB000AD30A9003A30AA0021003A082000AB005A
:101EC00021003B082000AC0021003C082000AD00B0
:101ED000903102208D3120002808CE002908CF0043
:101EE0002A08D0009C31C3248D3120004B082100EA
:101EF000B40020004C082100B50020004D0821004E
:101F0000B60000302000B8008030B9004330BA007D
:101F1000210034082000BB00210035082000BC004F
:101F2000210036082000BD009B314D238D3120005B
:101F300038082100B700200039082100B80020002F
:101F40003A082100B90037082000A0002100380815
:101F50002000A100210039082000A2009A311A2295
:101F60008D31200021082100DA0020002008210006
:101F7000D9005A08A00006308600273087002008C4
:101F800081000730860027308700590881005108FA
:101F90002000AE00210052082000AF00B001B101C6
:101FA0009C3101248D310D30A231EC228D310A306B
:101FB000A231EC228D316D30A231EC228D310D3009
:101FC000A231EC228D310A30A231EC228D31210078
:101FD00059082000AE0021005A082000AF00890DEA
:101FE000893B8909B000B1009C3101248D310D304D
:101FF000A231EC228D310A30A231EC228D31392E02
:1020040020002B08AE002C08AF002D08B0000310F0
:102014002F0D300DB1003108B6003608031D192804
:102024000030A8000030A9000030AA0008002808E9
:10203400AE002908AF002A08B00003102F0D300DA0
:10204400B1003108B7003708031D2F280030A8005D
:102054000030A9000030AA0008000030B3000030AE
:10206400B4000030B50089303707AE002E08B60240
:102074002B08AE002C08AF002D08B0001030B0368D
:10208400AF0CAE0C890B41282E08B1003108B70003
:102094002808AE002908AF002A08B0001030B03676
:1020A400AF0CAE0C890B51282E08B1003108B706CD
:1020B4008030AE002E08B705AC17FF30AB05FF30FB
:1020C400AC050030AD05A917FF30A805FF30A90500
:1020D4000030AA051830AE002E08B2000130B33526
:1020E400B40DB50D890B71282A082D02031D802813
:1020F40029082C02031D802828082B02031C892888
:102104002808AB022908AC3B2A08AD3B3314013044
:10211400AB35AC0DAD0D890B8A280130B202031D1D
:1021240070283308A0003408A1003508A20036083E
:10213400AE002E08A3003708AF002F08A400983182
:10214400BE2020002008A8002108A9002208AA0017
:102154000800FF302000EB00FF30EC00A331D12356
:1021640090318B170B172000ED01EE0122000E13A6
:102174008E138E1100302000A000A830A100A331DE
:102184009B2390310D302100A1002D30A000D730C9
:10219400890BCA28A00BCA28A10BCA280032220026
:1021A4000E170D302100A1002D30A000D730890B6F
:1021B400D928A00BD928A10BD928003222008E17C8
:1021C40015302100A1004B30A000BE30890BE82857
:1021D400A00BE828A10BE828000022008E154B3044
:1021E4002000A000A830A100A3319B23903115301A
:1021F4002100A1004B30A000BE30890BFF28A00BAA
:10220400FF28A10BFF28000000302100AF00803020
:10221400B00000302000EA000030E9000030E8009F
:102224000030E7000630A8000030A9000030AA0002
:102234003030AB009E31B9269031200029082100AE
:10224400EE00200028082100ED0007302000A8003F
:102254000030A9000030AA003030AB009E31B9260E
:102264009031200029082200DC00200028082200E8
:10227400DB0000302100DE000030DD000030DC0037
:102284000030DB006D08A0006E08A100A201A301CC
:102294002008DB042108DC042208DD042308DE0412
:1022A4001030DB35DC0DDD0DDE0D890B53292200EA
:1022B4005B082100A00022005C082100A100A2010B
:1022C400A3012008DB042108DC042208DD04230820
:1022D400DE0427302000A000A830A100A3319B23F6
:1022E4009031B4302000A000A830A100A3319B237A
:1022F400903121005B08A0005C08A1005D08A200E9
:102304005E08A3001030A336A20CA10CA00C890B0C
:10231400852921082000A200210020082000A10016
:102324008B313523903121005C082000A20021006C
:102334005B082000A1008B31352390312730200029
:10234400A000A830A100A3319B23903104302000C9
:10235400A8000030A9000030AA003030AB009E3144
:10236400B9269031200029082100EE002000280819
:102374002100ED0005302000A8000030A900003045
:10238400AA003030AB009E31B926903120002908D4
:102394002200DC00200028082200DB000030DA00E4
:1023A4000030D9000030D8000030D70021006D087B
:1023B400A0006E08A100A201A30120082200D704F6
:1023C400210021082200D804210022082200D90477
:1023D400210023082200DA041030D735D80DD90D96
:1023E400DA0D890BEF295B082100A00022005C08AC
:1023F4002100A100A201A30120082200D70421008A
:1024040021082200D804210022082200D904210036
:1024140023082200DA0427302000A000A830A100FD
:10242400A3319B2390317F302000A000A830A1006D
:10243400A3319B239031220057082100A0002200E1
:1024440058082100A100220059082100A2002200FE
:102454005A082100A3001030A336A20CA10CA00C32
:10246400890B2E2A21082000A20021002008200028
:10247400A1008B3135239031220058082000A2009E
:10248400220057082000A1008B31352390312730DA
:102494002000A000A830A100A3319B239031083074
:1024A4002000A8000030A9000030AA003030AB00A2
:1024B4009E31B9269031200029082100EE00200029
:1024C40028082100ED0009302000A8000030A900F0
:1024D4000030AA003030AB009E31B9269031200084
:1024E40029082200DC00200028082200DB005B0809
:1024F40021006D04DF0022005C0821006E04E0006E
:10250400E101E2016D08A0006E08A100A201A3018F
:102514002008DF042108E0042208E1042308E2047F
:102524001030DF35E00DE10DE20D890B932A220016
:102534005B082100A00022005C082100A100A20188
:10254400A3012008DF042108E0042208E104230891
:10255400E20427302000A000A830A100A3319B236F
:1025640090318B302000A000A830A100A3319B2320
:10257400903121005F08A0006008A1006108A2005A
:102584006208A3001030A336A20CA10CA00C890B86
:10259400C52A21082000A200210020082000A10053
:1025A4008B3135239031210060082000A2002100E6
:1025B4005F082000A1008B313523903127302000A3
:1025C400A000A830A100A3319B2390310A30210040
:1025D400CF000030D00062082200D600210061083C
:1025E4002200D500210060082200D40021005F08E9
:1025F4002200D3000030CE000030CD000030CC00EB
:102604000030CB0000302100CA000030C900003087
:10261400C8000030C7000030CE000030CD000030CC
:10262400CC000030CB005F30860001308700E730FB
:102634008400003085000630A00016001A00A00BAC
:102644001F2B00302000A3000030A2000030A100A6
:102654001830A00021005E082000A70021005D08BA
:102664002000A60021005C082000A50021005B08D2
:102674002000A400A7315627903120002008013EF5
:102684002100BD0000302000213D2100BE000030AB
:102694002200D2000030D1000030D0000030CF0042
:1026A40001302100BF000030C000D501D6018030C8
:1026B4002200DD000030DE005E08803A2100A00028
:1026C40080302002031D692BBF3022005D020318F5
:1026D400992BF0302100A0002630A10022005D08D3
:1026E40021002007860022005E082100213D87008A
:1026F4000108A200A301A401A5012208C707230819
:10270400C83D2408C93D2508CA3D01302200DD0723
:102714000030DE3D5E08803A2100A00080302002B7
:10272400031D972BBF3022005D02031C6B2BC030AE
:102734002200DD000030DE005E08803A2100A000A7
:1027440080302002031DA92BDF3022005D02031814
:10275400D92BF0302100A0002630A10022005D0812
:1027640021002007860022005E082100213D870009
:102774000108A200A301A401A5012208CB07230894
:10278400CC3D2408CD3D2508CE3D01302200DD0797
:102794000030DE3D5E08803A2100A0008030200237
:1027A400031DD72BDF3022005D02031CAB2BAF309F
:1027B400860027308700210047088100CF3086003B
:1027C400273087004B0881000D302000CB00983063
:1027D400CC009930CD000930CE00A431ED249031E5
:1027E4000D302000CB009830CC000030CD00CE005E
:1027F400A431ED24903129302100A1009630A000AD
:102804007F30890B032CA00B032CA10B032CA730C6
:102814002100C1000230C2002200DD01DE015E0899
:10282400803A2100A0004208803A2002031D1D2C9A
:10283400410822005D0203188D2C22005E0821004D
:10284400A10022005D082100A000A035A10DA03543
:10285400A10D2008013EA2000030213DA3006530F7
:10286400220784008030233D85000008A40024084A
:102874002000CB0022005E082100A60022005D0893
:102884002100A500A535A60DA535A60D2508023EF7
:10289400A7000030263DA80065302707840080305B
:1028A400283D85000008A90029082000CC0022004A
:1028B4005E082100AB0022005D082100AA00AA35B1
:1028C400AB0DAA35AB0D2A08033EAC0000302B3DFE
:1028D400AD0065302C07840080302D3D8500000854
:1028E400AE002E082000CD0022005E0885005D08A1
:1028F40084008435850D8435850D653084078030EA
:10290400853D0008A5314625903101302200DD07C0
:102914000030DE3D112C29302100A1009630A000AA
:102924007F30890B932CA00B932CA10B932C0D308F
:102934002000CB009830CC007730CD000730CE009B
:10294400A431ED2490310D302000CB009830CC0020
:102954000030CD00CE00A431ED2490312930210087
:10296400A1009630A0007F30890BB62CA00BB62CAA
:10297400A10BB62CA3315C2390312100E501E601C3
:102984006608803AA0003E08803A2002031DCC2C41
:102994003D0865020318002F00302200CE000030ED
:1029A400CD008030CC000C30CB00210067080C3EF9
:1029B4002000CB0000302100683D2000CC00220024
:1029C40053082100A000220054082100A100220085
:1029D40055082100A200220056082100A30010304F
:1029E400A336A20CA10CA00C890BF22C2108200008
:1029F400CE00210020082000CD00A431ED24903128
:102A0400210067080D3E2000CB0000302100683D06
:102A14002000CC00220054082000CE0022005308DD
:102A24002000CD00A431ED249031FF302200530565
:102A34002100A000FF30220054052100A100003035
:102A4400220055052100A200003022005605210075
:102A5400A300220053082100A400220054082100EE
:102A6400A500220055082100A600220056082100D6
:102A7400A7001030A736A60CA50CA40C890B3C2D7E
:102A84002408A0072508A13D2608A23D2708A33D48
:102A940020082200CB07210021082200CC3D210080
:102AA40022082200CD3D210023082200CE3DDD0175
:102AB400DE015E08803A2100A00080302002031D60
:102AC400662D0C3022005D0203181E2EAB30200050
:102AD400A000A830A100A3319B2390312200530809
:102AE4002100A000220054082100A1002200550862
:102AF4002100A200220056082100A3001030A336B2
:102B0400A20CA10CA00C890B812D21082000A2008D
:102B1400210020082000A1008B31352390312200B0
:102B240054082000A200220053082000A1008B3189
:102B3400352390310D30A231EC2290310A30A2318C
:102B4400EC229031210050082000A90021004F08F8
:102B54002000A8000030AA003030AB009E31B92616
:102B64009031200029082200DC00200028082200DF
:102B7400DB005C082100D80022005B082100D7009C
:102B8400A1302000A000A830A100A3319B239031E4
:102B9400210058082000A200210057082000A100AD
:102BA4008B31352390310D30A231EC2290310A3033
:102BB400A231EC22903122005D0821006707200039
:102BC400CB0022005E082100683D2000CC002100DB
:102BD40058082000CE00210057082000CD00A43161
:102BE400ED249031210057082200CB07210058081A
:102BF4002200CC3D0030CD3DCE3D01302100CF0739
:102C04000030D03D02302200D3070030D43D0030E4
:102C1400D53D0030D63D0130DD070030DE3D5E0895
:102C2400803A2100A00080302002031D1C2E0C30AD
:102C340022005D02031C682D96302000A000A830FD
:102C4400A100A3319B23903122004B082100A00056
:102C540022004C082100A10022004D082100A200FE
:102C640022004E082100A3001030A400A337A20CB8
:102C7400A10CA00CA40B382E21082000A2002100D6
:102C840020082000A1008B313523903122004C080C
:102C94002000A20022004B082000A1008B31352324
:102CA400903127302000A000A830A100A3319B233D
:102CB4009031210067080E3E2000CB000030210037
:102CC400683D2000CC0022004B092100A000220016
:102CD4004C092100A100A00A0319A10A2008200020
:102CE400CD00210021082000CE00A431ED24903134
:102CF400210067080E3E2000D20000302100683D0C
:102D04002000D300A6310B269031210067080F3E26
:102D14002000CB0000302100683D2000CC000C30A6
:102D2400CD008030CE00A431ED249031003022005B
:102D3400D2000030D1000030D0000030CF0021009C
:102D440067080F3E2000D20000302100683D2000BB
:102D5400D300A6310B269031200053082100E40053
:102D6400200052082100E3000C3063068030031970
:102D74006406031DDD2E01302200CF070030D03D54
:102D84000030D13D0030D23D5208031DD22E5108EF
:102D9400031DD22EE9304F020330503B031CA12EF9
:102DA40050082000A20022004F082000A1008B310F
:102DB40035239031A12E630864040319FA2E0130DF
:102DC400D5070030D63D2A302000A000A830A1004D
:102DD400A3319B23903121005508A63181269031DF
:102DE40027302000A000A830A100A3319B239031FC
:102DF40001302100E5070030E63DC22C21006708C0
:102E04000C3E2000CB0000302100683D2000CC00A7
:102E1400220057082100A000220058082100A10028
:102E2400220059082100A20022005A082100A30010
:102E34001030A336A20CA10CA00C890B1B2F210867
:102E44002000CE00210020082000CD00A431ED2474
:102E54009031210067080D3E2000CB000030210096
:102E6400683D2000CC00220058082000CE0022003B
:102E740057082000CD00A431ED249031FF3022000A
:102E840057052100A000FF30220058052100A100B1
:102E94000030220059052100A200003022005A050A
:102EA4002100A300220057082100A4002200580892
:102EB4002100A500220059082100A60022005A087A
:102EC4002100A7001030A736A60CA50CA40C890B72
:102ED400652F2408A0072508A13D2608A23D270840
:102EE400A33D003020072200CB0040302100213DCB
:102EF4002200CC0000302100223D2200CD00003011
:102F04002100233D2200CE00210067080E3E200050
:102F1400CB0000302100683D2000CC0022004B098A
:102F24002100A00022004C092100A100A00A0319DD
:102F3400A10A20082000CD00210021082000CE0095
:102F4400A431ED249031210067080F3E2000CB000E
:102F540000302100683D2000CC000030CD0040301E
:102F6400CE00A431ED24903121003F084004031920
:102F7400FE2F00302200D2000030D1000030D000FB
:102F84000030CF00210067080F3E2000D20000303F
:102F94002100683D2000D300A6310B26903120008B
:102FA40053082100E400200052082100E3004030CF
:102FB40064066304031DFE2F01302200CF07003096
:102FC400D03D0030D13D0030D23D5208031DF32FD7
:102FD4005108031DF32FE9304F020330503B031C0B
:102FE400C42F50082000A20022004F082000A10096
:102FF4008B3135239031C42F8D31522D2030210057
:10300400970008002000C600C701C8014808803A9C
:10301400B00080303002031D11282E084702031827
:103024002728200047084607B0003008860087019B
:103034000108B1004708323E86008701310881004B
:103044000130C7070030C83D082820002E08B00012
:103054003008C5000230B0003008C900F801490347
:10306400031958284508B0003008A7001030A800FC
:103074000030A9004930B1003108AA003230A4312F
:10308400972498310230200049060319442849083E
:10309400031958284903031958286430780603197A
:1030A40058280130B0003008F80731284903031DBF
:1030B40008000130AE000030AF00080022008C018F
:1030C4008D018E01273021008C00F0308D002730D7
:1030D4008E00FF3023008E008D0133308C002400DD
:1030E4008D0104308C008E0125008C018D018E0130
:1030F40000308B1B01302000A0008B1355303C00A6
:103104008F00AA308F000F102108E0390C38A1007D
:103114002008E0390E38A0003D001408E0391E38BC
:1031240094001C08E03919389C002408E03914384C
:10313400A4001F08E0391A389F001E08E039183827
:103144009E003C001E08E0390D389E001D08E03941
:103154000F389D003D001D08E0391B389D00553097
:103164003C008F00AA308F000F142000201CBC28C4
:103174008B1708008B130800200023080319C728A5
:10318400220821042004031DD8280030A0000030A8
:10319400A1000030A20008000130A5002508A30703
:1031A4000130A236A10CA00C890BD328FE302205D5
:1031B4000319F128CE280130A5002508A307013002
:1031C400A007003003180130A107003003180130B4
:1031D400A2070130A236A10CA00C890BEC28FF3009
:1031E40022050319FE28DD280130A3020130A03591
:1031F400A10DA20D890BF928A11B04290230230279
:103204000318F62823180C29FF30A0057F30A105E8
:10321400FF30A2050310A30C2308A500A601A701F3
:103224001030A535A60DA70D890B13292508A00478
:103234002608A1042708A204240803190800A217D9
:1032440008002000D0004B08CC004C08AE00500809
:1032540098310420993120002F08CF002E08CE0089
:103264004E034F04031908000230CC004C08D1006F
:10327400F8015103031965294A08A8000030A90080
:103284000230CC004C08AA001030AB000030AC0077
:103294005130CD004D08AD00A4316F249931023076
:1032A40020005106031951295108031965295103B6
:1032B4000319652964307806031965290130CC00A7
:1032C4004C08F8073B29B930A000A830A100A3316D
:1032D4009B23993120005008860087010108A631FC
:1032E400812699312000500A860087010108A63101
:1032F40081269931C1302000A000A830A100A3315B
:103304009B23993120004A08860087010108A631D1
:103314008126993120004A0A860087010108A631D6
:10332400812699310D30A231EC2299310A30A23133
:10333400EC220800F4000B2A2200B901B90A0800A3
:1033440080307D02031CBD296F3086002730870042
:103354000108F000F1010730F035F10D890BAE29B9
:103364007D087007F20071080318710AF3007208EF
:10337400B5007308C3297D08F000F1017008B50099
:103384007108B600EC29F030F0002630F100350861
:103394007007F2003608713DF30072088600730866
:1033A40087007D0881000130B5070030B63D01304B
:1033B4003602003003193502031CEC29B501B601AD
:1033C400EC2922003908003A0319C529013A0319E6
:1033D400A229C529B9010800F030F0002630F10017
:1033E40022003508700786003608713D8700010801
:1033F4002400910001302200B5070030B63D0130B1
:103404003602003003193502031C0800B501B60169
:1034140008007408003A03199E29013A0319EE2999
:10342400033A0319E329013A0319192A192A08004E
:1034340020002008A4002108A5002208A6000310EB
:10344400250D260DA7002708AD002D08031D332ADE
:103454000030A3000030A2000030A1000030A00022
:1034640008002008A4002108A5002208A60017309F
:10347400A636A50CA40C890B3A2A2408A700270811
:10348400A800A117FF30A005FF30A1050030A20558
:103494002008A9002108AA002208AB00AC018E3044
:1034A400AD02AD1F712A2D08803A8F3E0318632A9E
:1034B4000030A3000030A2000030A1000030A000C2
:1034C40008000130AC36AB0CAA0CA90C890B642A99
:1034D4000130A4002408AD0703198A2A632A18308E
:1034E4002D02031C872A0030A3000030A200003004
:1034F400A1000030A00008000130A935AA0DAB0DD1
:10350400AC0D890B7F2A0130AD022D08031D7E2AE4
:1035140028080319982AA909AA09AB09AC09A90A18
:103524000319AA0A0319AB0A0319AC0A2C08A3004D
:103534002B08A2002A08A1002908A00008002000E6
:10354400C900C701C8014808803AB100803031027F
:10355400031DAE2A300847020318C42A2000470876
:103564004907B1003108860087010108B200470805
:10357400333E86008701320881000130C7070030DE
:10358400C83DA52A20002F08860087010108B10044
:103594003008333E86008701310881002F0A8600F7
:1035A40087010108B1003008013E333E86008701DF
:1035B400310881003008023EB1003108C600BD3038
:1035C400A000A830A100A3319B239A312000490810
:1035D400860087010108A63181269A312000490A14
:1035E400860087010108A63181269A3149302000DE
:1035F400A000A830A100A3319B239A3120002F08FA
:10360400860087010108A63181269A3120002F0AFD
:10361400860087010108A63181269A310D30A23136
:10362400EC229A310A30A231EC229A310230200085
:10363400B1003108CA00F8014A030319452B4608B2
:10364400B1003108A7001030A8000030A9004A30AA
:10365400B2003208AA003330A43197249A310230E0
:1036640020004A060319312B4A080319452B4A0343
:103674000319452B643078060319452B0130B1003A
:103684003108F8071E2B4A03031D08000130AF0060
:103694000030B000080020003808BE003908BF0020
:1036A4003A08C00003103F0D400DC1004108C2009C
:1036B4004208031D642B0030B8000030B90000300C
:1036C400BA0008003B08BE003C08BF003D08C0002B
:1036D40003103F0D400DC1004108C7004708031DFA
:1036E4007A2B0030B8000030B9000030BA0008006E
:1036F40047087B3EBE003E08C2073808BE003908B2
:10370400BF003A08C0001030C036BF0CBE0C890B95
:10371400862B3E08C1004108C7003B08BE003C0898
:10372400BF003D08C0001030C036BF0CBE0C890B72
:10373400962B3E08C1004108C7068030BE003E08F3
:10374400C705B917BC17FF30BB05FF30BC050030F7
:10375400BD050030C3000030C4000030C500073090
:10376400BE003E08C600381CBD2B3B08C3073C08FE
:10377400C43D3D08C53D0130BA36B90CB80C890BBF
:10378400BE2B0130BB35BC0DBD0D890BC42B0130E4
:10379400C602031DB52B0930BE003E08C600381C06
:1037A400D92B3B08C3073C08C43D3D08C53D013047
:1037B400BA36B90CB80C890BDA2B0130C536C40CF7
:1037C400C30C890BE02B0130C602031DD12B430827
:1037D400A0004408A1004508A2004208BE003E081B
:1037E400A3004708BF003F08A4009831BE20200072
:1037F4002008B8002108B9002208BA0008000030E7
:103804002000A3000030A2000330A100E830A00093
:103814003108A7003008A6002F08A5002E08A40030
:10382400A73156279C3120002308220421042004B8
:103834000319352C0030A3000030A2000330A1008E
:10384400E830A0003108A7003008A6002F08A50022
:103854002E08A400A73156279C3120002008303EB2
:10386400A231EC229C3100302000A3000030A200E1
:103874000330A100E830A0003108A7003008A600FA
:103884002F08A5002E08A400A631C1269C312000D3
:103894002308B1002208B0002108AF002008AE00C0
:1038A4000030A3000030A2000030A1006430A0006A
:1038B4003108A7003008A6002F08A5002E08A40090
:1038C400A73156279C3120002008303EA231EC223B
:1038D4009C3100302000A3000030A2000030A10081
:1038E4006430A0003108A7003008A6002F08A50006
:1038F4002E08A400A631C1269C3120002308B10063
:103904002208B0002108AF002008AE000030A30058
:103914000030A2000030A1000A30A0003108A70046
:103924003008A6002F08A5002E08A400A7315627AA
:103934009C3120002008303EA231EC229C31003022
:103944002000A3000030A2000030A1000A30A00033
:103954003108A7003008A6002F08A5002E08A400EF
:10396400A631C1269C3120002308B1002208B000F2
:103974002108AF002008AE002E08303EA231EC2210
:10398400080020004B08D1004C08D2004D08D30099
:103994000310520D530DD4005408D7004E08D10023
:1039A4004F08D2005008D3000310520D530DD40019
:1039B4005408D60057080319EB2C5608570203186D
:1039C400F22C5703FF3A5607D10019305102031C59
:1039D400F22C4E08CB004F08CC005008CD00080054
:1039E400560803190800570856020318012D5603F8
:1039F400FF3A5707D1001930510203180800063066
:103A0400D1005108D500CD1BD517D01B5517CC17A5
:103A1400FF30CB05FF30CC050030CD05CF17FF308C
:103A2400CE05FF30CF050030D005560857020318E5
:103A34003D2D0130CE35CF0DD00D890B1C2D01301D
:103A4400D602560857060319382D0130D5025508F9
:103A540007390319382D1B2D0130CD36CC0CCB0C76
:103A6400890B2F2D0130D1005108D707570856066E
:103A74000319622D2E2D570856020318622D0130AA
:103A8400CB35CC0DCD0D890B422D0130D702560814
:103A9400570603195E2D0130D5025508073903195D
:103AA4005E2D412D0130D036CF0CCE0C890B552D17
:103AB4000130D1005108D60757085606031D542D6E
:103AC400D51F742DFF30CB06FF30CC06FF30CD065A
:103AD4000130CB07003003180130CC070030031845
:103AE4000130CD07551F862DFF30CE06FF30CF069F
:103AF400FF30D0060130CE07003003180130CF0765
:103B0400003003180130D007D5014B08CE074C080C
:103B1400CF3D4D08D03DD01FA12DFF30CE06FF3044
:103B2400CF06FF30D0060130CE0700300318013035
:103B3400CF07003003180130D007D501D50A4E084D
:103B4400A0004F08A1005008A2005708D100510856
:103B5400A3005508D2005208A4009831BE202000CA
:103B64002008CB002108CC002208CD000800113425
:103B74000534063400340034003400340034003496
:103B84000034003400340034003400340034003491
:103B94000034003400340034003400340034003481
:103BA4000034003400340034003400340034003471
:103BB4000034003400340034003400340034003461
:103BC4000034003400340034003400340034003451
:103BD4000034003400340034003400340034003441
:103BE4000034003400340034003400340034003431
:103BF4000034003400340034003400340034003421
:103C04000034003400340034003400340034003410
:103C14000034003400340034003400340034003400
:103C240000340034003400340034003400340034F0
:103C340000340034003400340034003400340034E0
:103C44000034003400340034003438340034003498
:103C540000340034003400340034003400340034C0
:103C6400003400340034003400340034003411349F
:103C7400003423348034003470340034003400348D
:103C84000034003400340034003400340034003490
:103C94000034013408344634493454342034003474
:103CA4000034003400340034003400340034003470
:103CB4000034003400341F34003409343A343134CD
:103CC40030343034323439343734313431343034BC
:103CD400313420342034203420342034203431341E
:103CE4002034423468340734D0340034633402342A
:103CF4000034003400343534323438343634323419
:103D040030343734353430342034203420342034C3
:103D140020342034203431343534313430343134A7
:103D24003334203420340034003400342934003453
:103D340000340034003400340034003400340034DF
:103D440000340034003400340034003400340034CF
:103D540000340034003400340034003400340034BF
:103D640000340034003400340034003400340E30A5
:103D74002000A0000030A1002908AD002808AC00F4
:103D8400AC0EAD0EF030AD052C080F39AD04F0309B
:103D9400AC052C08A2002D08A300A531D6259E3120
:103DA40020002108B4002008B3003408B800330808
:103DB400B7002908BA002808B9000730A00000306D
:103DC400A1003A08A3003908A200A531D6259E31E6
:103DD400200039082007B7003A08213DB800073011
:103DE400A0000030A1003A08A3003908A200A531C0
:103DF40019259E3120002108B6002008B500370897
:103E0400003EA0003030383DA100A4310A249E3188
:103E140020002108BE002008BD003708013EA00094
:103E24003030383DA100A4310A249E3120002108FD
:103E3400C0002008BF00D02F03303F05AC00003085
:103E44004005AD000E30AC35AD0D890B252FFF308C
:103E54003D05AE003F303E05AF002C082E04BB00EC
:103E64002D082F04CE2F0F303F05AC000030400545
:103E7400AD002C0EF039AD00AC013E08AF003D089A
:103E8400AE00AF36AE0CAF36AE0CFF302E05B00030
:103E94000F30C72F3F303F05AC0000304005AD0068
:103EA4000A30AC35AD0D890B532F3E08AF003D08E9
:103EB400AE000430AF36AE0C890B5C2FFF302E05FC
:103EC400B0000330C72FFF303F05AC000030400581
:103ED400AD002C08AD00AC013E08B0003D08AF00B9
:103EE4000630B036AF0C890B732FFF302F05B100AD
:103EF40000303005B2002C083104BB002D08320418
:103F0400CE2FFF303F05AC0003304005AD00063036
:103F1400AC35AD0D890B8A2F3E08AF003D08AE00CD
:103F24002F08AE00AF013F30C42FFF303F05AC0077
:103F34000F304005AD00AC0EAD0EF030AD052C08D1
:103F44000F39AD04F030AC053E08AF003D08AE00BB
:103F54000A30AF36AE0C890BAB2F0F30C42FFF30B5
:103F64003F05AC003F304005AD00AC35AD0DAC3580
:103F7400AD0D3E08AF003D08AE002F0E0F39AE0068
:103F8400AF0103302E05B00000302F05B1002C081E
:103F94003004BB002D083104BC00DF2F3608003A82
:103FA4000319D52FDF2F35088400073004020318C6
:103FB400DF2FA0310435183E82003C08AD003B08D9
:103FC400AC002D08AC00AD01FF302C05AE00003074
:103FD4002D05AF00FF303B05B00000303C05B100BB
:103FE4003008B100B0012E083004BB002F083104A2
:103FF400BC003C08A9003B08A80008008C31162C22
:104004008C31452C8C319A2C8C31C72C8D31392D27
:104014008C31FD2C8D31122D8D31392D8D31192D91
:104024008D313D2D8C314D2C8C31702C9F311E2FB8
:104034009F31352F9F314C2F9F31652F9F31832F17
:104044009F31972F9F31B12F3412214334223432C0
:02405400080062
:1045AE00103027009A000800BA3022009700080049
:1045BE0000349F340D349834143498340310210091
:1045CE009D1C03140030093D08002000A000111EA0
:1045DE00EE2A200823009A0008002000A000111ED9
:1045EE00F62A200823009A00080021001C0820004B
:1045FE00A10021001B082000A0000800F5302100BA
:10460E009D00E0309E009F019B019C010800200050
:10461E004A0849044804031908008030CA060800F5
:10462E00083023009F0080309D0024309E008A3089
:10463E009B009C0108006400800101310130FE02E4
:10464E000030FF3B7F087E0403190034232BFE004D
:10465E0012001E000130FE020030FF3B7F087E0478
:10466E00031900342F2B2400940126309500960157
:10467E009701FE309300A03092002000911121008E
:10468E00911508000530F0007008FA07013022007D
:10469E00BC02031D582B0430F00070082100EF00FF
:1046AE0008002100EF01EF0A080061302000DD0054
:1046BE008430DE000130DF000030E0000E30E1001B
:1046CE000030E2000130E3000030E400A531742533
:1046DE00080020002808A0002908A100A2018E30A1
:1046EE00AB002B08A300A4019831BE2020002008A7
:1046FE00A8002108A9002208AA0008002000A10095
:10470E002108A000A00DA00D21001D0820002006EC
:10471E000339200621009D001D140D30890B952BA9
:10472E00000021009D14080020002108A40020088C
:10473E00A300230884002408850012000319080032
:10474E00111EA72B230884002408850000082300CF
:10475E009A0001302000A3070030A43DA02B473063
:10476E002000A00020082200A10047302000A00059
:10477E0020082200A000A2142210A40124009C01F3
:10478E0028309D009F011F309A00200092112100B9
:10479E009215080098316020A3318B312D23A3315F
:1047AE0098310020A331A3313A23A331A331B6238C
:1047BE00A331A231DB22A331A3310523A331A231D0
:1047CE00D722A331A33117230800F20024001E15AF
:1047DE007908023E86000130870016000104031995
:1047EE00072C7908023E860001308700403FF0001A
:1047FE00413FF10070088600710887007208810041
:10480E002100EF01080000308B1B01302000A200B8
:10481E008B132008310091002000210831009200F6
:10482E0015131514000000002000220C031C8B131E
:10483E0003188B17310014082000A1003100130853
:10484E002000A00008005530F5007508F600200085
:10485E00911124001108F5007508F600141D3E2C68
:10486E00941A161F3C2C0330472C0130472C941AF7
:10487E00422C0030472C7608F5007508FD000230FA
:10488E0099319C212400151608002000A60023084B
:10489E00A5002208A400A435A50D26088600013027
:1048AE0087002408C03F2508C13F2108A400260820
:1048BE00023E860001308700240881002608033E50
:1048CE008600013087002008C03F0030C13F08003D
:1048DE0022002218902C20002908A1002808A000F0
:1048EE002A08AE002E08A2002C08A4002B08A30054
:1048FE003D30A431C124A4313D302000AE002E083D
:10490E00A0002D08AF002F08A1000130A731A92764
:10491E00080020002D08860087018101810A080009
:10492E002000AD0022002218BA2C20002D08AB006A
:10493E002B08A0002708AC002C08A1002908A30012
:10494E002808A2004230A4314C24A4314230200069
:10495E00AB002B08A0002A08AC002C08A1000130E7
:10496E00A731A927080020002A08860087018101A7
:10497E00810A08002000A7002408A6002308A5002D
:10498E00A535A60D27088600013087002508C03FF3
:10499E002608C13F270886000130870001308104B8
:1049AE004131003081042208A5002708023E86000E
:1049BE0001308700250881002708033E860001305C
:1049CE0087002008C03F2108C13F0800220034089C
:1049DE002000D400220033082000D3002200320829
:1049EE002000D200220031082000D1004C08CF0058
:1049FE004F08D1004B08CF004F08D2004E08CF0011
:104A0E004F08D3004D08CF004F08D4005330CF00CD
:104A1E004F08AF000230D0005008B00051309A312C
:104A2E00A12208002000200821040319412DA50110
:104A3E00A50AA11B2C2D0130A035A10D890B232D0C
:104A4E000130A4002408A507202D21082302031DF0
:104A5E00322D20082202031C382D2008A202210824
:104A6E00A33B0130A136A00C890B392D0130A502D4
:104A7E00031D2C2D2308A1002208A00008002000F1
:104A8E00D00022002C082000D40022002B08200089
:104A9E00D30022002A082000D2002200290820007C
:104AAE00D1005008CE004E08D1004B08CE004E0863
:104ABE00D2004C08CE004E08D3004D08CE004E0852
:104ACE00D4005330CE004E08AF000230CF004F0856
:104ADE00B00051309A31A122080020005E08D300A8
:104AEE005D08D200A6310B26A53120005308E60042
:104AFE005208E5006608A1006508A0006008A30042
:104B0E005F08A2006208A5006108A4006408A7005F
:104B1E006308A600A531A425A53120002108E600D2
:104B2E002008E5005E08CC005D08CB006608CE00CC
:104B3E006508CD00A431ED24080001302000A80046
:104B4E000030A900260AAD2DA835A90D890BAB2D75
:104B5E002808FF3EAA00FF30293DAB002B08A90014
:104B6E002A08A800240ABD2DA835A90D890BBB2D36
:104B7E00A809A9092808A0052908A1052A082205BF
:104B8E00A8002B082305A900240ACF2DA835A90DAE
:104B9E00890BCD2D2808A0042908A10408002000A7
:104BAE00A501A601200821040319062EA701A70AB4
:104BBE00A11BEB2D0130A035A10D890BE22D01308B
:104BCE00A4002408A707DF2D0130A535A60D890BFB
:104BDE00EC2D21082302031DF62D20082202031CB2
:104BEE00FD2D2008A2022108A33B25140130A13679
:104BFE00A00C890BFE2D0130A702031DEB2D2608FC
:104C0E00A1002508A0000800220030082000DC00CA
:104C1E0022002F082000DB0022002E082000D800E2
:104C2E0022002D082000D7005308D4005408D700C6
:104C3E005208D4005408D8005B30D4005408CA007F
:104C4E000230D5005508CB00573099312321200072
:104C5E005B08D400D5015408D500D4015408D900FE
:104C6E005508DA005C085907D9005A0803185A0A81
:104C7E00DA005A08D3005908D20008002000D700E5
:104C8E00220028082000DD00220027082000DC007A
:104C9E00220026082000D900220025082000D80076
:104CAE005708D4005408D8005208D4005408D9002C
:104CBE005C30D4005408CA000230D5005508CB0031
:104CCE0058309931232120005C08D400D5015408B6
:104CDE00D500D4015408DA005508DB005D085A07E8
:104CEE00DA005B0803185B0ADB005B08D3005A0886
:104CFE00D20008002000AC001030A0000030A1004F
:104D0E002C08A900AA012908A2002A08A300A7318D
:104D1E000427A63120002008AB002B08AE002E0879
:104D2E00A9000330A935FF3E031D992E2935FF3A00
:104D3E00013E2C07AA002A08AD000A302E02031CE1
:104D4E00AB2E2E08373EAE2E20002E08303EA2315E
:104D5E00F422A6310A3020002D02031CBB2E2D0892
:104D6E00373EA231F422080020002D08303EA23139
:104D7E00F422080020002308220421042004031931
:104D8E00FB2EA901A90AA31BD82E0130A035A10D17
:104D9E00A20DA30D890BCD2E0130A8002808A9075E
:104DAE00CA2E23082702031DE62E22082602031D03
:104DBE00E62E21082502031DE62E20082402031CE0
:104DCE00F02E2008A4022108A53B2208A63B2308AA
:104DDE00A73B0130A336A20CA10CA00C890BF12E1F
:104DEE000130A902031DD82E2708A3002608A20011
:104DFE002508A1002408A00008002000A601A11F7C
:104E0E000F2FA009A109A00A0319A10AA601A60A3B
:104E1E00A31F1A2FA209A309A20A0319A30A01307C
:104E2E00A4002408A606A701A8012008210403193E
:104E3E00492FA501A50AA11B2E2F0130A035A10DCA
:104E4E00890B252F0130A4002408A507222F01303D
:104E5E00A735A80D890B2F2F21082302031D392FEB
:104E6E0020082202031C402F2008A2022108A33B87
:104E7E0027140130A136A00C890B412F0130A50259
:104E8E00031D2E2F26080319512FA709A809A70ABB
:104E9E000319A80A2808A1002708A000080000305E
:104EAE002000AC000030AB000030AA000030A9009A
:104EBE0023082204210420040319A02FAD01AD0AFA
:104ECE00A31B752F0130A035A10DA20DA30D890BCB
:104EDE006A2F0130A8002808AD07672F0130A935C9
:104EEE00AA0DAB0DAC0D890B762F23082702031DDF
:104EFE008A2F22082602031D8A2F21082502031D50
:104F0E008A2F20082402031C952F2008A4022108B2
:104F1E00A53B2208A63B2308A73B29140130A33644
:104F2E00A20CA10CA00C890B962F0130AD02031D13
:104F3E00752F2C08A3002B08A2002A08A10029080F
:104F4E00A00008002000A30022002218EB2F023040
:104F5E002000A20021088600870122088100200877
:104F6E00A2002200200A86000130870020002208BD
:104F7E0081002308A200220020088600013087004D
:104F8E0020002208810022002008023E8600013007
:104F9E00870020002108C03F0030C13F0430A2002E
:104FAE0022082200A00720084B3A031DE42F4730A9
:104FBE002000A20022082200A000A2102108200634
:104FCE00031DF12F2214F12F2000210886008701E6
:104FDE008101810A20002108860087010230010626
:104FEE00031D080021006F08031DF92F20009215E4
:104FFE00080054346834693473342034693473349B
:10500E002034613420346E34653477342034743473
:10501E006534733474342C3420346E346F347734F6
:10502E002034723465347334653474342034473428
:10503E004534203466346934723473347434203415
:10504E000D340A34003463346834653463346B349D
:10505E00733475346D3420346534723472346F3475
:10506E00723421342C34203474346F3474346134FB
:10507E006C3420346534723472346F3472342034AC
:10508E0020343D3420340034523465347334653466
:10509E007434203464346F346E34653421342034E7
:1050AE006E346F34773420346C346F34613464343E
:1050BE00203466347734203474346F3420344734DB
:1050CE0045340D340A340034633468346534633443
:1050DE006B3420347434683465342034723465345F
:1050EE00733475346C3474343A340D340A340034F9
:1050FE0065346E3474346534723450346F346934BC
:10510E006E3474343A34003473347434613472341B
:10511E00743441346434643472343A340034633455
:10512E006834653463346B34733475346D342034C1
:10513E003D3400346D34643469346F344434613436
:10514E00743461343D340034723461346D3441341E
:10515E006434643472343D3400346C3465346E34EB
:10516E003A340034523464342034003457347234B8
:0A517E00203400343D343D34003489
:020000040001F9
:08000E008CFF33FFFFFFFFFF31
:00000001FF
