:1000000080312E28080055347E14803120007F086E
:10001000F7000B1F14282100911D14282000911DAA
:100020001428A731642780310B1F1F282100121DBF
:100030001F282000121D1F288031022080310B1F35
:1000400029282100921D29282000921D29288E315F
:10005000B72677082000FF007E1009008031302885
:10006000B73084008D308500F03086002630870060
:100070000130FF000030A631AD26803180310320F1
:100080008031FD0056308400A6308500D5308600D2
:10009000003087000030FF000630A631AD268031E9
:1000A000F801F901FA01FB01FC01EB01EC01ED01A2
:1000B000EE01EF01A0308400003085002630FE0004
:1000C0000030FF00A631A1267E1020009431212CA3
:1000D0002000E9070030EA3D6A08803AE7008030F6
:1000E0006702083003196902031CF52F2000E9019B
:1000F000EA016A08803AE700803067020830031995
:1001000069020318AA2820006908E800E7016708C7
:10011000003EDD008030683DDE000530DF000D3040
:10012000E0000030E100E2000E30E3000030E400C7
:1001300098317020803101302000E9070030EA3D1D
:100140006A08803AE70080306702083003196902C4
:10015000031C83282000E901EA016A08803AE700CD
:10016000803067020830031969020318DE28200076
:100170006908E800E7016708073EDD008030683D58
:10018000DE007A30DF000D30E0000030E100E200F8
:100190000E30E3000030E4009831702080310130EF
:1001A0002000E9070030EA3D6A08803AE700803025
:1001B0006702083003196902031CB7282000E9010F
:1001C000EA016A08803AE7008030670208300319C4
:1001D00069020318122920006908E800E70167088E
:1001E000833EDD008030683DDE000530DF000E30EC
:1001F000E0000030E100E2000E30E3000030E400F7
:1002000098317020803101302000E9070030EA3D4C
:100210006A08803AE70080306702083003196902F3
:10022000031CEB282000E901EA016A08803AE70094
:10023000803067020830031969020318462920003C
:100240006908E800E7016708843EDD008030683D0A
:10025000DE007A30DF000F30E0000030E100E20025
:100260000E30E3000030E40098317020803101301E
:100270002000E9070030EA3D6A08803AE700803054
:100280006702083003196902031C1F292000E901D5
:10029000EA016A08803AE7008030670208300319F3
:1002A000690203187A2920006908E800E701670855
:1002B000853EDD008030683DDE000530DF000F3018
:1002C000E0000030E100E2000E30E3000030E40026
:1002D00098317020803101302000E9070030EA3D7C
:1002E0006A08803AE7008030670208300319690223
:1002F000031C53292000E901EA016A08803AE7005B
:10030000803067020830031969020318AE29200003
:100310006908E800E7016708863EDD008030683D37
:10032000DE000530DF000F30E0000030E100E200C9
:100330000E30E3000030E40098317020803101304D
:100340002000E9070030EA3D6A08803AE700803083
:100350006702083003196902031C87292000E9019C
:10036000EA016A08803AE700803067020830031922
:1003700069020318E22920006908E800E70167081C
:10038000873EDD008030683DDE000A30DF000D3042
:10039000E0000030E100E2000E30E3000030E40055
:1003A00098317020803101302000E9070030EA3DAB
:1003B0006A08803AE7008030670208300319690252
:1003C000031CBB292000E901EA016A08803AE70022
:1003D000803067020830031969020318162A2000CA
:1003E0006908E800E7016708883EDD008030683D65
:1003F000DE007530DF000D30E0000030E100E2008B
:100400000E30E3000030E40098317020803101307C
:100410002000E9070030EA3D6A08803AE7008030B2
:100420006702083003196902031CEF292000E90163
:10043000EA016A08803AE700803067020830031951
:1004400069020318492A20006908E800E7016708E3
:100450004D3EDD008030683DDE000030DF00E00012
:100460000030E100E2000B30E3000030E40098319E
:100470007020803101302000E9070030EA3D6A0831
:10048000803AE70080306702083003196902031CD4
:10049000232A2000E901EA016A08803AE700803057
:1004A000670208300319690203187C2A20006908D2
:1004B000E800E70167084E3EDD008030683DDE0061
:1004C0000030DF00E0000030E100E2000B30E3002C
:1004D0000030E40098317020803101302000E907BD
:1004E0000030EA3D6A08803AE70080306702083051
:1004F00003196902031C562A2000E901EA016A086F
:10050000803AE70080306702083003196902031857
:10051000AF2A20006908E800E7016708813EDD0096
:100520008030683DDE000030DF00E0000030E10098
:10053000E2000B30E3000030E4009831702080319D
:1005400001302000E9070030EA3D6A08803AE70000
:1005500080306702083003196902031C892A2000D1
:10056000E901EA016A08803AE70080306702083052
:10057000031969020318E22A20006908E800E7016C
:100580006708823EDD008030683DDE000030DF001D
:10059000E0000030E100E2000B30E3000030E40056
:1005A00098317020803101302000E9070030EA3DA9
:1005B0006A08803AE7008030670208300319690250
:1005C000031CBC2A2000E901EA016A08803AE7001E
:1005D000803067020830031969020318172B2000C6
:1005E0006908E800E7016708753EDD008030683D76
:1005F000DE000630DF000030E0000830E1000030AF
:10060000E2000630E3000030E400983170208031D1
:1006100001302000E9070030EA3D6A08803AE7002F
:1006200080306702083003196902031CEF2A20009A
:10063000E901EA016A08803AE70080306702083081
:100640000319690203184C2B20006908E800E70130
:100650006708793EDD008030683DDE000630DF004F
:100660000030E0000830E1000030E2000630E30036
:100670000030E40098317020803101302000E9071B
:100680000030EA3D6A08803AE700803067020830AF
:1006900003196902031C242B2000E901EA016A08FE
:1006A000803AE700803067020830031969020318B6
:1006B000812B20006908E800E7016708793EDD002A
:1006C0008030683DDE000130DF000030E0000F3098
:1006D000E1000030E2000130E3000030E400983136
:1006E0007020803101302000E9070030EA3D6A08BF
:1006F000803AE70080306702083003196902031C62
:10070000592B2000E901EA016A08803AE7008030AD
:1007100067020830031969020318B62B2000690824
:10072000E800E7016708793EDD008030683DDE00C3
:100730000130DF000030E0000F30E1000030E20067
:100740000130E3000030E400983170208031013046
:100750002000E9070030EA3D6A08803AE70080306F
:100760006702083003196902031C8E2B2000E9017F
:10077000EA016A08803AE70080306702083003190E
:1007800069020318E32B20006908E800E701670805
:10079000FE3ECB008030683DCC00A830CD00293033
:1007A000CE0098311620803101302000E90700305A
:1007B000EA3D6A08803AE700803067020830031992
:1007C0006902031CC32B2000E901EA016A08803A90
:1007D000E700803067020830031969020318102C03
:1007E00020006908E800E7016708FD3ECB00803083
:1007F000683DCC004430CD003230CE009831162018
:10080000803101302000E9070030EA3D6A08803A73
:10081000E70080306702083003196902031CF02BDF
:100820002000E901EA016A08803AE70080306702A7
:1008300008300319690203183D2C20006908E800FC
:10084000E7016708FC3ECB008030683DCC003630C5
:10085000CD005230CE00983116208031013020007A
:10086000E9070030EA3D6A08803AE7008030670215
:10087000083003196902031C1D2C2000E901EA015C
:100880006A08803AE700803067020830031969027D
:1008900003186A2C20006908E800E7016708F83EA1
:1008A000CB008030683DCC007830CD00B730CE0032
:1008B00098311620803101302000E9070030EA3DF0
:1008C0006A08803AE700803067020830031969023D
:1008D000031C4A2C2000E901EA016A08803AE7007B
:1008E000803067020830031969020318972C200032
:1008F0006908E800E7016708F53ECB008030683DF5
:10090000CC00E030CD006130CE009831162080312F
:1009100001302000E9070030EA3D6A08803AE7002C
:1009200080306702083003196902031C772C20000D
:10093000E901EA016A08803AE7008030670208307E
:10094000031969020318C42C20006908E800E701B4
:100950006708F13ECB008030683DCC000030CD0010
:100960007030CE0098311620803101302000E90728
:100970000030EA3D6A08803AE700803067020830BC
:1009800003196902031CA42C2000E901EA016A088A
:10099000803AE700803067020830031969020318C3
:1009A000F92C20006908E800E7016708F93EDD003E
:1009B0008030683DDE002D30DF000030E000013087
:1009C000E1000030E2000630E3000030E40098313E
:1009D0007020803101302000E9070030EA3D6A08CC
:1009E000803AE70080306702083003196902031C6F
:1009F000D12C2000E901EA016A08803AE700803042
:100A0000670208300319690203182D2D20006908B8
:100A1000E800E7016708033EDD008030683DDE0046
:100A20000030DF00E0000930E1000030E20001307A
:100A3000E3000030E4009831702080310130200064
:100A4000E9070030EA3D6A08803AE7008030670233
:100A5000083003196902031C062D2000E901EA0190
:100A60006A08803AE700803067020830031969029B
:100A70000318612D20006908E800E7016708503E6F
:100A8000DD008030683DDE004030DF000030E000F7
:100A90000030E100E2000C30E3000030E400983167
:100AA0007020803101302000E9070030EA3D6A08FB
:100AB000803AE70080306702083003196902031C9E
:100AC0003A2D2000E901EA016A08803AE700803007
:100AD00067020830031969020318962D200069087F
:100AE000E800E7016708053EDD008030683DDE0074
:100AF0000A30DF000030E0000C30E1000030E2009E
:100B00000430E3000030E40098317020803101307F
:100B10002000E9070030EA3D6A08803AE7008030AB
:100B20006702083003196902031C6E2D2000E901D9
:100B3000EA016A08803AE70080306702083003194A
:100B400069020318CA2D20006908E800E701670858
:100B5000013EDD008030683DDE000030DF00E00057
:100B60000F30E1000030E2000130E3000030E4002B
:100B700098317020803101302000E9070030EA3DD3
:100B80006A08803AE700803067020830031969027A
:100B9000031CA32D2000E901EA016A08803AE7005E
:100BA000803067020830031969020318FF2D200006
:100BB0006908E800E7016708033EDD008030683D12
:100BC000DE000230DF000030E0000C30E1000030D9
:100BD000E2000430E3000030E400983170208031FE
:100BE00001302000E9070030EA3D6A08803AE7005A
:100BF00080306702083003196902031CD72D2000DA
:100C0000E901EA016A08803AE700803067020830AB
:100C1000031969020318342E20006908E800E7016F
:100C20006708063EDD008030683DDE000A30DF00E8
:100C30000030E0000C30E1000030E2000430E3005E
:100C40000030E40098317020803101302000E90745
:100C50000030EA3D6A08803AE700803067020830D9
:100C600003196902031C0C2E2000E901EA016A083D
:100C7000803AE700803067020830031969020318E0
:100C8000692E20006908E800E7016708083EDD00DA
:100C90008030683DDE000A30DF000030E0000830C0
:100CA000E1000030E2000430E3000030E40098315D
:100CB0007020803101302000E9070030EA3D6A08E9
:100CC000803AE70080306702083003196902031C8C
:100CD000412E2000E901EA016A08803AE7008030ED
:100CE000670208300319690203189E2E2000690864
:100CF000E800E7016708A03EDD008030683DDE00C7
:100D00000130DF000030E0000730E1000030E20099
:100D10000130E3000030E400983170208031013070
:100D20002000E9070030EA3D6A08803AE700803099
:100D30006702083003196902031C762E2000E901BE
:100D4000EA016A08803AE700803067020830031938
:100D500069020318D22E20006908E800E70167083D
:100D6000613EDD008030683DDE000030DF00E000E5
:100D70000830E1000030E2000130E3000030E40020
:100D800098317020803101302000E9070030EA3DC1
:100D90006A08803AE7008030670208300319690268
:100DA000031CAB2E2000E901EA016A08803AE70043
:100DB000803067020830031969020318072F2000EA
:100DC0006908E800E7016708823EDD008030683D81
:100DD000DE000D30DF000030E0000C30E1000030BC
:100DE000E2000430E3000030E400983170208031EC
:100DF00001302000E9070030EA3D6A08803AE70048
:100E000080306702083003196902031CDF2E2000BE
:100E1000E901EA016A08803AE70080306702083099
:100E20000319690203183B2F20006908E800E70155
:100E30006708793EDD008030683DDE005030DF001D
:100E40000030E0000030E100E2000630E300003056
:100E5000E40098317020803101302000E907003033
:100E6000EA3D6A08803AE7008030670208300319DB
:100E70006902031C142F2000E901EA016A08803A84
:100E8000E700803067020830031969020318702FE9
:100E900020006908E800E7016708FE3EDD008030B9
:100EA000683DDE000430DF000030E0000430E10087
:100EB0000030E2000330E3000030E400983170209D
:100EC000803101302000E9070030EA3D6A08803AAD
:100ED000E70080306702083003196902031C482FBD
:100EE0002000E901EA016A08803AE70080306702E1
:100EF0000830031969020318A52F20006908E800CB
:100F0000E7016708083EDD008030683DDE000530FF
:100F1000DF000030E0000C30E1000030E20004307F
:100F2000E3000030E400983170208031013020006F
:100F3000E9070030EA3D6A08803AE700803067023E
:100F4000083003196902031C7D2F2000E901EA0122
:100F50006A08803AE70080306702083003196902A6
:100F60000318DA2F20006908E800E7016708873EC8
:100F7000DD008030683DDE000330DF000030E0003F
:100F80000E30E1000030E2000230E3000030E40007
:100F900098317020803101302000E9070030EA3DAF
:100FA0006A08803AE7008030670208300319690256
:100FB000031CB22F0D302000CB009830CC007730CE
:100FC000CD000730CE009831162080310D30200042
:100FD000CB009830CC000030CD00CE0098311620E8
:100FE00008009D31252D9131B6299F31E32F993489
:100FF0000034FD34E034993401342134043499341C
:101000000234933410348034FE34A534A834803450
:10101000FD34363444348034F734A23446348034DA
:10102000F5346134E0348134FE34A534A83481349D
:10103000FD34363444348134F734A23446348134B8
:10104000F5346134E0348234FE34A534A83482347B
:10105000FD34363444348234F734A2344634823496
:10106000F5346134E0348334FE34A534A834833459
:10107000FD34363444348334F734A2344634833474
:10108000F5346134E0348434FE34A534A834843437
:10109000FD34363444348434F734A2344634843452
:1010A000F5346134E0348534FE34A534A834853415
:1010B000FD34363444348534F734A2344634853430
:1010C000F5346134E0348634FE34A534A8348634F3
:1010D000FD34363444348634F734A234463486340E
:1010E000F5346134E0348734FE34A534A8348734D1
:1010F000FD34363444348734F734A23446348734EC
:10110000F5346134E0340034073400342A34803458
:1011100000344D340534803407344D347A3481340E
:1011200000344D340534813407344D347A348234FC
:1011300000344D340534823407344D347A348334EA
:1011400000344D340534833407344D347A348434D8
:1011500000344D340534843407344D347A348534C6
:1011600000344D340534853407344D347A348634B4
:1011700000344D340534863407344D347A348734A2
:1011800000344D340534873407344D347A34803498
:10119000F834B73478348134F834B734783482345E
:1011A000F834B73478348334F834B734783484344A
:1011B000F834B73478348534F834B7347834863436
:1011C000F834B73478348734F834B734783480342A
:1011D000A734143400348134A734143400348234F6
:1011E000A734143400348334A734143400348434E2
:1011F000A734143400348534A734143400348634CE
:10120000A734143400348734A734143400348034C1
:10121000A8343C3400348134A8343C340034823463
:10122000A8343C3400348334A8343C34003484344F
:10123000A834003400348534A834003400348634B3
:10124000A834003400348734A8343C340034843467
:10125000A6343C3400348534A6343C34003486341F
:10126000A6343C3400348734A6343C340034703423
:101270000634123454347134063412345434723413
:1012800006341234543473340634123454347434FF
:1012900006341234543475340634123454347634EB
:1012A00006341234543477340634123454347034DF
:1012B00009343A349034713409343A349034723405
:1012C00009343A349034733409343A3490347434F1
:1012D00009343A349034753409343A3490347634DD
:1012E00009343A349034773409343A3490347034D1
:1012F0001934003404347134193400340434723431
:10130000193400340434733419340034043474341C
:101310001934003404347534193400340434763408
:1013200019340034043477341934003404347034FC
:10133000083407348034713408340734803472340C
:1013400008340734803473340834073480347434F8
:1013500008340734803475340834073480347634E4
:1013600008340734803477340834073480348034C8
:101370008134303400348134813430340034823468
:101380008134303400348334813430340034843454
:101390008134303400348534813430340034863440
:1013A0008134303400348734813430340034803434
:1013B000793488346C348134793488346C348234B0
:1013C000793488346C348334793488346C3484349C
:1013D000793488346C348534793488346C34863488
:1013E000793488346C348734793488346C3480347C
:1013F00084348D347A34803485344D347A34803476
:101400008634CD347A3480348734CD347A348034A1
:1014100088344D347A34813484348D347A34813450
:1014200085344D347A3481348634CD347A34813401
:101430008734CD347A34813488344D347A348234EC
:1014400084348D347A34823485344D347A34823421
:101450008634CD347A3482348734CD347A3482344D
:1014600088344D347A34833484348D347A348334FC
:1014700085344D347A3483348634CD347A348334AD
:101480008734CD347A34833488344D347A34843498
:1014900084348D347A34843485344D347A348434CD
:1014A0008634CD347A3484348734CD347A348434F9
:1014B00088344D347A34853484348D347A348534A8
:1014C00085344D347A3485348634CD347A34853459
:1014D0008734CD347A34853488344D347A34863444
:1014E00084348D347A34863485344D347A34863479
:1014F0008634CD347A3486348734CD347A348634A5
:1015000088344D347A34873484348D347A34873453
:1015100085344D347A3487348634CD347A34873404
:101520008734CD347A34873488344D347A34703407
:1015300019340034053471341934003405347234EC
:1015400019340034053473341934003405347434D8
:1015500019340034053475341934003405347634C4
:1015600019340034053477341934003405347034B8
:1015700016348134C034713416348134C03472343A
:1015800016348134C034733416348134C034743426
:1015900016348134C034753416348134C034763412
:1015A00016348134C034773416348134C0348034F6
:1015B0004D348034003481344D34803400348234EE
:1015C0004D348034003483344D34803400348434DA
:1015D0004D348034003485344D34803400348634C6
:1015E0004D348034003487344D34803400348034BA
:1015F0004E343834003481344E343834003482343C
:101600004E343834003483344E3438340034843427
:101610004E341034003485344E3410340034863463
:101620004E341034003487344E3410340034803457
:1016300061343C3420348134613434342034823495
:10164000613434342034833461343C342034843481
:1016500061343C342034853461343434203486346D
:101660006134343420348734613434342034803469
:10167000A034003480348134A03400348034823487
:10168000A034003480348334A034003400348434F3
:10169000A034003400348534A034003480348634DF
:1016A000A034003480348734A03400348034703463
:1016B00008340C340034713408340C34003472347F
:1016C00008340C340034733408340C34003474346B
:1016D00008340C340034753408340C340034763457
:1016E00008340C340034773408340C34003480343B
:1016F00001344234013481340134423401348234BF
:1017000001344234013483340134423401348434AA
:101710000134423401348534013442340134863496
:10172000013442340134873401344234013480348A
:10173000FB34773436348134FB34773436348234B6
:10174000FB34773436348334FB34773436348434A2
:10175000FB34773436348534FB347734363486348E
:10176000FB34773436348734FB3477343634803482
:10177000F0346734B4348134F0346734B4348234B0
:10178000F0346734B4348334F0346734B43484349C
:10179000F0346734B4348534F0346734B434863488
:1017A000F0346734B4348734F0346734B43480347C
:1017B000EF34B634A0348134EF34B634A0348234FC
:1017C000EF34B634A0348334EF34B634A0348434E8
:1017D000EF34B634A0348534EF34B634A0348634D4
:1017E000EF34B634A0348734EF34B634A0347034D8
:1017F0001A34FF34003471341A34FF340034723434
:101800001A34FF34003473341A34FF340034803413
:10181000F9348B34DA348134F9348B34DA34823469
:10182000F9348B34DA348334F9348B34DA34843455
:10183000F9348B34DA348534F9348B34DA34863441
:10184000F9348B34DA348734F9348B34DA34803435
:10185000DF34003466348134DF340034663482345B
:10186000DF34003466348334DF3400346634843447
:10187000DF34003466348534DF3400346634863433
:10188000DF34003466348734DF3400346634803427
:10189000F134B03400348134F134B0340034823463
:1018A000F134B03400348334F134B034003484344F
:1018B000F134B03400348534F134B034003486343B
:1018C000F134B03400348734F134B034003480342F
:1018D000FF34FD34C0348134FF34FD34C0348234ED
:1018E000FF34FD34C0348334FF34FD34C0348434D9
:1018F000FF34FD34C0348534FF34FD34C0348634C5
:10190000FF34FD34C0348734FF34FD34C0345434E4
:101910006834693473342034693473342034613466
:1019200020346E3465347734203474346534733441
:1019300074342C3420346E346F3477342034723461
:10194000653473346534743420344734453420347A
:101950006634693472347334743420340D340A3488
:101960000034523465347334653474342034643450
:101970006F346E346534213420346E346F347734F0
:1019800020346C346F3461346434203466347734FA
:10199000203474346F342034473445340D340A34E1
:1019A00000345234643420340034573472342034D8
:0819B00000343D343D340034E5
:1019BA009B310C238C31A63173268C319031022055
:1019CA008C31A73129278C31A63152268C31A63188
:1019DA0084268C31A6314E268C31A63196260800F3
:1019EA0000302000A3000030A2000330A100E8303C
:1019FA00A0003108A7003008A6002F08A5002E086D
:101A0A00A4009A31B9228C3120002308220421042F
:101A1A0020040319292D0030A3000030A20003304E
:101A2A00A100E830A0003108A7003008A6002F085E
:101A3A00A5002E08A4009A31B9228C312000200872
:101A4A00303EA63163268C3100302000A3000030DE
:101A5A00A2000330A100E830A0003108A700300836
:101A6A00A6002F08A5002E08A400993188218C31E0
:101A7A0020002308B1002208B0002108AF00200886
:101A8A00AE000030A3000030A2000030A100643094
:101A9A00A0003108A7003008A6002F08A5002E08CC
:101AAA00A4009A31B9228C3120002008303EA63198
:101ABA0063268C3100302000A3000030A2000030E1
:101ACA00A1006430A0003108A7003008A6002F0842
:101ADA00A5002E08A400993188218C312000230802
:101AEA00B1002208B0002108AF002008AE00003083
:101AFA00A3000030A2000030A1000A30A000310883
:101B0A00A7003008A6002F08A5002E08A4009A31C5
:101B1A00B9228C3120002008303EA63163268C3150
:101B2A0000302000A3000030A2000030A1000A30DB
:101B3A00A0003108A7003008A6002F08A5002E082B
:101B4A00A400993188218C3120002308B100220891
:101B5A00B0002108AF002008AE002E08303EA631A2
:101B6A006326080011340534063400340034003486
:101B7A0000340034003400340034003400340034BB
:101B8A0000340034003400340034003400340034AB
:101B9A00003400340034003400340034003400349B
:101BAA00003400340034003400340034003400348B
:101BBA00003400340034003400340034003400347B
:101BCA00003400340034003400340034003400346B
:101BDA00003400340034003400340034003400345B
:101BEA00003400340034003400340034003400344B
:101BFA00003400340034003400340034003400343B
:101C0A00003400340034003400340034003400342A
:101C1A00003400340034003400340034003400341A
:101C2A00003400340034003400340034003400340A
:101C3A0000340034003400340034003400340034FA
:101C4A0038340034003400340034003400340034B2
:101C5A0000340034003400340034003400340034DA
:101C6A00003400341134003423348834003470349E
:101C7A0000340034003400340034003400340034BA
:101C8A0000340034003400340134A0344D346F344D
:101C9A006C3465347834203449346E3463342E34E9
:101CAA002034203420342034203420341F340034AB
:101CBA0009343A3431343034303432343934373404
:101CCA003134313430343134203420342034203427
:101CDA0020342034313420340034003400340034C9
:101CEA00003463340B340034003400343534323475
:101CFA0038343634323430343734353430342034AE
:101D0A002034203420342034203420343134353403
:101D1A003134303431343334203420340034003414
:101D2A0000342934003400340034003400340034E0
:101D3A0000340034003400340034003400340034F9
:101D4A0000340034003400340034003400340034E9
:101D5A0000340034003400340034003400340034D9
:101D6A00003400342000921124009D1FF42F9D138B
:101D7A002000EE017908023E8600870101088600EC
:101D8A0087018101810AF90108002100A2180800CF
:101D9A002108F2007208F90021088600870101086B
:101DAA00F2007208F800210886008701413FFA0014
:101DBA000330F2007208A1072108C63A031DE92E72
:101DCA00C330F2007208A10022102108200603196C
:101DDA00A21424001E140230F20072082000EE0041
:101DEA00080024009E140230F20072082000EE005F
:101DFA00080024001E1F0A2F0130F2007208210079
:101E0A00A4070430A631F62608007C08F3007B08F4
:101E1A00F200F336F20C7208240099007B1C1B2F87
:101E2A000B30F20072082000EE0008000330F200C6
:101E3A0072082000EE00080024001E1F2D2F01301A
:101E4A00F20072082100A4070430A631F626080021
:101E5A009E147C08F3007B08F2007308F200F30179
:101E6A0006307205F40000307305F500F030740492
:101E7A00FB0000307504FC007B142000EC01EC0A26
:101E8A000230F2007208EE0008006C030319632F97
:101E9A007A0886008701403FFB00413FFC007A0830
:101EAA00033E86008701403F2100B700413FB8004A
:101EBA007A0886008701423F2000ED007B08240053
:101ECA0099007B1C6E2F0530F20072082000EE008C
:101EDA0008000330F20072082000EE000800240017
:101EEA001E1F822F0130F20072082100A40724006D
:101EFA001E130530A631F626080001302000ED0237
:101F0A006D0A031D9C2F0530F2007208FA07013092
:101F1A00F802031D942F0030A631F626080024008B
:101F2A009E140230F20072082000EE000800210020
:101F3A003708860038088700010824009900013014
:101F4A002100B7070030B83D080024001E1FB82F33
:101F5A000130F20072082100A4070430A631F626E7
:101F6A0024001E1308009E150830F2007208200093
:101F7A00EE0008000830F2007208EE0024009E15F8
:101F8A00080021003708860038088700240019084D
:101F9A00810001302100B7070030B83D0130200030
:101FAA00ED020319E02F24009E120630F200720897
:101FBA002000EE00E42F24009E16A631B926240044
:101FCA001E1608000030A631F62608000130F2007D
:101FDA0072082100A4070630A631F6260800200060
:101FEA006E0884000C3004020318EB2FA03104356C
:061FFA00003E8200080019
:10200400240094012630950096019701FE30930038
:10201400A0309200200091112100911508002000A9
:10202400230803191A28220821042004031D2B283D
:102034000030A0000030A1000030A20008000130F0
:10204400A5002508A3070130A236A10CA00C890B1A
:102054002628FE3022050319442821280130A50032
:102064002508A3070130A007003003180130A10799
:10207400003003180130A2070130A236A10CA00CD5
:10208400890B3F28FF3022050319512830280130DD
:10209400A3020130A035A10DA20D890B4C28A11B70
:1020A4005728023023020318492823185F28FF30D9
:1020B400A0057F30A105FF30A2050310A30C23085F
:1020C400A500A601A7011030A535A60DA70D890B03
:1020D40066282508A0042608A1042708A2042408C9
:1020E40003190800A217080020002B08AE002C08D2
:1020F400AF002D08B00003102F0D300DB1003108D2
:10210400B6003608031D8D280030A8000030A90051
:102114000030AA0008002808AE002908AF002A08E9
:10212400B00003102F0D300DB1003108B70037088F
:10213400031DA3280030A8000030A9000030AA0025
:1021440008000030B3000030B4000030B50089301E
:102154003707AE002E08B6022B08AE002C08AF00DD
:102164002D08B0001030B036AF0CAE0C890BB5287A
:102174002E08B1003108B7002808AE002908AF00C6
:102184002A08B0001030B036AF0CAE0C890BC5284D
:102194002E08B1003108B7068030AE002E08B7050E
:1021A400AC17FF30AB05FF30AC050030AD05A91707
:1021B400FF30A805FF30A9050030AA051830AE008D
:1021C4002E08B2000130B335B40DB50D890BE528E6
:1021D4002A082D02031DF42829082C02031DF428C3
:1021E40028082B02031CFD282808AB022908AC3B55
:1021F4002A08AD3B33140130AB35AC0DAD0D890B62
:10220400FE280130B202031DE4283308A00034087C
:10221400A1003508A2003608AE002E08A300370836
:10222400AF002F08A4009031112020002008A8003E
:102234002108A9002208AA0008002000E9070030AC
:10224400EA3D6A08803AE7008030670208300319E3
:102254006902031CC9292000E901EA016A08803ADD
:10226400E7008030670208300319690203187B29EC
:1022740020006908E800E7016708643EDD0080305B
:10228400683DDE000130DF000030E0000F30E10087
:102294000030E2000130E3000030E40098317020A7
:1022A400913120006908E800E7016708643EDD0019
:1022B4008030683DDE000130DF000030E000073090
:1022C400E1000030E2000130E3000030E400983126
:1022D4007020913101302000E9070030EA3D6A089E
:1022E400803AE70080306702083003196902031C52
:1022F4003A292000E901EA016A08803AE7008030BF
:1023040067020830031969020318A8292000690824
:10231400E800E7016708763ECB008030683DCC00DA
:102324008430CD000030CE00983116209131013038
:102334002000E9070030EA3D6A08803AE70080306F
:102344006702083003196902031C88292000E90187
:10235400EA016A08803AE70080306702083003190E
:1023640069029F310318772F20006908E800E7010C
:102374006708773ECB008030683DCC008230CD00CA
:102384001830CE009831162001309F31692F8731E3
:10239400F12F2000C900C701C8014808803AB100E4
:1023A40080303102031DD829300847020318EE2972
:1023B400200047084907B100310886008701010859
:1023C400B2004708333E860087013208810001309D
:1023D400C7070030C83DCF2920002F088600870199
:1023E4000108B1003008333E8600870131088100BE
:1023F4002F0A860087010108B1003008013E333EF0
:1024040086008701310881003008023EB10031089E
:10241400C600D530A0008C30A100A7310E27913121
:10242400200049088600870101089931482191312B
:102434002000490A86008701010899314821913119
:10244400D3302000A0008C30A100A7310E27913199
:1024540020002F0886008701010899314821913115
:1024640020002F0A86008701010899314821913103
:102474000D30A631632691310A30A631632691319D
:1024840002302000B1003108CA00EF014A030319E9
:102494006F2A4608B1003108A7001030A8000030A8
:1024A400A9004A30B2003208AA003330A731D62737
:1024B4009131023020004A0603195B2A4A080319A5
:1024C4006F2A4A0303196F2A64306F0603196F2AAF
:1024D4000130B1003108EF07482A4A03031D080000
:1024E4000130AF000030B000080020003808BE0002
:1024F4003908BF003A08C00003103F0D400DC10069
:102504004108C2004208031D8E2A0030B800003082
:10251400B9000030BA0008003B08BE003C08BF0008
:102524003D08C00003103F0D400DC1004108C70025
:102534004708031DA42A0030B8000030B900003059
:10254400BA00080047087B3EBE003E08C2073808B0
:10255400BE003908BF003A08C0001030C036BF0CB6
:10256400BE0C890BB02A3E08C1004108C7003B08D5
:10257400BE003C08BF003D08C0001030C036BF0C90
:10258400BE0C890BC02A3E08C1004108C706803032
:10259400BE003E08C705B917BC17FF30BB05FF30A6
:1025A400BC050030BD050030C3000030C40000305D
:1025B400C5000730BE003E08C600381CE72A3B08A9
:1025C400C3073C08C43D3D08C53D0130BA36B90CCB
:1025D400B80C890BE82A0130BB35BC0DBD0D890B45
:1025E400EE2A0130C602031DDF2A0930BE003E0870
:1025F400C600381C032B3B08C3073C08C43D3D08F8
:10260400C53D0130BA36B90CB80C890B042B013026
:10261400C536C40CC30C890B0A2B0130C602031D3A
:10262400FB2A4308A0004408A1004508A200420870
:10263400BE003E08A3004708BF003F08A400903135
:10264400112020002008B8002108B9002208BA008F
:10265400080020004B08D1004C08D2004D08D300DC
:102664000310520D530DD4005408D7004E08D10066
:102674004F08D2005008D3000310520D530DD4005C
:102684005408D60057080319532B56085702031849
:102694005A2B5703FF3A5607D10019305102031C35
:1026A4005A2B4E08CB004F08CC005008CD00080030
:1026B400560803190800570856020318692B5603D5
:1026C400FF3A5707D10019305102031808000630A9
:1026D400D1005108D500CD1BD517D01B5517CC17E9
:1026E400FF30CB05FF30CC050030CD05CF17FF30D0
:1026F400CE05FF30CF050030D00556085702031829
:10270400A52B0130CE35CF0DD00D890B842B013094
:10271400D602560857060319A02B0130D5025508D6
:1027240007390319A02B832B0130CD36CC0CCB0CED
:10273400890B972B0130D1005108D707570856064B
:102744000319CA2B962B570856020318CA2B0130BB
:10275400CB35CC0DCD0D890BAA2B0130D7025608F1
:1027640057060319C62B0130D5025508073903193A
:10277400C62BA92B0130D036CF0CCE0C890BBD2B28
:102784000130D1005108D60757085606031DBC2B4B
:10279400D51FDC2BFF30CB06FF30CC06FF30CD0637
:1027A4000130CB07003003180130CC070030031888
:1027B4000130CD07551FEE2BFF30CE06FF30CF067C
:1027C400FF30D0060130CE07003003180130CF07A8
:1027D400003003180130D007D5014B08CE074C0850
:1027E400CF3D4D08D03DD01F092CFF30CE06FF3021
:1027F400CF06FF30D0060130CE0700300318013079
:10280400CF07003003180130D007D501D50A4E0890
:10281400A0004F08A1005008A2005708D100510899
:10282400A3005508D2005208A400903111202000C2
:102834002008CB002108CC002208CD0008008C31F0
:10284400DD2494318B170B172200BA01BB010E1340
:102854008E138E1187302000A0008C30A100A73188
:102864000E27943115302100C8004B30C700D130F9
:10287400C600C60B3B2CC70B3B2CC80B3B2C0000E3
:1028840022000E1715302100C8004B30C700D1308C
:10289400C600C60B4B2CC70B4B2CC80B4B2C000093
:1028A40022008E1715302100C8004B30C700D130EC
:1028B400C600C60B5B2CC70B5B2CC80B5B2C000043
:1028C40022008E15B1302000A0008C30A100A73169
:1028D4000E27943115302100C8004B30C700D13089
:1028E400C600C60B732CC70B732CC80B732C0000CB
:1028F400CB302100C800ED30C7004C30C600C60BF9
:10290400812CC70B812CC80B812C0032F73022009C
:10291400E5008730E6000030A9000030A800003050
:10292400A7000030A60065080C3E2000A00000307F
:102934002200663D2000A1009931CB219431200072
:1029440023082200C900200022082200C800200019
:1029540021082200C700200020082200C6006508C4
:10296400083E2000A00000302200663D2000A100A7
:102974009931CB219431200023082200AD0020009E
:1029840022082200AC00200021082200AB00200015
:1029940020082200AA006508103E2000A000003094
:1029A4002200663D2000A1009931CB219431200002
:1029B40023082200CD00200022082200CC002000A1
:1029C40021082200CB00200020082200CA000A307F
:1029D400BC000030BD004D08B1004C08B0004B08ED
:1029E400AF004A08AE000030B5000030B40000303B
:1029F400B3000030B200D5308600003087002030AC
:102A040084000130850006302100C60016001A003B
:102A1400C60B082D00302000A3000030A2000030B7
:102A2400A1001830A000220049082000A7002200BD
:102A340048082000A600220047082000A500220024
:102A440046082000A4009A31B922943120002008BD
:102A5400013E2200C00000302000213D2200C100C0
:102A64000030B9000030B8000030B7000030B600C4
:102A74000130C2000030C300C401C5019E31D62616
:102A8400943124302200DA000130DB00E901EA014C
:102A94006A08803A2100C60022005B08803A2100BF
:102AA4004602031D582D22005A0869020318C82D36
:102AB40022006A082100C700220069082100C6001C
:102AC400C635C70DC635C70D4608013EC8000030DF
:102AD400473DC900F730480784008730493D8500E9
:102AE4000008CA004A082000CB0022006A0821001E
:102AF400CC00220069082100CB00CB35CC0DCB35AE
:102B0400CC0D4B08023ECD0000304C3DCE00F730DA
:102B14004D07840087304E3D85000008CF004F08E4
:102B24002000CC0022006A082100D100220069089C
:102B34002100D000D035D10DD035D10D5008033E41
:102B4400D2000030513DD300F73052078400873063
:102B5400533D85000008D40054082000CD00220015
:102B64006A088500690884008435850D8435850DDF
:102B7400F73084078730853D00089831422094312E
:102B840001302200E9070030EA3D4A2D0D302000D3
:102B9400CB009830CC007730CD000730CE00983190
:102BA400162094310D302000CB009830CC0000303A
:102BB400CD00CE00983116209431A631CB26943125
:102BC4000D302000CB009830CC007730CD0007309A
:102BD400CE009831162094310D302000CB0098306F
:102BE400CC000030CD00CE0098311620943129302D
:102BF4002100C8009630C700A630C600C60B002EC0
:102C0400C70B002EC80B002E29302100C8009630B7
:102C1400C700A630C600C60B0D2EC70B0D2EC80B61
:102C24000D2E0D302000CB009830CC007730CD0035
:102C34000730CE009831162094310D302000CB009F
:102C44009830CC000030CD00CE009831162094315D
:102C54003D302100C60046082200E400A631842647
:102C640094312200BE01BF01E901EA013E30860031
:102C74002730870002300106031D672E3B30860093
:102C84002730870001082100C60046082000CB0039
:102C94003C3086002730870001082100C700470820
:102CA4002000CC003D308600273087000108210039
:102CB400C80048082000CD003A308600273087003D
:102CC4000108983142209431982E3E3086002730F6
:102CD40087000103031D9D2E3B30860027308700AB
:102CE40001082100C60046082000D2003A308600C0
:102CF40027308700010899310C21943120005308B2
:102D04002200E300200052082200E20063082100B0
:102D1400C6003C30860027308700460881003D30DD
:102D24008600273087002200620881003E3086003A
:102D3400273087008101B5302200970068302100D8
:102D4400C700E430C600C60BA52EC70BA52E000095
:102D540022006408A631DF269431A6315C26943122
:102D6400003A0319AF2EA6317B26943120002108A6
:102D74002200DD00200020082200DC00A53097009E
:102D840068302100C700E430C600C60BC72EC70B4D
:102D9400C72E000022006408A631DF269431A63134
:102DA4005C269431003A0319D12EA6317B26943146
:102DB400200021082200DF00200020082200DE007D
:102DC4005C092100C60022005D092100C700C60A73
:102DD4000319C70A22005E08210046072200E0000A
:102DE4005F082100473D2200E10061082000A9009E
:102DF400220060082000A8009831012094312000AE
:102E040028082200CE00200029082200CF0020003C
:102E14002A082200D000B4302000CB002830CC0097
:102E24003F30CD0022004E082000AB0022004F08A6
:102E34002000AC00220050082000AD00C030A800E3
:102E44007F30A9004430AA009031762094312000CC
:102E54002808BB002908BC002A08BD003330B8008C
:102E6400D330B9003F30BA00923177229431200038
:102E74003808C8003908C9003A08CA00A6318D26A6
:102E8400943120004808CE004908CF004A08D000F9
:102E940093312B23943120004B082200D7002000CB
:102EA4004C082200D80020004D082200D900003030
:102EB4002000CB002030CC00C230CD000430A8006C
:102EC400AD30A9003A30AA00220057082000AB0018
:102ED400220058082000AC00220059082000AD0050
:102EE40090317620943120002808CE002908CF00A4
:102EF4002A08D00093312B23943120004B08220060
:102F0400D10020004C082200D20020004D082200ED
:102F1400D30000302000B8008030B9004330BA003C
:102F2400220051082000BB00220052082000BC00EF
:102F3400220053082000BD009231772294312000F2
:102F440038082200D400200039082200D5002000CF
:102F54003A082200D60054082000A0002200550898
:102F64002000A100220056082000A2009D31C725A0
:102F74009431200021082200E800200020082200CB
:102F8400E70068082100C600063086002730870065
:102F94004608810007308600273087002200670832
:102FA400810060082000AE00220061082000AF000C
:102FB400B001B1018C31F52494310D30A631632672
:102FC40094310A30A6316326943122006708200028
:102FD400AE00220068082000AF00890D893B8909F2
:102FE400B000B1008C31F52494310D30A631632644
:0C2FF40094310A30A63163269431382E47
:1030020020002808A0002908A100A2018E30AB00F0
:103012002B08A300A4019031112020002008A80051
:103022002108A9002208AA00080021003208200075
:10303200D400210031082000D300210034082000F0
:10304200D200210033082000D1004C08CF004F08E5
:10305200D1004B08CF004F08D2004E08CF004F08D6
:10306200D3004D08CF004F08D4005330CF004F0893
:10307200AF000230D0005008B00051309131CB2166
:1030820008002000D00021002A082000D4002100DE
:1030920029082000D30021002C082000D2002100A2
:1030A2002B082000D1005008CE004E08D1004B085A
:1030B200CE004E08D2004C08CE004E08D3004D0878
:1030C200CE004E08D4005330CE004E08AF0002307E
:1030D200CF004F08B00051309131CB2108002000C1
:1030E2005E08D3005D08D2009831D22098312000CA
:1030F2005308E6005208E5006608A1006508A00032
:103102006008A3005F08A2006208A5006108A4008D
:103112006408A7006308A6009831A0209831200017
:103122002108E6002008E5005E08CC005D08CB001F
:103132006608CE006508CD009831162008000130DF
:103142002000A8000030A900260AA928A835A90D48
:10315200890BA7282808FF3EAA00FF30293DAB00B3
:103162002B08A9002A08A800240AB928A835A90D05
:10317200890BB728A809A9092808A0052908A105CB
:103182002A082205A8002B082305A900240ACB2817
:10319200A835A90D890BC9282808A0042908A1046B
:1031A200080021002E082000DA0021002D0820004E
:1031B200D900210030082000D80021002F0820006B
:1031C200D7005308D4005408D7005208D40054083A
:1031D200D8005930D4005408CA000230D50055082E
:1031E200CB0057309B31C22320005908D400D501AF
:1031F2005408D500D4015408DB005508DC005A08F5
:103202005B07DB005C0803185C0ADC005C08D30087
:103212005B08D20008002000D70021002608200009
:10322200DB00210025082000DA0021002808200008
:10323200D900210027082000D8005708D4005408DC
:10324200D8005208D4005408D9005A30D400540887
:10325200CA000230D5005508CB0058309B31C2233A
:1032620020005A08D400D5015408D500D4015408CE
:10327200DC005508DD005B085C07DC005D08031814
:103282005D0ADD005D08D3005C08D2000800200062
:10329200AC001030A0000030A1002C08A900AA0147
:1032A2002908A2002A08A3009A3167229931200036
:1032B2002008AB002B08AE002E08A9000330A93568
:1032C200FF3E031D60292935FF3A013E2C07AA0063
:1032D2002A08AD000A302E02031C72292E08373E3E
:1032E200752920002E08303EA6316B2699310A300E
:1032F20020002D02031C82292D08373EA6316B26A1
:10330200080020002D08303EA6316B260800200060
:1033120023082204210420040319C229A901A90AAD
:10332200A31B9F290130A035A10DA20DA30D890B6E
:1033320094290130A8002808A90791292308270207
:10334200031DAD2922082602031DAD2921082502ED
:10335200031DAD2920082402031CB7292008A4025A
:103362002108A53B2208A63B2308A73B0130A33630
:10337200A20CA10CA00C890BB8290130A902031DD3
:103382009F292708A3002608A2002508A1002408D7
:10339200A000080000302000AB000030AA0000307E
:1033A200A9000030A800AC01AD012D08803AA400AC
:1033B20080302402031DDF2904302C0203180B2A5B
:1033C20008302000A835A90DAA0DAB0D890BE22902
:1033D20020082C07840021082D3D85000008A40048
:1033E200A501A601A7012408A8042508A904260806
:1033F200AA042708AB040130AC070030AD3D2D080C
:10340200803AA40080302402031D092A04302C02D1
:10341200031CE12920002B08A3002A08A200290886
:10342200A1002808A00008002000A3002100221803
:10343200542A02302000A2002108860087012208B7
:1034420081002008A2002100200A860087012000B6
:10345200220881002308A20021002008860087019B
:103462002000220881002108A20021002008023E3B
:10347200860087012000220881000330A200220872
:103482002100A0072008C63A031D4D2AC3302000A0
:10349200A20022082100A000A21021082006031D7C
:1034A2005A2A22145A2A2000210886008701810103
:1034B200810A200021088600870102300106031DCF
:1034C20008006E08031D622A921508002000A6015A
:1034D200A11F722AA009A109A00A0319A10AA60123
:1034E200A60AA31F7D2AA209A309A20A0319A30AF5
:1034F2000130A4002408A606A701A801200821047F
:103502000319AC2AA501A50AA11B912A0130A035F5
:10351200A10D890B882A0130A4002408A507852A59
:103522000130A735A80D890B922A21082302031D19
:103532009C2A20082202031CA32A2008A202210896
:10354200A33B27140130A136A00C890BA42A013019
:10355200A502031D912A26080319B42AA709A8095E
:10356200A70A0319A80A2808A1002708A000080032
:1035720000302000AC000030AB000030AA00003068
:10358200A90023082204210420040319032BAD01FE
:10359200AD0AA31BD82A0130A035A10DA20DA30D9F
:1035A200890BCD2A0130A8002808AD07CA2A0130AC
:1035B200A935AA0DAB0DAC0D890BD92A2308270218
:1035C200031DED2A22082602031DED2A21082502E9
:1035D200031DED2A20082402031CF82A2008A40255
:1035E2002108A53B2208A63B2308A73B291401304A
:1035F200A336A20CA10CA00C890BF92A0130AD0252
:10360200031DD82A2C08A3002B08A2002A08A10017
:103612002908A000080022008D018C018E010430CF
:1036220024008C008D018E01333023008C008D012B
:10363200FF308E00F03021008D0027308E002730C1
:103642008C0000308B1B01302000A0008B13553002
:103652003C008F00AA308F000F102108E0390C388F
:10366200A1002008E0390E38A0003D001408E0391E
:103672001E3894001C08E03919389C002408E039EF
:103682001438A4001F08E0391A389F001E08E039D8
:1036920018389E003C001E08E0390D389E001D08B7
:1036A200E0390F389D003D001D08E0391B389D00B0
:1036B20055303C008F00AA308F000F142000201CD0
:1036C200642B8B1708008B1308002000C600C7016B
:1036D200C8014808803AB00080303002031D732BC5
:1036E2002E0847020318892B200047084607B0001E
:1036F2003008860087010108B1004708323E860083
:103702008701310881000130C7070030C83D6A2BAC
:1037120020002E08B0003008C5000230B00030088A
:10372200C900EF0149030319BA2B4508B00030085C
:10373200A7001030A8000030A9004930B1003108BC
:10374200AA003230A731D6279B3102302000490629
:103752000319A62B49080319BA2B49030319BA2BDB
:1037620064306F060319BA2B0130B0003008EF073E
:10377200932B4903031D08000130AE000030AF0057
:1037820008002000D0004B08CC004C08AE005008C6
:103792009B3166239B3120002F08CF002E08CE00DC
:1037A2004E034F04031908000230CC004C08D1002C
:1037B200EF0151030319042C4A08A8000030A900A4
:1037C2000230CC004C08AA001030AB000030AC0034
:1037D2005130CD004D08AD00A731AE279B310230EC
:1037E200200051060319F02B51080319042C510330
:1037F2000319042C64306F060319042C0130CC0029
:103802004C08EF07DA2BD130A0008C30A100A73191
:103812000E279B312000500886008701010899314C
:1038220048219B312000500A860087010108993106
:1038320048219B31D9302000A0008C30A100A73153
:103842000E279B3120004A08860087010108993122
:1038520048219B3120004A0A8600870101089931DC
:1038620048219B310D30A63163269B310A30A631A7
:1038720063260800F400AE2C2000EB01EB0A0800DE
:1038820080307D02031C5D2C6F308600273087005C
:103892000108F000F1010730F035F10D890B4D2CD4
:1038A2007D087007F20071080318710AF3007208AC
:1038B2002100B5007308642C7D08F000F101700846
:1038C2002100B5007108B6008E2CF030F0002630D1
:1038D200F100210035087007F2003608713DF3004F
:1038E20072088600730887007D0881000130B507E1
:1038F2000030B63D01303602003003193502031C98
:103902008E2CB501B6018E2C20006B08003A0319EB
:10391200662C013A0319412C662C2000EB010800A9
:10392200F030F0002630F1002100350870078600E3
:103932003608713D87000108240091000130210002
:10394200B5070030B63D01303602003003193502AA
:10395200031C0800B501B60108007408003A0319F7
:103962003D2C013A0319912C033A0319852C013A93
:103972000319BC2CBC2C08002000DD008330DE00C3
:103982000030DF00E0000630E1000030E2000130EC
:10399200E3000030E400983170209C31A330200015
:1039A200DD008730DE000030DF00E0000630E1009D
:1039B2000030E2000130E3000030E4009831702072
:1039C2009C312000E901EA016A08803AE700803070
:1039D20067020830031969020318172D20006908CD
:1039E200E800E7016708793EDD008030683DDE00CF
:1039F2000130DF000030E0000B30E1000030E20077
:103A02000130E3000030E400983170209C31013035
:103A12002000E9070030EA3D6A08803AE70080307A
:103A22006702083003196902031CEF2C2000E90128
:103A3200EA016A08803AE700803067020830031919
:103A42006902913103182D2920006908E800E70175
:103A52006708633EDD008030683DDE000130DF0034
:103A62000030E0000730E1000030E2000130E30006
:103A72000030E40098317020013091311F2920007C
:103A8200DD007230DE000030DF00E0000130E100D6
:103A92000030E2000130E3000030E4009831702091
:103AA2009D3100302000DD007630DE000030DF0086
:103AB200E0000130E1000030E2000130E3000030BC
:103AC200E400983170209D31A3302000DD00823067
:103AD200DE000030DF00E0000630E1000030E200EE
:103AE2000130E3000030E400983170209D31A330B2
:103AF2002000DD008630DE000030DF00E00006300E
:103B0200E1000030E2000130E3000030E4009831CF
:103B120070209D3132302000DD006030DE00013047
:103B2200DF000030E0000F30E1000030E200013041
:103B3200E3000030E400983170209D310030200015
:103B4200DD007330DE000030DF00E0000130E10014
:103B52000030E2000130E3000030E40098317020D0
:103B62009D3100302000DD007730DE000030DF00C4
:103B7200E0000130E1000030E2000130E3000030FB
:103B8200E40098317020A3309C31BD2C2000200825
:103B9200A4002108A5002208A6000310250D260D69
:103BA200A7002708AD002D08031DE02D0030A3005B
:103BB2000030A2000030A1000030A0000800200860
:103BC200A4002108A5002208A6001730A636A50CDD
:103BD200A40C890BE72D2408A7002708A800A11729
:103BE200FF30A005FF30A1050030A2052008A90082
:103BF2002108AA002208AB00AC018E30AD02AD1F35
:103C02001E2E2D08803A8F3E0318102E0030A3007E
:103C12000030A2000030A1000030A00008000130F6
:103C2200AC36AB0CAA0CA90C890B112E0130A400E6
:103C32002408AD070319372E102E18302D02031C4D
:103C4200342E0030A3000030A2000030A10000306A
:103C5200A00008000130A935AA0DAB0DAC0D890BEF
:103C62002C2E0130AD022D08031D2B2E280803191E
:103C7200452EA909AA09AB09AC09A90A0319AA0A7E
:103C82000319AB0A0319AC0A2C08A3002B08A200E3
:103C92002A08A1002908A00008002000DD008430C5
:103CA200DE000030DF00E0000630E1000030E2001C
:103CB2000130E3000030E400983170209E31123070
:103CC2002000DD006030DE000130DF000030E00067
:103CD2000F30E1000030E2000130E3000030E40088
:103CE200983170209E3100302000DD007130DE00FE
:103CF2000030DF00E0000130E1000030E20001307E
:103D0200E3000030E400983170209E310030200042
:103D1200DD007530DE000030DF00E0000130E10040
:103D22000030E2000130E3000030E40098317020FE
:103D32009E31A3302000DD008130DE000030DF0044
:103D4200E0000630E1000030E2000130E300003024
:103D5200E400983170209E31A3302000DD008530D0
:103D6200DE000030DF00E0000630E1000030E2005B
:103D72000130E3000030E400983170209E3122309F
:103D82002000DD006030DE000130DF000030E000A6
:103D92000F30E1000030E2000130E3000030E400C7
:103DA2009831702000309D31402D2000E901EA0158
:103DB2000030CB009930CC00C030CD009D30CE0019
:103DC200983116209E3101302000CB009930CC0072
:103DD2000430CD002130CE00983116209E310230C1
:103DE2002000CB009930CC001030CD008F30CE00B7
:103DF200983116209E3115302000CB009830CC002F
:103E02000030CD00CE00983116209E3102302000C5
:103E1200DD006030DE000130DF000030E0000F30F6
:103E2200E1000030E2000130E3000030E4009831AC
:103E320070209E3100302000DD007030DE00003046
:103E4200DF00E0000130E1000030E2000130E30079
:103E52000030E400983170209E3100302000DD00F7
:103E62007030DE000030DF00E0000130E1000030A1
:103E7200E2000130E3000030E400983170209E310E
:103E820000302000DD007430DE000030DF00E00092
:103E92000130E1000030E2000130E3000030E400D4
:103EA200983170209E31A3302000DD008030DE008A
:103EB2000030DF00E0000630E1000030E2000130B7
:103EC200E3000030E40098317020A3309E314E2E82
:103ED2002000E9070030EA3D6A08803AE7008030B6
:103EE2006702083003196902031CFE2F2000E90152
:103EF200EA016A08803AE70080306702031D832FD7
:103F0200033069020318A62F20006908E800E701C0
:103F12006708783ECB008030683DCC003C30CD0055
:103F22008C30CE00983116209F3101302000E907F5
:103F32000030EA3D6A08803AE70080306702031DDC
:103F4200A42F03306902031C852F04302000E900EE
:103F52000030EA006A08803AE700803067020830E1
:103F6200031969020318D52F20006908E800E70148
:103F72006708783ECB008030683DCC003830CD00F9
:103F82008C30CE00983116209F3101302000E90795
:103F92000030EA3D6A08803AE70080306702083064
:103FA20003196902031CB52F2000E901EA016A081E
:103FB200803AE700803067020830031969028031D5
:103FC2000318762820006908E800E7016708023E26
:103FD200DD008030683DDE000430DF000030E000AC
:103FE2000C30E1000030E2000430E3000030E40075
:103FF200983170200130803168288731F32F8E315B
:10400200CA2E8E31F62E8F314A2F8F31742F8F3177
:10401200E72F8F31AA2F8F31BF2F8F31E72F8F31AB
:0E402200C62F8F31EB2F8E31FE2E8F31212FC6
:104C9C00103027009A000800BA3022009700080054
:104CAC0000349F340D34983414349834031021009C
:104CBC009D1C03140030093D08002000A000111EAB
:104CCC00652E200823009A0008002000A000111E69
:104CDC006D2E200823009A000800320099019B01D8
:104CEC009D0107309F009E01080021001C08200038
:104CFC00A10021001B082000A0000800F5302100B5
:104D0C009D00E0309E009F019B019C01080020004B
:104D1C004A0849044804031908008030CA060800F0
:104D2C00083023009F0080309D0024309E008A3084
:104D3C009B009C0108006400800101310130FE02DF
:104D4C000030FF3B7F087E0403190034A22EFE00C6
:104D5C0012001E000130FE020030FF3B7F087E0473
:104D6C0003190034AE2E0530F0007008FA0701303C
:104D7C00F802031DC72E0430F00070082000EE006E
:104D8C0008002000EE01EE0A080061302000DD0072
:104D9C008030DE000130DF000030E0000E30E1003A
:104DAC000030E2000130E3000030E4009831702064
:104DBC0008002000A1002108A000A00DA00D2100DA
:104DCC001D08200020060339200621009D001D141B
:104DDC000D302000A000A00BF12E21009D14080026
:104DEC00F10024001E157908023E86008701010897
:104DFC0003190B2F7108F0007908023E8600870119
:104E0C00010886008701700881002000EE0108006F
:104E1C0020002108A4002008A300230884002408F3
:104E2C008500120003190800111E1A2F2308840094
:104E3C0024088500000823009A0001302000A307F5
:104E4C000030A43D132FC3302000A0002008210007
:104E5C00A100C3302000A00020082100A000A21453
:104E6C002210A40124009C0128309D009F017F305A
:104E7C009A00200092112100921508002000A60033
:104E8C002308A5002208A400A435A50D2608860039
:104E9C0087012408C03F2508C13F2108A40026082B
:104EAC00023E86008701240881002608033E860006
:104EBC0087012008C03F0030C13F08005530F50085
:104ECC007508F6002000911124001108F5007508F2
:104EDC00F600141D782F941A161F762F0330812F8D
:104EEC000130812F941A7C2F0030812F7608F50029
:104EFC007508FD0002309C313B2424001516080077
:104F0C002000A7002408A6002308A500A535A60D9F
:104F1C002708860087012508C03F2608C13F2708BF
:104F2C008600870101308104413100308104220860
:104F3C00A5002708023E8600870125088100270866
:104F4C00033E860087012008C03F2108C13F0800AE
:104F5C0021002218CF2F20002908A1002808A0002A
:104F6C002A08AE002E08A2002C08A4002B08A300CF
:104F7C00B930A7318627A731B9302000AE002E08F2
:104F8C00A0002D08AF002F08A10001309A31152286
:104F9C00080020002D08860087018101810A080085
:104FAC002000AD0021002218F92F20002D08AB00A5
:104FBC002B08A0002708AC002C08A1002908A3008E
:104FCC002808A200BE30A7314427A731BE302000EC
:104FDC00AB002B08A0002A08AC002C08A100013063
:104FEC009A311522080020002A08860087018101C9
:044FFC00810A08001E
:020000040001F9
:08000E008CFF33FFFFFFFFFF31
:00000001FF
