:1000000080312E28080055347E14803120007F086E
:10001000F7000B1F14282100911D14282000911DAA
:100020001428B231932280310B1F1F282100121D8A
:100030001F282000121D1F288031022080310B1F35
:1000400029282100921D29282000921D29289B3152
:10005000132377082000FF007E100900803130282C
:1000600000308400AF308500F030860026308700F5
:100070000130FF000030A0310020803180310320AA
:100080008031FD0055308400B13085006930860034
:10009000013087000030FF000630A03100208031A1
:1000A000F801F901FA01FB01FC01EB01EC01ED01A2
:1000B000EE01EF01A0308400003085002630FE0004
:1000C0000030FF00B131A0217E1020009C315C2C5B
:1000D00099340034FD34E03499340134213404344B
:1000E00099340234933410348034FE34A534A83467
:1000F0008034FD34363444348034F734A23446340A
:100100008034F5346134E0348134FE34A534A834CD
:100110008134FD34363444348134F734A2344634E7
:100120008134F5346134E0348234FE34A534A834AB
:100130008234FD34363444348234F734A2344634C5
:100140008234F5346134E0348334FE34A534A83489
:100150008334FD34363444348334F734A2344634A3
:100160008334F5346134E0348434FE34A534A83467
:100170008434FD34363444348434F734A234463481
:100180008434F5346134E0348534FE34A534A83445
:100190008534FD34363444348534F734A23446345F
:1001A0008534F5346134E0348634FE34A534A83423
:1001B0008634FD34363444348634F734A23446343D
:1001C0008634F5346134E0348734FE34A534A83401
:1001D0008734FD34363444348734F734A23446341B
:1001E0008734F5346134E0340034073400342A3481
:1001F000803400344D340534803407344D347A343F
:10020000813400344D340534813407344D347A342C
:10021000823400344D340534823407344D347A341A
:10022000833400344D340534833407344D347A3408
:10023000843400344D340534843407344D347A34F6
:10024000853400344D340534853407344D347A34E4
:10025000863400344D340534863407344D347A34D2
:10026000873400344D340534873407344D347A34C0
:100270008034F834B73478348134F834B73478348F
:100280008234F834B73478348334F834B73478347B
:100290008434F834B73478348534F834B734783467
:1002A0008634F834B73478348734F834B734783453
:1002B0008034A734143400348134A7341434003427
:1002C0008234A734143400348334A7341434003413
:1002D0008434A734143400348534A73414340034FF
:1002E0008634A734143400348734A73414340034EB
:1002F0008034A8343C3400348134A8343C34003495
:100300008234A8343C3400348334A8343C34003480
:100310008434A834003400348534A83400340034E4
:100320008634A834003400348734A83400340034D0
:100330008434A6343C3400348534A6343C34003450
:100340008634A6343C3400348734A6343C3400343C
:100350007034063412345434713406341234543444
:100360007234063412345434733406341234543430
:10037000743406341234543475340634123454341C
:100380007634063412345434773406341234543408
:10039000703409343A349034713409343A34903436
:1003A000723409343A349034733409343A34903422
:1003B000743409343A349034753409343A3490340E
:1003C000763409343A349034773409343A349034FA
:1003D0007034193400340434713419340034043462
:1003E000723419340034043473341934003404344E
:1003F000743419340034043475341934003404343A
:100400007634193400340434773419340034043425
:10041000703408340734803471340834073480343D
:100420007234083407348034733408340734803429
:100430007434083407348034753408340734803415
:100440007634083407348034773408340734803401
:100450008034813430340034813481343034003499
:100460008234813430340034833481343034003485
:100470008434813430340034853481343034003471
:10048000863481343034003487348134303400345D
:100490008034793488346C348134793488346C34E1
:1004A0008234793488346C348334793488346C34CD
:1004B0008434793488346C348534793488346C34B9
:1004C0008634793488346C348734793488346C34A5
:1004D000803484348D347A34803485344D347A34A5
:1004E00080348634CD347A3480348734CD347A34D1
:1004F000803488344D347A34813484348D347A3481
:10050000813485344D347A3481348634CD347A3430
:1005100081348734CD347A34813488344D347A341C
:10052000823484348D347A34823485344D347A3450
:1005300082348634CD347A3482348734CD347A347C
:10054000823488344D347A34833484348D347A342C
:10055000833485344D347A3483348634CD347A34DC
:1005600083348734CD347A34833488344D347A34C8
:10057000843484348D347A34843485344D347A34FC
:1005800084348634CD347A3484348734CD347A3428
:10059000843488344D347A34853484348D347A34D8
:1005A000853485344D347A3485348634CD347A3488
:1005B00085348734CD347A34853488344D347A3474
:1005C000863484348D347A34863485344D347A34A8
:1005D00086348634CD347A3486348734CD347A34D4
:1005E000863488344D347A34873484348D347A3484
:1005F000873485344D347A3487348634CD347A3434
:1006000087348734CD347A34873488344D347A341F
:10061000703419340034053471341934003405341D
:100620007234193400340534733419340034053409
:1006300074341934003405347534193400340534F5
:1006400076341934003405347734193400340534E1
:10065000703416348134C034713416348134C0346B
:10066000723416348134C034733416348134C03457
:10067000743416348134C034753416348134C03443
:10068000763416348134C034773416348134C0342F
:1006900080344D348034003481344D34803400341F
:1006A00082344D348034003483344D34803400340B
:1006B00084344D348034003485344D3480340034F7
:1006C00086344D348034003487344D3480340034E3
:1006D00080344E343834003481344E34383400346D
:1006E00082344E343834003483344E343834003459
:1006F00084344E341034003485344E341034003495
:1007000086344E341034003487344E341034003480
:10071000803461343C3420348134613434342034C6
:100720008234613434342034833461343C342034B2
:10073000843461343C34203485346134343420349E
:100740008634613434342034873461343434203492
:100750008034A034003480348134A03400348034B8
:100760008234A034003480348334A0340034003424
:100770008434A034003400348534A0340034803410
:100780008634A034003480348734A034003480347C
:10079000703408340C340034713408340C340034B0
:1007A000723408340C340034733408340C3400349C
:1007B000743408340C340034753408340C34003488
:1007C000763408340C340034773408340C34003474
:1007D00080340134423401348134013442340134F0
:1007E00082340134423401348334013442340134DC
:1007F00084340134423401348534013442340134C8
:1008000086340134423401348734013442340134B3
:100810008034FB34773436348134FB3477343634E7
:100820008234FB34773436348334FB3477343634D3
:100830008434FB34773436348534FB3477343634BF
:100840008634FB34773436348734FB3477343634AB
:100850008034F0346734B4348134F0346734B434E1
:100860008234F0346734B4348334F0346734B434CD
:100870008434F0346734B4348534F0346734B434B9
:100880008634F0346734B4348734F0346734B434A5
:100890008034EF34B634A0348134EF34B634A0342D
:1008A0008234EF34B634A0348334EF34B634A03419
:1008B0008434EF34B634A0348534EF34B634A03405
:1008C0008634EF34B634A0348734EF34B634A034F1
:1008D00070341A34FF34003471341A34FF34003465
:1008E00072341A34FF34003473341A34FF34003451
:1008F0008034F9348B34DA348134F9348B34DA349B
:100900008234F9348B34DA348334F9348B34DA3486
:100910008434F9348B34DA348534F9348B34DA3472
:100920008634F9348B34DA348734F9348B34DA345E
:100930008034DF34003466348134DF34003466348C
:100940008234DF34003466348334DF340034663478
:100950008434DF34003466348534DF340034663464
:100960008634DF34003466348734DF340034663450
:100970008034F134B03400348134F134B034003494
:100980008234F134B03400348334F134B034003480
:100990008434F134B03400348534F134B03400346C
:1009A0008634F134B03400348734F134B034003458
:1009B0008034FF34FD34C0348134FF34FD34C0341E
:1009C0008234FF34FD34C0348334FF34FD34C0340A
:1009D0008434FF34FD34C0348534FF34FD34C034F6
:1009E0008634FF34FD34C0348734FF34FD34C034E2
:1009F000C234ED34013400347C342A345E342F3474
:100A00000134003415344C3400340034153464346B
:100A10000134003400340034003400340034003435
:100A20000034003400340034003400340034033423
:100A30000034003400340234003400340034033411
:100A40000034003400340134013401340134013401
:100A50000134013401340134183460340134003479
:100A60001834803401340034A834633426347834A4
:100A7000D734E1341734FC34843463340034003424
:100A80009C34403400340034A8348434183468343E
:100A9000D734E1340F34F834D4340434103400340F
:100AA000BC34A3340134B4349C342134FF34F834DE
:100AB0001034003400340534A93462340034003476
:100AC000BC3423340134B5340C34003400340634DF
:100AD0009D346034003401349C34213400340834B3
:100AE00084342134FF34F83444340034483400343E
:100AF00084344134FF34FC3418346034013400341D
:100B00001834803402340034A83463341834D034B8
:100B1000D43423342534A434B434803450340134F0
:100B2000D43423342534A0349C34213400340834A4
:100B300084342134FF34F8344434003448340034ED
:100B400084344134FF34FC341834A034013400348C
:100B5000D734E1344F34FC34A834A5342634783407
:100B6000D734E1340F34F434843485340034003421
:100B7000D734E1341734F8349C34843400340134ED
:100B80009C342134FF34F434BC3444340134B43460
:100B90001034003400340C34D434053420340034A0
:100BA0001834403401340034B834A43400340334ED
:100BB000A83442341834D034E034A534103400342E
:100BC00018344034E034FF349C34A5340034043409
:100BD000A8344234FF34FF348434C5340034003444
:100BE000E034C63410340334D434053430340034A3
:100BF000BC340334003400340C3400340034093481
:100C0000A83460349F3407340734C0340A34E334E2
:100C100015340034003400349C34213400340C3456
:100C200085342134FF34FC3484342134FF34F434EB
:100C3000443400344834003484344134FF34F834CC
:100C40000734C0340A34DC34A834843480340034AB
:100C50009C34213400340C3485342134FF34FC348A
:100C600084342134FF34F4344434003448340034C0
:100C700084344134FF34F834D734E1341734F03459
:100C8000D734E1347734F434D734E1349734F8345A
:100C9000D734E1344F34FC34D734E1340F34EC34FE
:100CA0009C342134FF34EC34A934C3340034003490
:100CB000A8344434003400340734FF34FF34B434EF
:100CC000AA34453400340034BC342B3400340034AE
:100CD00010340034003419341834A0340034FF3494
:100CE000A434823400341F341834603401340034A6
:100CF000A834A534FF34FF34B834843400341834B5
:100D0000A834633426347834E2345234283403343B
:100D10008434633400340034E23444349034043492
:100D20001834803401340034B8346334003403346C
:100D3000B934CE3400341D34A83484341834D0345B
:100D4000E134D23470340434E03463342034003479
:100D5000D434033470340434B43480345034013423
:100D6000AC34423400340134D434033420340034FD
:100D7000E034603410340234E0344334103404344A
:100D8000AC346234FF34FF340734FF34FF34B834FA
:100D9000B834633400345F349C3421340034143468
:100DA00085342134FF34FC3484342134FF34EC3472
:100DB00084344134FF34F0348534C134FF34F434A6
:100DC000443400344834003486344134FF34F83439
:100DD0001834C03401340034D734E1344F34FC3497
:100DE000A834C63426349C34D734E1341734F43470
:100DF000E034A33430340034D734E1347734F83479
:100E00009C34C03400340034D734E1340F34F0342F
:100E10009C348034003401349C342134FF34F03469
:100E2000A8344334003400340734C0340734CC349D
:100E3000D8340534303400349C34803400340D34DC
:100E40000734C03405344734A834623400340034E5
:100E5000A8346234003400340734C03406345534C6
:100E6000A534CB3400347F34A834623400340034E9
:100E70009C34803400343B340734C034053440346F
:100E8000E134CB347034003418346034FF34FF3430
:100E9000BC344E3400341A34A83463340F34FF3475
:100EA0000C34003400340E34E1346B341834033421
:100EB000A8346B34E03400340734C034053457347C
:100EC0001534003400340034A83462340034003463
:100ED0000734C0340734A4349C34803400340134E3
:100EE0009C3421340034103485342134FF34FC34F4
:100EF00084342134FF34F03484344134FF34F43406
:100F000044340034483400348534C134FF34F83478
:100F10000334FF34FF34F534A8346B34F034003438
:100F2000D734E1341734F834D734E1344F34FC3457
:100F3000D734E1340F34F434BD34A33400340734EF
:100F40009C342134FF34F4340C3400340034113434
:100F5000A8344334003400349C34A0343834003492
:100F6000A8346234003400340734C03405342D34DE
:100F70009C348034003460340734C03405343F344A
:100F80009C34603400340034A834623400340034BB
:100F90009C348034003475340734C03405341C3438
:100FA0009C344234003404340734C03405343934BA
:100FB000A8346B3480340034BD34A2340034073498
:100FC0001334FF34FF34F4349C34A0343834003408
:100FD0009C34213400340C3485342134FF34FC3407
:100FE00084342134FF34F43444340034483400343D
:100FF00084344134FF34F834D734E1341734F834CE
:10100000D734E1344F34FC34D734E1340F34F43482
:10101000BD34A334003407349C342134FF34F43419
:101020000C34003400341134A83443340034003418
:10103000A8346234003400340734C0340534083432
:101040009C3480340034753418348034FF34FF34D9
:10105000A83484347F34FF340734C0340534233457
:10106000E0346B3420340334A83462340034003468
:101070009C348034003460349C34A0343B34FF34DE
:101080000734C03405340A349C3442340034043408
:10109000BD34A234003407341334FF34FF34F43445
:1010A000A8346234003400349C34213400340C34CD
:1010B00085342134FF34FC3484342134FF34F43457
:1010C000443400344834003484344134FF34F83438
:1010D000D734E1344F34FC34D734E1341734D834C6
:1010E000D734E1340F34D434D734E1347734DC34BA
:1010F000D734E1349734E034D734E134A734E434DE
:10110000D734E134B734E834D734E134C734EC347D
:10111000D734E134D734F034D734E134E734F4341D
:10112000D734E134F734F8349C342134FF34D034EC
:101130000734C03409346F34A8344034FF34F034F9
:10114000A83460349F3406340734C0340A343B3446
:101150009C348034033425340734C0340A341D34BD
:10116000A834603498341434E4342B34103400340C
:101170000C340034043416349C34603400340034AD
:10118000A8346034983414340734C0340A34333407
:101190009C3480345B345B34A83460349F3408342E
:1011A0000734C0340A3430349C3480344B34233414
:1011B0009C346034003400341834A03401340034DA
:1011C000B834833400340334A834A5341834D0340C
:1011D0009C346334003401349C3440340034003493
:1011E000E034843428340034BC3423340134B5343E
:1011F0001334FF34FF34F934D43404341034043459
:101200001834C034013400341834E034013400346C
:10121000A834C63426347834A834E7341834683413
:1012200018346034CF34FF34D434063410340034EE
:10123000D434073410340034A8346334FF34FF341A
:10124000C134403418340034C134403410340134D3
:10125000A8346234003400349C34803400340234C6
:101260009C34A0340034FF340734C0340634E334F3
:101270009C34423400340134BC3422340034083409
:101280001334FF34FF34FB34A834623400340034A8
:101290001B348034013400341B34C0340134003436
:1012A000AB349C3427342034AB34DE342634AC34B5
:1012B000B434A034503401349C34823400340134CA
:1012C000A834603498341534A434443400340734DA
:1012D000A434843400340334D4341C34283400342B
:1012E0000734C0340934EC34D434013420340034AD
:1012F000E03480345834023419340034013400347A
:10130000E134643458340434A83460349F340634EF
:10131000AD346B34FF34FF34A934083427341C3423
:10132000B9346B3400345F340734C0340934E334E7
:10133000D434083458340034B8346B3400344D3469
:10134000BC342334003404340C34003401349E346F
:10135000BC342334003402340C34003402342B34D3
:10136000BC342334003403340C34003402343434B9
:101370001534003400340034B43460345034013453
:101380001934803401340034A9348C341834CC340A
:1013900084348C3400340034E03463342034023438
:1013A0001834803430340034E434A334203400342E
:1013B00010340034003411341834A03401340034B3
:1013C000A834A534183468348534C5340034003466
:1013D000BC342E34003400341034003400340C3467
:1013E000A8346E34003400349C348034003401342A
:1013F0000734FF34FF341134A834AE3400340034E1
:101400001834C034013400341834E034013400346A
:10141000A834C634263478349D3400340034013482
:10142000A834E73418346834D434063470340034C3
:10143000D4340734403400340734C0340934C13460
:10144000A834603498341434BC342B345A345A34AD
:101450000C34003401347834BC342B345B345B34CA
:101460000C34003402342334183460340134003432
:101470009C34803400340234A83463342634E83495
:10148000D4340334203400349C346234FF34FC34CC
:10149000BC34433400340334103400340034053495
:1014A0001834A034013400349C34C0340034023485
:1014B000A834A5342634E834D43405343034003428
:1014C000A8346234003400340734C03404349D340A
:1014D0009C34803400340034A6348B34003402341D
:1014E000BC34143400340034103400340134123469
:1014F00084346134003400348434E1340034003402
:101500001934003401340034BA34C734003402349E
:10151000A934083427340C34E034763440340034B1
:101520008434833400340034BC3404340034003454
:101530000C340034003403349D34803400340134DE
:10154000D4340334603400340734C0340634CB342C
:10155000A8346234003400341834A0340134003428
:10156000B8346B3400348834A834A53427340C34B0
:101570009C34C03400340034E034963428340034D1
:10158000BD34A33400341F34D43404343034003434
:101590001034003400347434A934CB3400340034B3
:1015A000A434633400341F34BC34033400340C34AA
:1015B000103400340134D134BC34033400341834D2
:1015C0001034003401346C34BC340334003402343D
:1015D0000F34FF34FF349C341834E03401340034C9
:1015E000BB34023400340234A834E7342634EC34FB
:1015F0009D340034FF34FE34E034D83438340034C1
:10160000A8346234003400348434A6340034003406
:101610009C34803400345034E034A53440340334F6
:101620000734C03404344B34D43406342834003402
:101630009D348034F0340034E0346B34603403344F
:101640000734C03409348F34A83463340034403450
:10165000A8346234003400340734C03404344434D1
:101660009C34803400343B3418348034FF34FF34ED
:10167000A83484340F34FF340734C03404345F3466
:10168000E0346B3420340334B434803450340134C7
:10169000A8346034983412340734C0340934913497
:1016A000B834843400345034A83462340034003404
:1016B0000734C034043439349C34803400347F34EB
:1016C000A834623400340034A434AB3400341F3402
:1016D0000734FF34FE34B5349C348034003407348E
:1016E000A8346234003400340734C0340634A134E2
:1016F0009C348034003400341834A0340134003475
:10170000A834A5342634E8348434653400340034F5
:10171000BC34033400340234103400340034163442
:10172000A8346234003400340734C0340434CB3479
:101730009C348034003404341834C0340134003410
:101740001934003401340034A834C6342634E0346B
:101750009C34E03400340434E034623430340034F7
:10176000A93408342634D834193480340134003490
:10177000D834033438340034A9348C342634D0348B
:10178000E03462344034003418348034013400349E
:10179000D834033438340034A83484340034183452
:1017A000E0346234603400349C34A03400340134BA
:1017B000D834033438340034E03462342034003414
:1017C000D8340334283400349C348034003400345A
:1017D0000734C03406349734A834623400340034FB
:1017E000A8346234003400349C3480340034023431
:1017F0000734C034063432349C34A03400340C3402
:101800001834C03401340034A834C63427340C34BE
:10181000E234D63430340034843476340034003446
:10182000BC342334003400340C34003400341D3410
:101830001834E03401340034A834E7342634B034AA
:10184000E034783438340034843463340034003481
:10185000BC344334003401340C34003402343234A8
:101860001934803401340034A9348C342634EC34F7
:10187000E334183460340034843478340034003471
:10188000A434833400340234BC34243400340034AF
:1018900010340034003410349C34C034003401342B
:1018A0001834E03401340034E034A6341034083401
:1018B000A834E73427341C348434DE340034003454
:1018C000A834633400340234E034A53430340434B2
:1018D0008434C73400340034D43418341834003419
:1018E000BC34063400340034103400340234823402
:1018F000D4341E3428340034BC3425340034FF344E
:101900000C3400340234E0349C34A03438340034D5
:101910000734C03404347D34A834623400340034D5
:101920000334FF34FF3432341534003400340034CF
:10193000BD344334003418340F34FF34FF342F34B3
:101940001834603401340034A834633426349C34B1
:10195000E134C234183400348C346E340034003432
:10196000BC342334003401340C34003401349C344E
:101970001834C034013400349C346334FF34FE34F2
:10198000BC344334003401341334FF34FF34253481
:101990001834803401340034BB340234003402344F
:1019A000A834843426347C3484347C3400340034C9
:1019B000E234D834203400341834A034003466348F
:1019C0008434963400340034E034633420340234F8
:1019D000E4344334283400341034003402342934DD
:1019E0001834C034013400341834E0340134003485
:1019F000A834C6342634E034A834E7342634D83446
:101A0000E234823430340034E23442343834003446
:101A10008C349234003400348C3474340034003408
:101A2000E4342434183400341334FF34FF341134D4
:101A30001834603401340034A834633426347C34E0
:101A4000E33418341834003484347C3400340034E3
:101A50008434983400340034E03463342034023465
:101A60001834803400343034E434A3342034003467
:101A70001334FF34FF3408349F340034003404340A
:101A8000A8346234003400340734C0340434CF3412
:101A90009F341834FF34FF34A834623400340034E7
:101AA0000734C0340434CC34AA34CB34003400348A
:101AB000E234CB34B03402349E34D63400340134B2
:101AC000BC34B63400340234103400340234CF3421
:101AD000BC343834003400341334FF34FF34F5346C
:101AE000A8346234003400349C34803400340E3422
:101AF0009C34A034003401340734FF34FE343034D5
:101B0000D4340134583400340734FF34FE345934AB
:101B1000A8346234003400349F3400340034043478
:101B2000A8346234003400340734C0340434CA3476
:101B30009F341834FF34FF34A83462340034003446
:101B40000734C0340434C734AA34CB3400340034EE
:101B5000E234CB34B03402349E34D6340034013411
:101B6000BC34B63400340234103400340234B93496
:101B7000BC343834003400341334FF34FF34F534CB
:101B8000A8346234003400349C34803400340E3481
:101B90009C34A034003402340734FF34FE341C3447
:101BA000AB344B34003400340734FF34FE34453456
:101BB000A8346234003400348434A1340034003456
:101BC000A834623400340034B834C53400340334EB
:101BD000B834BA3400340A349C34803400340E34BF
:101BE000A834C634003404340734FF34FE341234CD
:101BF000E034A634283404348434C134003400344E
:101C0000BD34863400340034103400340234673478
:101C1000BD349A34003400340C34003402346F3450
:101C200019348034013400341834A03401340034C1
:101C3000A9348C3400341434A834A534003410345E
:101C400084348C34003400348434653400340034FB
:101C50008434C13400340034E0347A341B34063424
:101C6000E034863423340634E034643418340034E9
:101C7000BD34A334003400340C34003402348234D4
:101C80001934003401340034193480340134003400
:101C9000A934083400340C34A9348C3400340834AA
:101CA000843468340034003484348C340034003498
:101CB0008434A13400340034E0349A3423340634BC
:101CC000E03465341B340634E034633420340034AB
:101CD000BD346334003400341034003402345334DF
:101CE000AF345A34FF34FF34E0346034D03402343B
:101CF000E3344334D0340434BD347A340034003413
:101D00001034003402344E341534003400340034BE
:101D10008C34723400340034BC342334003407343F
:101D20000C34003402344A341834C03401340034E2
:101D3000A834C6342634D034E0348234303400340D
:101D40008C34843400340034E434A4341834003443
:101D50000C3400340234443415340034003400347C
:101D60009C346334003401340334FF34FE34A9342A
:101D7000D834143418340034183480340134003426
:101D8000BA34C33400340234A834843427340C34D5
:101D9000E034763420340034843483340034003426
:101DA000BC340434003400341334FF34FE34F434CF
:101DB0001834A03401340034D4340334A034003453
:101DC000A834A53427341C348434853400340034DA
:101DD000BC34043400340034103400340034033490
:101DE0009F340034003404349F3400340034013410
:101DF000BB3458340034023485347C34003400342D
:101E00009C34A034003400348434813400340034F1
:101E10001934803401340034E0346534B034003493
:101E2000A9348C341834AC341834C0340134003440
:101E3000E034E33460340034193480340134003445
:101E4000A834C6342634B034A9348C342634EC3467
:101E5000E134033430340034E034C33460340034CB
:101E60001934803401340034E0348434C034003414
:101E7000A9348C3418348C34BD34A4340034073481
:101E8000E0346334603400349D34803400340034F2
:101E9000D434033458340034D43408346034003437
:101EA000D434073460340034D4340634603400341D
:101EB0001334FF34FF34EC34E034A534D034003430
:101EC0008634413400340034A8348C340034003477
:101ED0000034003400341D34A934D63400340034C6
:101EE0000734FF34FE342334153400340034003416
:101EF0009C34803400341134E03464349034083439
:101F000084349E3400340034AC346334FF34FF3402
:101F1000E034633420340334D4341E3418340034B1
:101F20001834C034013400341834E034013400343F
:101F3000A834C63418347C34A834E73418346C34EC
:101F4000E0348E343034003484347C340034003453
:101F5000E134CE3438340034E2345234C034003406
:101F60009D34003400340034D4340E34183400343A
:101F7000D434043440340034BD3452340034033497
:101F80001334FF34FE34B934E2349434D0340034A2
:101F90001934803401340034E134D434B0340034A2
:101FA000A9348C3427340C34E0346E34603400347B
:101FB0008434833400340034BC34043400340034BA
:101FC0000F34FF34FF34E434A83472340034003466
:101FD0000734FF34FD34EA3415340034003400345F
:101FE0009C34A0340034113484349E3400340034E2
:101FF000E034653490340834E034633420340434FD
:102000000334FF34FF34E434D4341E341834003441
:1020100019348034013400349C346034003400348A
:10202000A9348C342634E8340334FF34FE348C3441
:10203000D4340C3418340034A534CB341F34FF347A
:10204000BC344E340134B434103400340034F03431
:102050001934803401340034B8346E34003403341D
:10206000A9348C341834D034E03463346034003410
:1020700086344334003404348634833400340034EA
:10208000BA34D23400345034B83494340034503438
:10209000A6345234FF34FF34A6349434FF34FF3472
:1020A0000734C03408345034A83460349F340034CA
:1020B000A83460349F3401340734C03408344D34BC
:1020C000A834943400340034A83460349F3402348B
:1020D0000734C03408344A34A83496340034003409
:1020E000A83460349F3403340734C0340834473490
:1020F000A834923400340034A83460349F34063459
:102100000734C03408344434A8348E3400340034E6
:102110000334FF34FE344D341534003400340034BD
:10212000B434803450340134A834603498341334D7
:102130000734C03408343E34B83484340034503466
:10214000A8346234003400340734C0340234E63436
:102150009C34803400347334A83462340034003446
:102160009C348034003408340734FF34FD34623446
:10217000A434AB340734FF340734FF34FD341C344B
:102180001534003400340034BC342B3400340034B3
:102190001034003400343234AA348B340034003428
:1021A000A8346234003400349C34803400342A343F
:1021B0000734C0340234D934A534CE3400347F34EB
:1021C000A8346234003400349C34803400342B341E
:1021D0000734C0340234D534AB340B34003400340B
:1021E000A8346234003400349C34803400342C34FD
:1021F0000734C0340234D134AA34CB340034003430
:10220000A8346234003400349C34803400347F3489
:102210000734C0340234CD34AA344B340034003493
:10222000A43498347F34FF34B834723400348134A9
:102230001834C03401340034A634523400347F34AE
:10224000A834C63426347834B8348434003407349F
:10225000BA34523400340E34A43463343F348034FE
:10226000B9346B3400344C348434A6340034003434
:102270001834E03410340034E034843470340434DE
:10228000E234433490340434A634D63400347F34FA
:102290001934003401340034B9346B34003415344B
:1022A000B834623400341D34B834A53400340334F7
:1022B000E034843438340434A93408341834D03445
:1022C000E2345234B0340434E034A53440340034C1
:1022D000E034843418340434E2345234583404344E
:1022E000A834743400340034D43405342034043435
:1022F0000734FF34FD340B34D434053490340034C7
:10230000B43460345034013419348034013400342E
:10231000A9348C341834CC34D4340C34183400340C
:10232000A8346234003400349C34803400340234E5
:102330009C34A0340034FF340734C0340434C9342E
:10234000BB340234003402341834603401340034B5
:102350001834C03401340034A83463342634EC34E7
:10236000A834C63400341834E034B8341834003497
:10237000E034823430340034843465340034003442
:102380008C34843400340034A83463340034013491
:10239000BC34243400340034103400340034793434
:1023A000D4340534183400341834E03401340034A3
:1023B000A834E73426349C34E034A2343834003472
:1023C000D834053420340034193400340134003456
:1023D0001934803401340034A93408342634EC3400
:1023E000A9348C3426347C34E034D834403400347E
:1023F000A834833400340134E334183460340034B6
:102400008434BC3400340034A834623400340034E2
:10241000D4340634203400340734C03403341C343C
:10242000D4341834283400340334FF34FD34D13428
:1024300015340034003400340734C03403346434B9
:10244000A834623400340034193480340134003448
:10245000A5346B340034FF34A9348C342634A434CE
:10246000BC342B3400340F34E03462346034003434
:102470000C34003400347034D8340334583400340D
:10248000A8346234003400349C3480340034023484
:102490000734C03404349E349C34A03400341834DF
:1024A0000334FF34FE348E341534003400340034E9
:1024B00018348034013400341834A034013400342A
:1024C0009C34603400340034A834843426347834A6
:1024D0009C34C03400340134A834A5341834683432
:1024E000D4340434183400340734C0340734BA34D4
:1024F000D4340534303400340334FF34FD34D03464
:102500001534003400340034B9346B3400344A34A8
:10251000A5346B3400340734BC342B34003401341C
:102520000C34003401340634BC342B34003402340F
:102530000C34003401341234BC342B3400340334F2
:102540000C3400340034D2341834E0340134003414
:10255000A83460349F3406340734C0340734B934A7
:102560009C348034003400340334FF34FD34C234EE
:10257000153400340034003418348034013400340D
:10258000A83460349F3408349C34A03400340134BF
:10259000A83484342634E8340734C03407349534FE
:1025A000D434043428340034B834AB3400344C34DC
:1025B000B8348B3400344834B8346B340034443489
:1025C0001834C034013400341834E0340134003499
:1025D00019340034013400341934803401340034A7
:1025E000A434A53400340F34A434843400340F34BC
:1025F000A434633400340F34A5346B3400340F3406
:10260000A834C63400341434A834E7340034103409
:10261000A934083400340C34A9348C340034083420
:10262000D434063428340034D4340734203400340D
:10263000D4340834183400340334FF34FD34CA343D
:10264000D4340C3458340034BB34023400340234F3
:10265000A834C63426347C3484349C3400340034AA
:10266000E034B834303400341834E03400344634C4
:102670008434A53400340034E03484342834023403
:10268000E434A434383400341334FF34FD34853456
:1026900019340034013400341934803401340034E6
:1026A000A93408342634D834A9348C342634E034A0
:1026B000E234423440340034E03482346034003454
:1026C0008C34A434003400348C349234003400341C
:1026D000E43405342034003410340034013401343F
:1026E000E4344534203400341034003400340334EE
:1026F00015340034003400349C3460340034FF342A
:10270000E034833420340034A8346234003400349C
:10271000A434A4340034FF34A834853400340034A5
:102720000734C0340234CC34D83412342834003462
:102730001834603401340034A834633426347C34D3
:10274000E33418341834003484347C3400340034D6
:102750000334FF34FD346C34D4341834183400346A
:102760001934003401340034A93408342634E834F0
:102770008434883400340034BC34243400340034CD
:102780000C34003400342534BC3424340034013497
:102790000C3400340034A7341834C034013400340D
:1027A0009C34E03400340034A834C63426349C34DD
:1027B000E0348234303400340334FF34FF34823464
:1027C000D8340434383400349E3440340034003477
:1027D000AA34D23400340034AA34923400340034A1
:1027E0000334FF34FF341834A834923400340034F6
:1027F0001834803401340034A83484342634E83466
:102800008434643400340034BC340334003402347F
:102810001334FF34FF348E341834C03401340034A0
:102820001934003401340034A834C6342634E0347A
:102830009C34E03400340734E034A23430340034C3
:10284000A93408342634D83419348034013400349F
:10285000D834053438340034A9348C342634D03498
:10286000E034A23440340034A834623400340034FC
:10287000D8340534383400349C3480340034073480
:10288000E034A234603400340734C03402349F345E
:10289000D8340534383400340334FF34FF347E3404
:1028A000A8346234003400340734C03403341A349A
:1028B000A834623400340034BD348B340034003426
:1028C000103400340034B734193480340134003407
:1028D0009C34603400340434A9348C342634E0341D
:1028E000BD344B3400340334E23482346034003479
:1028F0000C3400340034A534D83414341834003483
:102900009C34A03400340234A834623400340034DF
:102910000734C03403341E34D8341434283400341B
:10292000BD346B34003400340C3400340034A5342E
:1029300015340034003400348C34743400340034E2
:10294000BC344334003401340C34003400340B34D0
:102950001834C034013400341834A0340134003445
:10296000A834A5342634A434E03482342834003426
:102970008C34843400340034BC34443400340E3499
:1029800010340034003404341834C03401340034BA
:102990009C346334FF34FF34D83414341834003496
:1029A0001934003401340034A834C63426349C343D
:1029B0009C34E03400340134E03462343034003488
:1029C000A93408342634EC34D83403343834003491
:1029D000E0347834403400340334FF34FF343E3480
:1029E0008434633400340034193400340134003446
:1029F000A93408342634EC34E33418344034003439
:102A00008434783400340034A43483340034023401
:102A1000BC340434003400341334FF34FD34DF3468
:102A20009D348034003401341834E03401340034EF
:102A3000E0348C34103408348434BE340034003430
:102A40009C34C034FF34FD34AC348434FF34FF3460
:102A5000A834E73427341C34E0346334303403348E
:102A6000E0348434283403348434C73400340034EC
:102A7000D434183418340034BC34063400340034F0
:102A80001034003400349434D4341E3420340034F0
:102A90009D34C03400340034A8346E340034003423
:102AA0000734C0340134BB349C3480340034753472
:102AB00019340034FF34FF34A93408347F34FF3430
:102AC0000734C0340134D634E0346B34403403343A
:102AD000A8346E34003400349C34803400346034C4
:102AE0009C34A0343B34FF340734C0340134BD344B
:102AF0009D34CE3400340134BC342E3400340834D8
:102B00001334FF34FF34F434A8346E34003400340A
:102B10000334FF34FD34C034153400340034003441
:102B20001934003401340034193480340134003451
:102B3000A93408342634E034A9348C342634D8340B
:102B4000E234823440340034E234423460340034BD
:102B50008C34B43400340034A8346234003400348B
:102B6000A8348534003400340734C034023443348C
:102B7000D83412342834003418346034013400342A
:102B80008C348E3400340034A83463342734203439
:102B9000BC342434003403348434633400340034CB
:102BA0001334FF34FD34CE34D434163418340034A6
:102BB0000734FF34FC344434A83462340034003425
:102BC0000334FF34FD34CB348C349234003400347D
:102BD000A834E7342634B0348434C73400340434A1
:102BE0008434673400340834B834C63400340434D0
:102BF000B8346334003408348434873400340C34FB
:102C00008434A73400340034E03466341834043497
:102C1000B834843400340C34E034A334283404341D
:102C2000A83460349F340034E034853420340434D4
:102C30000734C0340634DE34A4348434FF34FF3423
:102C40001934003401340034A93408342634B03443
:102C50008434C83400341434843468340034183470
:102C6000B834C63400340434B8346334003408341F
:102C70008434883400341C348434A8340034103450
:102C8000E034663418340434B834843400340C34FA
:102C9000E034A33428340434A83460349F3401343D
:102CA000E0348534203404340734C0340634CF345F
:102CB000A4348434FF34FF340334FF34FF34143439
:102CC000A83460349F34063419348034013400341D
:102CD0009C34A03400340234A9348C3426349C341F
:102CE000E0348234603400340334FF34FE34DC34A6
:102CF000D8340434283400349C3460340034113423
:102D00008534013400340034E03463344034083412
:102D1000E034A53418340334E43423342834003444
:102D20001334FF34FD347E34153400340034003461
:102D30000734FF34FC343E34A834683400340034A3
:102D40000334FF34FD347A34153400340034003455
:102D5000A83460349F3400340734C0340634B934A6
:102D60009C34803400340034A83460349F340134FF
:102D70000734C0340634B6349C3480340034003414
:102D8000A83460349F3402340734C0340634B3347A
:102D90009C34803400340034A83460349F340334CD
:102DA0000734C0340634B0349C34803400340034EA
:102DB0000334FF34FE34F534A83460349F340634D1
:102DC000A83460349F3400340734C0340634AB3444
:102DD0009C34803400340034A83460349F3401348F
:102DE0000734C0340634A8349C34803400340034B2
:102DF000A83460349F3402340734C0340634A53418
:102E00009C348034003400340334FF34FE34EA341C
:102E1000A83460349F3406349C3480340034033446
:102E2000A8346234003400340734C03402347B34B4
:102E3000D834143420340034BD346B3400340034BE
:102E40001334FF34FF345F3415340034003400345D
:102E50008C347434003400349C34633400340134D2
:102E6000A43463340034FF340334FF34FF345B3460
:102E7000D834143418340034BC342B34FF34FF34C9
:102E80000C34003400344F34BC342B34FF34FE3463
:102E90000C34003400345834BC342B34FF34FD344B
:102EA0000C34003400345D3419348034013400347F
:102EB0009C34803400340734A9348C342634E03414
:102EC0009C34603400340734E2348234603400349B
:102ED0000334FF34FF345134D834143420340034F4
:102EE0000734FF34FB34DE34A83462340034003459
:102EF000B434803450340134A83460349F34053401
:102F00000734C03406348434B83484340034503444
:102F10000334FF34FC34743415340034003400348A
:102F20000734FF34FC341B348434613400340034FF
:102F30000334FF34FD343C341534003400340034A1
:102F4000BD347A34003400340C34003400344F344F
:102F5000A8346234003400349C34803400340E349D
:102F60000734FF34FB34A3349C34A03400340334DE
:102F70000734FF34FB34CC34A834623400340034DA
:102F80000334FF34FC346634153400340034003428
:102F90008C34723400340034BC34233400340134B3
:102FA0000F34FF34FF34FA341834E0340134003481
:102FB000A834E7342634D034E03482343834003452
:102FC0008C34843400340034E434643418340034F1
:102FD00010340034003403349D340034003403349E
:102FE000D8340E34403400349C346334FF34FF341E
:102FF0000334FF34FC345834D834143418340034D7
:10300000A934C43400340034A8346E34003400349D
:103010000734C034013418349C34803400346034B4
:103020000734C03401342A349C3460340034003412
:10303000A8346E34003400349C3480340034753449
:103040000734C034013407349D34CE3400340134A5
:103050000734C03401342434A8346B348034003451
:10306000BC342E34003408341334FF34FF34F434C9
:103070009C34A034383400340334FF34FD3413342A
:1030800015340034003400348C347234003400348D
:10309000BC342334003401340F34FF34FF34DB34C8
:1030A0001834E03401340034A834E7342634D03402
:1030B000E0348234383400348C34843400340034C6
:1030C000E4346434183400341334FF34FF34E5340A
:1030D0009C346334FF34FF340734FF34FB349F34B3
:1030E000A8346234003400340334FF34FC343934FF
:1030F00015340034003400341834C0340134003442
:103100009C34E03400340434A834C6342634E0342B
:103110009C34603400340434E2348234303400347B
:103120000334FF34FF340734D834143438340034D3
:103130000334FF34FD345134AB344B3400340034A9
:103140000334FF34FD343B34D43401345834003478
:1031500019340034013400349D3480340034053493
:10316000A93408342634E0349C3460340034053407
:10317000E2348234403400340334FF34FE34FC340F
:10318000D8341434603400341834603401340034DA
:103190009C34803400340634A83463342634E0345C
:1031A000E2348234183400349C3460340034063401
:1031B0000334FF34FE34F534D8341434203400346E
:1031C0008C34723400340034BC342334003407347B
:1031D0000F34FF34FF34B4341834E0340134003495
:1031E000A834E7342634D034E03482343834003420
:1031F0008C34843400340034E434A434183400347F
:103200001334FF34FD346C349D3400340034033403
:103210000334FF34FD346A34D8340E34403400347F
:103220000734C034063413341834403401340034C5
:10323000A83462343F34FC349C348034003400348D
:10324000A83442343F34F834DC34033420340034BE
:10325000DC34023420340034A834403401340034E7
:103260004434003410340034153400340034003455
:103270000334FF34FB34E334A8346034983414341A
:10328000D734E1340F34FC349C342134FF34FC3423
:103290009C34213400340434443400344834003441
:1032A00084342134FF34FC34D734E1340F34FC341B
:1032B0009C342134FF34FC349C34213400340434F5
:1032C000443400344834003484342134FF34FC3432
:1032D000D734E1340F34FC349C342134FF34FC34D3
:1032E0009C342134003404344434003448340034F1
:1032F00084342134FF34FC34D734E1340F34FC34CB
:103300009C342134FF34FC349C34213400340434A4
:10331000443400344834003484342134FF34FC34E1
:10332000D734E1340F34FC349C342134FF34FC3482
:103330009C342134003404344434003448340034A0
:1033400084342134FF34FC34D734E1340F34FC347A
:103350009C342134FF34FC349C3421340034043454
:10336000443400344834003484342134FF34FC3491
:10337000D734E1340F34FC349C342134FF34FC3432
:103380009C34213400340434443400344834003450
:1033900084342134FF34FC34D734E1340F34FC342A
:1033A0009C342134FF34FC349C3421340034043404
:1033B000443400344834003484342134FF34FC3441
:1033C000D734E1340F34FC349C342134FF34FC34E2
:1033D0009C34213400340434443400344834003400
:1033E00084342134FF34FC34D734E1340F34FC34DA
:1033F0009C342134FF34FC349C34213400340434B4
:10340000443400344834003484342134FF34FC34F0
:10341000D734E1340F34FC349C342134FF34FC3491
:103420009C342134003404344434003448340034AF
:1034300084342134FF34FC34D734E1340F34FC3489
:103440009C342134FF34FC349C3421340034043463
:10345000443400344834003484342134FF34FC34A0
:10346000D734E1340F34FC349C342134FF34FC3441
:103470009C3421340034043444340034483400345F
:1034800084342134FF34FC34D734E1340F34FC3439
:103490009C342134FF34FC349C3421340034043413
:1034A000443400344834003484342134FF34FC3450
:1034B0001834203401340034A834213418346834EA
:1034C0001834403401340034A834423403345C34BA
:1034D00044340034103400341534003400340034E3
:1034E00000340034003400345434683469347334A4
:1034F0002034693473342034613420346E346534BC
:103500007734203474346534733474342C34203478
:103510006E346F34773420347234653473346534E8
:10352000743420344734453420346634693472347A
:103530007334743420340D340A3400345234653416
:10354000733465347434203464346F346E346534C9
:10355000213420346E346F34773420346C346F343B
:1035600061346434203466347734203474346F34F6
:103570002034473445340D340A3400345234643432
:103580002034003457347234203400343D343D3418
:10359000003400302000AB000030AA000030A90049
:1035A0000030A800AC01AD012D08803AA4008030A5
:1035B0002402031DDD2A04302C020318092B0830D5
:1035C0002000A835A90DAA0DAB0D890BE02A200813
:1035D0002C07840021082D3D85000008A400A501CA
:1035E000A601A7012408A8042508A9042608AA04FE
:1035F0002708AB040130AC070030AD3D2D08803A00
:10360000A40080302402031D072B04302C02031C6D
:10361000DF2A20002B08A3002A08A2002908A10005
:103620002808A00008002000921124009D1F502CA3
:103630009D132000EE017908023E860087010108F3
:10364000860087018101810AF90108002100A21882
:1036500008002108F2007208F9002108860087019D
:103660000108F2007208F800210886008701413F36
:10367000FA000330F2007208A1072108C63A031DC0
:10368000452BC330F2007208A10022102108200649
:103690000319A21424001E140230F2007208200044
:1036A000EE00080024009E140230F2007208200090
:1036B000EE00080024001E1F662B0130F200720885
:1036C0002100A4070430B2310D2208007C08F30069
:1036D0007B08F200F336F20C7208240099007B1C80
:1036E000772B0B30F20072082000EE000800033048
:1036F000F20072082000EE00080024001E1F892B33
:103700000130F20072082100A4070430B2310D220A
:1037100008009E147C08F3007B08F2007308F20096
:10372000F30106307205F40000307305F500F03047
:103730007404FB0000307504FC007B142000EC01D5
:10374000EC0A0230F2007208EE0008006C03031964
:10375000BF2B7A0886008701403FFB00413FFC00F9
:103760007A08033E86008701403F2100B700413FB1
:10377000B8007A0886008701423F2000ED007B08F0
:10378000240099007B1CCA2B0530F200720820002F
:10379000EE0008000330F20072082000EE0008007E
:1037A00024001E1FDE2B0130F20072082100A40746
:1037B00024001E130530B2310D2208000130200014
:1037C000ED026D0A031DF82B0530F2007208FA07AE
:1037D0000130F802031DF02B0030B2310D22080039
:1037E00024009E140230F20072082000EE0008004F
:1037F0002100370886003808870001082400990056
:1038000001302100B7070030B83D080024001E1F1A
:10381000142C0130F20072082100A4070430B231E8
:103820000D2224001E1308009E150830F2007208B5
:103830002000EE0008000830F2007208EE002400BC
:103840009E150800210037088600380887002400EC
:103850001908810001302100B7070030B83D013060
:103860002000ED0203193C2C24009E120630F200C9
:1038700072082000EE00402C24009E16B131BB21BE
:1038800024001E1608000030B2310D22080001305D
:10389000F20072082100A4070630B2310D220800A0
:1038A00020006E0884000C3004020318472CB0314D
:1038B0000435003E82000800B23125229C318B176E
:1038C0000B172200BA01BB010E138E138E11743038
:1038D0002000A0009A30A100B2313D229C31153069
:1038E0002100C8004B30C700D130C600C60B762C73
:1038F000C70B762CC80B762C000022000E17153053
:103900002100C8004B30C700D130C600C60B862C42
:10391000C70B862CC80B862C000022008E17153092
:103920002100C8004B30C700D130C600C60B962C12
:10393000C70B962CC80B962C000022008E159E30CB
:103940002000A0009A30A100B2313D229C311530F8
:103950002100C8004B30C700D130C600C60BAE2CCA
:10396000C70BAE2CC80BAE2C0000CB302100C8001A
:10397000ED30C7004C30C600C60BBC2CC70BBC2CAE
:10398000C80BBC2C0032F8302200E3008430E40085
:103990000030A9000030A8000030A7000030A600C9
:1039A00063080C3E2000A00000302200643D20008F
:1039B000A1009A31C9229C31200023082200C700AF
:1039C000200022082200C600200021082200C50095
:1039D000200020082200C4006308083E2000A00048
:1039E00000302200643D2000A1009A31C9229C31A0
:1039F000200023082200AD00200022082200AC0095
:103A0000200021082200AB00200020082200AA008C
:103A10006308103E2000A00000302200643D20001A
:103A2000A1009A31C9229C31200023082200CB003A
:103A3000200022082200CA00200021082200C9001C
:103A4000200020082200C8000A30BC000030BD0061
:103A50004B08B1004A08B0004908AF004808AE0062
:103A60000030B5000030B4000030B3000030B200C8
:103A700069308600013087002030840001308500E5
:103A800006302100C60016001A00C60B432D003078
:103A90002000A3000030A2000030A1001830A000D8
:103AA000220047082000A700220046082000A600A8
:103AB000220045082000A500220044082000A400A0
:103AC000B5314C259C3120002008013E2200BE006B
:103AD00000302000213D2200BF000030B90000303E
:103AE000B8000030B7000030B6000130C000003030
:103AF000C100C201C301A93169219C3124302200D7
:103B0000D8000130D900E701E8016808803A2100B7
:103B1000C60022005908803A21004602031D932D59
:103B20002200580867020318032E220068082100AB
:103B3000C700220067082100C600C635C70DC6357C
:103B4000C70D4608013EC8000030473DC900683037
:103B5000480784008030493D85000008CA004A08B3
:103B60002000CB00220068082100CC00220067085A
:103B70002100CB00CB35CC0DCB35CC0D4B08023E14
:103B8000CD0000304C3DCE0068304D0784008030C1
:103B90004E3D85000008CF004F082000CC002200D9
:103BA00068082100D100220067082100D000D0352C
:103BB000D10DD035D10D5008033ED2000030513D1B
:103BC000D3006830520784008030533D85000008E0
:103BD000D40054082000CD00220068088500670842
:103BE00084008435850D8435850D683084078030E8
:103BF000853D0008B3315B239C3101302200E7078B
:103C00000030E83D852D0D302000CB009830CC00F1
:103C10007730CD000730CE00B3312F239C310D30EB
:103C20002000CB009830CC000030CD00CE00B33166
:103C30002F239C31B131CD219C310D302000CB00A0
:103C40009830CC007730CD000730CE00B3312F2331
:103C50009C310D302000CB009830CC000030CD00DE
:103C6000CE00B3312F239C3129302100C80096307B
:103C7000C700A630C600C60B3B2EC70B3B2EC80B99
:103C80003B2E29302100C8009630C700A630C60060
:103C9000C60B482EC70B482EC80B482E0D302000EF
:103CA000CB009830CC007730CD000730CE00B33158
:103CB0002F239C310D302000CB009830CC000030F9
:103CC000CD00CE00B3312F239C313D302100C60002
:103CD00046082200E200B13183219C312200DE013E
:103CE000DF01E701E80101302200DE070030DF3D9F
:103CF0005F08803A2100C60080304602031D832EF3
:103D00000B3022005E02031C732E01302200E707F5
:103D10000030E83D6808803A2100C600F5304602D0
:103D2000031D952E313022006702031CFC2FB53095
:103D30002200970068302100C700E430C600C60B9F
:103D40009F2EC70B9F2E000022006208B131F62182
:103D50009C31B1315B219C31003A0319A92EB1315C
:103D60007A219C31200021082200DB00200020085D
:103D70002200DA00A530970068302100C700E43047
:103D8000C600C60BC12EC70BC12E00002200620860
:103D9000B131F6219C31B1315B219C31003A0319DC
:103DA000CB2EB1317A219C31200021082200DD0088
:103DB000200020082200DC005A092100C600220051
:103DC0005B092100C700C60A0319C70A22005C0864
:103DD000210046072200E0005D082100473D220047
:103DE000E10061082000A900220060082000A8006E
:103DF000B131E1219C31200028082200CC002000B4
:103E000029082200CD0020002A082200CE00B4306C
:103E10002000CB002830CC003F30CD0022004C08E1
:103E20002000AB0022004D082000AC0022004E080C
:103E30002000AD00C030A8007F30A9004430AA00A7
:103E4000AA3193229C3120002808BB002908BC001D
:103E50002A08BD003330B800D330B9003F30BA0073
:103E6000AC3194249C3120003808C8003908C900BE
:103E70003A08CA00B1318C219C3120004808CE009C
:103E80004908CF004A08D000AE310A269C312000F4
:103E90004B082200D50020004C082200D60020004C
:103EA0004D082200D70000302000CB002030CC008D
:103EB000C230CD000430A800AD30A9003A30AA00CD
:103EC000220055082000AB00220056082000AC005C
:103ED000220057082000AD00AA3193229C31200017
:103EE0002808CE002908CF002A08D000AE310A26C3
:103EF0009C3120004B082200CF0020004C082200FB
:103F0000D00020004D082200D10000302000B80071
:103F10008030B9004330BA0022004F082000BB00B7
:103F2000220050082000BC00220051082000BD00E3
:103F3000AC3194249C31200038082200D2002000AB
:103F400039082200D30020003A082200D400520889
:103F50002000A000220053082000A10022005408E5
:103F60002000A200A8315A209C3120002108220004
:103F7000E600200020082200E50066082100C600B7
:103F8000063086002730870046088100073086000B
:103F90002730870022006508810060082000AE00FD
:103FA000220061082000AF00B001B101AD31482509
:103FB0009C310D30B13162219C310A30B131622126
:103FC0009C31220065082000AE0022006608200017
:103FD000AF00890D893B8909B000B100AD3148259A
:103FE0009C310D30B13162219C310A30B1316221F6
:103FF0009C312200E701E8012200DE01DF01732E7F
:10400000FE0012001E000130FE020030FF3B7F0860
:104010007E04031900340128200023080319152801
:10402000220821042004031D26280030A0000030AF
:10403000A1000030A20008000130A5002508A30758
:104040000130A236A10CA00C890B2128FE302205DC
:1040500003193F281C280130A5002508A3070130BB
:10406000A007003003180130A10700300318013009
:10407000A2070130A236A10CA00C890B3A28FF3010
:10408000220503194C282B280130A3020130A0354A
:10409000A10DA20D890B4728A11B52280230230233
:1040A0000318442823185A28FF30A0057F30A105A3
:1040B000FF30A2050310A30C2308A500A601A70149
:1040C0001030A535A60DA70D890B61282508A00481
:1040D0002608A1042708A204240803190800A2172F
:1040E00008002000E9070030EA3D6A08803AE7004E
:1040F00080306702083003196902031CFE2F20007C
:10410000E901EA016A08803AE70080306702083076
:10411000031969020318B32820006908E800E701C1
:104120006708003EDD008030683DDE000530DF00BE
:104130000D30E0000030E100E2000E30E30000301E
:10414000E400B3318923A03101302000E9070030B9
:10415000EA3D6A08803AE7008030670208300319B8
:104160006902031C8C282000E901EA016A08803AF0
:10417000E700803067020830031969020318E72856
:1041800020006908E800E7016708073EDD0080308D
:10419000683DDE007A30DF000D30E0000030E100E5
:1041A000E2000E30E3000030E400B3318923A03197
:1041B00001302000E9070030EA3D6A08803AE70054
:1041C00080306702083003196902031CC0282000F0
:1041D000E901EA016A08803AE700803067020830A6
:1041E0000319690203181B2920006908E800E70188
:1041F0006708833EDD008030683DDE000530DF006B
:104200000E30E0000030E100E2000E30E30000304C
:10421000E400B3318923A03101302000E9070030E8
:10422000EA3D6A08803AE7008030670208300319E7
:104230006902031CF4282000E901EA016A08803AB7
:10424000E7008030670208300319690203184F291C
:1042500020006908E800E7016708843EDD0080303F
:10426000683DDE007A30DF000F30E0000030E10012
:10427000E2000E30E3000030E400B3318923A031C6
:1042800001302000E9070030EA3D6A08803AE70083
:1042900080306702083003196902031C28292000B6
:1042A000E901EA016A08803AE700803067020830D5
:1042B000031969020318832920006908E800E7014F
:1042C0006708853EDD008030683DDE000530DF0098
:1042D0000F30E0000030E100E2000E30E30000307B
:1042E000E400B3318923A03101302000E907003018
:1042F000EA3D6A08803AE700803067020830031917
:104300006902031C5C292000E901EA016A08803A7D
:10431000E700803067020830031969020318B729E3
:1043200020006908E800E7016708863EDD0080306C
:10433000683DDE000530DF000F30E0000030E100B6
:10434000E2000E30E3000030E400B3318923A031F5
:1043500001302000E9070030EA3D6A08803AE700B2
:1043600080306702083003196902031C902920007D
:10437000E901EA016A08803AE70080306702083004
:10438000031969020318EB2920006908E800E70116
:104390006708873EDD008030683DDE000A30DF00C0
:1043A0000D30E0000030E100E2000E30E3000030AC
:1043B000E400B3318923A03101302000E907003047
:1043C000EA3D6A08803AE700803067020830031946
:1043D0006902031CC4292000E901EA016A08803A45
:1043E000E7008030670208300319690203181F2AAA
:1043F00020006908E800E7016708883EDD0080309A
:10440000683DDE007530DF000D30E0000030E10077
:10441000E2000E30E3000030E400B3318923A03124
:1044200001302000E9070030EA3D6A08803AE700E1
:1044300080306702083003196902031CF829200044
:10444000E901EA016A08803AE70080306702083033
:10445000031969020318522A20006908E800E701DD
:1044600067084D3EDD008030683DDE000030DF0033
:10447000E0000030E100E2000B30E3000030E40037
:10448000B3318923A03101302000E9070030EA3D33
:104490006A08803AE7008030670208300319690231
:1044A000031C2C2A2000E901EA016A08803AE7008F
:1044B000803067020830031969020318852A20003A
:1044C0006908E800E70167084E3EDD008030683D7E
:1044D000DE000030DF00E0000030E100E2000B30E1
:1044E000E3000030E400B3318923A0310130200023
:1044F000E9070030EA3D6A08803AE7008030670249
:10450000083003196902031C5F2A2000E901EA014F
:104510006A08803AE70080306702083003196902B0
:104520000318B82A20006908E800E7016708813EFF
:10453000DD008030683DDE000030DF00E00000304C
:10454000E100E2000B30E3000030E400B3318923E6
:10455000A03101302000E9070030EA3D6A08803AC6
:10456000E70080306702083003196902031C922AB1
:104570002000E901EA016A08803AE700803067021A
:104580000830031969020318EB2A20006908E800C3
:10459000E7016708823EDD008030683DDE000030C4
:1045A000DF00E0000030E100E2000B30E30000300B
:1045B000E400B3318923A03101302000E907003045
:1045C000EA3D6A08803AE700803067020830031944
:1045D0006902031CC52A2000E901EA016A08803A41
:1045E000E700803067020830031969020318202BA6
:1045F00020006908E800E7016708753EDD008030AB
:10460000683DDE000630DF000030E0000830E100E9
:104610000030E2000630E3000030E400B3318923CB
:10462000A03101302000E9070030EA3D6A08803AF5
:10463000E70080306702083003196902031CF82A7A
:104640002000E901EA016A08803AE7008030670249
:104650000830031969020318552B20006908E80087
:10466000E7016708793EDD008030683DDE000630F6
:10467000DF000030E0000830E1000030E2000630EA
:10468000E3000030E400B3318923A0310130200081
:10469000E9070030EA3D6A08803AE70080306702A7
:1046A000083003196902031C2D2B2000E901EA01DF
:1046B0006A08803AE700803067020830031969020F
:1046C00003188A2B20006908E800E7016708793E93
:1046D000DD008030683DDE000130DF000030E000AA
:1046E0000F30E1000030E2000130E3000030E40070
:1046F000B3318923A03101302000E9070030EA3DC1
:104700006A08803AE70080306702083003196902BE
:10471000031C622B2000E901EA016A08803AE700E5
:10472000803067020830031969020318BF2B20008C
:104730006908E800E7016708793EDD008030683DE0
:10474000DE000130DF000030E0000F30E10000301B
:10475000E2000130E3000030E400B3318923A031EE
:1047600001302000E9070030EA3D6A08803AE7009E
:1047700080306702083003196902031C972B200060
:10478000E901EA016A08803AE700803067020830F0
:10479000031969020318EC2B20006908E800E701FF
:1047A0006708FE3ECB008030683DCC00A830CD00CD
:1047B0002930CE00B3312F23A03101302000E9078A
:1047C0000030EA3D6A08803AE7008030670208302E
:1047D00003196902031CCC2B2000E901EA016A08D5
:1047E000803AE70080306702083003196902031835
:1047F000192C20006908E800E7016708FD3ECB009E
:104800008030683DCC004430CD003230CE00B33132
:104810002F23A03101302000E9070030EA3D6A086B
:10482000803AE70080306702083003196902031CF0
:10483000F92B2000E901EA016A08803AE70080309C
:1048400067020830031969020318462C2000690822
:10485000E800E7016708FC3ECB008030683DCC00F3
:104860003630CD005230CE00B3312F23A03101308D
:104870002000E9070030EA3D6A08803AE70080300E
:104880006702083003196902031C262C2000E90185
:10489000EA016A08803AE7008030670208300319AD
:1048A00069020318732C20006908E800E701670813
:1048B000F83ECB008030683DCC007830CD00B7307A
:1048C000CE00B3312F23A03101302000E9070030A2
:1048D000EA3D6A08803AE700803067020830031931
:1048E0006902031C532C2000E901EA016A08803A9E
:1048F000E700803067020830031969020318A02C12
:1049000020006908E800E7016708F53ECB00803029
:10491000683DCC00E030CD006130CE00B3312F23B4
:10492000A03101302000E9070030EA3D6A08803AF2
:10493000E70080306702083003196902031C802CED
:104940002000E901EA016A08803AE7008030670246
:104950000830031969020318CD2C20006908E8000B
:10496000E7016708F13ECB008030683DCC000030A5
:10497000CD007030CE00B3312F23A03101302000A4
:10498000E9070030EA3D6A08803AE70080306702B4
:10499000083003196902031CAD2C2000E901EA016B
:1049A0006A08803AE700803067020830031969021C
:1049B0000318022D20006908E800E7016708F93EA6
:1049C000DD008030683DDE002D30DF000030E0008B
:1049D0000130E1000030E2000630E3000030E40086
:1049E000B3318923A03101302000E9070030EA3DCE
:1049F0006A08803AE70080306702083003196902CC
:104A0000031CDA2C2000E901EA016A08803AE70079
:104A1000803067020830031969020318362D200020
:104A20006908E800E7016708033EDD008030683D63
:104A3000DE000030DF00E0000930E1000030E2007D
:104A40000130E3000030E400B3318923A0310130AC
:104A50002000E9070030EA3D6A08803AE70080302C
:104A60006702083003196902031C0F2D2000E901B9
:104A7000EA016A08803AE7008030670208300319CB
:104A8000690203186A2D20006908E800E701670839
:104A9000503EDD008030683DDE004030DF000030F9
:104AA000E0000030E100E2000C30E3000030E40000
:104AB000B3318923A03101302000E9070030EA3DFD
:104AC0006A08803AE70080306702083003196902FB
:104AD000031C432D2000E901EA016A08803AE7003F
:104AE0008030670208300319690203189F2D2000E7
:104AF0006908E800E7016708053EDD008030683D91
:104B0000DE000A30DF000030E0000C30E100003051
:104B1000E2000430E3000030E400B3318923A03127
:104B200001302000E9070030EA3D6A08803AE700DA
:104B300080306702083003196902031C772D2000BA
:104B4000E901EA016A08803AE7008030670208302C
:104B5000031969020318D32D20006908E800E70152
:104B60006708013EDD008030683DDE000030DF0078
:104B7000E0000F30E1000030E2000130E3000030DF
:104B8000E400B3318923A03101302000E90700306F
:104B9000EA3D6A08803AE70080306702083003196E
:104BA0006902031CAC2D2000E901EA016A08803A81
:104BB000E700803067020830031969020318082EE5
:104BC00020006908E800E7016708033EDD00803047
:104BD000683DDE000230DF000030E0000C30E10014
:104BE0000030E2000430E3000030E400B3318923F8
:104BF000A03101302000E9070030EA3D6A08803A20
:104C0000E70080306702083003196902031CE02DB9
:104C10002000E901EA016A08803AE7008030670273
:104C200008300319690203183D2E20006908E800C6
:104C3000E7016708063EDD008030683DDE000A308F
:104C4000DF000030E0000C30E1000030E200043012
:104C5000E3000030E400B3318923A03101302000AB
:104C6000E9070030EA3D6A08803AE70080306702D1
:104C7000083003196902031C152E2000E901EA011E
:104C80006A08803AE7008030670208300319690239
:104C90000318722E20006908E800E7016708083E43
:104CA000DD008030683DDE000A30DF000030E000CB
:104CB0000830E1000030E2000430E3000030E4009E
:104CC000B3318923A03101302000E9070030EA3DEB
:104CD0006A08803AE70080306702083003196902E9
:104CE000031C4A2E2000E901EA016A08803AE70025
:104CF000803067020830031969020318A72E2000CC
:104D00006908E800E7016708A03EDD008030683DE3
:104D1000DE000130DF000030E0000730E10000304D
:104D2000E2000130E3000030E400B3318923A03118
:104D300001302000E9070030EA3D6A08803AE700C8
:104D400080306702083003196902031C7F2E20009F
:104D5000E901EA016A08803AE7008030670208301A
:104D6000031969020318DB2E20006908E800E70137
:104D70006708613EDD008030683DDE000030DF0006
:104D8000E0000830E1000030E2000130E3000030D4
:104D9000E400B3318923A03101302000E90700305D
:104DA000EA3D6A08803AE70080306702083003195C
:104DB0006902031CB42E2000E901EA016A08803A66
:104DC000E700803067020830031969020318102FCA
:104DD00020006908E800E7016708823EDD008030B6
:104DE000683DDE000D30DF000030E0000C30E100F7
:104DF0000030E2000430E3000030E400B3318923E6
:104E0000A03101302000E9070030EA3D6A08803A0D
:104E1000E70080306702083003196902031CE82E9E
:104E20002000E901EA016A08803AE7008030670261
:104E30000830031969020318442F20006908E800AC
:104E4000E7016708793EDD008030683DDE005030C4
:104E5000DF000030E0000030E100E2000630E30057
:104E60000030E400B3318923A03101302000E9078C
:104E70000030EA3D6A08803AE70080306702083077
:104E800003196902031C1D2F2000E901EA016A08C9
:104E9000803AE7008030670208300319690203187E
:104EA000792F20006908E800E7016708FE3EDD0071
:104EB0008030683DDE000430DF000030E000043068
:104EC000E1000030E2000330E3000030E400B331E1
:104ED0008923A03101302000E9070030EA3D6A084B
:104EE000803AE70080306702083003196902031C2A
:104EF000512F2000E901EA016A08803AE70080307A
:104F000067020830031969020318AE2F20006908F0
:104F1000E800E7016708083EDD008030683DDE00FC
:104F20000530DF000030E0000C30E1000030E2002E
:104F30000430E3000030E400B3318923A0310130B4
:104F40002000E9070030EA3D6A08803AE700803037
:104F50006702083003196902031C862F2000E9014B
:104F6000EA016A08803AE7008030670208300319D6
:104F700069020318E32F20006908E800E7016708C9
:104F8000873EDD008030683DDE000330DF0000300A
:104F9000E0000E30E1000030E2000230E3000030BB
:104FA000E400B3318923A03101302000E90700304B
:104FB000EA3D6A08803AE70080306702083003194A
:104FC0006902031CBB2F0D302000CB009830CC00B1
:104FD0007730CD000730CE00B3312F23A0310D3014
:104FE0002000CB009830CC000030CD00CE00B33193
:104FF0002F230800B7315E2FAB31D32BAA31762A8D
:1050000022008D018C018E01043024008C008D0162
:105010008E01333023008C008D01FF308E00F03084
:1050200021008D0027308E0027308C0000308B1B34
:1050300001302000A0008B1355303C008F00AA30B7
:105040008F000F102108E0390C38A1002008E0394A
:105050000E38A0003D001408E0391E3894001C08EA
:10506000E03919389C002408E0391438A4001F08DE
:10507000E0391A389F001E08E03918389E003C00BD
:105080001E08E0390D389E001D08E0390F389D00DC
:105090003D001D08E0391B389D0055303C008F0055
:1050A000AA308F000F142000201C58288B170800EE
:1050B0008B13080020002008A4002108A500220866
:1050C000A6000310250D260DA7002708AD002D080A
:1050D000031D73280030A3000030A2000030A1009F
:1050E0000030A00008002008A4002108A500220824
:1050F000A6001730A636A50CA40C890B7A28240824
:10510000A7002708A800A117FF30A005FF30A105C0
:105110000030A2052008A9002108AA002208AB003F
:10512000AC018E30AD02AD1FB1282D08803A8F3E04
:105130000318A3280030A3000030A2000030A10013
:105140000030A00008000130AC36AB0CAA0CA90C52
:10515000890BA4280130A4002408AD070319CA282C
:10516000A32818302D02031CC7280030A3000030EC
:10517000A2000030A1000030A00008000130A935D5
:10518000AA0DAB0DAC0D890BBF280130AD022D0867
:10519000031DBE2828080319D828A909AA09AB09A4
:1051A000AC09A90A0319AA0A0319AB0A0319AC0A24
:1051B0002C08A3002B08A2002A08A1002908A0009F
:1051C00008002000DD008430DE000030DF00E00059
:1051D0000630E1000030E2000130E3000030E4007E
:1051E000B3318923A83112302000DD006030DE00A9
:1051F0000130DF000030E0000F30E1000030E2005D
:105200000130E3000030E400B3318923A8310030DD
:105210002000DD007130DE000030DF00E0000130F2
:10522000E1000030E2000130E3000030E400B3317F
:105230008923A83100302000DD007530DE00003009
:10524000DF00E0000130E1000030E2000130E30067
:105250000030E400B3318923A831A3302000DD0001
:105260008130DE000030DF00E0000630E100003079
:10527000E2000130E3000030E400B3318923A831BB
:10528000A3302000DD008530DE000030DF00E000CC
:105290000630E1000030E2000130E3000030E400BD
:1052A000B3318923A83122302000DD006030DE00D8
:1052B0000130DF000030E0000F30E1000030E2009C
:1052C0000130E3000030E400B33189230030B7310E
:1052D000792F2000E901EA010030CB009930CC00A1
:1052E000C030CD009D30CE00B3312F23A931013025
:1052F0002000CB009930CC000430CD002130CE000E
:10530000B3312F23A93102302000CB009930CC00DB
:105310001030CD008F30CE00B3312F23A93115309E
:105320002000CB009830CC000030CD00CE00B3314F
:105330002F23A93102302000DD006030DE00013073
:10534000DF000030E0000F30E1000030E20001300B
:10535000E3000030E400B3318923A931003020009C
:10536000DD007030DE000030DF00E0000130E100E1
:105370000030E2000130E3000030E400B331892363
:10538000A93100302000DD007030DE000030DF0089
:10539000E0000130E1000030E2000130E3000030C5
:1053A000E400B3318923A93100302000DD007430DE
:1053B000DE000030DF00E0000130E1000030E200FC
:1053C0000130E3000030E400B3318923A931A33078
:1053D0002000DD008030DE000030DF00E00006301D
:1053E000E1000030E2000130E3000030E400B331BE
:1053F0008923A330A831E1282000E9070030EA3DE5
:105400006A08803AE70080306702083003196902B1
:10541000031C912A2000E901EA016A08803AE700AA
:1054200080306702031D162A033069020318392AE7
:1054300020006908E800E7016708783ECB0080306B
:10544000683DCC003C30CD008C30CE00B3312F23F2
:10545000A93101302000E9070030EA3D6A08803AAE
:10546000E70080306702031D372A03306902031CFE
:10547000182A04302000E9000030EA006A08803A67
:10548000E700803067020830031969020318682AB0
:1054900020006908E800E7016708783ECB0080300B
:1054A000683DCC003830CD008C30CE00B3312F2396
:1054B000A93101302000E9070030EA3D6A08803A4E
:1054C000E70080306702083003196902031C482A8C
:1054D0002000E901EA016A08803AE70080306702AB
:1054E000083003196902A03103187F2820006908D9
:1054F000E800E7016708023EDD008030683DDE001D
:105500000430DF000030E0000C30E1000030E20049
:105510000430E3000030E400B33189230130A031CE
:105520007128A731FC2F20002B08AE002C08AF00FB
:105530002D08B00003102F0D300DB1003108B6005A
:105540003608031DAA2A0030A8000030A900003048
:10555000AA0008002808AE002908AF002A08B000F9
:1055600003102F0D300DB1003108B7003708031DAF
:10557000C02A0030A8000030A9000030AA000800AE
:105580000030B3000030B4000030B5008930370778
:10559000AE002E08B6022B08AE002C08AF002D0876
:1055A000B0001030B036AF0CAE0C890BD22A2E08EA
:1055B000B1003108B7002808AE002908AF002A085A
:1055C000B0001030B036AF0CAE0C890BE22A2E08BA
:1055D000B1003108B7068030AE002E08B705AC1711
:1055E000FF30AB05FF30AC050030AD05A917FF302B
:1055F000A805FF30A9050030AA051830AE002E0816
:10560000B2000130B335B40DB50D890B022B2A0859
:105610002D02031D112B29082C02031D112B280814
:105620002B02031C1A2B2808AB022908AC3B2A08C2
:10563000AD3B33140130AB35AC0DAD0D890B1B2BDD
:105640000130B202031D012B3308A0003408A10071
:105650003508A2003608AE002E08A3003708AF00B8
:105660002F08A400A0310C2020002008A800210849
:10567000A9002208AA0008002000E9070030EA3D3E
:105680006A08803AE700803067020830031969022F
:10569000031CE62B2000E901EA016A08803AE700D2
:1056A000803067020830031969020318982B200024
:1056B0006908E800E7016708643EDD008030683D66
:1056C000DE000130DF000030E0000F30E10000308C
:1056D000E2000130E3000030E400B3318923AB3154
:1056E00020006908E800E7016708643EDD008030BB
:1056F000683DDE000130DF000030E0000730E100EF
:105700000030E2000130E3000030E400B3318923CF
:10571000AB3101302000E9070030EA3D6A08803AE9
:10572000E70080306702083003196902031C572B19
:105730002000E901EA016A08803AE7008030670248
:105740000830031969020318C52B20006908E80016
:10575000E7016708763ECB008030683DCC0084309E
:10576000CD000030CE00B3312F23AB31013020000B
:10577000E9070030EA3D6A08803AE70080306702B6
:10578000083003196902031CA52B2000E901EA0176
:105790006A08803AE700803067020830031969021E
:1057A000AA3103180A2A20006908E800E7016708FF
:1057B000773ECB008030683DCC008230CD00183081
:1057C000CE00B3312F230130A931FC29A731FA2FA4
:1057D0002000C900C701C8014808803AB1008030E4
:1057E0003102031DF52B3008470203180B2C200053
:1057F00047084907B1003108860087010108B20057
:105800004708333E86008701320881000130C70710
:105810000030C83DEC2B20002F08860087010108CE
:10582000B1003008333E86008701310881002F0A1D
:10583000860087010108B1003008013E333E860032
:105840008701310881003008023EB1003108C600EE
:10585000C230A0009A30A100B2313D22AB3120000D
:105860004908860087010108B4312524AB312000A6
:10587000490A860087010108B4312524AB31C030C4
:105880002000A0009A30A100B2313D22AB312000AF
:105890002F08860087010108B4312524AB31200090
:1058A0002F0A860087010108B4312524AB310D3061
:1058B000B1316221AB310A30B1316221AB310230FA
:1058C0002000B1003108CA00EF014A0303198C2CF3
:1058D0004608B1003108A7001030A8000030A90028
:1058E0004A30B2003208AA003330B3310523AB315D
:1058F000023020004A060319782C4A0803198C2C20
:105900004A0303198C2C64306F0603198C2C013068
:10591000B1003108EF07652C4A03031D0800013070
:10592000AF000030B000080020003808BE00390881
:10593000BF003A08C00003103F0D400DC1004108F0
:10594000C2004208031DAB2C0030B8000030B90083
:105950000030BA0008003B08BE003C08BF003D080C
:10596000C00003103F0D400DC1004108C7004708AB
:10597000031DC12C0030B8000030B9000030BA005F
:10598000080047087B3EBE003E08C2073808BE003C
:105990003908BF003A08C0001030C036BF0CBE0C3A
:1059A000890BCD2C3E08C1004108C7003B08BE0052
:1059B0003C08BF003D08C0001030C036BF0CBE0C14
:1059C000890BDD2C3E08C1004108C7068030BE00AF
:1059D0003E08C705B917BC17FF30BB05FF30BC0533
:1059E0000030BD050030C3000030C4000030C500E9
:1059F0000730BE003E08C600381C042D3B08C30714
:105A00003C08C43D3D08C53D0130BA36B90CB80C60
:105A1000890B052D0130BB35BC0DBD0D890B0B2D40
:105A20000130C602031DFC2C0930BE003E08C60032
:105A3000381C202D3B08C3073C08C43D3D08C53D2C
:105A40000130BA36B90CB80C890B212D0130C5369E
:105A5000C40CC30C890B272D0130C602031D182D61
:105A60004308A0004408A1004508A2004208BE0067
:105A70003E08A3004708BF003F08A400A0310C2047
:105A800020002008B8002108B9002208BA00080048
:105A900000302000A3000030A2000330A100E83055
:105AA000A0003108A7003008A6002F08A5002E0886
:105AB000A400B5314C25AD31200023082204210477
:105AC000200403197C2D0030A3000030A200033015
:105AD000A100E830A0003108A7003008A6002F0878
