:1000000080312E28080055347E14803120007F086E
:10001000F6000B1F14282100911D14282000911DAB
:100020001428AC31392480310B1F1F282100121DE8
:100030001F282000121D1F288031022080310B1F35
:1000400029282100921D29282000921D2928A43149
:10005000502476082000FF007E10090080313028EF
:1000600050308400A3308500F030860026308700B1
:100070000130FF000030AB31B323803180310320E9
:100080008031FD0090308400AB3085003830860030
:10009000013087000030FF000630AB31B3238031E0
:1000A000F701F801F901FA01FB01FC01EB01EC0198
:1000B000ED01EE01EF01E3308400003085000C30EB
:1000C000FE000030FF00AB31A723803120308400D8
:1000D000013085001830FE000030FF00AB31A7234F
:1000E0007E102000A5319A2D99340034FD34E0347F
:1000F0009934013421340434993402349334103463
:100100008034FE34A534A8348034FD34363444348D
:100110008034F734A23446348034F5346134E0342A
:100120008434FE34A534A8348434FD343634443465
:100130008434F734A23446348434F5346134E03402
:100140000034073400342A34803400344D3405340C
:10015000803407344D347A34843400344D340534DB
:10016000843407344D347A348034F834B7347834F6
:100170008434F834B73478348034A73414340034F9
:100180008434A734143400348034A8343C3400342C
:100190008434A8343C34003470340634123454347B
:1001A0007434063412345434703409343A3490348C
:1001B000743409343A3490347034193400340434CB
:1001C00074341934003404347034083407348034FF
:1001D000743408340734803480348134303400344B
:1001E00084348134303400348034793488346C344D
:1001F0008434793488346C34803484348D347A3463
:10020000803485344D347A3480348634CD347A3435
:1002100080348734CD347A34803488344D347A3421
:10022000843484348D347A34843485344D347A344F
:1002300084348634CD347A3484348734CD347A347B
:10024000843488344D347A347034193400340534AD
:100250007434193400340534703416348134C034A5
:10026000743416348134C03480344D3480340034D6
:1002700084344D348034003480344E3410340034AF
:1002800084344E3438340034803461343C34203487
:10029000843461343C3420348034A03400348034DD
:1002A0008434A03400340034703408340C34003406
:1002B000743408340C340034803401340234013492
:1002C00084340134023401348034FB3477343634DE
:1002D0008434FB34773436348034F0346734B434C7
:1002E0008434F0346734B4348034EF34B634A0341A
:1002F0008434EF34B634A03470341A34FF3400340C
:1003000071341A34FF34003472341A34FF34003438
:1003100073341A34FF3400348034F9348B345A3453
:100320008434F9348B34DA348034DF340034663486
:100330008434DF34003466348034F134B034003433
:100340008434F134B0340034803478348C3438342C
:10035000843478348C343C348034FF34FD34C034FD
:100360008134FF34E53440348234FF34E5344034A2
:100370008334FF34E53440348434FF34FD34C034F6
:100380008534FF34E53440348634FF34E53440347A
:100390008734FF34E5344034C234ED340134003462
:1003A0007C342A345E342F340134003415344C3418
:1003B0000034003415346434013400340034003423
:1003C000003400340034003400340034003400348D
:1003D0000034003400340334003400340034023478
:1003E0000034003400340334003400340034013469
:1003F0000134013401340134013401340134013455
:10040000183460340134003418348034013400343A
:10041000A834633426347834D734E1341734FC34C8
:1004200084346334003400349C3440340034003469
:10043000A834843418346834D734E1340F34F834B1
:10044000D434043410340034BC34A3340134B43410
:100450009C342134FF34F834103400340034053433
:10046000A934623400340034BC3423340134B5344C
:100470000C340034003406349D34603400340134CC
:100480009C3421340034083484342134FF34F8346B
:10049000443400344834003484344134FF34FC3470
:1004A0001834603401340034183480340234003499
:1004B000A83463341834D034D43423342534A434E9
:1004C000B434803450340134D43423342534A0344B
:1004D0009C3421340034083484342134FF34F8341B
:1004E000443400344834003484344134FF34FC3420
:1004F0001834A03401340034D734E1344F34FC34A0
:10050000A834A53426347834D734E1340F34F434A5
:100510008434853400340034D734E1341734F8346B
:100520009C348434003401349C342134FF34F4345A
:10053000BC3444340134B4341034003400340C344A
:10054000D4340534203400341834403401340034B9
:10055000B834A43400340334A83442341834D034CA
:10056000E034A5341034003418344034E034FF341F
:100570009C34A53400340434A8344234FF34FF34AE
:100580008434C53400340034E034C63410340334C9
:10059000D434053430340034BC34033400340034F3
:1005A0000C34003400340934A83460349F340734E8
:1005B0000734C0340A34E3341534003400340034D2
:1005C0009C34213400340C3485342134FF34FC3421
:1005D00084342134FF34F434443400344834003457
:1005E00084344134FF34F8340734C0340A34DC3402
:1005F000A8348434803400349C34213400340C34E6
:1006000085342134FF34FC3484342134FF34F43411
:10061000443400344834003484344134FF34F834F2
:10062000D734E1341734F034D734E1347734F43448
:10063000D734E1349734F834D734E1344F34FC34D0
:10064000D734E1340F34EC349C342134FF34EC34AF
:10065000A934C33400340034A834443400340034A2
:100660000734FF34FF34B434AA3445340034003442
:10067000BC342B34003400341034003400341934CA
:100680001834A0340034FF34A434823400341F34CE
:100690001834603401340034A834A534FF34FF34F6
:1006A000B834843400341834A834633426347834AD
:1006B000E234523428340334843463340034003454
:1006C000E234443490340434183480340134003437
:1006D000B834633400340334B934CE3400341D34B8
:1006E000A83484341834D034E134D234703404342F
:1006F000E034633420340034D434033470340434AC
:10070000B434803450340134AC34423400340134D5
:10071000D434033420340034E034603410340234F0
:10072000E034433410340434AC346234FF34FF34E6
:100730000734FF34FF34B834B834633400345F34E2
:100740009C3421340034143485342134FF34FC3497
:1007500084342134FF34EC3484344134FF34F034B5
:100760008534C134FF34F434443400344834003424
:1007700086344134FF34F8341834C0340134003442
:10078000D734E1344F34FC34A834C63426349C3496
:10079000D734E1341734F434E034A3343034003443
:1007A000D734E1347734F8349C34C0340034003426
:1007B000D734E1340F34F0349C34803400340134C5
:1007C0009C342134FF34F034A834433400340034F2
:1007D0000734C0340734CC34D834053430340034D2
:1007E0009C34803400340D340734C034053447342D
:1007F000A834623400340034A83462340034003445
:100800000734C03406345534A534CB3400347F3437
:10081000A8346234003400349C34803400343B34D7
:100820000734C03405344034E134CB347034003400
:1008300018346034FF34FF34BC344E3400341A347E
:10084000A83463340F34FF340C34003400340E34D5
:10085000E1346B3418340334A8346B34E03400349E
:100860000734C034053457341534003400340034B0
:10087000A8346234003400340734C0340734A4345C
:100880009C348034003401349C34213400341034DE
:1008900085342134FF34FC3484342134FF34F03483
:1008A00084344134FF34F434443400344834003464
:1008B0008534C134FF34F8340334FF34FF34F53465
:1008C000A8346B34F0340034D734E1341734F834BE
:1008D000D734E1344F34FC34D734E1340F34F434BA
:1008E000BD34A334003407349C342134FF34F43451
:1008F0000C34003400341134A83443340034003450
:100900009C34A03438340034A834623400340034C9
:100910000734C03405342D349C34803400346034C2
:100920000734C03405343F349C3460340034003420
:10093000A8346234003400349C348034003475347C
:100940000734C03405341C349C344234003404343D
:100950000734C03405343934A8346B34803400345F
:10096000BD34A234003407341334FF34FF34F4347C
:100970009C34A034383400349C34213400340C349A
:1009800085342134FF34FC3484342134FF34F4348E
:10099000443400344834003484344134FF34F8346F
:1009A000D734E1341734F834D734E1344F34FC34DD
:1009B000D734E1340F34F434BD34A3340034073475
:1009C0009C342134FF34F4340C34003400341134BA
:1009D000A834433400340034A83462340034003482
:1009E0000734C034053408349C3480340034753402
:1009F00018348034FF34FF34A83484347F34FF3417
:100A00000734C03405342334E0346B3420340334E9
:100A1000A8346234003400349C34803400346034B0
:100A20009C34A0343B34FF340734C03405340A34DA
:100A30009C34423400340434BD34A23400340734CE
:100A40001334FF34FF34F434A834623400340034F7
:100A50009C34213400340C3485342134FF34FC348C
:100A600084342134FF34F4344434003448340034C2
:100A700084344134FF34F834D734E1344F34FC3417
:100A8000D734E1341734D834D734E1340F34D43484
:100A9000D734E1347734DC34D734E1349734E0347C
:100AA000D734E134A734E434D734E134B734E8340C
:100AB000D734E134C734EC34D734E134D734F034AC
:100AC000D734E134E734F434D734E134F734F8344C
:100AD0009C342134FF34D0340734C03409346F34AB
:100AE000A8344034FF34F034A83460349F340634E2
:100AF0000734C0340A343B349C3480340334253406
:100B00000734C0340A341D34A834603498341434A3
:100B1000E4342B34103400340C34003404341634F0
:100B20009C34603400340034A83460349834143475
:100B30000734C0340A3433349C3480345B345B343F
:100B4000A83460349F3408340734C0340A34303455
:100B50009C3480344B3423349C346034003400346F
:100B60001834A03401340034B834833400340334EE
:100B7000A834A5341834D0349C34633400340134A0
:100B80009C34403400340034E0348434283400345D
:100B9000BC3423340134B5341334FF34FF34F93416
:100BA000D4340434103404341834C03401340034E0
:100BB0001834E03401340034A834C6342634783490
:100BC000A834E7341834683418346034CF34FF3430
:100BD000D434063410340034D434073410340034A0
:100BE000A8346334FF34FF34C13440341834003443
:100BF000C134403410340134A83462340034003439
:100C00009C348034003402349C34A0340034FF34EB
:100C10000734C0340634E3349C34423400340134A5
:100C2000BC342234003408341334FF34FF34FB3432
:100C3000A8346234003400341B348034013400346E
:100C40001B34C03401340034AB349C34273420349A
:100C5000AB34DE342634AC34B434A03450340134F4
:100C60009C34823400340134A83460349834153410
:100C7000A434443400340734A434843400340334BA
:100C8000D4341C34283400340734C0340934EC34F0
:100C9000D434013420340034E03480345834023405
:100CA0001934003401340034E134643458340434E9
:100CB000A83460349F340634AD346B34FF34FF34D1
:100CC000A934083427341C34B9346B3400345F340D
:100CD0000734C0340934E334D4340834583400348D
:100CE000B8346B3400344D34BC3423340034043411
:100CF0000C34003401349E34BC34233400340234C8
:100D00000C34003402342B34BC3423340034033428
:100D10000C340034023434341534003400340034DC
:100D2000B434603450340134193480340134003424
:100D3000A9348C341834CC3484348C3400340034EA
:100D4000E0346334203402341834803430340034D6
:100D5000E434A3342034003410340034003411342B
:100D60001834A03401340034A834A534183468345D
:100D70008534C53400340034BC342E34003400349F
:100D80001034003400340C34A8346E340034003491
:100D90009C348034003401340734FF34FF34113480
:100DA000A834AE34003400341834C0340134003474
:100DB0001834E03401340034A834C634263478348E
:100DC0009D34003400340134A834E73418346834D6
:100DD000D434063470340034D4340734403400340E
:100DE0000734C0340934C134A8346034983414341E
:100DF000BC342B345A345A340C3400340134783433
:100E0000BC342B345B345B340C3400340234233474
:100E100018346034013400349C348034003402349B
:100E2000A83463342634E834D43403342034003412
:100E30009C346234FF34FC34BC3443340034033417
:100E400010340034003405341834A0340134003434
:100E50009C34C03400340234A834A5342634E83439
:100E6000D434053430340034A834623400340034CF
:100E70000734C03404349D349C348034003400344E
:100E8000A6348B3400340234BC34143400340034BF
:100E900010340034013412348434613400340034AA
:100EA0008434E13400340034193400340134003423
:100EB000BA34C73400340234A934083427340C342B
:100EC000E0347634403400348434833400340034E5
:100ED000BC340434003400340C34003400340334A3
:100EE0009D34803400340134D4340334603400340D
:100EF0000734C0340634CB34A834623400340034B0
:100F00001834A03401340034B8346B3400348834DD
:100F1000A834A53427340C349C34C0340034003455
:100F2000E034963428340034BD34A33400341F3404
:100F3000D434043430340034103400340034743485
:100F4000A934CB3400340034A434633400341F3467
:100F5000BC34033400340C34103400340134D13444
:100F6000BC340334003418341034003401346C348D
:100F7000BC340334003402340F34FF34FF349C3467
:100F80001834E03401340034BB3402340034023409
:100F9000A834E7342634EC349D340034FF34FE3476
:100FA000E034D83438340034A834623400340034A7
:100FB0008434A634003400349C34803400345034FB
:100FC000E034A534403403340734C03404344B34A3
:100FD000D4340634283400349D348034F034003462
:100FE000E0346B34603403340734C03409348F3454
:100FF000A834633400344034A834623400340034FC
:101000000734C034043444349C34803400343B34DA
:1010100018348034FF34FF34A83484340F34FF3460
:101020000734C03404345F34E0346B342034033488
:10103000B434803450340134A834603498341234D9
:101040000734C03409349134B83484340034503413
:10105000A8346234003400340734C03404343934E2
:101060009C34803400347F34A8346234003400343B
:10107000A434AB3400341F340734FF34FE34B534A9
:101080009C34803400340734A83462340034003493
:101090000734C0340634A1349C3480340034003426
:1010A0001834A03401340034A834A5342634E8348C
:1010B0008434653400340034BC34033400340234E6
:1010C0001034003400341634A83462340034003450
:1010D0000734C0340434CB349C34803400340434BA
:1010E0001834C0340134003419340034013400346D
:1010F000A834C6342634E0349C34E034003404345C
:10110000E034623430340034A93408342634D8341E
:101110001934803401340034D83403343834003482
:10112000A9348C342634D034E03462344034003472
:101130001834803401340034D83403343834003463
:10114000A834843400341834E03462346034003419
:101150009C34A03400340134D8340334383400349F
:10116000E034623420340034D8340334283400347A
:101170009C348034003400340734C034063497344F
:10118000A834623400340034A834623400340034AB
:101190009C348034003402340734C0340634323492
:1011A0009C34A03400340C341834C034013400347E
:1011B000A834C63427340C34E234D6343034003406
:1011C0008434763400340034BC34233400340034A6
:1011D0000C34003400341D341834E034013400344D
:1011E000A834E7342634B034E0347834383400346A
:1011F0008434633400340034BC3443340034013468
:101200000C34003402343234193480340134003464
:10121000A9348C342634EC34E3341834603400348C
:101220008434783400340034A434833400340234F9
:10123000BC3424340034003410340034003410340E
:101240009C34C034003401341834E03401340034A8
:10125000E034A63410340834A834E73427341C347E
:101260008434DE3400340034A8346334003402346F
:10127000E034A534303404348434C73400340034CA
:10128000D434183418340034BC34063400340034F8
:101290001034003402348234D4341E342834003400
:1012A000BC3425340034FF340C3400340234E034D0
:1012B0009C34A034383400340734C03404347D34D2
:1012C000A8346234003400340334FF34FF34323441
:1012D0001534003400340034BD3443340034183441
:1012E0000F34FF34FF342F341834603401340034A9
:1012F000A834633426349C34E134C23418340034C6
:101300008C346E3400340034BC3423340034013463
:101310000C34003401349C341834C03401340034AB
:101320009C346334FF34FE34BC3443340034013421
:101330001334FF34FF34253418348034013400343E
:10134000BB34023400340234A834843426347C3470
:1013500084347C3400340034E234D8342034003413
:101360001834A034003466348434963400340034A5
:10137000E034633420340234E43443342834003419
:1013800010340034023429341834C03401340034A9
:101390001834E03401340034A834C6342634E03440
:1013A000A834E7342634D834E2348234303400347C
:1013B000E2344234383400348C3492340034003413
:1013C0008C34743400340034E4342434183400345D
:1013D0001334FF34FF3411341834603401340034D2
:1013E000A834633426347C34E3341834183400349D
:1013F00084347C3400340034843498340034003431
:10140000E03463342034023418348034003430340F
:10141000E434A334203400341334FF34FF3408346C
:101420009F34003400340434A8346234003400346F
:101430000734C0340434CF349F341834FF34FF34BD
:10144000A8346234003400340734C0340434CC345B
:10145000AA34CB3400340034E234CB34B034023418
:101460009E34D63400340134BC34B63400340234F3
:10147000103400340234CF34BC34383400340034F7
:101480001334FF34FF34F534A834623400340034AC
:101490009C34803400340E349C34A0340034013445
:1014A0000734FF34FE343034D4340134583400343B
:1014B0000734FF34FE345934A83462340034003425
:1014C0009F34003400340434A834623400340034CF
:1014D0000734C0340434CA349F341834FF34FF3422
:1014E000A8346234003400340734C0340434C734C0
:1014F000AA34CB3400340034E234CB34B034023478
:101500009E34D63400340134BC34B6340034023452
:10151000103400340234B934BC343834003400346C
:101520001334FF34FF34F534A8346234003400340B
:101530009C34803400340E349C34A03400340234A3
:101540000734FF34FE341C34AB344B3400340034E5
:101550000734FF34FE344534A83462340034003498
:101560008434A13400340034A834623400340034AC
:10157000B834C53400340334B834BA3400340A34CF
:101580009C34803400340E34A834C634003404341F
:101590000734FF34FE341234E034A63428340434E3
:1015A0008434C13400340034BD3486340034003413
:1015B0001034003402346734BD349A3400340034BB
:1015C0000C34003402346F34193480340134003464
:1015D0001834A03401340034A9348C340034143469
:1015E000A834A5340034103484348C3400340034EE
:1015F00084346534003400348434C134003400341D
:10160000E0347A341B340634E03486342334063430
:10161000E034643418340034BD34A334003400346E
:101620000C34003402348234193400340134003470
:101630001934803401340034A934083400340C34B3
:10164000A9348C34003408348434683400340034D1
:1016500084348C34003400348434A13400340034B5
:10166000E0349A3423340634E03465341B340634D1
:10167000E034633420340034BD3463340034003447
:101680001034003402345334AF345A34FF34FF344E
:10169000E0346034D0340234E3344334D03404349E
:1016A000BD347A34003400341034003402344E3403
:1016B00015340034003400348C3472340034003477
:1016C000BC342334003407340C34003402344A343C
:1016D0001834C03401340034A834C6342634D0342D
:1016E000E0348234303400348C34843400340034B8
:1016F000E434A434183400340C3400340234443458
:1017000015340034003400349C3463340034013424
:101710000334FF34FE34A934D8341434183400347C
:101720001834803401340034BA34C3340034023401
:10173000A834843427340C34E03476342034003434
:101740008434833400340034BC3404340034003432
:101750001334FF34FE34F4341834A034013400342C
:10176000D4340334A0340034A834A53427341C34D2
:101770008434853400340034BC3404340034003400
:1017800010340034003403349F3400340034043403
:101790009F34003400340134BB34583400340234F4
:1017A00085347C34003400349C34A034003400345C
:1017B00084348134003400341934803401340034EA
:1017C000E0346534B0340034A9348C341834AC348B
:1017D0001834C03401340034E034E334603400346D
:1017E0001934803401340034A834C6342634B0347B
:1017F000A9348C342634EC34E134033430340034EE
:10180000E034C3346034003419348034013400349B
:10181000E0348434C0340034A9348C3418348C342B
:10182000BD34A43400340734E0346334603400340D
:101830009D34803400340034D434033458340034BC
:10184000D434083460340034D43407346034003481
:10185000D4340634603400341334FF34FF34EC34B1
:10186000E034A534D03400348634413400340034BC
:10187000A8348C34003400340034003400341D3477
:10188000A934D634003400340734FF34FE34233412
:1018900015340034003400349C3480340034113466
:1018A000E03464349034083484349E34003400349A
:1018B000AC346334FF34FF34E03463342034033415
:1018C000D4341E34183400341834C0340134003495
:1018D0001834E03401340034A834C63418347C346D
:1018E000A834E73418346C34E0348E3430340034A7
:1018F00084347C3400340034E134CE343834003461
:10190000E2345234C03400349D34003400340034A6
:10191000D4340E3418340034D43404344034003415
:10192000BD345234003403341334FF34FE34B9343C
:10193000E2349434D0340034193480340134003427
:10194000E134D434B0340034A9348C3427340C342A
:10195000E0346E3460340034843483340034003432
:10196000BC340434003400340F34FF34FF34E43426
:10197000A8347234003400340734FF34FD34EA34C0
:1019800015340034003400349C34A0340034113455
:1019900084349E3400340034E034653490340834A8
:1019A000E0346334203404340334FF34FF34E4344B
:1019B000D4341E34183400341934803401340034E3
:1019C0009C34603400340034A9348C342634E83438
:1019D0000334FF34FE348C34D4340C3418340034E3
:1019E000A534CB341F34FF34BC344E340134B4340A
:1019F000103400340034F0341934803401340034AD
:101A0000B8346E3400340334A9348C341834D034F0
:101A1000E0346334603400348634433400340434B6
:101A20008634833400340034BA34D2340034503431
:101A3000B834943400345034A6345234FF34FF3474
:101A4000A6349434FF34FF340734C034083450349F
:101A5000A83460349F340034A83460349F34013497
:101A60000734C03408344D34A8349434003400347E
:101A7000A83460349F3402340734C03408344A3404
:101A8000A834963400340034A83460349F340334CE
:101A90000734C03408344734A83492340034003456
:101AA000A83460349F3406340734C03408344434D6
:101AB000A8348E34003400340334FF34FE344D3403
:101AC0001534003400340034B434803450340134DC
:101AD000A8346034983413340734C03408343E34A6
:101AE000B834843400345034A834623400340034C0
:101AF0000734C0340234E6349C3480340034733408
:101B0000A8346234003400349C3480340034083407
:101B10000734FF34FD346234A434AB340734FF346B
:101B20000734FF34FD341C341534003400340034E1
:101B3000BC342B34003400341034003400343234DC
:101B4000AA348B3400340034A834623400340034B6
:101B50009C34803400342A340734C0340234D934FD
:101B6000A534CE3400347F34A834623400340034D9
:101B70009C34803400342B340734C0340234D534E0
:101B8000AB340B3400340034A834623400340034F5
:101B90009C34803400342C340734C0340234D134C3
:101BA000AA34CB3400340034A83462340034003416
:101BB0009C34803400347F340734C0340234CD3454
:101BC000AA344B3400340034A43498347F34FF34C6
:101BD000B8347234003481341834C03401340034E1
:101BE000A634523400347F34A834C63426347834D2
:101BF000B834843400340734BA34523400340E34E8
:101C0000A43463343F348034B9346B3400344C34FE
:101C10008434A634003400341834E03410340034F2
:101C2000E034843470340434E23443349034043483
:101C3000A634D63400347F341934003401340034EF
:101C4000B9346B3400341534B834623400341D3484
:101C5000B834A53400340334E034843438340434E4
:101C6000A93408341834D034E2345234B034043453
:101C7000E034A53440340034E0348434183404347F
:101C8000E234523458340434A83474340034003408
:101C9000D4340534203404340734FF34FD340B3499
:101CA000D434053490340034B434603450340134C6
:101CB0001934803401340034A9348C341834CC34D1
:101CC000D4340C3418340034A83462340034003472
:101CD0009C348034003402349C34A0340034FF340B
:101CE0000734C0340434C934BB3402340034023401
:101CF00018346034013400341834C03401340034F2
:101D0000A83463342634EC34A834C6340034183490
:101D1000E034B83418340034E034823430340034E1
:101D200084346534003400348C348434003400341A
:101D3000A834633400340134BC3424340034003417
:101D40001034003400347934D43405341834003479
:101D50001834E03401340034A834E73426349C3499
:101D6000E034A23438340034D8340534203400341C
:101D7000193400340134003419348034013400340F
:101D8000A93408342634EC34A9348C3426347C3419
:101D9000E034D83440340034A8348334003401347F
:101DA000E3341834603400348434BC3400340034F8
:101DB000A834623400340034D4340634203400347F
:101DC0000734C03403341C34D43418342834003479
:101DD0000334FF34FD34D13415340034003400347E
:101DE0000734C03403346434A8346234003400341B
:101DF0001934803401340034A5346B340034FF349A
:101E0000A9348C342634A434BC342B3400340F343D
:101E1000E0346234603400340C3400340034703404
:101E2000D834033458340034A834623400340034D5
:101E30009C348034003402340734C03404349E347B
:101E40009C34A034003418340334FF34FE348E3410
:101E50001534003400340034183480340134003434
:101E60001834A034013400349C346034003400341D
:101E7000A8348434263478349C34C034003401349B
:101E8000A834A53418346834D434043418340034F5
:101E90000734C0340734BA34D43405343034003411
:101EA0000334FF34FD34D0341534003400340034AE
:101EB000B9346B3400344A34A5346B3400340734FD
:101EC000BC342B34003401340C3400340134063477
:101ED000BC342B34003402340C340034013412345A
:101EE000BC342B34003403340C3400340034D2348A
:101EF0001834E03401340034A83460349F3406349C
:101F00000734C0340734B9349C348034003400348E
:101F10000334FF34FD34C23415340034003400344B
:101F20001834803401340034A83460349F340834C9
:101F30009C34A03400340134A83484342634E8348A
:101F40000734C03407349534D4340434283400348E
:101F5000B834AB3400344C34B8348B3400344834A7
:101F6000B8346B34003444341834C0340134003491
:101F70001834E034013400341934003401340034AE
:101F80001934803401340034A434A53400340F34BF
:101F9000A434843400340F34A434633400340F3454
:101FA000A5346B3400340F34A834C63400341434F0
:101FB000A834E73400341034A934083400340C3425
:101FC000A9348C3400340834D43406342834003432
:101FD000D434073420340034D43408341834003472
:101FE0000334FF34FD34CA34D4340C345834003450
:101FF000BB34023400340234A834C63426347C3472
:1020000084349C3400340034E034B8343034003448
:102010001834E034003446348434A53400340034B9
:10202000E034843428340234E434A43438340034C2
:102030001334FF34FD348534193400340134003452
:102040001934803401340034A93408342634D834A7
:10205000A9348C342634E034E23442344034003441
:10206000E0348234603400348C34A43400340034DE
:102070008C34923400340034E43405342034003499
:102080001034003401340134E43445342034003455
:102090001034003400340334153400340034003478
:1020A0009C3460340034FF34E03483342034003412
:1020B000A834623400340034A434A4340034FF342F
:1020C000A8348534003400340734C0340234CC34AE
:1020D000D8341234283400341834603401340034D5
:1020E000A834633426347C34E33418341834003490
:1020F00084347C34003400340334FF34FD346C34D5
:10210000D434183418340034193400340134003411
:10211000A93408342634E834843488340034003454
:10212000BC342434003400340C34003400342534FE
:10213000BC342434003401340C3400340034A7346B
:102140001834C034013400349C34E034003400349A
:10215000A834C63426349C34E0348234303400341D
:102160000334FF34FF348234D83404343834003438
:102170009E34403400340034AA34D2340034003465
:10218000AA349234003400340334FF34FF3418345A
:10219000A8349234003400341834803401340034CC
:1021A000A83484342634E83484346434003400346D
:1021B000BC340334003402341334FF34FF348E341F
:1021C0001834C0340134003419340034013400347C
:1021D000A834C6342634E0349C34E0340034073468
:1021E000E034A23430340034A93408342634D834EE
:1021F0001934803401340034D83405343834003490
:10220000A9348C342634D034E034A2344034003441
:10221000A834623400340034D834053438340034FF
:102220009C34803400340734E034A2346034003409
:102230000734C03402349F34D83405343834003481
:102240000334FF34FF347E34A83462340034003465
:102250000734C03403341A34A834623400340034F0
:10226000BD348B3400340034103400340034B734BF
:1022700019348034013400349C3460340034043424
:10228000A9348C342634E034BD344B340034033468
:10229000E2348234603400340C3400340034A53429
:1022A000D8341434183400349C34A034003402344C
:1022B000A8346234003400340734C03403341E348C
:1022C000D834143428340034BD346B340034003432
:1022D0000C3400340034A534153400340034003498
:1022E0008C34743400340034BC344334003401344E
:1022F0000C34003400340B341834C034013400344E
:102300001834A03401340034A834A5342634A4345D
:10231000E0348234283400348C3484340034003483
:10232000BC34443400340E341034003400340434EB
:102330001834C034013400349C346334FF34FF3427
:10234000D8341434183400341934003401340034CF
:10235000A834C63426349C349C34E0340034013430
:10236000E034623430340034A93408342634EC3498
:10237000D834033438340034E03478344034003412
:102380000334FF34FF343E34843463340034003487
:102390001934003401340034A93408342634EC34C0
:1023A000E334183440340034843478340034003456
:1023B000A434833400340234BC3404340034003494
:1023C0001334FF34FD34DF349D3480340034013461
:1023D0001834E03401340034E0348C3410340834E0
:1023E0008434BE34003400349C34C034FF34FD34B3
:1023F000AC348434FF34FF34A834E73427341C343D
:10240000E034633430340334E03484342834033427
:102410008434C73400340034D434183418340034CD
:10242000BC340634003400341034003400349434A6
:10243000D4341E34203400349D34C034003400348D
:10244000A8346E34003400340734C0340134BB3453
:102450009C3480340034753419340034FF34FF3434
:10246000A93408347F34FF340734C0340134D634FF
:10247000E0346B3440340334A8346E340034003418
:102480009C348034003460349C34A0343B34FF34BA
:102490000734C0340134BD349D34CE3400340134AB
:1024A000BC342E34003408341334FF34FF34F43495
:1024B000A8346E34003400340334FF34FD34C034A7
:1024C000153400340034003419340034013400343D
:1024D0001934803401340034A93408342634E0340B
:1024E000A9348C342634D834E23482344034003475
:1024F000E2344234603400348C34B4340034003478
:10250000A834623400340034A834853400340034F4
:102510000734C03402344334D834123428340034FD
:1025200018346034013400348C348E340034003478
:10253000A834633427342034BC34243400340334C6
:1025400084346334003400341334FF34FD34CE3427
:10255000D4341634183400340734FF34FC34443493
:10256000A8346234003400340334FF34FD34CB34F7
:102570008C34923400340034A834E7342634B03438
:102580008434C73400340434843467340034083469
:10259000B834C63400340434B834633400340834F6
:1025A0008434873400340C348434A7340034003449
:1025B000E034663418340434B834843400340C34D1
:1025C000E034A33428340434A83460349F34003415
:1025D000E0348534203404340734C0340634DE3427
:1025E000A4348434FF34FF3419340034013400340B
:1025F000A93408342634B0348434C8340034143454
:102600008434683400341834B834C63400340434A4
:10261000B8346334003408348434883400341C34CF
:102620008434A83400341034E0346634183404346C
:10263000B834843400340C34E034A3342834043403
:10264000A83460349F340134E034853420340434B9
:102650000734C0340634CF34A4348434FF34FF3418
:102660000334FF34FF341434A83460349F34063408
:1026700019348034013400349C34A03400340234E2
:10268000A9348C3426349C34E034823460340034F1
:102690000334FF34FE34DC34D834043428340034BA
:1026A0009C346034003411348534013400340034F7
:1026B000E034633440340834E034A534183403344F
:1026C000E4342334283400341334FF34FD347E34AE
:1026D00015340034003400340734FF34FC343E3405
:1026E000A8346834003400340334FF34FD347A34C1
:1026F0001534003400340034A83460349F3400347E
:102700000734C0340634B9349C3480340034003487
:10271000A83460349F3401340734C0340634B634EE
:102720009C34803400340034A83460349F34023444
:102730000734C0340634B3349C348034003400345D
:10274000A83460349F3403340734C0340634B034C2
:102750009C348034003400340334FF34FE34F534C8
:10276000A83460349F340634A83460349F34003475
:102770000734C0340634AB349C3480340034003425
:10278000A83460349F3401340734C0340634A8348C
:102790009C34803400340034A83460349F340234D4
:1027A0000734C0340634A5349C34803400340034FB
:1027B0000334FF34FE34EA34A83460349F340634E2
:1027C0009C34803400340334A83462340034003440
:1027D0000734C03402347B34D83414342034003409
:1027E000BD346B34003400341334FF34FF345F34B1
:1027F00015340034003400348C3474340034003424
:102800009C34633400340134A43463340034FF3422
:102810000334FF34FF345B34D834143418340034B8
:10282000BC342B34FF34FF340C34003400344F34C8
:10283000BC342B34FF34FE340C34003400345834B0
:10284000BC342B34FF34FD340C34003400345D349C
:1028500019348034013400349C348034003407341B
:10286000A9348C342634E0349C346034003407348A
:10287000E2348234603400340334FF34FF345134A2
:10288000D8341434203400340734FF34FB34DE34BD
:10289000A834623400340034B43480345034013409
:1028A000A83460349F3405340734C034063484348B
:1028B000B8348434003450340334FF34FC3474347A
:1028C00015340034003400340734FF34FC341B3436
:1028D00084346134003400340334FF34FD343C3438
:1028E0001534003400340034BD347A3400340034FC
:1028F0000C34003400344F34A834623400340034D3
:102900009C34803400340E340734FF34FB34A33459
:102910009C34A034003403340734FF34FB34CC340B
:10292000A8346234003400340334FF34FC34663499
:1029300015340034003400348C34723400340034E4
:10294000BC342334003401340F34FF34FF34FA3400
:102950001834E03401340034A834E7342634D03459
:10296000E0348234383400348C348434003400341D
:10297000E434643418340034103400340034033444
:102980009D34003400340334D8340E3440340034E1
:102990009C346334FF34FF340334FF34FC34583444
:1029A000D834143418340034A934C4340034003416
:1029B000A8346E34003400340734C0340134183481
:1029C0009C348034003460340734C03401342A34F9
:1029D0009C34603400340034A8346E340034003445
:1029E0009C348034003475340734C03401340734E7
:1029F0009D34CE34003401340734C03401342434DF
:102A0000A8346B3480340034BC342E3400340834A1
:102A10001334FF34FF34F4349C34A034383400349D
:102A20000334FF34FD3413341534003400340034DF
:102A30008C34723400340034BC3423340034013418
:102A40000F34FF34FF34DB341834E0340134003405
:102A5000A834E7342634D034E034823438340034B7
:102A60008C34843400340034E43464341834003456
:102A70001334FF34FF34E5349C346334FF34FF34C3
:102A80000734FF34FB349F34A834623400340034FC
:102A90000334FF34FC34393415340034003400344A
:102AA0001834C034013400349C34E034003404342D
:102AB000A834C6342634E0349C3460340034043402
:102AC000E2348234303400340334FF34FF340734CA
:102AD000D8341434383400340334FF34FD345134E2
:102AE000AB344B34003400340334FF34FD343B3416
:102AF000D4340134583400341934003401340034EF
:102B00009D34803400340534A93408342634E0344C
:102B10009C34603400340534E23482344034003470
:102B20000334FF34FE34FC34D834143460340034BD
:102B300018346034013400349C348034003406345A
:102B4000A83463342634E034E23482341834003458
:102B50009C346034003406340334FF34FE34F534DE
:102B6000D8341434203400348C34723400340034BB
:102B7000BC342334003407340F34FF34FF34B4340E
:102B80001834E03401340034A834E7342634D03427
:102B9000E0348234383400348C34843400340034EB
:102BA000E434A434183400341334FF34FD346C346A
:102BB0009D340034003403340334FF34FD346A346C
:102BC000D8340E34403400340734C034063413345F
:102BD0001834403401340034A83462343F34FC34B7
:102BE0009C34803400340034A83442343F34F83408
:102BF000DC34033420340034DC3402342034003438
:102C0000A8344034013400344434003410340034E7
:102C100015340034003400340334FF34FB34E3341F
:102C2000A834603498341434D734E1340F34FC348D
:102C30009C342134FF34FC349C342134003404347B
:102C4000443400344834003484342134FF34FC34B8
:102C5000D734E1340F34FC349C342134FF34FC3459
:102C60009C34213400340434443400344834003477
:102C700084342134FF34FC34D734E1340F34FC3451
:102C80009C342134FF34FC349C342134003404342B
:102C9000443400344834003484342134FF34FC3468
:102CA000D734E1340F34FC349C342134FF34FC3409
:102CB0009C34213400340434443400344834003427
:102CC00084342134FF34FC34D734E1340F34FC3401
:102CD0009C342134FF34FC349C34213400340434DB
:102CE000443400344834003484342134FF34FC3418
:102CF000D734E1340F34FC349C342134FF34FC34B9
:102D00009C342134003404344434003448340034D6
:102D100084342134FF34FC34D734E1340F34FC34B0
:102D20009C342134FF34FC349C342134003404348A
:102D3000443400344834003484342134FF34FC34C7
:102D4000D734E1340F34FC349C342134FF34FC3468
:102D50009C34213400340434443400344834003486
:102D600084342134FF34FC34D734E1340F34FC3460
:102D70009C342134FF34FC349C342134003404343A
:102D8000443400344834003484342134FF34FC3477
:102D9000D734E1340F34FC349C342134FF34FC3418
:102DA0009C34213400340434443400344834003436
:102DB00084342134FF34FC34D734E1340F34FC3410
:102DC0009C342134FF34FC349C34213400340434EA
:102DD000443400344834003484342134FF34FC3427
:102DE000D734E1340F34FC349C342134FF34FC34C8
:102DF0009C342134003404344434003448340034E6
:102E000084342134FF34FC34D734E1340F34FC34BF
:102E10009C342134FF34FC349C3421340034043499
:102E2000443400344834003484342134FF34FC34D6
:102E3000D734E1340F34FC349C342134FF34FC3477
:102E40009C34213400340434443400344834003495
:102E500084342134FF34FC341834203401340034F9
:102E6000A834213418346834183440340134003420
:102E7000A834423403345C34443400341034003415
:102E8000153400340034003400340034003400348D
:102E900054346834693473342034693473342034DE
:102EA000613420346E3465347734203474346534BE
:102EB000733474342C3420346E346F3477342034CB
:102EC0007234653473346534743420344734453493
:102ED00020346634693472347334743420340D34DD
:102EE0000A34003452346534733465347434203415
:102EF00064346F346E346534213420346E346F346E
:102F0000773420346C346F34613464342034663464
:102F10007734203474346F342034473445340D34DE
:102F20000A3400340530F0007008FA070130F80266
:102F3000031DA02F0430F00070082000EE000800F0
:102F40002000EE01EE0A08002000C600C701C801FB
:102F50004808803AB00080303002031DB12F2E089F
:102F600047020318C72F200047084607B000300863
:102F7000860087010108B1004708323E86008701BC
:102F8000310881000130C7070030C83DA82F20005C
:102F90002E08B0003008C5000230B0003008C9006B
:102FA000EF0149030319F82F4508B0003008A700C6
:102FB0001030A8000030A9004930B1003108AA0043
:102FC0003230AC31A6249731023020004906031973
:102FD000E42F49080319F82F49030319F82F643027
:102FE0006F060319F82F0130B0003008EF07D12F1A
:102FF0004903031D08000130AE000030AF00080097
:10300400240094012630950096019701FE30930028
:10301400A030920020009111210091150800200099
:10302400E9070030EA3D6A08803AE7008030670229
:10303400083003196902031CFE2F2000E901EA018C
:103044006A08803AE7008030670208300319690291
:1030540003184C2820006908E800E7016708783E57
:10306400CA008030683DCB003830CC008C30CD00B5
:10307400AC31FC24983101302000E9070030EA3DEE
:103084006A08803AE7008030670208300319690251
:10309400031C2C282000E901EA016A08803AE700B1
:1030A4008030670208300319690203188128200060
:1030B4006908E800E7016708023EDD008030683DEA
:1030C400DE000430DF000030E0000C30E1000030AE
:1030D400E2000430E3000030E400AD3156259831BD
:1030E40001302000E9070030EA3D6A08803AE70031
:1030F40080306702083003196902031C5928200034
:10310400E901EA016A08803AE70080306702083082
:10311400031969020318B52820006908E800E701CB
:103124006708003EDD008030683DDE000530DF00CA
:103134000D30E0000030E100E2000E30E30000302A
:10314400E400AD315625983101302000E907003004
:10315400EA3D6A08803AE7008030670208300319C4
:103164006902031C8E282000E901EA016A08803AFA
:10317400E700803067020830031969020318E92860
:1031840020006908E800E7016708073EDD00803099
:10319400683DDE007A30DF000D30E0000030E100F1
:1031A400E2000E30E3000030E400AD3156259831E2
:1031B40001302000E9070030EA3D6A08803AE70060
:1031C40080306702083003196902031CC2282000FA
:1031D400E901EA016A08803AE700803067020830B2
:1031E4000319690203181D2920006908E800E70192
:1031F4006708833EDD008030683DDE000530DF0077
:103204000E30E0000030E100E2000E30E300003058
:10321400E400AD315625983101302000E907003033
:10322400EA3D6A08803AE7008030670208300319F3
:103234006902031CF6282000E901EA016A08803AC1
:10324400E700803067020830031969020318512926
:1032540020006908E800E7016708843EDD0080304B
:10326400683DDE007A30DF000F30E0000030E1001E
:10327400E2000E30E3000030E400AD315625983111
:1032840001302000E9070030EA3D6A08803AE7008F
:1032940080306702083003196902031C2A292000C0
:1032A400E901EA016A08803AE700803067020830E1
:1032B400031969020318852920006908E800E70159
:1032C4006708853EDD008030683DDE000530DF00A4
:1032D4000F30E0000030E100E2000E30E300003087
:1032E400E400AD315625983101302000E907003063
:1032F400EA3D6A08803AE700803067020830031923
:103304006902031C5E292000E901EA016A08803A87
:10331400E700803067020830031969020318B929ED
:1033240020006908E800E7016708863EDD00803078
:10333400683DDE000530DF000F30E0000030E100C2
:10334400E2000E30E3000030E400AD315625983140
:1033540001302000E9070030EA3D6A08803AE700BE
:1033640080306702083003196902031C9229200087
:10337400E901EA016A08803AE70080306702083010
:10338400031969020318ED2920006908E800E70120
:103394006708873EDD008030683DDE000A30DF00CC
:1033A4000D30E0000030E100E2000E30E3000030B8
:1033B400E400AD315625983101302000E907003092
:1033C400EA3D6A08803AE700803067020830031952
:1033D4006902031CC6292000E901EA016A08803A4F
:1033E400E700803067020830031969020318212AB4
:1033F40020006908E800E7016708883EDD008030A6
:10340400683DDE007530DF000D30E0000030E10083
:10341400E2000E30E3000030E400AD31562598316F
:1034240001302000E9070030EA3D6A08803AE700ED
:1034340080306702083003196902031CFA2920004E
:10344400E901EA016A08803AE7008030670208303F
:10345400031969020318542A20006908E800E701E7
:1034640067084D3EDD008030683DDE000030DF003F
:10347400E0000030E100E2000B30E3000030E40043
:10348400AD315625983101302000E9070030EA3D7E
:103494006A08803AE700803067020830031969023D
:1034A400031C2E2A2000E901EA016A08803AE70099
:1034B400803067020830031969020318872A200044
:1034C4006908E800E70167084E3EDD008030683D8A
:1034D400DE000030DF00E0000030E100E2000B30ED
:1034E400E3000030E400AD3156259831013020006E
:1034F400E9070030EA3D6A08803AE7008030670255
:10350400083003196902031C612A2000E901EA0159
:103514006A08803AE70080306702083003196902BC
:103524000318BA2A20006908E800E7016708813E09
:10353400DD008030683DDE000030DF00E000003058
:10354400E100E2000B30E3000030E400AD31562529
:10355400983101302000E9070030EA3D6A08803ADA
:10356400E70080306702083003196902031C942ABB
:103574002000E901EA016A08803AE7008030670226
:103584000830031969020318ED2A20006908E800CD
:10359400E7016708823EDD008030683DDE000030D0
:1035A400DF00E0000030E100E2000B30E300003017
:1035B400E400AD315625983101302000E907003090
:1035C400EA3D6A08803AE700803067020830031950
:1035D4006902031CC72A2000E901EA016A08803A4B
:1035E400E700803067020830031969020318222BB0
:1035F40020006908E800E7016708753EDD008030B7
:10360400683DDE000630DF000030E0000830E100F5
:103614000030E2000630E3000030E400AD3156250E
:10362400983101302000E9070030EA3D6A08803A09
:10363400E70080306702083003196902031CFA2A84
:103644002000E901EA016A08803AE7008030670255
:103654000830031969020318572B20006908E80091
:10366400E7016708793EDD008030683DDE00063002
:10367400DF000030E0000830E1000030E2000630F6
:10368400E3000030E400AD315625983101302000CC
:10369400E9070030EA3D6A08803AE70080306702B3
:1036A400083003196902031C2F2B2000E901EA01E9
:1036B4006A08803AE700803067020830031969021B
:1036C40003188C2B20006908E800E7016708793E9D
:1036D400DD008030683DDE000130DF000030E000B6
:1036E4000F30E1000030E2000130E3000030E4007C
:1036F400AD315625983101302000E9070030EA3D0C
:103704006A08803AE70080306702083003196902CA
:10371400031C642B2000E901EA016A08803AE700EF
:10372400803067020830031969020318C12B200096
:103734006908E800E7016708793EDD008030683DEC
:10374400DE000130DF000030E0000F30E100003027
:10375400E2000130E3000030E400AD315625983139
:1037640001302000E9070030EA3D6A08803AE700AA
:1037740080306702083003196902031C992B20006A
:10378400E901EA016A08803AE700803067020830FC
:10379400031969020318EE2B20006908E800E70109
:1037A4006708FE3ECA008030683DCB00A830CC00DC
:1037B4002930CD00AC31FC24983101302000E907D8
:1037C4000030EA3D6A08803AE7008030670208303A
:1037D40003196902031CCE2B2000E901EA016A08DF
:1037E400803AE70080306702083003196902031841
:1037F4001B2C20006908E800E7016708FD3ECA00A9
:103804008030683DCB004430CC003230CD00AC3148
:10381400FC24983101302000E9070030EA3D6A08B1
:10382400803AE70080306702083003196902031CFC
:10383400FB2B2000E901EA016A08803AE7008030A6
:1038440067020830031969020318482C200069082C
:10385400E800E7016708FC3ECA008030683DCB0001
:103864003630CC005230CD00AC31FC2498310130DC
:103874002000E9070030EA3D6A08803AE70080301A
:103884006702083003196902031C282C2000E9018F
:10389400EA016A08803AE7008030670208300319B9
:1038A40069020318752C20006908E800E70167081D
:1038B400F83ECA008030683DCB007830CC00B73089
:1038C400CD00AC31FC24983101302000E9070030F0
:1038D400EA3D6A08803AE70080306702083003193D
:1038E4006902031C552C2000E901EA016A08803AA8
:1038F400E700803067020830031969020318A22C1C
:1039040020006908E800E7016708F53ECA00803036
:10391400683DCB00E030CC006130CD00AC31FC24FC
:10392400983101302000E9070030EA3D6A08803A06
:10393400E70080306702083003196902031C822CF7
:103944002000E901EA016A08803AE7008030670252
:103954000830031969020318CF2C20006908E80015
:10396400E7016708F13ECA008030683DCB000030B3
:10397400CC007030CD00AC31FC24983101302000F3
:10398400E9070030EA3D6A08803AE70080306702C0
:10399400083003196902031CAF2C2000E901EA0175
:1039A4006A08803AE7008030670208300319690228
:1039B4000318042D20006908E800E7016708F93EB0
:1039C400DD008030683DDE002D30DF000030E00097
:1039D4000130E1000030E2000630E3000030E40092
:1039E400AD315625983101302000E9070030EA3D19
:1039F4006A08803AE70080306702083003196902D8
:103A0400031CDC2C2000E901EA016A08803AE70083
:103A1400803067020830031969020318382D20002A
:103A24006908E800E7016708033EDD008030683D6F
:103A3400DE000030DF00E0000930E1000030E20089
:103A44000130E3000030E400AD31562598310130F7
:103A54002000E9070030EA3D6A08803AE700803038
:103A64006702083003196902031C112D2000E901C3
:103A7400EA016A08803AE7008030670208300319D7
:103A8400690203186C2D20006908E800E701670843
:103A9400503EDD008030683DDE004030DF00003005
:103AA400E0000030E100E2000C30E3000030E4000C
:103AB400AD315625983101302000E9070030EA3D48
:103AC4006A08803AE7008030670208300319690207
:103AD400031C452D2000E901EA016A08803AE70049
:103AE400803067020830031969020318A12D2000F1
:103AF4006908E800E7016708053EDD008030683D9D
:103B0400DE000A30DF000030E0000C30E10000305D
:103B1400E2000430E3000030E400AD315625983172
:103B240001302000E9070030EA3D6A08803AE700E6
:103B340080306702083003196902031C792D2000C4
:103B4400E901EA016A08803AE70080306702083038
:103B5400031969020318D52D20006908E800E7015C
:103B64006708013EDD008030683DDE000030DF0084
:103B7400E0000F30E1000030E2000130E3000030EB
:103B8400E400AD315625983101302000E9070030BA
:103B9400EA3D6A08803AE70080306702083003197A
:103BA4006902031CAE2D2000E901EA016A08803A8B
:103BB400E7008030670208300319690203180A2EEF
:103BC40020006908E800E7016708033EDD00803053
:103BD400683DDE000230DF000030E0000C30E10020
:103BE4000030E2000430E3000030E400AD3156253B
:103BF400983101302000E9070030EA3D6A08803A34
:103C0400E70080306702083003196902031CE22DC3
:103C14002000E901EA016A08803AE700803067027F
:103C240008300319690203183F2E20006908E800D0
:103C3400E7016708063EDD008030683DDE000A309B
:103C4400DF000030E0000C30E1000030E20004301E
:103C5400E3000030E400AD315625983101302000F6
:103C6400E9070030EA3D6A08803AE70080306702DD
:103C7400083003196902031C172E2000E901EA0128
:103C84006A08803AE7008030670208300319690245
:103C94000318742E20006908E800E7016708083E4D
:103CA400DD008030683DDE000A30DF000030E000D7
:103CB4000830E1000030E2000430E3000030E400AA
:103CC400AD315625983101302000E9070030EA3D36
:103CD4006A08803AE70080306702083003196902F5
:103CE400031C4C2E2000E901EA016A08803AE7002F
:103CF400803067020830031969020318A92E2000D6
:103D04006908E800E7016708A03EDD008030683DEF
:103D1400DE000130DF000030E0000730E100003059
:103D2400E2000130E3000030E400AD315625983163
:103D340001302000E9070030EA3D6A08803AE700D4
:103D440080306702083003196902031C812E2000A9
:103D5400E901EA016A08803AE70080306702083026
:103D6400031969020318DD2E20006908E800E70141
:103D74006708613EDD008030683DDE000030DF0012
:103D8400E0000830E1000030E2000130E3000030E0
:103D9400E400AD315625983101302000E9070030A8
:103DA400EA3D6A08803AE700803067020830031968
:103DB4006902031CB62E2000E901EA016A08803A70
:103DC400E700803067020830031969020318122FD4
:103DD40020006908E800E7016708823EDD008030C2
:103DE400683DDE000D30DF000030E0000C30E10003
:103DF4000030E2000430E3000030E400AD31562529
:103E0400983101302000E9070030EA3D6A08803A21
:103E1400E70080306702083003196902031CEA2EA8
:103E24002000E901EA016A08803AE700803067026D
:103E34000830031969020318462F20006908E800B6
:103E4400E7016708793EDD008030683DDE005030D0
:103E5400DF000030E0000030E100E2000630E30063
:103E64000030E400AD315625983101302000E907D7
:103E74000030EA3D6A08803AE70080306702083083
:103E840003196902031C1F2F2000E901EA016A08D3
:103E9400803AE7008030670208300319690203188A
:103EA4007B2F20006908E800E7016708FE3EDD007B
:103EB4008030683DDE000430DF000030E000043074
:103EC400E1000030E2000330E3000030E400AD31F3
:103ED4005625983101302000E9070030EA3D6A0890
:103EE400803AE70080306702083003196902031C36
:103EF400532F2000E901EA016A08803AE700803084
:103F040067020830031969020318B02F20006908FA
:103F1400E800E7016708083EDD008030683DDE0008
:103F24000530DF000030E0000C30E1000030E2003A
:103F34000430E3000030E400AD31562598310130FF
:103F44002000E9070030EA3D6A08803AE700803043
:103F54006702083003196902031C882F2000E90155
:103F6400EA016A08803AE7008030670208300319E2
:103F740069020318E52F20006908E800E7016708D3
:103F8400873EDD008030683DDE000330DF00003016
:103F9400E0000E30E1000030E2000230E3000030C7
:103FA400E400AD315625983101302000E907003096
:103FB400EA3D6A08803AE700803067020830031956
:103FC4006902031CBD2F0D302000CA009830CB00BD
:103FD4007730CC000730CD00AC31FC2498310D3063
:103FE4002000CA009830CB000030CC00CD00AC31AA
:103FF400FC240800A031E728A3313B2B0830230020
:104004009F0080309D0024309E008A309B009C01DC
:1040140008002000C600C701C8014808803AB00063
:1040240080303002031D18282F08470203182E2859
:10403400200047084607B0003008860087010108C1
:10404400B1004708323E8600870131088100013003
:10405400C7070030C83D0F2820002E0886008701BE
:104064000108B0002F08323E860087013008810025
:104074002E0A860087010108B0002F08013E323E57
:1040840086008701300881002F08023EB000300806
:10409400C5000230B0003008C900EF01490303191C
:1040A40077284508B0003008A7001030A800003079
:1040B400A9004930B1003108AA003230AC31A6243D
:1040C400A031023020004906031963284908031966
:1040D400772849030319772864306F060319772872
:1040E4000130B0003008EF0750284903031D0800D1
:1040F4000130AE000030AF0008002000DD00833046
:10410400DE000030DF00E0000630E1000030E200B5
:104114000130E3000030E400AD315625A031A33076
:104124002000DD008730DE000030DF00E0000630D4
:10413400E1000030E2000130E3000030E400AD3182
:104144005625A0312000E901EA016A08803AE70017
:10415400803067020830031969020318D928200047
:104164006908E800E7016708793EDD008030683DB2
:10417400DE000130DF000030E0000B30E1000030F1
:10418400E2000130E3000030E400AD315625A031F7
:1041940001302000E9070030EA3D6A08803AE70070
:1041A40080306702083003196902031CB12820001B
:1041B400E901EA016A08803AE700803067020830C2
:1041C40003196902A2310318B22A20006908E80021
:1041D400E7016708633EDD008030683DDE000130A2
:1041E400DF000030E0000730E1000030E200013081
:1041F400E3000030E400AD3156250130A231A42A99
:104204002000DD007230DE000030DF00E00001300D
:10421400E1000030E2000130E3000030E400AD31A1
:104224005625A13100302000DD007630DE0000305C
:10423400DF00E0000130E1000030E2000130E30083
:104244000030E400AD315625A131A3302000DD005B
:104254008230DE000030DF00E0000630E100003094
:10426400E2000130E3000030E400AD315625A13115
:10427400A3302000DD008630DE000030DF00E000E7
:104284000630E1000030E2000130E3000030E400D9
:10429400AD315625A13132302000DD006030DE0022
:1042A4000130DF000030E0000F30E1000030E200B8
:1042B4000130E3000030E400AD315625A131003077
:1042C4002000DD007330DE000030DF00E00001304C
:1042D400E1000030E2000130E3000030E400AD31E1
:1042E4005625A13100302000DD007730DE0000309B
:1042F400DF00E0000130E1000030E2000130E300C3
:104304000030E400AD315625A330A0317F282000D1
:10431400DD008430DE000030DF00E0000630E10024
:104324000030E2000130E3000030E400AD315625F6
:10433400A13112302000DD006030DE000130DF00EA
:104344000030E0000F30E1000030E2000130E30013
:104354000030E400AD315625A13100302000DD00ED
:104364007130DE000030DF00E0000130E100003099
:10437400E2000130E3000030E400AD315625A13104
:1043840000302000DD007530DE000030DF00E0008A
:104394000130E1000030E2000130E3000030E400CD
:1043A400AD315625A131A3302000DD008130DE007F
:1043B4000030DF00E0000630E1000030E2000130B0
:1043C400E3000030E400AD315625A131A3302000D4
:1043D400DD008530DE000030DF00E0000630E10063
:1043E4000030E2000130E3000030E400AD31562536
:1043F400A13122302000DD006030DE000130DF001A
:104404000030E0000F30E1000030E2000130E30052
:104414000030E400AD3156250030A13102292000DE
:10442400E901EA010030CA009930CB00C030CC0069
:104434009D30CD00AC31FC24A23101302000CA00F3
:104444009930CB000430CC002130CD00AC31FC24B9
:10445400A23102302000CA009930CB001030CC00C9
:104464008F30CD00AC31FC24A23115302000CA00BD
:104474009830CB000030CC00CD00AC31FC24A2310C
:1044840002302000DD006030DE000130DF0000304B
:10449400E0000F30E1000030E2000130E3000030C2
:1044A400E400AD315625A23100302000DD0070302B
:1044B400DE000030DF00E0000130E1000030E20007
:1044C4000130E3000030E400AD315625A231003064
:1044D4002000DD007030DE000030DF00E00001303D
:1044E400E1000030E2000130E3000030E400AD31CF
:1044F4005625A23100302000DD007430DE0000308B
:10450400DF00E0000130E1000030E2000130E300B0
:104514000030E400AD315625A231A3302000DD0087
:104524008030DE000030DF00E0000630E1000030C3
:10453400E2000130E3000030E400AD315625A33041
:10454400A13189292000E9070030EA3D6A08803A50
:10455400E70080306702083003196902031C4E2B00
:104564002000E901EA016A08803AE7008030670226
:104574000830031969020318002B20006908E800B9
:10458400E7016708643EDD008030683DDE000130ED
:10459400DF000030E0000F30E1000030E2000130C5
:1045A400E3000030E400AD315625A2312000690853
:1045B400E800E7016708643EDD008030683DDE0006
:1045C4000130DF000030E0000730E1000030E2009D
:1045D4000130E3000030E400AD315625A231013052
:1045E4002000E9070030EA3D6A08803AE70080309D
:1045F4006702083003196902031CBF2A2000E9017D
:10460400EA016A08803AE70080306702083003193B
:10461400690203182D2B20006908E800E7016708E8
:10462400763ECA008030683DCB008430CC00003038
:10463400CD00AC31FC24A23101302000E907003068
:10464400EA3D6A08803AE7008030670208300319BF
:104654006902031C0D2B2000E901EA016A08803A73
:10466400E7008030670208300319690298310318A3
:104674001F2820006908E800E7016708773ECA00A0
:104684008030683DCB008230CC001830CD00AC3196
:10469400FC240130983111289F31FC2F0334043459
:1046A4000734023400340034003441340834803494
:1046B40000340634FF340034003400340034003451
:1046C400093400344C344F3452344F344D34203494
:1046D40049344E34443455345334543452344934C4
:1046E40041344C340034FC342E342D344C345234A4
:1046F4004834533450344234303432344434303413
:1047040033343034203420342034203430343034C2
:1047140001340034003400340034CB340034003429
:10472400673400344C345234463431343634303403
:10473400323433343034303430343134203420346F
:104744002034203431343634303431343034383455
:104754002034203400340434083404340134003464
:1047640000340034003400340034003400340034A5
:104774000034003400340034003400340034003495
:104784000034003400340034003400340034003485
:104794000034003400340034003400340034003475
:1047A4000034003400340034003400340034003465
:1047B4000034003400340034003400340034003455
:1047C4000034003400340034003400340034003445
:1047D4000034003400340034003400340034003435
:1047E4000034003400340034003400340034003425
:1047F4000034003400340034003400340034003415
:1048040000340034003400340034003430343034A4
:1048140000340034003400340034003400340034F4
:1048240000340034003400340034003400340034E4
:1048340000340034003400340034003400340034D4
:1048440000340034003400340034003400340034C4
:1048540000340034003400340034003400340034B4
:1048640000340034003400340034003400340034A4
:104874000034003400340034003400340034003494
:104884000034003400340034003400340034003484
:104894000034003400340034003400342000921119
:1048A40024009D1F8E2D9D132000EE017908023EE9
:1048B400860087010108860087018101810AF901C8
:1048C40008002100E51808006408F2007208F900E5
:1048D4006408860087010108F2007208F800640881
:1048E40086008701413FFA000330F2007208E407B2
:1048F4006408EF3A031D822CEC30F2007208E400E5
:104904006510640863060319E51424001E140230BC
:10491400F20072082000EE00080024009E14023009
:10492400F20072082000EE00080024001E1FA32CD1
:104934000130F20072082100E7070430AB31D323C1
:1049440008007C08F3007B08F200F336F20C7208CE
:10495400240099007B1CB42C0B30F2007208200058
:10496400EE0008000330F20072082000EE00080098
:1049740024001E1FC62C0130F20072082100E70734
:104984000430AB31D32308009E147C08F3007B0869
:10499400F2007308F200F30106307205F4000030EF
:1049A4007305F500F0307404FB0000307504FC005E
:1049B4007B142000ED01ED0A0230F2007208EE00D3
:1049C40008006D030319FF2C7A0886000130870064
:1049D400403FFB00413FFC007A08033E8600013063
:1049E4008700403F2100EA00413FEB007A0886003F
:1049F400013087000130423FF7007B082400990012
:104A04007B1C0A2D0530F20072082000EE0008001D
:104A14000330F20072082000EE00080024001E1F7C
:104A24001E2D0130F20072082100E70724001E1336
:104A34000530AB31D32308000130F702770A031D98
:104A4400372D0530F2007208FA070130F802031D11
:104A54002F2D0030AB31D323080024009E140230E4
:104A6400F20072082000EE00080021006A088600A7
:104A74006B08870001082400990001302100EA072F
:104A84000030EB3D080024001E1F532D0130F200BE
:104A940072082100E7070430AB31D32324001E132E
:104AA40008009E150830F20072082000EE0008008D
:104AB4000830F2007208EE0024009E150800210060
:104AC4006A0886006B0887002400190881000130F9
:104AD4002100EA070030EB3D0130F70203197A2D7B
:104AE40024009E120630F20072082000EE007E2D93
:104AF40024009E169731922724001E1608000030C9
:104B0400AB31D32308000130F20072082100E7071B
:104B14000630AB31D323080020006E0884000C302B
:104B240004020318852DA8310435003E82000800D4
:104B3400AB31EB23A5318B170B172100C901CA0137
:104B440022000E150E138E138E1148302000A00083
:104B54009730A100AC311E24A5310D302100A200F4
:104B64002D30A100E230A000A00BB62DA10BB62D74
:104B7400A20BB62D003222000E170D302100A20028
:104B84002D30A100E230A000A00BC62DA10BC62D34
:104B9400A20BC62D003222008E1715302100A20070
:104BA4004B30A100D130A000A00BD62DA10BD62DE7
:104BB400A20BD62D000022008E1529302100A20060
:104BC4009630A100A630A000A00BE62DA10BE62D87
:104BD400A20BE62D72302000A0009730A100AC316A
:104BE4001E24A53115302100A2004B30A100D13084
:104BF400A000A00BFB2DA10BFB2DA20BFB2D000095
:104C0400CB302100A200ED30A1004C30A000A00B5D
:104C1400092EA10B092EA20B092E0032CC30210043
:104C2400DF008130E0000030B8000030B700003011
:104C3400B6000030B5005F080C3E2000A000003034
:104C44002100603D2000A100AE31B626A531200030
:104C540023082100D600200022082100D5002000CE
:104C640021082100D400200020082100D3005F087F
:104C7400083E2000A00000302100603D2000A1007B
:104C8400AE31B626A531200023082100BC00200047
:104C940022082100BB00200021082100BA002000C6
:104CA40020082100B9005F08103E2000A000003059
:104CB4002100603D2000A100AE31B626A5312000C0
:104CC40023082100DA00200022082100D900200056
:104CD40021082100D800200020082100D7000A3034
:104CE400CB000030CC005A08C0005908BF00580857
:104CF400BE005708BD000030C4000030C3000030BF
:104D0400C2000030C1003830860001308700AF3067
:104D14008400003085000630A00016001A00A00BA5
:104D24008F2E00302000A3000030A2000030A1002C
:104D34001830A000210056082000A70021005508C3
:104D44002000A600210054082000A50021005308DB
:104D54002000A400AF315227A53120002008013ED5
:104D64002100CD0000302000213D2100CE00003084
:104D7400C8000030C7000030C6000030C500013054
:104D8400CF000030D000D101D2010D302000CA0084
:104D94009830CB009930CC000930CD00AC31FC24E4
:104DA400A5310D302000CA009830CB000030CC0073
:104DB400CD00AC31FC24A53129302100A20096306D
:104DC400A100A630A000A00BE52EA10BE52EA20B9E
:104DD400E52EA2311122A53156302100DB0000302E
:104DE400DC00E101E2016208803AA0005C08803A3C
:104DF4002002031DFF2E5B0861020318662F2100A9
:104E04006208A1006108A000A035A10DA035A10D84
:104E14002008013EA2000030213DA3007430220787
:104E240084008030233D85000008A400240820006D
:104E3400CA0021006208A6006108A500A535A60DD8
:104E4400A535A60D2508023EA7000030263DA80082
:104E54007430270784008030283D85000008A900AD
:104E640029082000CB0021006208AB006108AA00D9
:104E7400AA35AB0DAA35AB0D2A08033EAC000030B1
:104E84002B3DAD0074302C07840080302D3D85000F
:104E94000008AE002E082000CC0021006208850026
:104EA400610884008435850D8435850D743084074C
:104EB4008030853D0008AD312825A5310130210021
:104EC400E1070030E23DF52E29302100A2009630A2
:104ED400A100A630A000A00B6D2FA10B6D2FA20B7B
:104EE4006D2F0D302000CA009830CB007730CC00F5
:104EF4000730CD00AC31FC24A5310D302000CA00B0
:104F04009830CB000030CC00CD00AC31FC24A5316E
:104F140029302100A2009630A100A630A000A00BE9
:104F2400912FA10B912FA20B912FAB31BF23A53150
:104F340022000E11C82F3B3086002730870001085D
:104F44002100A00020082000CA003C308600273041
:104F5400870001082100A10021082000CB003D307A
:104F640086002730870001082100A20022082000C3
:104F7400CC003A308600273087000108AD3128255F
:104F8400A5313E3086002730870081013E308600FF
:104F9400273087000230010603199D2F3E3086001A
:104FA400273087000103031DC82F3B3086002730BC
:104FB400870001082100A00020082000D2003A3018
:104FC4008600273087000108AD31F225A531200085
:104FD40053082100DE00200052082100DD005E0895
:104FE400A0003C30860027308700200881003D3037
:104FF4008600273087005D088100C32FA431632C0D
:10500400A4318F2CA431E32CA531102DA531812D91
:10501400A531452DA5315A2DA531812DA531612DFF
:0C502400A531852DA431972CA431BA2CA5
:10571000103027009A000800AA30220097000800E5
:1057200000349F340D349834143498343200990185
:105730009B019D0107309F009E010800F53021006C
:105740009D0020309E009F019B019C010800640089
:10575000800101310130FE020030FF3B7F087E04F2
:1057600003190034A82BFE0012001E000130FE02B7
:105770000030FF3B7F087E0403190034B42B6130F6
:105780002000DD008030DE000130DF000030E0006E
:105790000E30E1000030E2000130E3000030E400B0
:1057A000AD3156250800F10024001E157908023E8F
:1057B0008600870101080319E82B7108F0007908B9
:1057C000023E86008701010886008701700881007B
:1057D0002000EE010800AF31A527AB31AB31962395
:1057E000AB3198310220AB31AC310324AB31AB315A
:1057F0008C23AB31AB319E23AB31AB318823AB3142
:10580000A03100200800EC302000A000200821007A
:10581000E400EC302000A00020082100E300E514A3
:105820006510E70124009C0128309D009F017F3016
:105830009A002000921121009215080020002108F2
:10584000A4002008A3002308840024088500120077
:1058500003190800111E2A2C23088400240885003F
:10586000000823009A0001302000A3070030A43D67
:10587000232C5530F3007308F4002000911124000C
:105880001108F3007308F400141D4D2C941A161F10
:105890004B2C0330562C0130562C941A512C0030CE
:1058A000562C7408F3007308FD000230AE317026E8
:1058B0002400151608002000A6002308A5002208D1
:1058C000A400A435A50D2608860001308700240811
:1058D000C03F2508C13F2108A4002608023E8600DB
:1058E00001308700240881002608033E860001302D
:1058F00087002008C03F0030C13F08002100651824
:105900009F2C20002908A1002808A0002A08AE002A
:105910002E08A2002C08A4002B08A3002E30AC31C6
:10592000D024AC312E302000AE002E08A0002D086F
:10593000AF002F08A1000130AF3100270800200080
:105940002D08860087018101810A08002000AD0032
:1059500021006518C92C20002D08AB002B08A000E1
:105960002708AC002C08A1002908A3002808A200E1
:105970003330AC315B24AC3133302000AB002B082A
:10598000A0002A08AC002C08A1000130AF3100278C
:10599000080020002A08860087018101810A08008A
:1059A0002000A7002408A6002308A500A535A60D01
:1059B00027088600013087002508C03F2608C13F20
:1059C0002708860001308700013081044131003012
:1059D00081042208A5002708023E860001308700C6
:1059E000250881002708033E860001308700200833
:1059F000C03F2108C13F0800210069082000D300F2
:105A0000210068082000D20022002D082000D100CB
:105A100022002C082000D0004B08CE004E08D000F9
:105A20004A08CE004E08D1004D08CE004E08D200E4
:105A30004C08CE004E08D3005230CE004E08AE00C7
:105A40000230CF004F08AF005030A0310B200800CB
:105A50002000CF00220025082000D30022002408C7
:105A60002000D200220027082000D10022002608B2
:105A70002000D0004F08CD004D08D0004A08CD00CE
:105A80004D08D1004B08CD004D08D2004C08CD0088
:105A90004D08D3005230CD004D08AE000230CE008C
:105AA0004E08AF005030A0310B20080020005E08E7
:105AB000D3005D08D200AD31B825AD3120005308C8
:105AC000E6005208E5006608A1006508A00060082D
:105AD000A3005F08A2006208A5006108A400640892
:105AE000A7006308A600AD318625AD31200021084E
:105AF000E6002008E5005E08CB005D08CA006608E5
:105B0000CD006508CC00AC31FC2408000130200039
:105B1000A8000030A900260A8F2DA835A90D890BF1
:105B20008D2D2808FF3EAA00FF30293DAB002B0831
:105B3000A9002A08A800240A9F2DA835A90D890BC1
:105B40009D2DA809A9092808A0052908A1052A084A
:105B50002205A8002B082305A900240AB12DA83589
:105B6000A90D890BAF2D2808A0042908A10408005D
:105B7000220029082000DA00220028082000D9008D
:105B800022002B082000D80022002A082000D7007D
:105B90005308D4005408D7005208D4005408D80041
:105BA0005930D4005408CA000230D5005508CB0043
:105BB0005730AE312E2620005908D400D5015408A4
:105BC000D500D4015408DB005508DC005A085B07F7
:105BD000DB005C0803185C0ADC005C08D3005B088F
:105BE000D20008002000D700220021082000DB009E
:105BF000220020082000DA00220023082000D9001B
:105C0000220022082000D8005708D4005408D800E9
:105C10005208D4005408D9005A30D4005408CA009D
:105C20000230D5005508CB005830AE312E2620006A
:105C30005A08D400D5015408D500D4015408DC001A
:105C40005508DD005B085C07DC005D0803185D0A91
:105C5000DD005D08D3005C08D20008002000D00001
:105C60004B08CC004C08AE0050089731A427AE3149
:105C700020002F08CF002E08CE004E034F0403193A
:105C800008000230CC004C08D100EF015103031989
:105C900008004A08A8000030A9000230CC004C08D7
:105CA000AA001030AB000030AC005130CD004D08E0
:105CB000AD00AC317E24AE31023020005106031914
:105CC0005C2E5108031908005103031908006430C1
:105CD0006F06031908000130CC004C08EF07462E70
:105CE000F200A72E2000EC01EC0A08007D08F0006D
:105CF0007008EB00952E6B08F03EF000F1012630A5
:105D0000F13D70088600710887007D088100013030
:105D1000F0007008EB07952E20006C08003A03197C
:105D20007B2E013A0319762E7B2EEC010800200011
:105D30006B08F03E860087012630873D010824006D
:105D400091000130F00070082000EB070800720895
:105D5000003A0319722E013A0319972E033A0319D8
:105D60008C2E013A0319B52EB52E08000030200004
:105D7000AB000030AA000030A9000030A800AC0140
:105D8000AD012D08803AA40080302402031DCA2EE4
:105D900004302C020318F62E08302000A835A90D77
:105DA000AA0DAB0D890BCD2E20082C0784002108ED
:105DB0002D3D85000008A400A501A601A701240827
:105DC000A8042508A9042608AA042708AB04013062
:105DD000AC070030AD3D2D08803AA400803024028D
:105DE000031DF42E04302C02031CCC2E20002B08A3
:105DF000A3002A08A2002908A1002808A000080082
:105E00002000A300210065183F2F02302000A200CF
:105E1000210886008701220881002008A2002100B5
:105E2000630A860087012000220881002308A2005F
:105E300021006308860087012000220881002108D4
:105E4000A20021006308023E86008701200022088C
:105E500081000330A20022082100E3076308EF3A23
:105E6000031D382FEC302000A20022082100E3009F
:105E7000E51064086306031D452F6514452F2000B7
:105E80002108860087018101810A200021088600FF
:105E9000870102300106031D08006E08031D4D2F07
:105EA0009215080000302000AC000030AB0000303C
:105EB000AA000030A90023082204210420040319A9
:105EC0009C2FAD01AD0AA31B712F0130A035A10D90
:105ED000A20DA30D890B662F0130A8002808AD077D
:105EE000632F0130A935AA0DAB0DAC0D890B722FB4
:105EF00023082702031D862F22082602031D862F52
:105F000021082502031D862F20082402031C912F3F
:105F10002008A4022108A53B2208A63B2308A73B92
:105F200029140130A336A20CA10CA00C890B922FCE
:105F30000130AD02031D712F2C08A3002B08A20015
:105F40002A08A1002908A000080022008D018C0168
:105F50008E0124008C018D018E01373023008C00CE
:105F60008D01FF308E00F03021008D0027308E0033
:105F700027308C0025008E0100308B1B0130200063
:105F8000A0008B1355303C008F00AA308F000F10FB
:105F90002108E0390C38A1002008E0390E38A000B3
:105FA0003D001408E0391E3894001C08E039193807
:105FB0009C002408E0391438A4001F08E0391A387E
:105FC0009F001E08E03918389E003C001E08E0398A
:105FD0000D389E001D08E0390F389D003D001D085A
:105FE000E0391B389D0055303C008F00AA308F00EF
:105FF0000F142000201CFE2F8B1708008B130800A5
:020000040001F9
:08000E008CFF33FFFFFFFFFF31
:00000001FF
